:020000040001F9
:10400000B0330020E1410100F3410100F54101001E
:1040100000000000000000000000000000000000A0
:10402000000000000000000000000000F741010057
:104030000000000000000000F9410100FB41010008
:10404000FD410100FD41010009480100FD41010061
:10405000FD41010000000000FD410100FD410100A3
:10406000FD410100FD410100FD410100FD41010054
:10407000FD410100FD410100FD410100FD41010044
:10408000FD41010079600100FD410100FD41010099
:104090009B600100FD41010045570100FD41010009
:1040A000FD410100FD410100000000000000000092
:1040B0000000000000000000000000000000000000
:1040C00000F002F800F040F80CA030C808382418BE
:1040D0002D18A246671EAB4654465D46AC4201D140
:1040E00000F032F87E460F3E0FCCB6460126334232
:1040F00000D0FB1AA246AB4633431847FC2300000E
:104100001C240000103A02D378C878C1FAD85207AC
:1041100001D330C830C101D504680C60704700007D
:104120000023002400250026103A01D378C1FBD8D3
:10413000520700D330C100D50B6070471FB5C04691
:10414000C0461FBD10B510BD02F09AF91146FFF729
:10415000F5FF00F08AFB02F0B2F903B4FFF7F2FFBB
:1041600003BC02F0B7F90000401E00BF00BF00BF53
:1041700000BF00BF00BF00BF00BF00BF00BF00BF47
:1041800000BFF1D170470000401E00BF00BF00BF5C
:1041900000BF00BF00BF00BF00BF00BF00BF00BF27
:1041A00000BFF1D17047000070B505460C461646B9
:1041B00002E00FCC0FC5103E102EFAD2082E02D30B
:1041C00003CC03C5083E042E07D301CC01C5361F1E
:1041D00003E021782970641C6D1C761EF9D270BD35
:1041E0000A48026803210A430260094880470948D7
:1041F0000047FEE7FEE7FEE7FEE7FEE7FEE700001A
:1042000005480649064A074B704700002405004050
:10421000BF420100C1400100B0230020B0330020A4
:10422000B02B0020B02B00202E482F49086070478B
:104230002E48008CC0B2012810D12C48808C000779
:10424000000F0BD12948806AF0210840402805D191
:104250002648C06A084201D1012070470020FCE7CF
:104260002248008CC0B2012827D12048808C00074A
:10427000000F22D11D48806AF021084205D11B4859
:10428000C06A084201D1012070471848806AF021B5
:104290000840102805D11548C06A084201D1012004
:1042A000F2E71248806AF0210840302805D10F4813
:1042B000C06A084201D10120E6E70020E4E710B51A
:1042C000FFF7CEFF002805D009480A494860C81307
:1042D00009498861FFF7ACFF002802D00120074997
:1042E000886010BD0024F40000200020C00F00F002
:1042F000DFFF07C000050040006C004000060040E2
:1043000030B513048C0023430524240707252D0210
:1043100064198500635130BD00BFBFF34F8FF7486C
:10432000F749C860BFF34F8F00BF00BFFEE70346E9
:104330000C4622461946F348FFF7EEFF10B512204F
:1043400000F0E7FA132000F0E4FA10BD38B500BF22
:104350000020ED4B05220221009001F0A2FE044650
:1043600000BF2346002B05D000BFE8A28E211846CF
:10437000FFF7D2FF00BF00BF38BD3EB500BF6846A3
:10438000007801090901491C009168460078F02174
:1043900088431030009000BF0B22DFA168467CDF0D
:1043A000044600BF2346002B05D000BFD7A2A221A0
:1043B0001846FFF7B1FF00BF0020019002901021C6
:1043C000684681803C21C18000210181FF2191311B
:1043D000418101A87ADF044600BF2346002B05D0A7
:1043E00000BFCAA2AC211846FFF796FF00BF3EBD32
:1043F00010B5A0B005210191CA4800680090CA48D4
:104400000178684681703C2111A802F034F802203E
:104410001190002110A841720121818101A91491FC
:104420003C2102A802F027F80121684681846946F0
:104430000A9102A911A800F015FF044600BF234607
:10444000002B05D000BFB1A2C9211846FFF764FFB9
:1044500000BF20B010BDF8B507460D461646002433
:1044600003E0285D01F0DDF9641CB442F9DB0A20A9
:1044700001F0D7F9F8BD38B500200090AB480090A6
:104480006946A94800F0C7FB044600BF2346002B3D
:1044900005D000BF9DA2EA211846FFF73DFF00BFEF
:1044A00038BD1E20A2490880084680784008400098
:1044B000401C887008468078022188439C49887097
:1044C000084680781C2188430C309949887008463A
:1044D000807820218843964988700720C870102072
:1044E0000871704770B505462868002810D13B2137
:1044F0009048008876DF044600BF2346002B06D094
:1045000000BF82A2FF210F311846FFF705FF00BF51
:1045100070BD034600BF7DA2FF211A311846FFF788
:10452000FBFE10B588B01C2101A801F0A4FF0020FB
:1045300001900520400402908010039003216846FA
:1045400001740021418201757B4806907B480790E9
:1045500001A800F022FF044600BF2346002B06D02E
:1045600000BF6AA2FF2131311846FFF7D5FE00BF18
:1045700008B010BD10B586B0142101A801F07BFF72
:1045800000216846017100200290684601734021B5
:104590008182B421C18201A873DF044600BF234693
:1045A000002B06D000BF59A2FF2146311846FFF765
:1045B000B3FE00BF122000F0B5F906B010BD70B513
:1045C0000546288814284ED006DC10280BD0112868
:1045D00013D0132872D11AE017283ED019286FD0B3
:1045E0005228F7D126E0132000F09CF9122000F0A9
:1045F0009EF9A8884F4908807DE0132000F097F9C4
:104600000020C0434B490880FFF7B4FF73E0484ADD
:104610000021484800887FDF044600BF2346002B66
:1046200006D000BF39A2FF216B311846FFF774FE98
:1046300000BF60E0002211463E480088A9DF044622
:1046400000BF2346002B06D000BF30A2FF217031EF
:104650001846FFF761FE00BF4DE03222A91D384821
:1046600001F0AAFE47E0364EB61D3188E889814246
:1046700011D1002231462F48008881DF044600BF57
:104680002346002B06D000BF20A2FF217C31184614
:10469000FFF742FE11E0002211462648008881DF24
:1046A000044600BF2346002B06D000BF17A2FF21FF
:1046B00082311846FFF730FE00BF1CE01AE0FFE72A
:1046C000A879002815D1122000F031F903221146F3
:1046D0001020FFF715FE31DF044600BF2346002BF4
:1046E00006D000BF09A2FF2192311846FFF714FE41
:1046F00000BF00E000BF00BF70BD00000400FA056D
:1047000000ED00E0EFBEADDE682000202E2E5C6DD7
:1047100061696E2E630000004E6F726469635F55BD
:1047200041525400E4640100182300205744010062
:104730000820002004200020E5440100134501006A
:104740008022002010B50446204600F0FAFE2146E3
:10475000794800F03DFA2046FFF731FF10BD70B5F3
:1047600000BF002350227549082000F0A4FF054631
:1047700000BF2B46002B06D000BF714AFF21B43189
:104780001846FFF7C9FD00BF00BF6E4800F0C8FF24
:10479000044600BF2346002B06D000BF684AFF2115
:1047A000B8311846FFF7B8FD00BF70BD10B5032241
:1047B00011461020FFF7A4FD10BD10B53DDF0446E3
:1047C00000BF2346002B06D000BF5D4AFF21CA313F
:1047D0001846FFF7A1FD00BF10BD08B500200B2350
:1047E0000A2209210090082001F036F804205649D9
:1047F00048600321022000F055F802200121814089
:10480000524A116000BF08BD10B500F0DFFF5049EB
:10481000504A127888544F480078401C4D4908701F
:1048200008460078401E4A49085C0A2803D04948D7
:104830000078132818DB47480278521C44493E4848
:1048400000F029FA0446082C0BD000BF2346002BA9
:1048500006D000BF3A4AFF21F3311846FFF75CFD4E
:1048600000BF00203B49087010BDFFF767FDFFF750
:104870006DFDFFF79BFFFFF7B0FFFFF770FFFFF73E
:104880007CFDFFF7F8FDFFF7B3FDFFF74AFEFFF7EA
:1048900008FE31A000F0D0FFFFF76CFE00BFFFF76D
:1048A0008CFFFCE710B5002819DA2E4A03071B0F0E
:1048B000083B9B089B00D2588307DC0EFF23A340D4
:1048C0009A438B071B0E8407E40EA3401A43254B23
:1048D0000407240F083CA408A4001A5118E01B4A3E
:1048E00003231B02D21883089B00D2588307DC0ED7
:1048F000FF23A3409A438B071B0E8407E40EA340BB
:104900001A43124B032424021B198408A4001A51D1
:1049100010BD01210522120707231B02D2188300B4
:10492000D1507047012181400F4A916070470121A9
:1049300081400D4AD160704718230020B422002026
:104940000C470100454701000023004000E100E062
:10495000042300200620002053746172742E2E2E32
:104960000A0000001CED00E0000500508A888282E9
:1049700070470022D2438282704770B504460E46CB
:10498000B51D2988208A814213D1288B022810D195
:1049900000BF00BFA97EEA7E120211430846C1078C
:1049A000C90F002902D00120A0750FE00020A075DA
:1049B0000CE02888A188884208D1A069002805D089
:1049C0002A8B29461A312046A369984770BD30B515
:1049D0008FB004460D460020079000BF6846007F58
:1049E00001090901491C68460177007FF0218843CD
:1049F00010306946087700BF00BF6846407F010954
:104A00000901491C68464177407FF02188431030F6
:104A10006946487700BF6846807F06218843811C2D
:104A2000684681771C2108A801F025FD08A80078B8
:104A300010218843411808A80170002009900B90AC
:104A40000C9007A80D9000200E9021786846817187
:104A5000032181800020009000BF68460078010992
:104A60000901491C684601700078F0218843103024
:104A70006946087000BF00BF684640780109090117
:104A8000491C684641704078F021884310306946DF
:104A9000487000BF6846807806218843811C6846BC
:104AA000817080780821884301466846817080784B
:104AB000102188430146684681708078410849008A
:104AC000491C68468170142102A801F0D4FC01A899
:104AD0000290684603900121018200214182142145
:104AE0008182608823460C3302AA08A9A2DF0FB096
:104AF00030BD30B58FB004460D461C2108A801F02A
:104B0000BAFC08A8007808218843411808A8017059
:104B1000007804218843011D08A801700020099035
:104B20000B900C900D900E902178684681720221B6
:104B300001810020019000BF684600790109090148
:104B4000491C684601710079F0218843103069469C
:104B5000087100BF00BF6846407901090901491C7E
:104B6000684641714079F0218843103069464871A8
:104B700000BF6846807906218843811C68468171A0
:104B80008079082188430146684681718079102127
:104B90008843014668468171807941084900491C73
:104BA00068468171142103A801F065FC02A80390F6
:104BB00001A804900121684681820021C18214214C
:104BC00001836088231D03AA08A9A2DF0FB030BDAE
:104BD00070B505460C46002D01D0002C00D170BDEB
:104BE0002088102804D0112807D050280FD109E0C0
:104BF00021462846FFF7BAFE0AE021462846FFF77D
:104C0000B8FE05E021462846FFF7B7FE00E000BFEA
:104C100000BF00BFE3E770B586B004460E46334BD5
:104C20000FCB01AD0FC5002C01D0002E02D10E20FC
:104C300006B070BD0020C043A0823068A061002093
:104C4000A075214601A862DF0546002D01D0284647
:104C5000EEE721786846817501218182A21C05A9B1
:104C60000120A0DF0546002D01D02846E0E73146AF
:104C70002046FFF7ACFE0546002D01D02846D7E7B9
:104C800031462046FFF735FF0546002D01D0284666
:104C9000CEE70020CCE737B584B004460D46002CA3
:104CA00002D10E2007B030BDA08A1149884202D03F
:104CB000A07D002801D10820F4E76846008B142865
:104CC00001DD0720EEE700200090019002900390A4
:104CD000A18968460180039506A8029001216846D3
:104CE0008170A08A6946A6DFDCE70000E864010065
:104CF000FFFF0000F7B584B004460F46069806781B
:104D0000B01C1F2803DC2079801C1F2802DD0C202A
:104D100007B0F0BD1F20801B801E85B20295B11C1C
:104D2000781802A97DDF03900398002801D003982A
:104D3000EEE72068022808D168460089A84204DC12
:104D400009200190684605890BE008200190207930
:104D5000002804D02079A84201DC257901E06846CA
:104D60000589681CC2B23046711CCEB23A54304636
:104D7000721CD6B20199395406980178A81C0818FB
:104D8000C1B2069801700020C2E7F8B505460C468E
:104D90002078001D1F2801DD0C20F8BD684679DF52
:104DA0000646002E01D03046F7E703212278501C3A
:104DB0002070A95419212278501C2070A954207801
:104DC00041196846008800F08AFA2178401820705E
:104DD0000020E2E7F8B505460F4616461C4668680F
:104DE000002801D10720F8BD2078801C29884018B0
:104DF0001F2801DD0C20F6E72878401CC1B222787C
:104E0000501C2070B1542178481C207077542A8897
:104E100023789819696801F0CFFA2078297840182A
:104E200020700020DFE730B503461078C01C1F2833
:104E300001DD0C2030BD02241578681C10704C5523
:104E40000A241578681C10704C551578681C107071
:104E50004B550020EEE7FFB587B006461D46109C77
:104E60000020069020780590002747E0B900706880
:104E700041180A886846028149884181002203A9B5
:104E800002A864DF04900498002802D004980BB0B4
:104E9000F0BD6846017B099881422ED10698002812
:104EA00001D0002000E00220019020786946097BB3
:104EB0004118019808181F2801DD0C20E7E7069823
:104EC000002809D12078401C20702278511C0898B5
:104ED0002170A854012006902078421903A902A845
:104EE00064DF04900498002801D00498CFE720786C
:104EF0006946097B4018207000BF7F1C3088B8428B
:104F0000B4DC0698002806D021780598401C081AC1
:104F1000C1B2059829540020B9E7FFB581B0074612
:104F200015460A9E009602223846049B0299FFF716
:104F300092FF0446002C02D0204605B0F0BD00963A
:104F4000102229463846049BFFF785FF0446002CB3
:104F500001D02046F1E70020EFE701460888062847
:104F600008DB08881922D201904205DD0888E04A52
:104F7000904201D0072070474888062808DB4888FF
:104F80001922D201904205DD4888D94A904201D0C9
:104F90000720F0E70888D64A904208D04888904217
:104FA00005D008884A88904201DD0720E3E7002009
:104FB000E1E7F8B506460D4614462078801D1F2807
:104FC00001D90C20F8BD3046FFF7C7FF0746002F78
:104FD00001D03846F6E705212278501C2070A954EC
:104FE00012212278501C2070A9542278511930883F
:104FF00000F075F9217840182070227851197088D6
:1050000000F06DF92178401820700020DAE7F8B53B
:1050100005460E4614462879801CC7B22078801CAD
:10502000C0191F2801DD0C20F8BD781CC1B2227800
:10503000501C2070B154FF212278501C2070B154B4
:1050400022789119288800F04AF9217840182070B8
:10505000A88800280EDDA868002801D10720E3E712
:10506000AA8823789819A96801F0A6F920782979E7
:10507000401820700020D7E7FEB507460E461446BC
:10508000786B002801D10720FEBD0020019032E09E
:10509000796B0C22019850430D182879801CC0B2FE
:1050A00000900098401CC1B22278501C2070B1546E
:1050B00016212278501C2070B1542278911928882A
:1050C00000F00DF9217840182070A88800280EDD26
:1050D000A868002801D10720D6E7AA882378981964
:1050E000A96801F069F920782979401820700198A1
:1050F000401CC0B201903820C15D01988142C7DCDC
:105100000020C1E7F8B504460F46164600250020EA
:1051100030702068002809D0324639462046FFF713
:10512000E9FD0546002D01D02846F8BD607900282C
:1051300008D031463846FFF728FE0546002D01D03D
:105140002846F2E7208900280BDD33463A46012144
:1051500020460830FFF73EFE0546002D01D02846C8
:10516000E3E7206900280BD0002021690856324669
:105170003946FFF758FE0546002D01D02846D4E7F2
:10518000A08A00280CDD3B4606220221204614306E
:105190000096FFF7C2FE0546002D01D02846C4E761
:1051A000A08B00280CDD3B460722032120461C3043
:1051B0000096FFF7B2FE0546002D01D02846B4E761
:1051C000A08C00280CDD3B461522142120462430FB
:1051D0000096FFF7A2FE0546002D01D02846A4E761
:1051E000E06A002809D032463946E06AFFF7E1FE5E
:1051F0000546002D01D0284697E7206B002809D0EE
:1052000032463946206BFFF702FF0546002D01D0DC
:1052100028468AE73820005D002809DD32463946F5
:105220002046FFF729FF0546002D01D028467CE7E0
:1052300028467AE701460889002807D0C868002870
:1052400004D0C86800780422104201D107207047BA
:105250000020FCE701460889002801DD072070478F
:105260000020FCE7F3B593B00D4600211291119197
:105270001398002814D01398FFF7DCFF0446002C85
:1052800002D0204615B0F0BD12AA09A91398FFF765
:1052900039FF0446002C01D02046F3E709AE00E0B8
:1052A0000026002D13D02846FFF7D4FF0446002C1B
:1052B00001D02046E6E711AA01A92846FFF722FF00
:1052C0000446002C01D02046DCE701AF00E00027B7
:1052D00010A803793A46017A304672DFD2E70246D7
:1052E0000A70FF2000021040001248700220704730
:1052F000FFFF000001464888B74A1288904206DB4B
:105300004888B54A5288904201DC0120704700204D
:10531000FCE738B50546B1480088B14988423BD022
:10532000B0480078401CAF490870AF48007B09784E
:1053300088420FDBA849A948008875DF0446002C85
:1053400007D0A9488069002803D0A7488169204672
:10535000884721E00020A3490870A348007C00286A
:105360000FD03B219D48008876DF0446002C07D0F3
:105370009D488069002803D09B4881692046884762
:1053800000BF99484069002806D000200090964848
:1053900041696846884700BF38BD70B505461C2284
:1053A00029469148FEF700FF0020904908702868C0
:1053B00000280BD008228848296800F0FDFF8648A5
:1053C0007ADF0446002C08D0204670BD82487BDF7F
:1053D0000446002C01D02046F7E70020C0437F4957
:1053E000088000207F490870814A0021814800F030
:1053F000D7FEEAE710B57F48006800F049FF10BD0E
:1054000038B57D48FFF776FF002829D17748007826
:1054100000280AD074484069002820D0002000905D
:10542000714841696846884719E06E48007800284D
:1054300002D16D48456801E06B4885680022294625
:105440006C48006800F0F3FE0446002C07D0664864
:105450008069002803D064488169204688470AE0B3
:1054600061484069002806D0012000905E484169EB
:105470006846884700BF00205C49087038BD10B5F9
:105480000446A08855490880082221460E315A4812
:1054900000F092FF0020534908705348C08900284B
:1054A00001D1FFF7ADFF10BD70B505460020C04328
:1054B0004A49088000204B4908704E48006800F0B7
:1054C000E7FE0446002C07D047488069002803D037
:1054D000454881692046884770BD70B50546AC1DBA
:1054E00020884149C989884220D1208B02281DD1BA
:1054F00000BF00BFA17EE27E120211430846C10731
:10550000C90F002902D0FFF77BFF0FE03948006880
:1055100000F0BEFE0646002E07D033488069002802
:1055200003D0314881693046884700BF70BD10B54F
:1055300004460822A11D304800F03EFFFFF760FF3F
:1055400010BD10B504462088102806D0112808D0B8
:1055500012280ED0502810D107E02046FFF78FFF09
:105560000CE02046FFF7A0FF08E02046FFF7B5FF5C
:1055700004E02046FFF7DBFF00E000BF00BF10BDE6
:1055800038B5044608222146134800F015FF12489A
:105590007ADF0546002D1CD11748FFF7ABFE002827
:1055A0000BD10120114908700B490C48008875DFA8
:1055B000054601200B4908700BE00B4840690028A4
:1055C00006D001200090084841696846884700BF1E
:1055D0000025284638BD0000122000201C20002095
:1055E000FFFF00001A20002034230020102000209C
:1055F00013530100282000201E20002070B506460D
:105600000C46154629462046FEF791FE70BDF8B5BA
:1056100059480078002800D1F8BD58480068002893
:1056200001D1012000E0002005465548006800280F
:1056300001D1012000E00020064600BF002D14D15A
:1056400068464EDF0446052C01D101250CE0002CF4
:1056500006D000BF4BA269212046FEF75DFE03E0A5
:10566000464900980968884700BF002E1AD1534860
:105670000088009069465248006860DF0446052CA7
:1056800001D101260DE0002C06D000BF3DA28021F3
:105690002046FEF741FE04E04948006838490968A1
:1056A000884700BF002D02D0002E00D000E0C5E7E3
:1056B00000BF00BFB0E7FFB581B00C4616461F46DD
:1056C000002C02D1072005B0F0BD20468107890FCC
:1056D00001D1012100E00021002901D10720F2E7DA
:1056E00037480460354806803648076036490198D7
:1056F00010DF0546002D01D02846E4E701201E49B1
:105700000870162023DFDEE710B511DF0446002CF9
:1057100001D0012000E0002017490870204610BD8C
:105720000146002901D10E20704715480160002074
:10573000FAE70146002901D10E2070470F480160A9
:105740000020FAE770B51F480068002811D01D48F6
:1057500000688047044600BF2546002D07D000BFE3
:1057600008A2FF2133312846FEF7D6FD00BF00BF57
:1057700001E0FFF74CFF70BD2C20002040200020EE
:105780003C2000202E2E5C2E2E5C2E2E5C2E2E5CBD
:105790002E2E5C2E2E5C536F757263655C73645F96
:1057A000636F6D6D6F6E5C736F667464657669634D
:1057B000655F68616E646C65722E6300382000203E
:1057C0003420002030200020FD55010000BF424859
:1057D00080680128FBD100203F4988603F488069EC
:1057E000C0B2704770B504460D4601260AE0204657
:1057F000641E002804DB7D20C000FEF7B5FC01E03C
:10580000002603E0344880680128F0D100BF002C56
:1058100005DB0020304988603048806928703046B8
:1058200070BD2E49C86100BF2B49C9690129FBD150
:105830000021294AD161704730B50346002528462A
:105840006D1C1C5C05E02046FFF7EBFF28466D1C35
:105850001C5C002CF7D130BDF8B507460C46154648
:105860001E46204600F025F80021304600F02AF8B8
:105870001A48C4604661069800280DD0384600F0EA
:1058800018F80021284600F01DF8144805618760CB
:10589000012012494031C862114810494862042071
:1058A000086001200F498860086000200A4988606C
:1058B000F8BD01210522120707231B02D21883001D
:1058C000D150704710B58A0005231B070724240216
:1058D0001B1984001A5110BD002100400025004012
:1058E00000509D000020004010B5002819DAFE4A43
:1058F00003071B0F083B9B089B00D2588307DC0E55
:10590000FF23A3409A438B071B0E8407E40EA3409A
:105910001A43F54B0407240F083CA408A4001A51AD
:1059200018E0F24A03231B02D21883089B00D258C6
:105930008307DC0EFF23A3409A438B071B0E8407CB
:10594000E40EA3401A43E94B032424021B198408E4
:10595000A4001A5110BD10B50446E5488460032127
:105960001120FFF7C1FF10BD10B501200004E1496F
:105970004860E04940394860112000F0D4FC112013
:1059800000F0C3FC0120DC4908602F20FEF7FCFB7F
:1059900010BD10B5112001218140D44A8032116020
:1059A00000BF01200004D3498860D2494039886093
:1059B0000120D14948602F20FEF7E6FB10BDF0B56D
:1059C000024628205043CD4B1B68C118CC480068C4
:1059D000401C02D1CA48026057E0C9488B68006881
:1059E00028246043C54C246800198068834217D876
:1059F000C348006828235843C04B1B68C018806800
:105A00008B68C31ABE48006828246043BB4C2468D6
:105A100000198360BA4800684862B948026034E0FF
:105A20008B68B74D2C6828680DE028254543B34E98
:105A30003668AD19AD685B1B044628254543AF4E5B
:105A40003668AD19686A451C07D028254543AB4E1A
:105A50003668AD19AD689D42E7D3451C0CD02825AA
:105A60004543A64E3668AD19AD68EE1A2825454364
:105A7000A24F3F68ED19AE608B60486228256543F0
:105A80009E4E3668AD196A6200BFF0BD70B5024621
:105A90009B4C2168084609E0904200D108E001468D
:105AA00028244443954D2D686419606A441CF3D141
:105AB00000BF441C00D170BD814209D1904C2468C4
:105AC00028256C438D4D2D686419646A8C4D2C60BB
:105AD00028244443894D2D686419A368282444432D
:105AE000864D2D686419656A28244C43834E3668B8
:105AF000A419656228244C43804D2D686419606A9E
:105B0000441C0CD0282444437C4D2D686419A4689F
:105B1000E51828244443794E3668A419A56000BFCF
:105B2000C9E710B5112000F0F7FB10BD10B5142027
:105B300000F0F2FB10BD70B5044672480068002802
:105B400013D0704A216AE06912689047054600BF89
:105B50002E46002E07D000BF6BA2FF2155313046E4
:105B6000FEF7DAFB00BF00BF02E0E169206A884768
:105B700070BDF8B562480068401C39D0002700F0BD
:105B800004FC04466C480168204600F001FC06460F
:105B90005B48056811E028206843584909684418A3
:105BA000A068B04200D90AE0A068361AA068C719F8
:105BB000656A2046FFF7BFFF00BF681CEBD100BF3E
:105BC0005E4800785E490978884209D15C480078CF
:105BD000401CC0B25A490870022801D10020087048
:105BE00057480078800057490F50FFF79FFF00BFCC
:105BF000F8BD014651480078514A127890421DD0B4
:105C00004E480078401C4D4A10701046007802281B
:105C100001D100201070494800788000494A10588E
:105C20000860454A086812688018434A10601046A8
:105C300000680002000A1060012070470020086020
:105C400000BFFAE7FEB52E48006801903E48007894
:105C500000903FE00098C0003C490968441825784E
:105C600034E01820684361680F18681CC5B2A0783A
:105C7000A84200D100253868022802D0032822D18A
:105C80000EE02821786848431C4909684618307E90
:105C9000002804D07868FFF7F9FE0020307613E082
:105CA0000CE01749096828225143144A12688818E1
:105CB00000210176124A416A116000BF1048006855
:105CC000401CEED100E000BF00BF00BF6078A842DA
:105CD000C7D100BF0098411EC9B200910028B9D1B8
:105CE00007480168019833E01CED00E000E100E0A6
:105CF00000150140401301400010014044200020E5
:105D000050200020642000202E2E5C2E2E5C2E2E93
:105D10005C2E2E5C2E2E5C2E2E5C536F757263658E
:105D20005C6170705F636F6D6D6F6E5C6170705FF2
:105D300074696D65722E630054200020602000207D
:105D40006120002058200020492000204C20002005
:105D5000814201D00120FEBD0020FCE7F0B50346E2
:105D6000002426E0FE4E366828277E43FD4F3F681C
:105D7000F01986689E4203D98668F61A86601CE090
:105D800086689B1B86683419002686600676F44E6A
:105D90003568F34F466A3E604669002E08D00E19FA
:105DA0003602360AC66046690661166846621560A4
:105DB00000BFEB480068401CD4D100BFF0BDFEB569
:105DC0000746E74800680290E7480078019069E0DC
:105DD0000198C000E549096845185CE0781C07D0C7
:105DE0003E4628207043DF4909684418676A23E06B
:105DF0002978182359436A6850182978491C297052
:105E00002978AA78914201D1002129704668282179
:105E10007143D44A12688C180168012902D1217E8D
:105E2000002900D037E08168E160C1682161016923
:105E300061614169216200BFCD49E0680968401A8B
:105E40000002000ACB49884208D2C949E0680968C3
:105E500000F09EFA21694018A06011E0C448E16892
:105E6000006800F095FA009021690098814204D9F9
:105E700021690098081AA06001E00020A06000BF1E
:105E80000020E060206101202076801E60623046A4
:105E9000FFF795FD00BF781CA0D12878697888426B
:105EA0009CD100BF0198411EC9B2019100288FD139
:105EB000AB4801680298814201D00120FEBD00205C
:105EC000FCE7FEB50546A6480068401C34D0A4484F
:105ED000006828214843A34909684018866800F0F3
:105EE00054FA0290A24804682146029800F050FA41
:105EF000C01C0190681C01D1FFF736FD0198B0422B
:105F000001D2304600E0019804192402240A2046F8
:105F10009949086000BF00F038FA00900299009893
:105F200000F036FAC71C2046029900F031FA874289
:105F300001D9FFF7F6FD01E0FFF72BFDFEBDFEB531
:105F40000020C04301908A48046885480768684675
:105F5000FFF74FFE0546FFF775FE0646002D05D0FC
:105F600001AA21460098FFF7F9FE01260198FFF7E4
:105F700026FF002800D00126002E02D03846FFF769
:105F8000A0FFFEBD4170704770B502460B465078C9
:105F9000411C9078884200D100211078884201D1BC
:105FA000002070BD196050781826704355682C1871
:105FB0002046F6E7FFB581B005460E461746E900D4
:105FC0006A4A126888186946FFF7DEFF0446002C0B
:105FD00002D1042005B0F0BD01202060666000F011
:105FE000D4F9A060E760049820610A986061E90034
:105FF0005E4A126888180099FFF7C4FFFFF796FD04
:106000000020E7E7F8B504460E46E100574A12685B
:1060100088186946FFF7B8FF0546002D01D1042016
:10602000F8BD022028606E60E100504A12688818AE
:106030000099FFF7A7FFFFF779FD0020F0E738B5DB
:106040000446E100494A126888186946FFF79CFF38
:106050000546002D01D1042038BD03202860001F13
:106060006860E100414A126888180099FFF78AFFCA
:10607000FFF75CFD0020EFE710B500203F49086006
:1060800000213E4841608160C16000203B494039A9
:1060900008604860FFF76DFD10BD10B5FFF74FFFBA
:1060A00010BDFFB581B00E4617461C46204681073D
:1060B000890F01D1012100E00021002902D1072030
:1060C00005B0F0BD002C01D10720F9E7FFF761FC16
:1060D0002B490A9808602B48067022480460002566
:1060E0000CE00021282068431E4A12681150282025
:1060F00068431C4A1268801801766D1CB542F0DBBB
:1061000028207043041903201749087017480460B9
:10611000183400250CE0E900144A126888180021A0
:106120000170417087704460182179430C196D1C0F
:10613000032DF0DB0020C04309490860002012490C
:10614000087012490870142000F0EDF803211420A3
:10615000FFF7CAFB142000F0D8F8019818E00000FF
:106160005020002044200020492000204C20002006
:1061700054200020FFFF7F004015014040110140E6
:1061800064200020482000206020002061200020A2
:10619000FFF7E1FB00F0F9F88049086000208FE785
:1061A00070B503460C467E480068002801D10820DF
:1061B00070BD002A01D10720FAE7002B01D107208A
:1061C000F6E700211CE028204843754D2D6828582B
:1061D000002814D1012528204843714E36683550D7
:1061E000282048436E4D2D684019446028204843BC
:1061F0006B4D2D684019C26119600020D8E7491C19
:10620000684800788142DEDB0420D1E710B500F059
:1062100092F8012802D0032804D101E0002403E011
:10622000012401E0022400BF00BF204610BDFEB5DE
:1062300004460D4616465A480068002801D1082039
:10624000FEBD58480078844201D2052D01D20720B6
:10625000F6E728206043524909680858012801D010
:106260000820EDE7282060434D4909684018406840
:10627000012801D1284600E000200746FFF7C6FFAD
:106280003B462A46214600960190FFF793FED7E74A
:1062900070B5044642480068002801D1082070BD4E
:1062A00040480078844201D30720F8E72820604363
:1062B0003B4909680858012801D00820EFE7FFF79B
:1062C000A5FF05462146FFF79DFEE8E710B53448D7
:1062D0000068002801D1082010BDFFF797FF044691
:1062E000FFF7ADFEF8E710B5044600F04EF8206069
:1062F000002010BD70B505460E46144631462846AE
:1063000000F046F82060002070BDC206D20E0121C8
:106310009140254A11607047C206D20E012191407A
:10632000224A11607047C206D20E012191401F4AD5
:1063300080321160704710B51D484068C105C90D15
:10634000002920D00A46103A104600280DDA184BD2
:106350001C330407240F083CA408A4001B5984071D
:10636000E40EE3401B069B0F0BE00F4B03242402BB
:106370001B198408A4001B598407E40EE3401B0684
:106380009B0FD8B210BD0420FCE70A484068704754
:106390000246501A0002000A7047000054200020F4
:1063A000442000204820002000E100E000E200E05E
:1063B00000ED00E000150140F8B5042A2CD3830756
:1063C00012D00B78491C0370401C521E83070BD05F
:1063D0000B78491C0370401C521E830704D00B78B5
:1063E000491C0370401C521E8B079B0F05D0C91A15
:1063F000DF002023DE1B08C90AE0FDF7D5FEF8BD4B
:106400001D4608C9FD401C46B4402C4310C0121F55
:10641000042AF5D2F308C91A521EF0D40B78491C8D
:106420000370401C521EEAD40B78491C0370401CB8
:10643000521EE4D409780170F8BD01E004C0091FC0
:106440000429FBD28B0701D50280801CC90700D02C
:106450000270704700290BD0C30702D00270401CA5
:10646000491E022904D3830702D50280801C891E9D
:10647000E3E70022EEE70022DFE77047704770474E
:10648000754600F023F8AE46050069465346C0083D
:10649000C000854618B020B5FDF7B2FE60BC0027ED
:1064A0004908B6460026C0C5C0C5C0C5C0C5C0C5E0
:1064B000C0C5C0C5C0C5403D49008D4670470446B3
:1064C000C046C0462046FDF748FE00000048704721
:1064D0005023002001491820ABBEFEE72600020031
:1064E00070470000010000009ECADC240EE5A9E010
:1064F00093F3A3B50000406E186501000020002052
:10650000680000000441010080650100682000204F
:1065100048130000204101000024F400FFFF0000A8
:10652000000000000000000000000000000000006B
:10653000000000000000000000000000000000005B
:10654000000000000000000000000000000000004B
:10655000000000000000000000000000000000003B
:10656000000000000000000000000000000000002B
:10657000000000000000000000000000000000001B
:04000005000140C1F5
:00000001FF
