:020000040000FA
:1000000000080020F50000000701000009010000C1
:1000100000000000000000000000000000000000E0
:100020000000000000000000000000000B010000C4
:1000300000000000000000000D0100000F010000A2
:100040001101000011010000110100001101000068
:10005000110100000000000011010000110100006A
:100060001101000011010000110100001101000048
:100070001101000011010000110100001101000038
:100080001101000011010000110100001101000028
:100090001101000011010000110100001101000018
:1000A000110100001101000000000000000000002C
:1000B0000000000000000000000000000000000040
:1000C0000348854600F02CF8004800477D020000F8
:1000D00000080020401E00BF00BF00BF00BF00BFDF
:1000E00000BF00BF00BF00BF00BF00BF00BFF1D115
:1000F00070470000074802680F210A430260064863
:10010000804706480047FEE7FEE7FEE7FEE7FEE71A
:10011000FEE700002405004045010000C10000008A
:10012000064C0125064E05E02046E36807C82B4330
:1001300098471034B442F7D3FFF7C6FFE00200003F
:10014000E002000010B500F02DF8002805D00A48A4
:100150000A494860C8130A49886100F059F8002824
:1001600009D0012005210907072212028918C86752
:10017000C0070449C86010BDDFFF07C0000500408C
:10018000006C00400005005030B47446641E2578B1
:10019000641CAB4204D3635D5B00E31830BC1847BA
:1001A0001D46F8E700B51948C06980B21D38030044
:1001B000FFF7EAFF18170D29292929290F292325D7
:1001C0002929191B1F111321291529271D29012050
:1001D00000BD0120FCE70020FAE70020F8E701203D
:1001E000F6E70120F4E70020F2E70020F0E7002026
:1001F000EEE70020ECE70120EAE70120E8E7012034
:10020000E6E70120E4E70020E2E7000040000010FC
:1002100000B51948C06980B21D380300FFF7B4FF6C
:1002200018170D29292929290F2923252929191BBF
:100230001F111321291529271D29012000BD012087
:10024000FCE70120FAE70120F8E70020F6E70120AB
:10025000F4E70120F2E70120F0E70120EEE70120BA
:10026000ECE70020EAE70120E8E70120E6E70120CB
:10027000E4E70120E2E70000400000100024122023
:10028000132108E0012205231B0707252D025B1916
:1002900085005A51401C8842F4D900BF0EE002216B
:1002A000A21C01239340D8B2054A505400BF00BF9E
:1002B000601CC407E40F642000F004F8EFE70000BE
:1002C0000405005001B505E00098401E0090034869
:1002D000FFF700FF00980028F6D108BDE7030000F3
:04000005000000C136
:00000001FF
