:020000040001F9
:10B0000058710020D5B00100EFB00100F1B001008F
:10B010000000000000000000000000000000000030
:10B02000000000000000000000000000F3B001007C
:10B030000000000000000000F5B00100F7B00100C2
:10B0400089B30100F9B00100C5B40100F9B00100F5
:10B05000F9B0010000000000CDB10100F9B001001D
:10B06000F9B00100F9B00100F9B00100F9B0010038
:10B07000F9B00100F9B00100F9B00100F9B0010028
:10B08000F9B00100DDB30100F9B00100F9B0010031
:10B09000FDB30100F9B0010005B40100F9B00100F1
:10B0A000F9B00100F9B0010000000000000000004C
:10B0B0000000000000000000000000000000000090
:10B0C0000348854600F070F800480047D1C60100EB
:10B0D000587100200321094802680A4302600848A9
:10B0E00002680A4302600748804707480047FEE7B6
:10B0F000FEE7FEE7FEE7FEE7FEE70000240500406E
:10B100005405004025B40100C1B0010030B50B4624
:10B11000014600202022012409E00D46D5409D4231
:10B1200005D31D469540491B2546954040191546B7
:10B13000521E002DF1DC30BD03460B439B0703D0AC
:10B1400009E008C9121F08C0042AFAD203E00B78EC
:10B150000370401C491C521EF9D27047D2B201E064
:10B160000270401C491EFBD270470022F6E710B562
:10B1700013460A4604461946FFF7F0FF204610BD65
:10B18000421C0178401C0029FBD1801A704730B561
:10B1900004460020034600E05B1C934203D2E05CBF
:10B1A000CD5C401BF8D030BD064C0125064E05E0B5
:10B1B000E36807CC2B430C3C98471034B442F7D3D8
:10B1C000FFF782FFF0D7010010D80100F0B500248E
:10B1D000FF268BB00136012527460694304601F044
:10B1E0001FFD002807D054484068284203D030464D
:10B1F00001F00EFD2C43361D6D007F1CB6B2042FEE
:10B20000ECD3FF257D35284601F00AFD002809D042
:10B21000284601F0FDFC6807044306AA012100202E
:10B2200001F0E2FC454D200714D0012700262742FB
:10B230000CD04348B200111808690969C004C00E57
:10B240008903AA58890F002A00D090477F00761CF6
:10B25000042EECD3002C6DDA00200890401E63E031
:10B26000281940300778B906890E0091002141560F
:10B27000491C49D009A9009801F0AAFA002843D036
:10B28000B8090190009800F0FBFE80002F5801984B
:10B29000002F02D0032802D00DE0032834D10098FB
:10B2A00008ABC20841079446985C490F01228A40C6
:10B2B0001043624698540098052109078000401801
:10B2C000072109024018006806A98003800F029038
:10B2D000009801F07DFA0028029802D0022802D0DE
:10B2E00012E0032810D10198032808D102980228FF
:10B2F0001ED00221009801F05AFC761CF6B2002FF5
:10B3000002D001990098B847641C042CA8D3002EE1
:10B3100010D06A460121002001F066FC06990098D1
:10B32000884207D00690089800263446099097E78F
:10B330000321DFE70BB0F0BD00630040D4680020BC
:10B34000006500408307FF22DB0E9A408907090E43
:10B35000994000280BDA0007000F083883080848D6
:10B360009B001818C36993430B43C361704783085C
:10B3700004489B001B1818689043084318607047E6
:10B3800000ED00E000E400E0F8B5FF20013001F03E
:10B3900027FA002401250E4E0E4F002807D00E4834
:10B3A00004600120B0607D70002000F08FFEFF205F
:10B3B000053001F015FA002808D00748001D046088
:10B3C0000220B060BD70012000F080FEF8BD0000DA
:10B3D00000030040C06800200001004010B506498D
:10B3E0000020086048608860C860034940390860F0
:10B3F000486002F097F810BD4011014010B502F00E
:10B4000003F810BD10B506484068002805D08047F5
:10B41000002801D000F012F910BD00F0E5FF10BDCA
:10B42000B850002010B501F041F8002805D01F49A0
:10B430001D484860C8131E4988611E48018CC9B266
:10B4400001290BD1828C120708D1028D1206120F2E
:10B45000042A03D1828D1206120F0AD0012921D1AC
:10B46000818C09071ED1018D0906090F0A2904D014
:10B4700007E0114A01219160F5E7828D1206120F53
:10B4800005D00D290ED1808D0006000F0AD10B4882
:10B490000168012904D00A49016001680129FCD131
:10B4A000C021416110BD0000DFFF07C00005004062
:10B4B000006C0040C00F00F00006004000EC0640A9
:10B4C0007593000010B50249024802F0A8F810BDBB
:10B4D0001C6900200020004030B47446641E2578AA
:10B4E000641CAB4200D21D46635D5B00E31830BCB8
:10B4F000184702E008C8121F08C1002AFAD1704795
:10B500007047002001E001C1121F002AFBD17047E3
:10B51000202804DA012181400348014201D00120A2
:10B520007047002070470000FC06FFBC70B5002388
:10B530000D884C680DE0E6187678E15C864206D10D
:10B54000E018801C491E50601180002070BD5B18FF
:10B550005B1C9D42EFD8052070BD000070B5002433
:10B56000074D05E06968E000085C01F0CDF9641C56
:10B5700028788442F6D30348006800F0FFF870BDD5
:10B5800078500020E8D7010070B50024064D06E091
:10B590006968E000085C012101F0DAF9641C287890
:10B5A0008442F5D3002070BD78500020F8B51546D0
:10B5B0000C460646052A01D20720F8BD01F0A0FA84
:10B5C000002803D101F06EFA0028F6D110490020BE
:10B5D0004E600C70C8608D6008610E4D0DE0E0009B
:10B5E00069688019009181786A46517000780A4A2A
:10B5F000694601F0F9F90028DFD12046641EE4B263
:10B600000028ECD1054A0021024800F023F8F8BDDB
:10B6100078500020E8D7010099C3010039C2010029
:10B62000BFF34F8F04490348C860BFF34F8F00BF7B
:10B63000FDE700000400FA0500ED00E00EB5002172
:10B64000029000916A4601910148FFF7E9FF0EBDA3
:10B6500001400000094B5B68002B07D0002A07D08F
:10B66000002805D00068037C002B03D00820704719
:10B670000720704741744261002070479C500020B1
:10B68000FFB507469007002581B01E4614460028E6
:10B6900025D1002C23D001F009FD3046114EF06079
:10B6A00030461030057045700299817044607560B5
:10B6B000357001240C4875702405046003211420A2
:10B6C000FFF740FE09480460094CA76003211120E0
:10B6D000FFF738FE6068B060002005B0F0BD0720BD
:10B6E000FBE700008C50002080E200E000E100E079
:10B6F00000150140FEB51F4B5B68002B30D00028C1
:10B700002ED0052901D20720FEBD4369002B27D08A
:10B71000437C012B26D00027029104460025694670
:10B7200016460D70684600F03DF801A802F00CF8CE
:10B73000002819D0012101700F49446049688160D7
:10B74000029907614661C16068460A4900794870FC
:10B750006846007800F044F801F098FE2846FEBDE7
:10B760000820FEBD0F46D7E768460425007800F0A4
:10B7700037F8F3E79C5000200015014010B5084948
:10B78000496800290AD0002808D04169002905D05D
:10B7900000210174022101F0A1FE10BD082010BD9E
:10B7A0009C50002030B5EFF3108172B6094A5468FE
:10B7B0000123002C04D00370002900D162B630BDF3
:10B7C0005360054B1D68054C254015601C60002228
:10B7D0000270F1E7B050002080E100E0FC06FFBC01
:10B7E00008494A68002A0CD000280AD1EFF31080DB
:10B7F00072B60A68044B1A6000224A60002800D121
:10B8000062B67047B050002000E100E010B5034977
:10B81000887D497D084001F040FD10BD4C65002049
:10B82000F0B5044602883A488DB0014615310191C1
:10B83000102A09D0112A50D01A2A4AD1217A09098E
:10B8400001294ED901234DE0027D417D05468A4301
:10B85000011D07A801F0FEFC142207A902A8FFF7AA
:10B860006BFC00262A483746143008900AE0710025
:10B8700002A8081883881D220097281D089901F046
:10B88000A9FC761C0298B042F1D8287DA688C04356
:10B89000C0B201F0C3FC1F49884217D040004019D4
:10B8A000868001233246281D019901F006FD0123FF
:10B8B0003246281D089901F000FDA07D02280AD01B
:10B8C00000231349A2881631281D1DE00420FFF72C
:10B8D000B5FE0DB0F0BD0123F3E70023A288001DE3
:10B8E00012E000230A490546A2881731001D01F025
:10B8F000E4FC207A0009022801D9012300E000239A
:10B900000349A2881831281D01F0D7FCE1E70000A7
:10B910004C650020FFFF000070B500280AD00F4DD5
:10B920002978002908D0044601F0A4FB002805D09E
:10B93000002070BD0E2070BD082070BDE86806288C
:10B9400009D2074A8100891822880A8062884A80C1
:10B95000401CE860ECE7042070BD0000605000204F
:10B9600080650020002808D0002205490123CA6014
:10B970000B708A604860104670470E2070470000C8
:10B980006050002010B5002811D000290FD0114AB6
:10B990001278002A0BD00A88112A11D0302A07D039
:10B9A000322A09D0332A02D1091D01F065FA10BDEF
:10B9B000091D01F0DBFA10BD091D01F0E1F910BD10
:10B9C0008A88092189014018C18B8A42F7D1002158
:10B9D000C17610BD6050002010B50B4600280ED077
:10B9E00013490A78002A0CD0CA68002A09D0092213
:10B9F00092018418E27E002A05D0112010BD0E208D
:10BA000010BD082010BDE38300228A602277A27651
:10BA100062760246074801881180408850800121E3
:10BA2000184690DF0028EDD10120E076002010BDFF
:10BA3000605000208065002070B505468488FFF7BF
:10BA4000EFFE284601F034F9082C0ED213204001F5
:10BA50000649604340182946FFF794FF0349200137
:10BA600080394018294600F06DF870BDE051002083
:10BA700070B5002805D0028811498A4203D10820F8
:10BA800070BD0E2070BD0F4B4488186814214143CF
:10BA9000401C40070C4D400F186049194C81022092
:10BAA000C881081D086100248C810120087208717A
:10BAB0004C710A80887001F075FD204670BD000051
:10BAC000FFFF0000705000202068002010B51346D2
:10BAD000002809D00180002B04D006221946801CC2
:10BAE000FFF72AFB002010BD0E2010BD30B5134D0E
:10BAF00004002DCD85B003956D460DC51CD00029E1
:10BB00001AD00868002817D000206080A080E0804C
:10BB1000401E208008682146A0600C31684663DF23
:10BB2000002807D1217B684681740549018204A859
:10BB3000FFF7F2FE05B030BD0E20FBE7D4D70100C1
:10BB4000231500000EB500281DD000291BD00A883F
:10BB5000112A20D0382A17D0392A14D102888B888C
:10BB60009A4210D18A8983889A420CD10A8A012A82
:10BB700009D102236A46137003885380897C1171AE
:10BB80008268694690470EBD008889888842FAD14C
:10BB900001F008FD0EBD028889888A42FAD1002191
:10BBA000C9430180002141808180C1800EBD000019
:10BBB00070B5002805D00288114B9A4203D10820A5
:10BBC00070BD0E2070BD0F4C142223680E4D5A43D9
:10BBD0005B1C5B075B0F23605219C38853810123F1
:10BBE000D381141D146100249481022414721171F4
:10BBF00000881080937001F0D5FC002070BD00001B
:10BC0000FFFF00007050002020680020FEB50446B1
:10BC1000087800283CD188881E4A904238D188791B
:10BC2000227B904234D10122684602704A884280C9
:10BC3000184B0020DB4312E0122242435218D589F0
:10BC40000E32ED1805D0012D08D112896D462A81DA
:10BC500004E015896E46F5805289B280401C0A7A4C
:10BC60008242E9D820880C4988420DD0E08800281B
:10BC70000AD1A088002807D16088002804D10622B4
:10BC8000A01C01A9FFF758FAA26869462046904710
:10BC9000FEBD000023150000FFFF000000B51548A1
:10BCA00087B00068059000234822134905A801F0D9
:10BCB00079FB002801D0FFF7C1FC6A46002108206B
:10BCC00001F058FB002801D0FFF7B8FC0A206946B4
:10BCD0000880684601F044FB002801D0FFF7AEFC65
:10BCE000064801F033FB002801D0FFF7A7FC07B09E
:10BCF00000BD000074D70100D050002039BA010007
:10BD000005490B5C05494A68012098400346934366
:10BD10008B601040C8607047A0D70100000500503C
:10BD200010B50349085C012100F052FF10BD00006E
:10BD3000A0D7010010B50349085C002100F048FFBE
:10BD400010BD0000A0D701000549095C0548406806
:10BD5000C840C007C00F00D00120012148407047F3
:10BD6000A0D70100000500507CB50024074E2546F1
:10BD7000305D0122009500231146019500F0DCFEA4
:10BD8000641C042CF4D300F003F87CBDA0D70100A0
:10BD900010B500242046FFF7C3FF641C042CF9D320
:10BDA00010BD10B500242046FFF7C4FF641C042C0E
:10BDB000F9D310BD0246002010B5C043054B002149
:10BDC0005C5C944201D1084610BD491C0429F7D39C
:10BDD00010BD0000A4D70100F3B581B00D46019855
:10BDE000FFF7E8FF0446042813D21D481D4F1E4EDE
:10BDF000002D27D0012D0DD0022D0AD16000201872
:10BE0000C0194578002D04D0F168002901D02846DA
:10BE10008847FEBD610061187D5CCF1979780029E3
:10BE20000BD071680A2251430F4A8068921CFFF7B9
:10BE300061FC002801D10198B0700B48B97810302E
:10BE40000155DFE78068FFF799FC0748610061183A
:10BE50001030C919005D8D78A842D3D0FEBD000016
:10BE6000A8D70100206500204C50002010B5054ADD
:10BE70000146127A0020D20702D0084600F004F8EA
:10BE800010BD00004C500020F8B55D4C05466078B0
:10BE90000026002803D000206070FFF779FF012002
:10BEA000584F2B00FFF718FB18970D0D2E3D4A5FDA
:10BEB00064686F686FA97777777777979A9DA0A95D
:10BEC000A9950020FFF740FF00280AD00020FFF7C7
:10BED00027FF022D02D1E120C0000BE07D204001B0
:10BEE00008E00020FFF726FF022D01D1C82001E065
:10BEF000FF20913025706421FFF708F96168414304
:10BF000000222BE00020FFF71FFF002805D00020B3
:10BF1000FFF706FF19204001ECE70020FFF70AFFBA
:10BF2000E4E70020FFF710FF002803D00020FFF710
:10BF3000F7FED3E70020FFF7FDFED9E70020FFF76B
:10BF400003FF002803D00020FFF7EAFE02E00020F4
:10BF5000FFF7F0FE25706068410000223868FFF7A7
:10BF6000C9FB064635E00020FFF7CAFE257007E052
:10BF700000203FE025702CE060700120FFF7C0FE3C
:10BF800000226168EAE760700120FFF7B9FE60688F
:10BF900081004118E1E77868FFF7F0FB06461120C1
:10BFA000401B01D0002E03D00220FFF7B9FE10E0A5
:10BFB00001280BD9C82148436421FFF7A7F861681D
:10BFC000002241437868FFF795FB06460220FFF701
:10BFD000B1FE3046F8BDFFF7DBFECBE7FFF7D8FE3A
:10BFE000C6E7FFF7D5FE04E0FFF7D2FE0020FFF71B
:10BFF000A1FE0120FFF79EFEBCE7FFF7D2FEB9E7E6
:10C000004C500020A8D7010010B5112802D0FFF72E
:10C0100015FB10BD084600F08DFA10BD0022D2437A
:10C02000830004490428CA5002D30818203002773C
:10C0300070470000D4680020F0B50025ED43002AC9
:10C0400002D00023042601E0042308260B4C04E060
:10C050009F00E7597F1C04D05B1CB342F8D32846ED
:10C06000F0BD26185DB2203635709E00A151002A21
:10C07000F5D1E11820310877F1E70000D4680020FD
:10C08000024909182020085670470000D468002093
:10C0900038B50B460921890141188A7E6424624320
:10C0A00010184A7E002A08D0521ED2B212214A43EA
:10C0B0001218518A6A46491C01E0C1886A461180FB
:10C0C000008950801146184692DF38BD70B5084C83
:10C0D000050009D010342168002907D008682060C5
:10C0E000496828468847F6E70834F4E770BD000041
:10C0F000C0680020F8B52348416800293ED00E688A
:10C1000021494C6887688078E11B0D022D0AED1CDF
:10C11000002814D101201D4A000450601B4A403AF7
:10C1200050601B49400008601A4908601A49012004
:10C1300008602F2000F05CFB124901208870B54296
:10C1400000D23546E81900020F4B000A4033186050
:10C150000D4A5168001B091B0902090A0002000A66
:10C16000C91C814209D9506818602F2000F040FB9B
:10C1700001200749400480390860F8BD00F096FFAF
:10C18000F8BD00008C500020001501404013014014
:10C1900080E200E000E100E00010014010B54188BD
:10C1A000034A09018A1801461046FFF72FFD10BD0A
:10C1B00060510020F7B50746092080013E18B07E87
:10C1C00064214843C519747E1220604341192A79BD
:10C1D000601C0A3182B0904226D101AB0022384661
:10C1E00000F042F9002822D010E0401EA04201D108
:10C1F000002003E01220604340191C3002460090EA
:10C2000001AB384600F030F9002807D00398002130
:10C21000017001A9049893DF05B0F0BD707E00990C
:10C22000401C641C7076E4B22879A042DDD80398E3
:10C23000012101700020EFE7F8B500260124154D1B
:10C2400023E06968F0004718387821462A69814060
:10C25000114218D08A432A6100F01AFC3A7821462C
:10C26000EB68914019400346934099420BD179788D
:10C27000012901D0012100E000217B684140002B11
:10C2800001D010469847761CF6B228788642D8D35B
:10C29000F8BD000078500020F7B509218901411848
:10C2A0001446897E642251430F18384600F0E2FE9E
:10C2B000060033D01A4A906806282FD22146144629
:10C2C0006C225043174D6422401941803946001DAD
:10C2D000FEF732FF01980027002804D0A0686C21E7
:10C2E00048432F5404E0A06802216C225043295493
:10C2F000A0686C2141434919401C8E66A060E1682A
:10C3000088420BD1002605E06C2070434019816EF5
:10C310008847761CE0688642F6D3A760FEBD000021
:10C32000605000209865002030B50D460921890134
:10C3300041181446897E642251439BB0081800F0CE
:10C3400099FE030005D068464480012101700195E3
:10C3500098471BB030BD000010B50E4900230A7885
:10C360004C78A24212D0521CD2B20A70022A00D1DA
:10C370000B700A78074B920018339A58026088684D
:10C3800010180002000A8860012010BD0360002020
:10C3900010BD00008C500020F8B50746104E012556
:10C3A000BD403068FFF7EAF900280DD10D4C206937
:10C3B000284207D1384600F06BFB0028E06804D023
:10C3C000284303E0A8432061F8BDA843E06020694A
:10C3D000002228432061A1683068FFF78BF9F8BD7F
:10C3E000E8D7010078500020F8B51E4C20780028CE
:10C3F00036D0E068002600280CD0002560780028A0
:10C400002ED1684652DF052806D0002806D0FFF757
:10C4100015F90BE00125F1E7012607E0009800F08F
:10C420003DFA2169002901D000988847002D13D1D9
:10C430006078002814D1608869460880A06861DFB0
:10C44000052804D0002804D0FFF7F8F804E00125FF
:10C4500002E0E168A0688847002ECFD0002DE5D02B
:10C46000F8BD0000B850002030B50989002A05D079
:10C47000D088491C814213D1002030BD092292018D
:10C480008218947E64256C4324182489A142F3D039
:10C49000491C1980917E642251430818008902E0EA
:10C4A0001980D088401E5880012030BD1048018C72
:10C4B000C9B2012917D1818C090714D1018D090650
:10C4C0000A0F03D1828D1206120F0ED0090F012917
:10C4D00003D1828D1206120F07D0032903D1808D5C
:10C4E0000006000F01D000207047012070470000B7
:10C4F000C00F00F010B504460878012808D00228C3
:10C5000005D10879002811D00220FFF713FC10BDD7
:10C51000FFF73AF8002801D0FFF790F82046FFF720
:10C52000A7FA0028F3D0FFF789F810BD0220FFF723
:10C53000F7FB10BDF8B50A4D0A4E0746002420014E
:10C5400040193946FFF734FB002803D0B04201D030
:10C55000082803D1641C082CF1D30020F8BD00008A
:10C560006051002002300000F0B5284C21461039FF
:10C5700048688B68227886469C46CF78667836E095
:10C58000182353436168521CC918A378D2B293424E
:10C5900000D100220B78022B02D0032B27D123E0FD
:10C5A00003464D68194603E0A94204D00B46C96909
:10C5B00000291CD0F8E7002919D08B4208D1C069A6
:10C5C000002805D1124F0125BD600025AC4601278A
:10C5D0000D68C969D961002909D00B685B190B6026
:10C5E00005E00174C06900E000210028F9D19642FD
:10C5F000C6D10649624610398A604860CF707045DE
:10C6000001D00120F0BD0020F0BD00009C500020B2
:10C6100000100140F8B52C4E0446706800250090CB
:10C6200041E0002C02D02046E46920E0264818238F
:10C630001030017842684B43491CC9B2D2180170CE
:10C640008378994200D105701178506801292CD166
:10C65000017C002929D191684160D168816011690C
:10C66000C16051698161F178002900D0456043685B
:10C67000B268164F991A0902090AB94202D28268B1
:10C68000891806E0D11A09028268090A8A4202D989
:10C69000511A016000E00560456001218560017468
:10C6A000C56100F0FBFE002CBBD1074810300178BB
:10C6B00040788142BAD171680098814201D001204E
:10C6C000F8BD0020F8BD00008C500020FFFF7F0067
:10C6D00008B50120009011230A220F21082000F044
:10C6E000F3FDFFF741FB0023344A03211846FEF710
:10C6F000C7FF002801D0FEF7A1FF314A01213148D0
:10C70000FEF754FF002801D0FEF798FFFFF7C6FAA6
:10C710002D48FFF727F9002801D0FEF78FFF294C9D
:10C720002A480025241F254E009025704836207881
:10C73000694600018019FFF7D9F9002801D0FEF7FA
:10C740007DFF2078401CC0B220700828EFD32570F0
:10C7500000F0ECFC0020FFF7EDFA00F0E9FD3128D5
:10C7600017D0322817D0332817D0342817D03528BF
:10C7700017D0362817D0372817D0382817D01028C8
:10C7800017D0112817D04128E7D10020FFF7D2FE9B
:10C79000E3E70120FAE70220F8E70320F6E70420A8
:10C7A000F4E70520F2E70620F0E70720EEE708208F
:10C7B000ECE70920EAE70A20E8E70000185100202A
:10C7C00066060000445000209DC10100F5C4010030
:10C7D000C20843075B0F0120895C984008407047FE
:10C7E0000121890740180068002800D00120704707
:10C7F00000280FD00849094A096800BF00BF00BFE0
:10C8000000BF00BF00BF00BF00BF914200D000BF0B
:10C81000401EF2D170470000CC5000200024F400EC
:10C8200070B50E4C00252078002801D0852513E036
:10C830000021A16061602161E16009480068012672
:10C84000304002D1032100F02FF800F0D7FD00287E
:10C8500001D1044886612670284670BDC06800205A
:10C8600000E100E00005004038B50020694608708E
:10C870006846FEF797FF084C2078002801D1FFF7A3
:10C88000CFFFE068401CE0600120A070684600789F
:10C89000FEF7A6FF38BD0000C068002010B50028D4
:10C8A00001D1FFF713FC10BD8207D30EFF229A407F
:10C8B0008907090E10B5994000280BDA03071B0FF2
:10C8C000083B9C080C4BA400E318DC6994430C4320
:10C8D000DC6107E08408094BA400E4182368934353
:10C8E0000B432360C106C90E01208840044908603B
:10C8F0000449086010BD000000ED00E000E400E025
:10C9000080E200E000E100E010B5044600F09AFB90
:10C91000002804D00021204600F049F910BD20462F
:10C9200000F09CFB0028F9D02046FFF7A9FB064940
:10C93000820051180A69520852000A61012181409F
:10C940000248816010BD00000065004000630040A7
:10C95000F3B581B0054600F075FB1F4F002828464F
:10C9600017D0FFF78DFBC0192030007F8009032806
:10C9700002D001280BD005E018480069E840C00744
:10C98000C00F04D00321284600F011F9FEBD02219A
:10C99000F9E700F063FB0028F8D02846FFF770FBAA
:10C9A00004468000C11D0E4AF9318018026989B21F
:10C9B000012632430261084600F02AF90298002855
:10C9C000E4D02846FFF75CFB800038580028DDD013
:10C9D0000448A6404660FEBDD46800200005005013
:10C9E0000065004000630040FEB5044625480E4641
:10C9F0000019202141560027C8171346401C01D0BA
:10CA000008273CE0F27819462046FFF715FB05465B
:10CA1000401C33D0B07800280BD005200007A100BF
:10CA200009180720000209180868022290430860CC
:10CA300007E000217378204600910A46019100F03A
:10CA40008FF8F078002810D00F48AA00101831781D
:10CA500002690E4B1A400261E206D20C8907890B6B
:10CA60000A4301690A43026109E006483278401925
:10CA70002030017F92011143017700E004273846FE
:10CA8000FEBD0000D468002000650040FFE0FCFF10
:10CA900003490969C140C807C00F00D00120704791
:10CAA0000005005070B5144D2879002801D00820E9
:10CAB00070BD114900204039421E0B182033401C24
:10CAC000C0B21A702028F8D300242046FFF7A6FA37
:10CAD000641CE4B2082CF8D303210620FFF7E4FE1F
:10CAE000FF207D3000F094F801200449C007486021
:10CAF00001202871002070BD1469002000630040EF
:10CB000002480079002800D00120704714690020F5
:10CB100070B552000A439900049D0A432902059EFC
:10CB20000A43310405240A43240780000721001921
:10CB300009024018026070BD70B552000A439900A6
:10CB4000049D0A432902059E0A43310405240A4331
:10CB5000240780000721001909024018026070BDF7
:10CB600070B552000A439900049D0A432902059EAC
:10CB70000A43310405240A432407800007210019D1
:10CB800009024018026070BD1CB500220B460092DD
:10CB900011460192FFF7BCFF1CBD1CB5002100919E
:10CBA0000B46012201911146FFF7B2FF1CBD052281
:10CBB0001207800082180720000210180268032361
:10CBC0001B049A430260026809040A43026070472A
:10CBD000012282400348002901D082607047C26070
:10CBE000704700000005005038B5084B05241B684D
:10CBF000009324026B46411805E085005D592D190C
:10CC00002D69401C20C28142F7D838BDE4D701000D
:10CC10000249401800210160704700000060004098
:10CC2000034940180068012800D000207047000028
:10CC3000006000404058002800D0012070470322C7
:10CC4000120280184068084000D0012070470000A0
:10CC500010B586B00146113104460491007C694646
:10CC6000C0088881083401AA03A90920FEF75EFCE8
:10CC7000002806D001AA03A90820FEF757FC0028C7
:10CC800012D10A48FEF77CFA00280DD06846828847
:10CC900006480299FEF77BFA002805D1034A204690
:10CCA000083A114618318CDF06B010BD80D701005C
:10CCB00010B50188041D1D2950D016DC10291ED086
:10CCC000112911D1FEF74AFC002801D0FEF7B6FC6D
:10CCD00000F02CFA0020FFF72DF8FEF797FD002852
:10CCE00002D10120FFF71CF810BD1F2939D03A29C5
:10CCF0003ED05529F8D18088132176DF3BE020888B
:10CD0000082802D30020FEF799FC21881B4A08015D
:10CD100080180022FEF7DAFE002801D0FEF78EFC14
:10CD200021881320154A4001484380328018FEF7BD
:10CD300053FE112803D0002801D0FEF77FFC01200C
:10CD4000FEF7F8FFFEF762FD082805D00020FEF789
:10CD5000F1FF00F0EBF910BD0020C3E7FFF778FF0B
:10CD600010BD2088211D75DF05E0FEF767FC10BDB2
:10CD70008088132176DF0028F7D110BD6051002094
:10CD8000F3B583B00C460A88092103988901471836
:10CD9000F88B82425ED1B87E6421484303994618DD
:10CDA0006088002843D12046083002903579207AE7
:10CDB0002818052800D905203071002001901AE0BC
:10CDC00001980A21484302990A2241181220684317
:10CDD000801900900A30891CFEF7AEF900980021F6
:10CDE00081820098C1820098018300984183019854
:10CDF000401C6D1C01903079A842E1D812204543B7
:10CE0000A9190A88B97E6423039859430818008930
:10CE100082420CD23079052809D07876218803988F
:10CE2000FFF736F9010015D00020F87609E000255B
:10CE30007D76228869460398FFF7BCF901000BD084
:10CE4000FD7622880398FFF76FFA0A4803210170E4
:10CE50002188418005B0F0BD684600780028F9D0EF
:10CE6000228801210398FFF717FA2188039800F020
:10CE7000B3F8EFE798650020F3B581B00C460A8857
:10CE80000921019889014518E88B82425CD1A87E6E
:10CE900064214843019922464318687E1221484381
:10CEA000C018618808320A3000292CD02EE00626EE
:10CEB0004E43B618B446B68829273F02F61B0AD05F
:10CEC000012E0CD0022E02D0082E0FD10BE06646A8
:10CED000768846810AE066467688868106E0664660
:10CEE0007688C68102E06646768806824689002EEC
:10CEF00008D08689002E05D0C689002E02D0068A69
:10CF0000002E03D1491C16888E42D0D800266846D0
:10CF10000670687E1979401C884203D10120694659
:10CF2000087016E06876228869460198FFF742F992
:10CF300001000AD0EE7622880198FFF7F5F90A4839
:10CF40000321017021884180FEBD684600780028D9
:10CF5000FAD0228801210198FFF79EF921880198D3
:10CF600000F03AF8FEBD00009865002070B5064656
:10CF7000092080010C463518A87E64214843811998
:10CF80002288E88B82420AD16088002808D00021DC
:10CF90003046FFF781F92188304600F01DF870BD5A
:10CFA00062890A80A2894A80E289CA80208A08812F
:10CFB00021883046FFF76CF80100F0D00020E876B9
:10CFC00022883046FFF7B0F902480321017021881A
:10CFD000418070BD98650020F8B5074609208001A2
:10CFE0003C18207F0E46401CC0B214492077C96807
:10CFF000002588421FD26576A07E6421401CC0B205
:10D000004143CA19A0760E4980004018018811805A
:10D010004088508015710121304690DF010009D011
:10D02000E57632463846FFF77FF905480321183088
:10D0300001704680F8BDE576F7E7000060500020FB
:10D04000806500200449081820214156042901DB8D
:10D050000120704700207047D46800200449081858
:10D0600020214156042901D2012070470020704739
:10D07000D4680020F0B50C4B00210A4ADC680CE0B3
:10D080008D00AE18B6788778BE4205D1555B06880C
:10D09000B54201D15868F0BD491CA142F0D300202F
:10D0A000F0BD0000806500206050002070B50124B4
:10D0B0000B49600408600B494010886009494039F9
:10D0C0008860094D6C602F20FFF792FBAC60074D24
:10D0D00000242F20AC60FFF78BFBAC7070BD00000C
:10D0E00080E100E040130140001001408C5000201E
:10D0F00030B5FF220523CD7D002409321B02C31861
:10D10000002D8450986905D04B7ECA68D054487E63
:10D11000401C487630BD1FB501246B461C70197247
:10D12000019206C8684690471FBD000010B58BDF0E
:10D1300006488ADF002801D0FEF780FA0120FEF7BA
:10D1400095FE002801D0FEF779FA10BD90D70100B6
:10D1500010B50446FEF7DCF900280CD0A007C00E7D
:10D16000002C0ADA2107090F08398908144A8900B6
:10D170008918C96906E0134810BDA108124A890040
:10D1800089180968C1400806800F042811D20028B8
:10D190000FD002280DD00D494B68E206D20E0120B7
:10D1A0009040002B08D0620992008B5803438B50AB
:10D1B00004E00448401C10BD05490860002010BD73
:10D1C00000ED00E00120000000E400E0B05000208D
:10D1D00000E100E070B5049D002819D0002917D0A7
:10D1E000002A15D000246600865B9E4211D10020E3
:10D1F0000123A3400AE0002D03D00C1826781E431B
:10D2000002E00C1826789E432670401C9042F2D310
:10D2100070BD641C082CE6D370BD000070B50546D7
:10D2200000242146284600F00DF8002801D02046B1
:10D2300070BD641CA4B2082CF3D3014870BD00007B
:10D24000FFFF000001228A40024201D00120704706
:10D2500000207047F7B5002086B017460D460090B5
:10D26000002913D000246E46A1B23846FFF7EAFF2A
:10D27000002808D0009960004900285A8919888040
:10D280000098401C0090641C082CEDD314226946C1
:10D290000698FDF751FF09B0F0BD70B500250646B0
:10D2A0002C46A1B23046FFF7CDFF002800D06D1C00
:10D2B000641C082CF5D3284670BD08B500931346AE
:10D2C0000122FFF787FF08BDF8B507461D46164641
:10D2D0000C460846FFF761FC00212846FFF754FC86
:10D2E00021460F4CE16065610698012500280BD0AE
:10D2F0003846FFF752FC00213046FFF745FC266117
:10D30000A76007484030C56206486062042020607C
:10D31000054885600560054900208860F8BD00006B
:10D320000025004000502700002000400021004060
:10D33000044881680129FCD100218160024880698C
:10D34000C0B270470021004000250040002803D0F3
:10D350000249C860002070470E207047B850002076
:10D360001CB5034901910091694660DF1CBD0000B6
:10D370004050002070B50E46054614461421104654
:10D38000FDF7F3FE01200021208021612173267228
:10D390006572002D00D0A072002070BD10B5FEF7A0
:10D3A0003FF910BDF8B5002903D08C070025002CEB
:10D3B00001D00720F8BD0E4E0E4FB1607280736031
:10D3C00039680124214003D00A49254680310C6088
:10D3D000094910DF002803D0002DEBD03C60F8BDD8
:10D3E0003470FFF741FA1620FFF7B2FEF8BD0000D7
:10D3F000B850002000E100E09DD301000148007812
:10D4000070470000B8500020FEB51F4C0025A768EB
:10D41000606802906846FEF79FFF0190FFF7A4F84E
:10D4200006460198002822D000230098616817E082
:10D430000E680A46864202D9301A086012E0801B44
:10D44000F31800261660D668D169B446002E07D0BE
:10D45000FE183602360A566066469660D561154655
:10D460000029E5D128466160FFF7D4F806E0284698
:10D47000FFF7D0F8002801D1002E02D00298FEF765
:10D4800039FE0020E070FEBD8C50002001200249D2
:10D49000000508607047000000E200E010B50E4B88
:10D4A0005968002906D002680C68A24204D8A21A62
:10D4B0000A60C161586010BD0B4604E00B46C969A3
:10D4C000121B002904D00C689442F7D3A41A0C60F4
:10D4D0000260C161D86110BD8C5000207CB50D4642
:10D4E0000646002469460C706846FEF75BF901A801
:10D4F00000F02AF900280DD00570466068460849FA
:10D500000079487068460078FEF76AF9FFF7BEFFB9
:10D5100020467CBD684604240078FEF761F9F7E7F1
:10D520009C500020F8B51D4D6C68002C34D01C4870
:10D5300000274068A968401A0602360A2068B042EF
:10D5400018D8361AC7192246107CE46900280FD073
:10D5500000201074EB68002B07D091695069984740
:10D56000002805D0FEF76AF802E051699069884703
:10D57000002CE3D129786878814206D1401CC0B2E2
:10D580006870022801D10020687004490006800DEF
:10D5900018310F50FFF77AFFF8BD00008C500020C3
:10D5A0000015014010B50E4C21686068884210D00B
:10D5B00014210C4A484381188B78002B0AD0105A4A
:10D5C000083198DF002804D12079401C4007400F23
:10D5D000606010BD105A8988002296DFF2E70000D3
:10D5E0007050002020680020FF221D32002383504D
:10D5F0008B8A8A68D25C8B8A5B1C8B82052109022C
:10D600004018C26170471FB500226B461A7019722C
:10D6100081680191827506C8684690471FBDF0B5C4
:10D620000C46012185B005464902FFF708FB03219E
:10D6300009026F180026002826D0FF212531284630
:10D64000FFF7F8FA00281FD0FF2025302E50812048
:10D650008000B860A07E002801D10120686002210E
:10D66000684601700920C001291808680860039005
:10D67000E17D68460172E0680190E675267606CC89
:10D680006846083C90472DE004212846FFF7D7FA6A
:10D69000002827D0FF2109312846FFF7CBFA0028C0
:10D6A00020D021462846FFF723FDE07D617E884299
:10D6B00018D1207E002807D0617EE268E0752069DD
:10D6C000E060267666760AE0A07E002801D101207F
:10D6D000686081208000B860E675617EE26820465F
:10D6E000FFF719FDFF271D3739462846FFF7A2FA35
:10D6F00000280FD0A08AA17D884204D22146284666
:10D70000FFF772FF06E0EE51A17D002902D020460E
:10D71000FFF779FFFF27453739462846FFF78AFA92
:10D7200000280ED0EE51A07E002801D001202860F4
:10D73000E07D002805D0E675617EE2682046FFF7AF
:10D74000EAFC05B0F0BD000010B509494B788C78B3
:10D750005A1CD2B2944200D100220C78944201D1DA
:10D76000002010BD0270486818214B43C01810BD3E
:10D770009C500020010000070600180000009001E6
:10D780004E6F726469635F426C696E6B7900000072
:10D790000000000000000000A00050000000000099
:10D7A0001516171811121314E064002000650020EC
:10D7B0002C65002011000300D9BD010012000300F8
:10D7C000D9BD010013000300D9BD010014000300FE
:10D7D000D9BD010023D1BCEA5F782315DEEF121218
:10D7E0000000000000000050386900200300000025
:10D7F00010D801004050002090000000F2B4010059
:10D80000A0D80100D05000208820000002B50100FF
:10D81000000000001100030009C00100000000002A
:10D8200000000000000000000000000000000000F8
:10D8300000000000000000000000000000000000E8
:10D8400000000000000000000000000000000000D8
:10D8500000000000000000000000000000000000C8
:10D8600000000000000000000000000000000000B8
:10D8700000000000000000000000000000000000A8
:10D880000000000000000000000000000000000098
:10D890000000000000000000000000000024F40070
:040000050001B0C185
:00000001FF
