:020000040001F9
:10F00000487A002015F401001DF401001FF40100EE
:10F0100021F4010023F4010025F4010000000000A8
:10F0200000000000000000000000000027F40100C4
:10F0300029F40100000000002BF401002DF4010070
:10F04000D1F601002FF4010011FA01002FF40100A4
:10F050002FF401002FF40100CDF401002FF4010082
:10F060002FF401002FF401002FF401002FF4010010
:10F070002FF401002FF401002FF401002FF4010000
:10F080002FF4010029F701002FF401002FF40100F3
:10F090004DF701002FF4010051F701002FF401009A
:10F0A0002FF401002FF401002FF401002FF40100D0
:10F0B0002FF401002FF40100000000000000000008
:10F0C0002FF401002FF401002FF401002FF40100B0
:10F0D0002FF401002FF401002FF4010000000000C4
:10F0E0000000000000000000000000000000000020
:10F0F0000000000000000000000000000000000010
:10F1000000000000000000000000000000000000FF
:10F1100000000000000000000000000000000000EF
:10F40000DFF80CD000F050F800480047E90B02008C
:10F41000487A00200648804706480047FEE7FEE796
:10F42000FEE7FEE7FEE7FEE7FEE7FEE7FEE7FEE7B4
:10F4300075F7010001F4010040EA01039B0703D0C6
:10F4400009E008C9121F08C0042AFAD203E011F823
:10F45000013B00F8013B521EF9D27047D2B201E0E5
:10F4600000F8012B491EFBD270470022F6E710B5C9
:10F4700013460A4604461946FFF7F0FF204610BD22
:10F48000421C10F8011B0029FBD1801A704730B5CF
:10F4900004460020034600E05B1C934203D2E05C7C
:10F4A000CD5C401BF8D030BD064C074D06E0E0684F
:10F4B00040F0010394E8070098471034AC42F6D3BB
:10F4C000FFF7A2FFB81E0200D81E02002DE9F04788
:10F4D00000268CB0DFF86091B0464FF480750124AF
:10F4E00037460696284601F03BFE38B1D9F80403AA
:10F4F000204203D0284601F029FE26432D1D64003A
:10F500007F1CADB2082FEDD34FF4BE74204601F03E
:10F5100027FE48B1204601F019FE46F0004606AA33
:10F520000121002001F0FEFD444D16F0FF0F15D023
:10F530000127002437420DD009EB8401D1F81005D2
:10F54000D1F81015C0F3042055F82420C1F301416F
:10F5500002B190477F00641C082CEBD3002E67DAC1
:10F560004FF0FF30CDE9088000263446281910F806
:10F57000507F90F9000027F0C008401C44D009A932
:10F58000404601F099FB58B34FEA9719404601F005
:10F5900007F855F820701FB1B9F1030F03D00FE041
:10F5A000B9F1030F30D108A84FEAD80208F00703D9
:10F5B000815C4FF0010C0CFA03FC41EA0C01815410
:10F5C0004FF0A04101EB8800D0F8000706A9C0F376
:10F5D000014A404601F070FB18B1BAF1020F03D0A6
:10F5E00012E0BAF1030F0FD1B9F1030F08D1BAF14C
:10F5F000020F1BD00221404601F077FD761CF6B2C7
:10F6000017B149464046B847641C042CAED3002EBF
:10F610000ED06A460121002001F084FD0699009871
:10F62000884205D00690089809909DE70321E2E7FB
:10F630000CB0BDE8F087000000600040A059002039
:10F6400000F01F02012191404009800000F1E020FC
:10F65000C0F88012704700F01F020121914040095C
:10F66000800000F1E020C0F88011704700F01F0218
:10F67000012191404009800000F1E020C0F8001114
:10F68000704700F01F02012191404009800000F105
:10F69000E020C0F80011704700F01F0201219140E6
:10F6A0004009800000F1E020C0F8001270474907CF
:10F6B000090E002806DA00F00F0000F1E02080F8C3
:10F6C000141D704700F1E02080F80014704700001E
:10F6D0002DE9F0414FF48077384601F0F5FA012426
:10F6E000104EA50748B1384601F0F5FA0120C5F8DB
:10F6F00008037470002000F07DFF4FF482773846D5
:10F7000001F0E2FA00280BD0384601F0E4FA0220BA
:10F71000C5F80803B470BDE8F041012000F06ABFED
:10F72000BDE8F0818C59002007480021C0F8401145
:10F73000C0F84411C0F84811C0F84C11C0F80011CD
:10F74000C0F8041102F0DAB90010014002F04EB91D
:10F75000074810B5406830B18047002807D0BDE8A1
:10F76000104000F011BABDE8104001F0EDB810BD36
:10F770007C410020F0B598480023021D0178012546
:10F78000101D4FF08056062907D11478240704D1A4
:10F790000478C4F30314032C02D0062904D00FE02C
:10F7A0008F4F8E4C7C670EE01478240708D10478C4
:10F7B000C4F30314032C06D0042C04D0052C02D06F
:10F7C000062907D00EE0D6F84442864FC4F34234EF
:10F7D0003C6002E01478240704D10478C4F30314D5
:10F7E000032C02D0062906D011E07F4C276827F0B1
:10F7F000807727600EE01478240708D10478C4F3DA
:10F800000314032C06D0042C04D0052C02D00629A6
:10F810000AD011E04FF08044C4F80C31C4F8103124
:10F82000704C241F236002E01478240704D104786C
:10F83000C4F30314032C02D0062905D00CE0694F51
:10F84000032464373C600AE01478240704D1047868
:10F85000C4F30314032C02D006290DD014E0634F27
:10F8600005243C60614C78342560604C083423608A
:10F870003F243F1D3C6002E01478240704D1047843
:10F88000C4F30314052C02D0062957D068E0584968
:10F890000968584A11605649091D0968121D11600E
:10F8A000534908310968121D116051490C3109682A
:10F8B000121D11604E4910310968121D11604C492A
:10F8C00014310968121D1160494918310968494A03
:10F8D0002032116046491C310968121D11604449EB
:10F8E00020310968121D1160414924310968121D37
:10F8F00011603F4928310968121D11603C492C31C3
:10F900000968121D11603A4930310968394A40329C
:10F910001160374934310968121D1160344938319A
:10F920000968121D116032493C310968121D1160CD
:10F930002F4940310968121D116002E01178090752
:10F940000ED10078C0F30310032803D0042801D09F
:10F95000052805D1D6F85802274900F04F00086065
:10F9600021487438016841F470010160BFF34F8F82
:10F97000BFF36F8F4FF01021D1F80002002803DB96
:10F98000D1F80402002822DA1C4A15601C480468D9
:10F99000002CFCD01524C1F800420568002DFCD0D5
:10F9A000C1F8044201680029FCD0136001680029F5
:10F9B000FCD0BFF34F8F0C48F0380168114A01F4B6
:10F9C000E06111430160BFF34F8F00BFFDE70F49B6
:10F9D0000D480860F0BD0000E00F00F00DF0ADBA7A
:10F9E00000C007403C050040FCED00E01056004020
:10F9F0000404001020C50040E40E004004E501406E
:10FA000000E401400400FA050090D003904100207A
:10FA10000448017F04480029024901D002F081B95D
:10FA200002F0F0B8F85900200020004002E008C8B9
:10FA3000121F08C1002AFAD170477047002001E068
:10FA400001C1121F002AFBD17047000001212028AC
:10FA500003DA81400548014003E0402802DA2038FB
:10FA6000814009B10120704700207047FC06FFBCAF
:10FA700070B500230D884C680DE0E618E15C7678DF
:10FA8000864206D1E018801C491E5060118000207B
:10FA900070BD0B445B1C9D42EFD8052070BD00007B
:10FAA00070B50024084D05E0686810F8340001F0D6
:10FAB000BFF9641C28788442F6D304480068BDE886
:10FAC000704000F0FBB8000048410020B01E02006A
:10FAD00070B50024064D06E06868012110F8340076
:10FAE00001F0CAF9641C28788442F5D3002070BD67
:10FAF00048410020F8B515460C460646052A01D2B5
:10FB00000720F8BD01F09EFA18B901F06DFA00283F
:10FB1000F7D1104900204E600C70C1E902500E4D23
:10FB200008610DE006EBC4006968009181788DF8EA
:10FB300001100078094A694601F0F0F90028E0D187
:10FB4000641EE4B2EED2BDE8F840054A0021024846
:10FB500000F026B848410020B01E0200F108020063
:10FB600069070200BFF34F8F05480168054A01F499
:10FB7000E06111430160BFF34F8F00BFFDE700005C
:10FB80000CED00E00400FA050EB500210091CDE96E
:10FB900001106A4644F20100FFF7E4FF0EBD0000C9
:10FBA000074B5B6823B12AB120B10068037C1BB10D
:10FBB0000820704707207047417442610020704759
:10FBC0006C4100202DE9F0470746984614468946C7
:10FBD00090074FF0000526D12CB301F031FD134EF4
:10FBE00006F11000C6F80C800570457080F8029090
:10FBF00044607560357075701420FFF721FD072192
:10FC00001420FFF754FD1420FFF730FD084807606B
:10FC100007211120FFF74BFD0548001F0068B06069
:10FC20000020BDE8F0870720FBE700005C410020D2
:10FC3000081501402DE9FC47DFF87890D9F8043029
:10FC400073B368B3052902D20720BDE8FC87436976
:10FC500033B3437C012B25D000270446002588467A
:10FC600016468DF80050684600F038F801A802F0FA
:10FC7000D1F8C8B1012101700F4944600968C0E999
:10FC80000218C0E904769DF8040089F801009DF887
:10FC9000000000F047F81420FFF7FEFC2846D4E7E8
:10FCA0000820D2E70F46D8E704259DF8000000F0B1
:10FCB00039F8F3E76C410020041501400649496812
:10FCC00039B130B1416921B100210174022101F043
:10FCD000F1BE0820704700006C41002030B5EFF302
:10FCE000108172B60D4A9468012324B10370002973
:10FCF00000D162B630BD93604FF0E023D3F880515D
:10FD0000074C25401560C3F88041D3F88441546006
:10FD10005A17C3F8842100220270E8E7385A0020FD
:10FD2000FC06FFBC0B498A68002A11D000280FD1BD
:10FD3000EFF3108072B60B684FF0E022C2F800318A
:10FD40004B68C2F8043100228A60002800D162B6F4
:10FD500070470000385A00200249887D497D0840DC
:10FD600001F05EBD185600202DE9F04704460388D7
:10FD70003F4801228CB000F1150A102B09D0112B3D
:10FD800055D01A2B71D1217AB2EB111F54D2012315
:10FD900053E0027D417D05468A43011D06A801F01E
:10FDA0001AFD142206A901A8FFF746FBDFF8C09050
:10FDB0000026374609F114090DF104080AE000BFD6
:10FDC00008EB46001D2283884946281D009701F054
:10FDD000C7FC761C0198B042F2D8287DA688C043A3
:10FDE000C0B201F0DFFCA0F57F41FF3917D005EB71
:10FDF00040000123868032465146281D01F01FFD38
:10FE0000012332464946281D01F019FDE07B0228F6
:10FE10000BD000231649A2881631281D20E00CB013
:10FE20000420BDE8F047FFF7AFBE0123F2E700234F
:10FE3000A2885146001D13E000230D490546A28803
:10FE40001731001D01F0FBFC207A0221B1EB101FDD
:10FE500001D2012300E000230549A2881831281DA2
:10FE60000CB0BDE8F04701F0EABC0CB0BDE8F0878B
:10FE70001856002070B540B10C4D297839B10446B0
:10FE800001F0C2FB28B1002070BD0E2070BD08201B
:10FE900070BDE868062807D20549226801EB800199
:10FEA000401C0A60E860EEE7042070BD304100208D
:10FEB0004C56002040B1054900220123CA600B7056
:10FEC000C1E90102104670470E2070473041002002
:10FED00000281FD000291DD00F4A1278002A19D0FF
:10FEE0000A88112A0ED0302A06D0322A07D0332AA7
:10FEF00010D1091D01F084BA091D01F0F9BA091DDC
:10FF000001F0F4B98988B0F85E22914202D1002153
:10FF100080F85B12704700003041002010B50B469E
:10FF2000040009D0124A107840B1D06830B194F87A
:10FF30005B0228B1112010BD0E2010BD082010BD9D
:10FF4000A4F85E320020906084F85C0284F85A02C3
:10FF500084F85902074822460121006820601846AB
:10FF600094DF0028EBD1012084F85B02002010BD53
:10FF7000304100204C56002070B505468488FFF7BC
:10FF8000F3FE284601F040F9082C12D204EB44009D
:10FF9000084900EB041001EB40102946FFF798FFD9
:10FFA00004482946803800EB0410BDE8704000F09A
:10FFB00065B870BDAC42002070B518B30288A2F5D8
:10FFC0007F41FF391CD0104C4388104D206800EB56
:10FFD0008001401C00F00700206005EB8101022039
:10FFE0004B81C881081D086100248C8101200872A2
:10FFF00008714C710A80887001F0C2FD204670BD06
:020000040002F8
:10000000082070BD0E2070BD40410020EC5800203B
:1000100040B1018022B11168C0F802109188C180FE
:10002000002070470E20704730B5134D040085B096
:100030002DCD8DE82D001DD0E1B10868D0B1002094
:100040006080A080E0804FF6FF7020800868A0608C
:1000500004F10C01684663DF002809D1207B8DF88C
:10006000120041F22350ADF8100004A8FFF702FF80
:1000700005B030BD0E20FBE79C1E02000EB5002827
:100080001FD000291DD00A88112A23D0382A19D060
:10009000392A16D102888B889A4212D14A898388DC
:1000A0009A420ED1CA89012A0BD102228DF8002072
:1000B0000288ADF80220097C8DF804108268694638
:1000C00090470EBD008889888842FAD1BDE80E406D
:1000D00001F056BD028889888A42F2D14FF6FF713D
:1000E0000180002141808180C1800EBD70B518B3B0
:1000F0000288A2F57F43FF3B1CD0104C104D2368B3
:1001000003EB83025B1C03F00703236005EB820211
:10011000C38853810123D381141D14610024948169
:1001200002241472117100881080937001F028FD70
:10013000002070BD082070BD0E2070BD4041002021
:10014000EC5800203EB50A78002A40D18A88A2F5F2
:10015000A853233B3BD18A79037B9A4237D10122B2
:100160008DF800204A88ADF80220002218E000BF78
:1001700002EBC20301EB430333F80E4F04F6DC2419
:10018000B4F5005405D0012C09D11B89ADF8083015
:1001900005E01C89ADF806405B89ADF80430521CBF
:1001A0000B7A9342E4D80188A1F57F42FF3A0BD045
:1001B000C18849B9818839B9418829B90199C0F8FC
:1001C0000210BDF80810C1808268694690473EBDA4
:1001D00000B5154889B000230068079050221349E4
:1001E00007A801F0CBFB08B1FFF7CEFC6A4600215F
:1001F000082001F0ADFB08B1FFF7C6FC0A20ADF8FE
:1002000000001720ADF81000684601F097FB08B118
:10021000FFF7BAFC064801F087FB002801D0FFF782
:10022000B3FC09B000BD0000441E02009441002050
:1002300079FF010007490B5C4FF0A041D1F804257C
:100240000120984020EA0203C1F808351040C1F8A7
:100250000C057047661E02000249085C012100F08F
:1002600055BF0000661E02000249085C002100F034
:100270004DBF0000661E02000649095C4FF0A04019
:10028000D0F80405C84010F0010000D0012080F033
:1002900001007047661E02007CB50024084E25460A
:1002A0000122305D009500231146019500F0E6FE25
:1002B000641C042CF4D3BDE87C4000F003B80000BB
:1002C000661E020010B500242046FFF7C5FF641C1F
:1002D000042CF9D310BD10B500242046FFF7C4FF4D
:1002E000641C042CF9D310BD10B50246064B4FF028
:1002F000FF3000215C5C944201D1084610BD491CCE
:100300000429F7D310BD00006A1E02002DE9F04752
:100310000D468146FFF7E8FF0446042838D2DFF88F
:1003200078801C481D4EA8F1100735B3012D0ED062
:10033000022D2DD104EB440030444578002D27D008
:10034000F968002924D02846BDE8F047084704EBA7
:100350004401755C0E44717859B179680E4A01EB1D
:10036000810149000E3A8068FFF764FC08B987F8FC
:100370000290B17808F80410E0E78068FFF79EFC6F
:1003800004EB4401314418F804008D78A842D5D01C
:10039000BDE8F087701E02002C410020EC550020C3
:1003A000044A01460020127AD20702D0084600F023
:1003B00003B870471C4100202DE9F047594C054611
:1003C0000026607818B100206070FFF77BFF0120E5
:1003D000554F4FF47A694FF4C87A4FF06408182DDE
:1003E0002CD2DFE805F0890C0C2C3A4751565A61A3
:1003F0005A619B6969696969898C8F929B9B00200E
:10040000FFF73AFF00284FF0000008D0FFF724FF65
:10041000022D02D14FF4E16006E0484604E0FFF708
:1004200023FF022D2ED05046B0FBF8F125706068F6
:10043000414300223868FFF7FDFB064659E00020E3
:10044000FFF71AFF28B10020FFF706FF4FF44870AE
:10045000EAE70020FFF708FF14E00020FFF70CFF99
:1004600000284FF0000002D0FFF7F6FED5E7FFF7B7
:10047000FBFED8E70020FFF7FFFE0028E9D00020B0
:10048000FFF7EAFEC820CFE70020FFF7D3FE257074
:1004900007E000203FE025702BE060700120FFF7AF
:1004A000C9FE00226168C5E760700120FFF7C2FE47
:1004B000606800EB8001BCE77868FFF7FFFB064649
:1004C000D5F1110000D01EB10220FFF7C5FE10E0EB
:1004D00001280BD9C82110FB01F1B1FBF8F16068CC
:1004E000002241437868FFF7A5FB06460220FFF78C
:1004F000BBFE3046BDE8F087FFF7E4FECBE7FFF731
:10050000E1FEC6E7FFF7DEFE04E0FFF7DBFE0020BA
:10051000FFF7AAFE0120FFF7A7FEBCE7FFF7DBFE0F
:10052000B9E700001C410020701E02000D2801D018
:10053000FFF72ABB084600F08DBA000005494FF0CE
:10054000FF32082841F8202002D3084480F84820D0
:1005500070470000A0590020F0B54FF0FF3512B1F0
:100560000023082601E008230C260C4C05E000BF00
:1005700054F823707F1C04D05B1CB342F8D3284688
:10058000F0BD26185DB286F8305044F82310002ADA
:10059000F5D1E11881F84800F1E70000A0590020EA
:1005A0000249084490F9300070470000A05900202B
:1005B00008B5024690F85A020B4600EBC00101EB69
:1005C000001002EB800092F8592242B1521ED2B2C2
:1005D00002EBC20100EB4102518A491C00E0C188D4
:1005E000ADF800100089ADF802006946184696DFA4
:1005F00008BD000070B5084C050009D01034216812
:10060000002907D008682060496828468847F6E72F
:100610000834F4E770BD00008C5900202DE9F05F2C
:1006200026484168F1B3DFF898B00E688146DBF8E0
:10063000004087688078E11B21F07F45ED1CB0B950
:10064000DFF880804FF48030C8F84403C8F8040312
:100650001120FEF7F5FF1120FFF708F84FF0010A0F
:10066000C8F800A02F2000F03FFB89F802A0B54297
:1006700000D23546124BE8193C3320F07F40186019
:10068000DBF800105A46091B21F07F41001B20F0C7
:100690007F40C91C81420FD9106818602F2000F0DC
:1006A00023FB00E004E0BDE8F05F1120FEF7F4BF9B
:1006B000BDE8F05F00F0C4BFBDE8F09F5C410020E2
:1006C00004150140001001404188034A02EB011269
:1006D00001461046FFF736BD2C4200202DE9F843B5
:1006E000054690F85A020F4600EBC00101EB0010DE
:1006F00005EB800695F85942914604EBC40006EBE1
:1007000040013279601C0A31904226D16B460022AA
:10071000284600F055F918B310E0401EA04201D160
:10072000002004E004EBC40006EB40001C308046CF
:1007300002466B46284600F043F930B1002038707D
:100740006946484697DFBDE8F88395F85902414667
:10075000401C641C85F85902E4B23079A042DCD810
:10076000012038700020EEE72DE9F0410026012538
:10077000144C22E06068226900EBC607387805FA5D
:1007800000F1114217D08A43226100F023FC024697
:100790003878E36805FA00F1194002FA00F399424B
:1007A00009D17978012901D0012100E000215140CF
:1007B0007A6802B19047761CF6B220788642D9D387
:1007C000BDE8F081484100202DE9F047894690F8C6
:1007D0005A12904601EBC10202EB011100EB8107B6
:1007E000384600F011FF060041D0224CA0680628D0
:1007F0003DD200EBC000204D00EB400005EB800037
:100800006422A0F802803946001DFEF715FE00277D
:10081000B9F1000F07D0A06800EBC00000EB40006A
:1008200005F8207007E0A168022001EBC10101EB8F
:10083000410105F82100A06800EBC00101EB410176
:1008400005EB8101401C8E66A060E16888420ED1F4
:10085000002608E006EBC60000EB400005EB800038
:10086000816E8847761CE0688642F3D3A760BDE8B6
:10087000F0870000304100206456002030B50D465E
:1008800090F85A12144601EBC10202EB01119BB021
:1008900000EB810000F0B8FE030007D0ADF8024085
:1008A00001208DF800006846019598471BB030BDC7
:1008B0000E4910B50A784C780023A24212D0521C7F
:1008C000D2B20A70022A00D10B70084A0B78183293
:1008D00052F8232002608868104420F07F4088602E
:1008E000012010BD0360002010BD00005C4100200D
:1008F0002DE9F041124E07460125BD403068FFF753
:10090000DDF900280DD10F4C2069284207D1384667
:1009100000F060FB0028E06805D0284304E0A8430D
:100920002061BDE8F081A843E06020692843206190
:10093000A1683068BDE8F0410022FFF77BB90000F4
:10094000B01E020048410020F8B51C4C2078002859
:1009500032D0E068002658B10025607800282BD1FD
:10096000684648DF052805D030B1FFF70DF90AE0E9
:100970000125F2E7012606E0009800F037FA216928
:1009800009B1009888479DB96078002814D1608823
:10099000ADF800006946A06861DF052803D020B1EA
:1009A000FFF7F2F804E0012502E0D4E902018847EC
:1009B000002ED2D0002DE6D0F8BD00007C410020F2
:1009C00010B509892AB1D088491C814218D100206C
:1009D00010BD90F85A2202EBC20404EB021200EBA5
:1009E000820212899142F2D0491C198090F85A1261
:1009F00001EBC10202EB011100EB8100008902E072
:100A00001980D088401E5880012010BD10B50446C2
:100A1000087801280AD002281AD1087900284FF056
:100A2000020011D0BDE81040FFF71EBCFFF750F8E0
:100A300008B1FFF7A9F82046FFF7BEFA002807D053
:100A4000BDE81040FFF7A0B8BDE81040FFF704BCB8
:100A500010BD00002DE9F0410A4D0746002443F285
:100A6000020600BF05EB04103946FFF73FFB18B143
:100A7000B04201D0082803D1641C082CF2D3002016
:100A8000BDE8F0812C4200202DE9F043264CA4F172
:100A900010092278D9F8048099F80350404694F858
:100AA00001C0D9F8086031E002EB42036168521CD2
:100AB00001EBC301A378D2B2934200D100220B789C
:100AC000022B02D0032B21D11DE003464F681946AB
:100AD00003E0B94203D00B46C969B9B1F9E7A9B13E
:100AE0008B4205D1C06918B9104E0125B5600026AA
:100AF0000F68C969D96149B10B683B440B6005E0D7
:100B00000174C06900E000210028F9D19445CBD1DF
:100B1000C9E9010689F80350404502D00120BDE82B
:100B2000F0830020FBE700006C4100200010014032
:100B30002DE9F0412A4F0446002607F11005D7F8A9
:100B400004803EE002D02046E4691DE02878696810
:100B500000EB4002401CC0B201EBC2012870AA7831
:100B6000904200D12E700A784868012A2BD1027C6D
:100B70004ABB8A684260CA6882600A69C260496981
:100B80008161F97801B146604368BA68DFF854C002
:100B9000991A21F07F41614502D28268114406E032
:100BA000D11A826821F07F418A4202D9511A01602C
:100BB00000E006604660012186600174C66100F0B5
:100BC0005BFF002CBED1287869788842BED1796855
:100BD000414502D00120BDE8F0810020FBE7000084
:100BE0005C410020FFFF7F0008B501200090082332
:100BF00007220621052000F029FE27A000F086FE2E
:100C0000FFF74AFB0023284A03211846FEF7DAFFC4
:100C100008B1FEF7B9FF40F2666201212348FEF7F2
:100C200069FF08B1FEF7B0FFFFF7D2FA2048FFF7DF
:100C300041F908B1FEF7A8FF1C4C1E480025241FEF
:100C4000194E0090257048362078694606EB001052
:100C5000FFF7EAF908B1FEF797FF2078401CC0B211
:100C600020700828F0D3257000F02EFD0020FFF73B
:100C7000FBFA00BF00F028FE232807D0222803D06B
:100C8000282805D03628F5D1002002E0012000E018
:100C90000320FFF7DFFEEDE7200A0D706C6179207D
:100CA0007072657373656400E44100201441002094
:100CB000C90602000D0A0200C20800F00703012065
:100CC000895C98400840704700F180400068002827
:100CD00000D00120704708B500F18040002101607C
:100CE0000068009008BD000000283ED01F49204A3F
:100CF000096800BF00BF00BF00BF00BF00BF00BF4A
:100D000000BF91422FD000BF00BF00BF00BF00BF97
:100D100000BF00BF00BF00BF00BF00BF00BF00BFDB
:100D200000BF00BF00BF00BF00BF00BF00BF00BFCB
:100D300000BF00BF00BF00BF00BF00BF00BF00BFBB
:100D400000BF00BF00BF00BF00BF00BF00BF00BFAB
:100D500000BF00BF00BF00BF00BF00BF00BF00BF9B
:100D600000BF00BF00BF401EC3D1704790410020AC
:100D70000024F40070B50F4C0025207808B18525BB
:100D800016E00021A16061602161E1604FF0E02088
:100D9000D0F80001012610F0010F03D10721002037
:100DA00000F029F800F01CFE08B903480660267020
:100DB000284670BD8C5900201805004038B5002029
:100DC0008DF800006846FEF789FF074C207808B9C7
:100DD000FFF7D0FFE068401CE0600120A0709DF8A4
:100DE0000000FEF79FFF38BD8C590020002801D17C
:100DF000FFF700BC70474907090E002806DA00F02B
:100E00000F0202F1E02282F8141D03E000F1E0225B
:100E100082F8001400F01F02012191404009800077
:100E200000F1E020C0F88012C0F800117047000007
:100E300010B5044600F0D0FB28B12046BDE81040B4
:100E4000002100F052B9204600F0D2FB00280FD05C
:100E50002046FFF7A5FB074A02EB8001D1F81035C9
:100E600023F00103C1F8103501218140C2F80813B5
:100E700010BD0000006000402DE9F04188460546A5
:100E800000F0AAFB234E002828461AD0FFF788FB63
:100E9000304490F848008009032802D001280ED081
:100EA00007E04FF0A040D0F81005E84010F0010F27
:100EB00005D003212846BDE8F04100F016B9022113
:100EC000F8E700F095FB002822D02846FFF768FBE2
:100ED00004464FF4807000EB84000F4F81B207EBA3
:100EE0008400D0F8102542F00102C0F81025084611
:100EF00000F02CF9B8F1000F0AD02846FFF750FB9C
:100F000056F82000002803D00120A040C7F80403B1
:100F1000BDE8F081A0590020006000402DE9FC41AF
:100F2000DFF8A480044608EB0400002790F93000A5
:100F30001346C0170E46401C01D0082741E0F27846
:100F400019462046FFF708FB0546401C38D0B0780C
:100F500050B14FF0A04000EB8400D0F8001721F012
:100F60000201C0F8001707E00021737820460091C5
:100F70000A46019100F094F8F078C0B11348317836
:100F800000EB8500D0F81025114B1A40C0F8102551
:100F90004FF4F8524FF4403302EA042203EA0141CD
:100FA0000A43D0F810150A43C0F8102509E008EBF1
:100FB0000500327810F8481F41EA8211017000E004
:100FC00004273846BDE8FC81A0590020006000409D
:100FD000FFE0FCFF4FF0A041D1F81015C14011F027
:100FE000010000D00120704770B5144D95F85400F1
:100FF00008B1082070BD0020411E2A18401CC0B254
:1010000082F830102028F8D300242046FFF796FA03
:10101000641CE4B20C2CF8D307210620FFF7EBFE8A
:101020004FF4BE7000F092F805494FF00040C1F84F
:101030000403012085F85400002070BDA059002051
:1010400000600040034890F85400002800D00120C0
:1010500070470000A059002070B541EA4201DDE967
:1010600004564FF0A04441EA830141EA052104EB14
:10107000800041EA0641C0F8001770BD70B541EA32
:101080004201DDE904564FF0A04441EA830141EA00
:10109000052104EB800041EA0641C0F8001770BD4D
:1010A00070B541EA4201DDE904564FF0A04441EA3F
:1010B000830141EA052104EB800041EA0641C0F8C2
:1010C000001770BD1CB500220B460092114601921C
:1010D000FFF7C2FF1CBD1CB5002100910B46012289
:1010E00001911146FFF7B8FF1CBD4FF0A04202EB83
:1010F0008000D0F8002722F44032C0F80027D0F852
:10110000002742EA0141C0F80017704701224FF062
:10111000A043824011B1C3F808257047C3F80C25DD
:101120007047000018B5084B6C4601441B680093DB
:1011300006E000BF54F82030D3F81035401C08C238
:101140008142F7D818BD0000AC1E0200034908B563
:101150000844002101600068009008BD0060004064
:1011600002494058012800D000207047006000402C
:101170004058002800D00120704708B50022425096
:101180004058009008BDD0F80403084000D001206A
:1011900070474058002800D00120704708B5002251
:1011A00042504058009008BD10B586B000F11801BB
:1011B00000F108040491C07D01AAC008ADF80C003C
:1011C00003A90920FEF754FC30B101AA03A90820A5
:1011D000FEF74EFC002812D10A48FEF751F900280C
:1011E0000DD0BDF8042007480299FEF750F90028F9
:1011F00005D1044A2046083AA2F108018CDF06B066
:1012000010BD0000581E020010B50188041D1F29E2
:1012100058D00BDC102913D0112940D01B2962D0E3
:101220001D2960D1BDE81040FFF7BEBF3B294DD05E
:10123000552954D0562956D18088132176DF48E0AD
:101240002088082802D30020FEF79EFC218826482B
:10125000002200EB0110FEF7DBFE08B1FEF794FC64
:101260002188214A01EB410000EB0110803202EBA2
:101270004010FEF753FE112802D008B1FEF784FC9F
:101280000120FEF7F1FFFEF767FD08284FF0000090
:1012900014D0FEF7E9FFBDE8104000F015BAFEF7E4
:1012A000FFFB08B1FEF770FC00F00EFA0020FEF71D
:1012B000DBFFFEF751FD002815D10120BDE81040ED
:1012C000FEF7CABF2088211D75DF02E08088132148
:1012D00076DF002807D0BDE81040FEF755BC8088B7
:1012E0001721ADDFF5E710BD2C4200202DE9F84FA6
:1012F00005460C460888B5F85E12884259D195F823
:101300005A02DFF8F8A000EBC00101EB001005EB7A
:10131000800160884FF003094FF00008F0BBE688B9
:101320000879A21DF3B250FA86F6052E01D80344BF
:1013300000E005230B7100261CE000BF00EBC0039A
:1013400006EB860702EB470701EB4303D7F802C021
:10135000C3F80AC0D7F806C0C3F80EC07F895F8201
:10136000A3F81480A3F81680A3F81880401CA3F8F3
:101370001A80761C0B798342E0D895F85A2200EB4C
:10138000C00002EBC20303EB021205EB820231F84C
:101390001000128990420ED2087900E00BE0052877
:1013A00009D085F8590221882846FFF701F9010084
:1013B0000AD1BDE8F88F85F8598222886946284607
:1013C000FFF78CF901000BD085F85B822288284654
:1013D000FFF754FA8AF800902188AAF80210E8E78B
:1013E0009DF800000028E4D0228801212846FFF75C
:1013F000EBF92188284600F0B1F8DAE764560020BE
:10140000F8B505460C460888B5F85E1288425DD1ED
:1014100095F85A02A61D00EBC00101EB001005EB88
:10142000800395F85902618800EBC00003EB40008F
:101430000A3039B329E000BF01EB410206EB42025A
:101440009788B7F5245F0CD06FF4245C17EB0C077A
:101450000AD0012F02D0072F0BD108E05288428119
:1014600007E05288828104E05288C28101E05288FC
:10147000028242892AB182891AB1C2890AB1028ADA
:101480001AB9491C32888A42D6D800268DF80060E5
:1014900095F859021979401C884203D101208DF832
:1014A000000018E085F85902228869462846FFF7AF
:1014B00015F901000BD085F85B6222882846FFF7FA
:1014C000DDF90A480321017021884180F8BD9DF8AB
:1014D00000000028FAD0228801212846FFF774F97D
:1014E0002188284600F03AF8F8BD00006456002034
:1014F00070B505460C4690F85A02228800EBC001F0
:1015000001EB001005EB8001B5F85E02824222D1AA
:10151000608848B100212846FFF756F921882846FF
:10152000BDE8704000F01AB8A2680A60E068C1F82F
:10153000060021882846FFF73BF801000BD0002069
:1015400085F85B0222882846FFF798F902480321B4
:1015500001702188418070BD645600202DE9F04162
:10156000044690F85C020E46401C1949C0B284F84B
:101570005C02C9680327174D4FF0000E884224D241
:1015800084F859E294F85A02401CC0B200EBC00142
:1015900001EB001104EB810284F85A02A5F1180155
:1015A00001EB800001210068106082F804E0304601
:1015B00094DF010007D084F85BE232462046FFF753
:1015C0005DF92F706E80BDE8F08184F85BE2F8E78A
:1015D00030410020645600200449084490F930004E
:1015E000082801DB0120704700207047A059002027
:1015F0000449084490F93000082801D201207047BE
:1016000000207047A059002070B50C4B00210A4AF9
:10161000DC680DE002EB81058678AD78B54206D135
:1016200032F821500688B54201D1586870BD491C76
:10163000A142EFD3002070BD4C5600203041002065
:1016400070B5012670044FF0E0210025C1F880013B
:10165000084C4010C4F84803C4F8080366602F2003
:10166000FFF742FBA660044C2F20A560FFF73CFB70
:10167000A57070BD001001405C41002070B50546AA
:10168000C87D0C4600284FF4847128460AD0FFF725
:1016900074FDD5F81805627EE1688854607E401CB0
:1016A000607670BDFFF769FDD5F8180570BD1FB5F0
:1016B00001238DF800308DF808100192D0E9001256
:1016C000684690471FBD000010B58BDF07488ADFD2
:1016D00008B1FEF759FA0120FEF762FE002803D098
:1016E000BDE81040FEF750BA10BD0000481E0200D1
:1016F00010B50446FEF7AAF940B1002C09DA04F04F
:101700000F0000F1E02090F8140D06E042F2010015
:1017100010BD04F1E02090F800044109082914D21A
:1017200099B1012911D004290FD005290DD00B48FA
:101730000122816861B1610950F8213004F01F0471
:10174000A240134340F8213005E042F2020010BDF0
:101750002046FDF796FF002010BD0000385A0020FB
:1017600070B50028049D18D0002916D0002A14D086
:101770005FF0000430F814609E420FD10020012376
:10178000A34008E001EB000426780DB11E4300E001
:101790009E432670401C9042F4D370BD641C082CFC
:1017A000E8D370BD70B5054600242146284600F0F8
:1017B0000AF808B1204670BD641CA4B2082CF4D30A
:1017C0004FF6FF7070BD01228A40024201D0012015
:1017D0007047002070472DE9F04186B080464FF0F9
:1017E000000017460D00009012D000246E46A1B2F2
:1017F0003846FFF7E8FF40B1009935F8140006EBD2
:10180000410188800098401C0090641C082CEED395
:10181000142269464046FDF70FFE06B0BDE8F08190
:1018200070B5002506462C46A1B23046FFF7CBFF27
:1018300000B16D1C641C082CF6D3284670BD08B599
:10184000009313460122FFF78BFF08BD2DE9F041FD
:1018500007461C4615460E460846DDF81880FFF779
:101860003AFC00212046FFF72DFC1448066013487F
:10187000083004600124B8F1000F0FD03846FFF79C
:101880002AFC00212846FFF71DFC0C48001D0560BE
:101890000A48001F0760094860300460074908488B
:1018A00018310860054904200C3908600548846037
:1018B00004600021C0F80811BDE8F0810C2500404B
:1018C00000509D0000200040064800BFD0F80811DD
:1018D0000129FBD10021C0F8081103480068C0B2FB
:1018E00070470000002000401825004005490860AE
:1018F000054800BFD0F81C110129FBD10021C0F818
:101900001C1170471C2500400020004000B5034614
:101910000078012204E000BFFFF7E8FF985C521C4A
:101920000028F9D100BD000018B10349C8600020AB
:1019300070470E20704700007C4100201CB5034911
:1019400001910091694660DF1CBD0000104100203C
:1019500070B50E46054614461C211046FDF785FD60
:10196000012020800021A16121752672657205B1D8
:10197000A072002070BDFEF7F5B800002DE9F0411F
:10198000074619B188074FF0000402D00720BDE8D0
:10199000F081114D4FF0E0200126A9606A806B6054
:1019A000D0F8000110F0010F03D034460020FDF7FD
:1019B00052FE0A49384610DF070005D014B1002056
:1019C000FDF75FFE3846E2E72E70FFF7F7F9BDE856
:1019D000F0411620FFF78CBE7C41002077190200F1
:1019E00001480078704700007C4100202DE9F84F45
:1019F000204C00256846D4E901B6FEF759FF804621
:101A0000FFF742F80746A946B8F1000F25D000239A
:101A1000009ACC46606819E007680146974202D9EF
:101A2000BA1A026014E0C1F800C0D1F80C80D21BD1
:101A3000C8693B448A46B8F1000F07D0F71827F071
:101A40007F47C1E90178CAF81C500D460028E3D150
:101A500060602846FFF76CF804E02846FFF768F856
:101A600000B917B15846FEF7D9FD84F80390BDE8D8
:101A7000F88F00005C4100200D4B10B5596831B162
:101A800002680C68A24204D8A21A0A60C1615860B8
:101A900010BD0B4603E00B46C969121B21B10C684F
:101AA0009442F8D3A41A0C600260C161D86110BDE1
:101AB0005C4100207CB5064600240D468DF80040B0
:101AC0006846FEF70BF901A800F0A4F970B10570A3
:101AD000094946609DF8040048709DF80000FEF733
:101AE00021F91420FDF7D8FD20467CBD04249DF883
:101AF0000000FEF717F9F7E76C4100202DE9F041EF
:101B00001D4D6C68002C35D01C4800270068A96862
:101B1000B846401A20F07F462068B04215D82246C9
:101B2000361A0744E469107C68B182F81080EB68CB
:101B300033B1D2E90501984728B1FEF725F802E054
:101B4000D2E905108847002CE6D1297868788142CF
:101B500006D1401CC0B26870022801D185F801800E
:101B600005486978183040F82170BDE8F04114202C
:101B7000FDF792BDBDE8F0815C41002004150140F5
:101B800010B50F4CD4E90010884211D000EB800250
:101B90000C4800EB82018B785BB130F822000831F1
:101BA0009CDF002804D12079401C00F00700606011
:101BB00010BD30F82200898800229ADFF1E700008A
:101BC00040410020EC58002070B50C4605464FF40B
:101BD0008E71FFF7D2FAA18AA068415CA08A401CEE
:101BE000A082C5F81C1570BD1FB500228DF800201D
:101BF0008DF80810816801918275D0E9001268465D
:101C000090471FBD2DE9FF470C4605464FF4007174
:101C1000FFF7B9FA01274FF40178002618B34FF403
:101C2000927949462846FFF7A3FAE0B1494628468B
:101C3000FFF7A3FAC5F80883A07E00B96F60022001
:101C40008DF80000D5F88004C5F880040390E07D8D
:101C50008DF80800E0680190E6752676D4E9001258
:101C60006846904727E004212846FFF78CFA10B316
:101C70004FF484712846FFF77BFAE0B121462846ED
:101C8000FFF7FCFCE07D617E884214D1207E38B1F4
:101C9000617EE268E0752069E0602676667607E09E
:101CA000A07E00B96F60C5F80883E675617EE268C2
:101CB0002046FFF7FCFC4FF48E7841462846FFF79C
:101CC00057FA88B1A08AA17D884204D221462846CD
:101CD000FFF77AFF08E041462846FFF74EFAA17D5C
:101CE00011B12046FFF780FF4FF4A2784146284605
:101CF000FFF73EFA002812D041462846FFF73DFA8A
:101D0000A07E00B12F60E07D002808D0E675617EDE
:101D1000E26804B02046BDE8F047FFF7C8BCBDE864
:101D2000FF872DE9FF410C464FF49277054639466F
:101D3000FFF72FFA0026C0B139462846FFF72EFAE2
:101D400002208DF80000D5F88004C5F880040390C7
:101D5000D5F83C058DF80800E0680190E675267618
:101D6000D4E900126846904724E04FF4887739465A
:101D70002846FFF70EFAE8B139462846FFF70EFA73
:101D8000D5F83C05C1B2E07D884213D1207E60B118
:101D9000E268D5F8000220F02000C5F80002207E9D
:101DA000E0752069E060267601E0E675E26820468D
:101DB000FFF77DFC4FF4A27739462846FFF7E9F993
:101DC00068B139462846FFF7E9F9E07D38B1E67594
:101DD000D5F83C05E268C1B22046FFF768FC4FF435
:101DE000907631462846FFF7D4F900280FD03146C7
:101DF0002846FFF7D3F9A07D002808D0D5F84C0578
:101E000004B0C1B22046BDE8F041FFF7EDBEBDE829
:101E1000FF8100000A4A10B553789478591CC9B262
:101E20008C4200D1002114788C4201D1002010BDD9
:101E30000170506803EB430100EBC10010BD0000CE
:101E40006C410020010000070000A00050000000CD
:101E500006001800000090014E6F726469635F42D3
:101E60006C696E6B7900111213140D0E0F100000C7
:101E7000AC550020CC550020F85500200D00030083
:101E80000D0302000E0003000D0302000F0003000B
:101E90000D030200100003000D03020023D1BCEA71
:101EA0005F782315DEEF12120000000000000050E2
:101EB000185A002003000000D81E02001041002024
:101EC000840000002CFA01005C1F020094410020F5
:101ED000B43800003CFA0100000000000D000300CF
:101EE0002D050200000000000000000000000000BE
:101EF00000000000000000000000000000000000E2
:101F000000000000000000000000000000000000D1
:101F100000000000000000000000000000000000C1
:101F200000000000000000000000000000000000B1
:101F300000000000000000000000000000000000A1
:101F40000000000000000000000000000000000091
:0C1F500000000000000000000090D00322
:040000050001F40101
:00000001FF
