:020000040001F9
:10400000F03B0020A5410100B7410100B94101008A
:1040100000000000000000000000000000000000A0
:10402000000000000000000000000000BB41010093
:104030000000000000000000BD410100BF41010080
:10404000C1410100C1410100C1410100C141010064
:10405000C141010000000000D5790100A94801001C
:10406000C1410100C1410100C1410100C141010044
:10407000C1410100C1410100C1410100C141010034
:10408000C141010085580100C1410100C141010049
:1040900011590100C14101009F610100C1410100AE
:1040A000C1410100C141010000000000000000000A
:1040B0000000000000000000000000000000000000
:1040C00000F002F800F032F80CA030C808382418CC
:1040D0002D18A246671EAB4654465D46AC4201D140
:1040E00000F024F87E460F3E0FCCB6460126334240
:1040F00000D0FB1AA246AB46334318478840000065
:10410000A84000000023002400250026103A01D317
:1041100078C1FBD8520700D330C100D50B6070477F
:104120001FB5C046C0461FBD10B510BD03F0C9FF86
:104130001146FFF7F5FF00F0A3F903F0E1FF03B428
:10414000FFF7F2FF03BC03F0E5FF0000401E00BFD5
:1041500000BF00BF00BF00BF00BF00BF00BF00BF67
:1041600000BF00BF00BFF1D17047000070B5054629
:104170000C46164602E00FCC0FC5103E102EFAD2A8
:10418000082E02D303CC03C5083E042E07D301CC6E
:1041900001C5361F03E021782970641C6D1C761E52
:1041A000F9D270BD0A48026803210A430260094837
:1041B000804709480047FEE7FEE7FEE7FEE7FEE727
:1041C000FEE7000005480649064A074B7047000015
:1041D00024050040F5410100C1400100F02B002002
:1041E000F03B0020F0330020F03300201D491C4834
:1041F000086070471C48018CC9B2012917D1828C14
:10420000120714D1028D1206130F03D1838D1B06E2
:104210001B0F1ED0120F012A03D1838D1B061B0F0B
:1042200017D0032A03D1828D1206120F11D0012953
:104230000ED1818C09070BD1018D0906090F0429C4
:1042400006D1808D0006000F02D108490120886048
:104250007047084A06495160D113074A9161EBE75C
:104260000024F40000200020C00F00F000060040F1
:10427000DFFF07C000050040006C0040BFF34F8F18
:10428000FE49FD48C860BFF34F8FFEE7BFF34F8F75
:10429000FA49F948C860BFF34F8FFEE7BFF34F8F6D
:1042A000F649F548C860BFF34F8FFEE7BFF34F8F65
:1042B000F249F148C860BFF34F8FFEE710B500F038
:1042C0005AFB10BD7047012916D1FF222D32EC494F
:1042D000102809D0112810D0BFF34F8FE749E648C6
:1042E000C860BFF34F8FFEE7C888801CC880C888AD
:1042F000904201D93C20C8807047C888801EC88081
:10430000C8883C28F8D2CA80704708B502F00CFF74
:10431000684603F04FF90099084310D1D8480021AE
:104320000170407800280AD031DF002807D0BFF3A1
:104330004F8FD249D048C860BFF34F8FFEE708BD0A
:10434000F8B50646851D01F0C5FF3146CD4800F0A1
:1043500001FE3146CC4800F0F1FC304600F07CFF15
:104360003088C54FC64C102806D0112833D01328EA
:1043700041D0192866D14BE000F07CFBB088A080CA
:10438000B420E080012100220904E06801F062FB12
:10439000002806D0BFF34F8FB848C760BFF34F8FD8
:1043A000FEE701210022C903206901F053FB002828
:1043B00006D0BFF34F8FB148C760BFF34F8FFEE702
:1043C00003F09EFA00283DD0BFF34F8FAB48C76083
:1043D000BFF34F8FFEE702F068F9002806D0BFF365
:1043E0004F8FA648C760BFF34F8FFEE701202070B4
:1043F0000021A1701AE0A54A0021A0887FDF0028D3
:1044000020D0BFF34F8F9D48C760BFF34F8FFEE7AB
:10441000B079002833D100F02DFB9E499C480860FC
:10442000091D08602078002802D00120607009E092
:1044300031DF002806D0BFF34F8F9048C760BFF32D
:104440004F8FFEE73088502819D128880E2816D1C2
:10445000A87E312801D10120A0701A352A78E97888
:1044600010466A78090612021043AA781204104313
:10447000084300BA000AE97800020843A060F8BDCA
:1044800000259CB0844B062204212846009501F0AB
:1044900043FA794E794F002805D0BFF34F8FFE6065
:1044A000BFF34F8FFEE77D4A01217D4801F0A9FA55
:1044B000002805D0BFF34F8FFE60BFF34F8FFEE79C
:1044C000784A0121784801F09CFA002805D0BFF312
:1044D0004F8FFE60BFF34F8FFEE77449012003F05A
:1044E00000FB002805D0BFF34F8FFE60BFF34F8F56
:1044F000FEE700236E4A02216E4803F0D0F900283F
:1045000005D0BFF34F8FFE60BFF34F8FFEE7002350
:1045100050226949082001F011FE002805D0BFF3A0
:104520004F8FFE60BFF34F8FFEE7644801F027FE18
:10453000002805D0BFF34F8FFE60BFF34F8FFEE71B
:104540005F4801F024FE002805D0BFF34F8FFE60C6
:10455000BFF34F8FFEE702F06DFE002805D0BFF3DA
:104560004F8FFE60BFF34F8FFEE76946112003F0C7
:10457000E2F9002805D0BFF34F8FFE60BFF34F8FE5
:10458000FEE750480390029568460178817101A8C2
:1045900002F0A0FA002805D0BFF34F8FFE60BFF3F2
:1045A0004F8FFEE71120694608720A2246A102A831
:1045B0007CDF002805D0BFF34F8FFE60BFF34F8F25
:1045C000FEE7444878DF002805D0BFF34F8FFE6038
:1045D000BFF34F8FFEE7FF209130009569460195AC
:1045E000088042004A808D80C88068467ADF0028B3
:1045F00005D0BFF34F8FFE60BFF34F8FFEE706215C
:104600006846354A0170516810689268119110909F
:1046100012923C2101A803F05BFC022001900124CE
:1046200068464472848103210490018410A8099093
:10463000002101A801F0DFF8002805D0BFF34F8F5B
:10464000FE60BFF34F8FFEE7184828214561856162
:10465000C561056245622148057005720182B42179
:104660004182032118A8017210951195139510A885
:10467000149505711AA833E00400FA0500ED00E076
:10468000042000207C240020642400201820002026
:104690000C000300400700503C210020BD420100F7
:1046A00010200020C5420100142000203C240020DE
:1046B0006606000034200020EC2300204143010066
:1046C0000B430100AD4201004E6F726469635F48A5
:1046D000524D000041030000788101005024002069
:1046E000129001200146103110A8017300200146EC
:1046F00010A841730020014610A8817301200146D3
:10470000103110A8C1730020014610A801740146A1
:10471000564800F047FC002805D0BFF34F8FFE60DD
:10472000BFF34F8FFEE7159516951795189518A9A5
:1047300011201995487088700020C870401C00072F
:10474000000F1030087110A90C76642018A90870A9
:1047500015A9474800F01DFB002805D0BFF34F8F77
:10476000FE60BFF34F8FFEE74021684603F0B0FBC9
:1047700040A1684601F07CF801200146103108A8EC
:1047800001770020014608A84177684600F0E1F96A
:10479000002805D0BFF34F8FFE60BFF34F8FFEE7B9
:1047A0000520C00300950190029003950495032114
:1047B0000595684601732D4881896846C181047456
:1047C00031480690684600F014FD002805D0BFF37C
:1047D0004F8FFE60BFF34F8FFEE72C491E200880ED
:1047E0008878E122204310400C30DF22104088708E
:1047F0000720C87010200871254873DF002805D0F5
:10480000BFF34F8FFE60BFF34F8FFEE700F0FCF861
:10481000204CA078002818D01F4A1421134800F01B
:1048200058FC00280DD008280BD01C49884208D01D
:104830001B49884205D0BFF34F8FFE60BFF34F8FF7
:10484000FEE70120E070A57002E0E078002804D0C7
:104850001448A168814200D1E5703DDF0028D8D01E
:10486000BFF34F8FFE60BFF34F8FFEE77C24002025
:10487000642400204E6F7264696353656D69636FD1
:104880006E647563746F72009D42010018200020F1
:1048900050240020042000201E20002003300000AF
:1048A000013400007856341247480168002961D06D
:1048B00010B50021016045488068454A0121C0B219
:1048C00051604B2109014843FF2103F003FB4100E4
:1048D0004018FF300F303F4980B2884201D3642135
:1048E00036E03D4A904209D9081A3A2148436421EA
:1048F00003F0FEFA6421081AC1B229E03749884260
:1049000009D9101A18214843A02103F0F1FA2A21ED
:10491000081AC1B21CE0324A90420AD9081A0C2186
:104920004843FF212D3103F0E3FA1221081AC1B2E6
:104930000EE02C4988420AD9101A06214843FF216B
:10494000553103F0D5FA0621081AC1B200E0002162
:10495000254800F0C3FA00280BD0082809D02349C5
:10496000884206D02249884203D022A25321FFF771
:1049700085FC10BD704770B522480124446013487F
:1049800018214160104E002535600460072027DFA4
:10499000002803D017A26921FFF770FC032107202C
:1049A00028DF002803D013A26C21FFF767FC072043
:1049B00023DF002803D00FA26F21FFF75FFC3560D3
:1049C0000348046070BD00000071004000750040A5
:1049D00000700040B80B0000540B0000B40A000047
:1049E000880900003408000064240020033000001F
:1049F000013400002E2E5C626174746572792E633E
:104A0000000000000073004070B51F48012484605E
:104A10001E4D1F492A46002044DF002803D01DA256
:104A20005521FFF72BFC012042DF002803D019A2FB
:104A30005A21FFF723FC1A480021416081600921B7
:104A400001611848C460194A1749116018490C607F
:104A50000121184A8904D1601849174A0A6100BF28
:104A600000BF00BF2C60164A0A6100BF00BF00BF34
:104A7000046070BD1149002008610A4901204860A6
:104A80000C498004C8607047400700500060004037
:104A9000409100402E2E5C6C65642E630000000087
:104AA0000095004000900040841E000040950040AA
:104AB0000092004000050050031F02000065004006
:104AC00003120300F0B58FB01D4614460E000746D2
:104AD00004D179A26D210020FFF7D0FB002C04D176
:104AE00075A26E210020FFF7C9FB00200090019005
:104AF0000290039004900590694606900A7802217E
:104B00000A4369460A70012208A98A7069460F841F
:104B100007902A780A776A784A77897FF9221140C4
:104B2000891CE72211404A08520069468A7708A981
:104B3000099107A90A910B900C9069468C85C8854C
:104B40000C866A480D9609AA0088149BA2DF0FB054
:104B5000F0BD30B585B004460120694688716448CF
:104B60008880624A01A90120A0DF00287ED1228826
:104B700025463C35002A08D05E4800902B465E480A
:104B80006168FFF79FFF002870D12289002A08D0B2
:104B90005A4800902B465A48E168FFF793FF0028D7
:104BA00064D1228A002A08D0564800902B465648E5
:104BB0006169FFF787FF00287CD1228B002A08D08B
:104BC000524800902B465248E169FFF77BFF0028CE
:104BD00070D1228C002A08D04E4800902B464E48B7
:104BE000616AFFF76FFF002864D1228D002A08D088
:104BF0004A4800902B464A48E16AFFF763FF0028C5
:104C000058D1206B002829D0027869460A720188A1
:104C1000FF22120211400A0A69464A72FF22016805
:104C2000120411400A0C69468A7201682B460A0E6A
:104C30006946CA7202790A73027A4A7301890A0ABA
:104C400069468A7380680822000CC8733548009052
:104C500002A93548FFF736FF00282BD1606B0028EA
:104C60000BD03249009102792B4600E022E0016826
:104C70002F48FFF727FF00281CD1A06B002818D071
:104C8000027869460A7242884A72120A8A728288D7
:104C9000CA72120A0A73C0884873000A88732548CA
:104CA00000902B46072202A92348FFF70BFF00289C
:104CB00000D1002005B030BD2E2E5C2E2E5C2E2E95
:104CC0005C2E2E5C2E2E5C536F757263655C626C7D
:104CD000655C626C655F73657276696365735C625F
:104CE0006C655F6469732E63000000004C20002037
:104CF0000A1800004E200020292A0000562000201B
:104D0000242A00005E200020252A000066200020C2
:104D1000272A00006E200020262A0000762000208E
:104D2000282A00007E200020232A00008620002060
:104D30002A2A00008E200020502A000008B50A8888
:104D4000102A1AD0112A1AD0502A1BD1027D002A0B
:104D500018D0891D0A8843899A4213D10A8B022AE6
:104D600010D10268002A0DD0CA7E8B7E1102194331
:104D7000C907C90F07D0002106E0898801E000219A
:104D8000C943418208BD01210091026869469047EC
:104D900008BDF0B5054693B0086828600020C04300
:104DA000688208792875FF20287401270E46684616
:104DB0008773644981812A1D03A93846A0DF002832
:104DC0007ED1287D002400280DD00120014610311D
:104DD000684601940171717B41718179F92001402C
:104DE000891C684681710594069407940894099477
:104DF0000A9469460B94087D0221084369460875A8
:104E00002A7DEF21002A02D01022104300E0084042
:104E10006A461075287D002800D001A80A9001225A
:104E200068468272484B03810094B37B0370F37B26
:104E300043708078F9231840801CF72318400F46F0
:104E400038404108490068468170317B017402A8EE
:104E50000C9068460E940F940D90028744878287C9
:104E600004A81090A888AB1D0CAA05A9A2DF0028F1
:104E700032D1B06800282DD00120694688723348AD
:104E800008810094307C0870002048708878F921EF
:104E90000840801CF721084038404008400069461F
:104EA000887011A8B16800F0DDFC02A90C91694678
:104EB0000E940F940D9108874C87888711A800E005
:104EC0000AE010902A46E8880E320CA9A3DF0028D9
:104ED00002D100E0EC81204613B0F0BD33B486B0BF
:104EE00004466946227C097F00208A4222D001259F
:104EF000684605822174E08807AB04AA0021A4DF7C
:104F0000002817D1608A1249884216D0207D0028D7
:104F100013D00020009001900290694603900D820A
:104F2000E2880A808D70888004A8029007A8039008
:104F3000608AA6DF08B030BC704708B030BC0820DB
:104F4000704700000F180000192A0000082900000F
:104F5000FFFF000008B50A88102A17D0112A17D0C1
:104F6000502A18D1891D0A8883899A4213D10A8B45
:104F7000022A10D10268002A0DD0CA7E8B7E11024F
:104F80001943C907C90F07D0002106E0898801E04D
:104F90000021C943018408BD0121009102686946CE
:104FA000904708BDF0B4044692B0086820600879C4
:104FB00060710020C04320840025222005554C202C
:104FC0000553012708A80E46877270496846018577
:104FD000A21D0AA93846A0DF002877D1012001468A
:104FE0001031684607950177317B4177817FF9223F
:104FF0001140891C817701950095029503950495D0
:10500000069501781A2001436846017007A80590AB
:1050100008A887715E49684681840895717B08A855
:105020000170B17B41708178E7201140891C0140FB
:10503000394308A8817009A80B9008A80C900D9519
:105040000E950F95142168468186C58601872346F3
:10505000D88808330BAA6946A2DF002836D1B06889
:10506000002832D003950495059506950795089577
:1050700068460995017B02200143684601738771E8
:10508000444981800095F17B0170317C41708078CA
:10509000F9210840801CE721084041084900684682
:1050A000817001A80C9068460E950F9510950D9093
:1050B000078745878787B06823461090D8881033C4
:1050C0000CAA03A9A2DF002800D1002012B0F0BC76
:1050D000704730B40C46018C2F4B86B099421AD0E1
:1050E0006B461C8000210291039104910591058972
:1050F0001D8101259D72998104930592008C02A95E
:10510000A6DF002804D169460988A14200D00C20FE
:1051100006B030BC704706B030BC0820704770B590
:10512000054604464035A8890E46142807D1262294
:10513000A118881E02F086FEA889401EA88180B2B0
:1051400041000919401CA8818E8470BD40308089BF
:10515000142801D00020704701207047028C0E4BAC
:105160009A4202D1417100207047082070472030D8
:105170008170704703B482B001216A461180008AB1
:1051800003AB0021A4DF04B0704700000D1800003D
:10519000372A0000382A0000FFFF000038B5834995
:1051A000834A488890420FD04A78824C521CD2B22F
:1051B0004A70237B934208D37F4975DF002803D0D0
:1051C000A169002900D0884738BD00254D70217C99
:1051D000002907D03B2176DF002803D0A1690029F0
:1051E00000D0884761690029EED06846009588475D
:1051F00038BD70B502463CCA6E490E463CC684694D
:10520000436902698C614B61684C00250A61257015
:10521000006800280CD00188218141886181818843
:10522000A181C188E18164487ADF00280DD103E0C3
:1052300061487BDF002808D10020C0436080657092
:105240005E4A00215E4800F0DCFB70BD10B5574897
:10525000406800F069FC10BDF8B5564C0788002680
:10526000524A811CE389102F16D015466D68112F04
:1052700022D0122F37D0502F1DD1801D0188994286
:1052800019D1018B022916D1C17E827E08021043FA
:10529000C007C00F0DD11CE0808850808889108223
:1052A000C8895082088A9082488AD0825670002B22
:1052B00001D100F04BF8F8BD0020C043508056707B
:1052C000284600F031FC0028F5D0A169002908D15A
:1052D000F8BD284600F028FC0028F9D0A169002973
:1052E000F6D08847F8BD88881082C888508208891F
:1052F00090824889D08200F029F8F8BDF8B52B4D8E
:1053000001882981418869818188A981C188E981D1
:1053100029487ADF060010D12A480124418808383C
:10532000028891420BD34088814208D821484169C4
:10533000002902D06846009488473046F8BD2C709A
:105340001D49688875DF06466C70F6E7F8B51D489C
:10535000184D4288083803880026144C69699A421F
:105360000AD34088824207D80120002902D0009049
:10537000684688472670F8BD2078002805D00029A7
:10538000F8D0684600968847F4E7607800280BD08C
:10539000A9680022606800F05DFB0028EAD0A969D6
:1053A0000029E7D08847E5E76968F2E79820002000
:1053B000FFFF0000CC240020A02000209D51010010
:1053C0009C200020A8200020FFB585B005460220C3
:1053D000864608980E9C0291009020780190002744
:1053E00028883E4600283FDD6868B10040180288E2
:1053F00069460A8240884882002203A904A864DF23
:1054000000285CD16846017B714520D1002F01D076
:10541000002200E002222078891841181F294DD867
:10542000002F07D1401CC0B2411C009B029A217082
:105430001A540127217800980A1803A904A864DFE8
:1054400000283CD169462078097B401820702888C4
:10545000761CB042C8DC002F06D021780198019A52
:10546000081A0099401E885407980290102086461A
:1054700008980E9C009020780190002728883E46CE
:10548000002842DD6868B1004018028869460A8237
:1054900040884882002203A904A864DF00280ED1B6
:1054A0006846017B714523D1002F01D0002200E026
:1054B00002222078891841181F2902D90C2009B02E
:1054C000F0BD002F07D1401CC1B2481C009B029ABE
:1054D00020705A540127217800980A1803A904A8BB
:1054E00064DF0028EBD169462078097B40182070E2
:1054F0002888761CB042C5DC002F06D021780198A0
:10550000019A081A0099401E8854002009B0F0BD85
:10551000F7B582B0002605461670006814460028CC
:1055200023D02879039F801C1F287DD81D20694621
:105530000880B81C7DDF002877D12868022805D1B3
:10554000684600881D2801D8092107E0287908212C
:10555000002801D01D2801D968460088421C3A70F5
:1055600079702178801C08182070687900281CD078
:105570002078039F001D1F2856D8684679DF002831
:1055800053D121780322481C20707A5421781922A3
:10559000481C20707A54684601882078C019017030
:1055A000090A41702078801C2070298900291ED0AA
:1055B00001208446EA680398002A7DD02278531897
:1055C0009B1C1F2B30D81346521C491C2270C154FF
:1055D00022786746511C2170875423782A8918182D
:1055E000E96802F0CBFB2078297A401820702869FE
:1055F000002815D00021415622788C46D01C0399F2
:105600001F2811D8501C022320708B5422780A23A3
:10561000501C20708B5420786246431C23700A541F
:10562000A88A00280CD001E075E075E028460094B7
:10563000062202211430039BFFF7C6FE06006BD141
:10564000A88B002809D028460094072203211C308B
:10565000039BFFF7B9FE06005ED1A88C002809D095
:1056600028460094152214212430039BFFF7ACFE3A
:10567000060051D1E86A002840D0217884468E4641
:10568000891D03981F2946D861460B88062B13D322
:105690001922D201724F934201D9BB420CD161460B
:1056A0004988062908D3914201D9B94204D1BB42A5
:1056B00005D0B94203D000E080E08B427ED871462D
:1056C000491C052372462170835422781223511CF1
:1056D0002170835422786146098812181170090AD2
:1056E00051702178891CCAB222706146498810180D
:1056F0000170090A41702078801C2070286B0028F6
:1057000030D0009000792378801CC0B2811C5918D9
:10571000039A1F2902D90C2005B0F0BD591C401C6A
:105720002170D0542178FF23481C207053540098D6
:105730002178008889180870000A48702078801C39
:10574000C0B2207000998B88002B0BD0896800298B
:105750004BD080181A4602F011FB0098217800798E
:105760000818207028462030017E00293AD0009584
:105770006A6B039E002A3BD000250190002930D996
:105780000098416B0C2068430F1838792178C01CB1
:10579000705420781621401CC0B2207031542078FB
:1057A000401CC1B22170388889190870000A4870FD
:1057B0002078801CC0B22070BA8800E015E0002A72
:1057C00009D0B968002913D0801902F0D7FA2078DF
:1057D00039794018207001986D1C007EEDB2A84206
:1057E000CED80026304605B0F0BD072005B0F0BD8C
:1057F000072005B0F0BD70B50D4692B000216A4695
:10580000117007241171002812D00189002905D0D8
:10581000C168002902D00978490702D4204612B095
:1058200070BD02A9FFF774FE0028F8D102AE00E0B7
:105830000026002D0BD028890028EFD101AA0AA943
:105840002846FFF765FE0028E9D10AAA00E00022F9
:10585000684603790178304672DF12B070BD0000EF
:10586000FFFF00000A7802704978417002207047FB
:1058700070B504460D46084602F05EFA2080656069
:1058800070BD0000F8B5FB490020086048608860E2
:10589000C860F94908604860F84EF468601C36D06A
:1058A000F748002740683169401A05022D0A282070
:1058B0004443706822189068A84215D873692D1A5D
:1058C000C719546A002B0AD0116AD069984700287A
:1058D00008D0FF21EBA25531FEF7D0FC02E0D169E0
:1058E000106A8847601CE2D1B178F078814206D115
:1058F000401CC0B2F070022801D10020F0700006F8
:10590000EC49800D0F500120EB4900050860F8BDFF
:1059100010B500F0F6F910BDFFB581B00A9F1C4626
:1059200015460E46980769D1002C67D00120E3493F
:1059300040040860E24940108860E2498860E2491A
:10594000012048602F20FEF701FCCC48214647612A
:10595000067044600020002E13D00A46283A103901
:10596000F30703D02832283110600870730808D07C
:1059700090622827785450325031106008705B1EB6
:10598000F6D128214E433119BC4C03226270A1602C
:105990000A460870183248708D704A6018232E46E7
:1059A0005E430872B71848728D72CF6008744874ED
:1059B000F2198D744A610021C943E160A070E07062
:1059C0000121C24809050160C1480268C023120ACA
:1059D00012021A430260BF480160A9490198886019
:1059E000BD4A1068FF231B02984303239B031843FF
:1059F000106048682061002005B0F0BD072005B0A8
:105A0000F0BD70B49D4D6C68002C12D0002A13D0EC
:105A1000002811D02D780023002D07DD28265E43B5
:105A2000A659002E0BD05B1CAB42F7DB70BC0420E8
:105A3000704770BC0820704770BC0720704728254D
:105A400001265D4366512C19E2616160036070BC00
:105A500000207047F0B4894B5D68002D0CD01C7895
:105A6000A04201D2052902D2F0BC072070472824A9
:105A700044432E59012E02D0F0BC0820704764190F
:105A80006468012C14D00026944D6C68E405E40D84
:105A90001ED0103C0ED527073F0F083FBF08BF00A0
:105AA0007D19ED69A407E40EE5402C06A40F0BE078
:105AB0000E46E9E7A5088A4FAD00ED192D68A40749
:105AC000E40EE5402C06A40F012C26D0032C26D092
:105AD00002248C469B68E100CC186378A7781D46A9
:105AE0005B1C9F4200D1002327789F4219D01821C8
:105AF00067684D43791914D001250D6048606048EE
:105B0000406888600E6160464A61C8606A49637097
:105B100028050860F0BC002070470024D9E7012464
:105B2000D7E7F0BC04207047544A5168002909D0D7
:105B30001378984201D30720704728234343C9585C
:105B4000012901D008207047F0B4644B596804243F
:105B5000C905C90D00291CD010390CD50D072D0F12
:105B6000083DAD08AD00EB18DB698907C90ECB40D5
:105B70001906890F09E08B08594D9B005B191B68BA
:105B80008907C90ECB401906890F01291FD00329A7
:105B90001FD002219268C9008A18517895780B4667
:105BA000491C8D4200D10021167800258E4212D06A
:105BB000182756687B43F3180DD002241C605860E8
:105BC00051703D49E00408602846F0BC7047002150
:105BD000E0E70121DEE72046F0BC704770B4274AB9
:105BE0005068002815D03D4B5868C105C90D0420E8
:105BF00000291FD010390FD50C07240F083CA4082A
:105C0000A400E318DB698907C90ECB401906890F88
:105C10000CE0082070BC70478B08314C9B001B19AE
:105C20001B688907C90ECB401906890F012959D075
:105C3000032959D002219268C9008A1851789478B2
:105C40000B46491C8C4200D10021157800248D425E
:105C5000E0D0182655687343EB18DBD0032018609A
:105C6000001F58605170012013490005086020464C
:105C700070BC70474011014000110140B02000206D
:105C8000001501402E2E5C2E2E5C2E2E5C2E2E5CDE
:105C90002E2E5C536F757263655C6170705F636F0D
:105CA0006D6D6F6E5C6170705F74696D65722E638F
:105CB00000000000C820002000E200E080E100E0D9
:105CC00040130140001301400010014080E200E059
:105CD00014E400E000E100E010E400E000ED00E08A
:105CE00000E400E00021A6E70121A4E7E4494968B7
:105CF000016000207047401A0002000A1060002076
:105D00007047F0B5002095B0C043DE4903900A69A2
:105D10000A92C86807908B78CC78A34211D05B1C9C
:105D2000DBB28B70022B01D100238B701B06D64C8B
:105D30009B0DE35809939A181202120A0A61012274
:105D400001E000220992CF4910920F904978049106
:105D50004A1E0692D2B20592CA4A002993680B9352
:105D600052680C9260D014460E930599CA000E99A1
:105D700055182B78697899424ED0182159436A6892
:105D80005B1C5118AA78DBB29A4200D100230A6842
:105D9000022A02D0032A3CD131E04E682821714307
:105DA00009198C46097E002933D002460146471C5A
:105DB00021D0B14207D00A46282151430919496A26
:105DC0004F1CF6D117E0002F15D08A4203D12826A8
:105DD00070430019406A2826714309198F6872437D
:105DE000496A121951624A1C05D0282251430919E7
:105DF0008E68F2198A6000216246117609E0411C22
:105E000007D000212822504300190176406A421C25
:105E1000F8D169789942B0D105994A1ED2B205925B
:105E20000029A2D19749C86096480F99C068884256
:105E300001D0012100E000210F911099002926D006
:105E400000240A9E099B401C1FD08E4A2820D1683E
:105E50000C9D4843401985689D4202D9E91A81602A
:105E600013E05B1B2C19002585600576456AD5601B
:105E70004269002A07D037193F023F0AC760026112
:105E8000039A426203916D1CDFD101200F900398A9
:105E900010907C48069AC06804990A90D2B2059284
:105EA000002970D077490C9B096908910B990E91D4
:105EB0000E99D200551881E01099491C06D0109A0D
:105EC00028215143C9184C6A10941EE029781822E1
:105ED0004A436C68491CC9B2A4182970AA78914237
:105EE00001D1002129706268282151432668C91810
:105EF000012E67D10E7E002E64D1A668CE60E668C2
:105F00000E6126694E6164690C62CE68089C5F4F21
:105F1000341B2402240ABC4203D20E69A4198C60EB
:105F20000AE0089CA41B24020E69240AA64201D997
:105F3000341B00E000248C600024CC600C61012440
:105F40000C76A41E4C6228215143C9188C46411C72
:105F500014D061468C6828214143C91889688C4255
:105F60000ED828214143C91889680C1B28214143B8
:105F7000C9188C606146486210461FE010461DE05B
:105F80000146049003E02AE00491716AE41B4E1C70
:105F90000BD028264E43F618B768A742F4D328271B
:105FA0004F43FF18BF683F1BB7606646B460644646
:105FB0006162049928246143C9184A621099491CF6
:105FC00000D079E729786A789142FAD105994A1E7A
:105FD000D2B20592002900D06AE72A49C86029494F
:105FE0000A98CC68844202D10F98002837D0079ACB
:105FF0002748284B651C34D028256C430C9D641918
:10600000A6681F4C64680F69E11B0D022D0AED1C88
:10601000521C0DD158602049486001211F4A4000A0
:1060200010601F4A10601F4801602F20FEF78EF895
:10603000B54200D23546E81900021B49000A086043
:106040000F494968001B091B0902090A0002C91C03
:10605000000A814203D9012014494004086015B0A8
:10606000F0BD0121124A4904116098600A49886014
:106070000C49012048602F20FEF768F815B0F0BDEC
:1060800000150140B0200020C8200020FFFF7F0045
:1060900000000100401301400013014080E200E0D5
:1060A00000E100E0001001404015014000E200E086
:1060B00080E100E010B508461146FEF7E7F810BD94
:1060C000F8B53F4C2078002837D02069002807D049
:1060D0000026E068002805D00025002E04D013E03B
:1060E0000126F6E70125F8E768464EDF052806D0C9
:1060F000002806D033A26921FEF7C0F804E001268B
:1061000002E0216900988847002D12D16088694615
:106110000880A06860DF052806D0002806D029A2E4
:106120008021FEF7ABF804E0012502E0E168A068F9
:106130008847002ED8D0002DCFD0F8BD002901D13E
:106140000720704730B48C0702D0072030BC70475E
:106150001B4CA16062802949636010DF0028F5D1E3
:1061600001202070162023DF30BC704711DF00288B
:1061700001D0012100E00021114A11707047002870
:1061800003D00F49C860002070470E2070470028D8
:1061900003D00B490861002070470E20704710B5EE
:1061A00007484068002808D08047002804D0FF2115
:1061B00004A23331FEF762F810BDFFF781FF10BD76
:1061C000D02000202E2E5C2E2E5C2E2E5C2E2E5CDF
:1061D0002E2E5C536F757263655C73645F636F6DC5
:1061E0006D6F6E5C736F66746465766963655F6816
:1061F000616E646C65722E6300000000B560010082
:1062000030B5FF4C0546207983B00A2802D304201C
:1062100003B030BD002805D100221146104601F020
:106220008BFAA0816A462179F64801F0C5F800286A
:10623000EED104234C222946684601F0E7F80028F5
:10624000E6D1F14A4C21284601F076FAEF49A081C7
:1062500042182079EE4980000A5041180023042298
:10626000684601F0D3F80028D2D12079401C207173
:10627000002003B030BDE24A00209070D070537807
:106280000146002B25DDF0B46820E24C484300199C
:10629000447A64070AD5D478DF4D0778E600AF5515
:1062A00007461E377519641C6F60D4704224245C45
:1062B000022C09D094780778D84DE600AF554230CB
:1062C0007519641C68609470491C9942DCDBF0BC51
:1062D00070477047F0B5CA4F04463878D04D83B048
:1062E000002802D1A968082088472088C94ECD4BD4
:1062F00014287DD019DC10282ED0112879D013282D
:1063000011D1207AC0070ED0B87902210843B871A4
:106310001868401C07D00020C3495866486188614E
:10632000C8610862486203B0F0BD17287FD0BF493A
:10633000182871D05228F6D11868401C04D0B879BA
:10634000C20701D080075FD5002211467889A9DFF6
:1063500000285FD103B0F0BDA948A1884181002089
:10636000B04FC04338600722A11DB14801F006FDBF
:1063700000207866607BC10713D04008072804D24C
:10638000C100A5484056072803DBA96803208847B9
:106390001EE06821484381196822A248FDF7E6FE05
:1063A00016E0974900248878002811DD9B4FA1480A
:1063B0000090E000C01940680622401C009901F0DE
:1063C0008DFC002819D08E48641C80788442F0DB54
:1063D000944B1A68501CBDD089480021C1710172CC
:1063E00069680029B6D0012000906846027101E07A
:1063F000C8E005E0DA8FC2804FE0E0003856C8E719
:106400000020B87103B0F0BD586E002805D01428E4
:1064100004D90320A6E00AE015E1002182B27889C0
:10642000A9DF002850D10120387203B0F0BDA41DAF
:1064300020780028F9D1B879C007F6D01868401C38
:106440002ED00120F871322221461F46181D01F07E
:1064500095FCE088F887386868214843801901F086
:1064600037FD682138680A46484380196D49FDF7B1
:106470007DFE6C48FFF7C4FE042877D0002801D0C9
:10648000A968884769680029CFD003200090387830
:106490006A461071F88FD0806846884703B0F0BD17
:1064A000574AE18857780020002F11DD68224243C7
:1064B0009219D28F8A4208D16821484381196822F3
:1064C0005848FDF753FE0F204CE0401CB842EDDB6E
:1064D0000094072F01D3042044E0214632221C46B9
:1064E000181D01F04BFC00984549C088E08700204A
:1064F00027606066682078437F1C4F70801968228F
:106500004849FDF733FEFFF7B6FE01203C49002263
:10651000C8713B4811464089A9DF002822D1414873
:10652000FFF76EFE042802D000281BD10BE069683B
:10653000002917D00420009020786A461071E08F5F
:10654000D0806846884769680029A7D0002000905D
:1065500020786A461071E08FD0806846884703B083
:10656000F0BD03E0A968884703B0F0BD6968002961
:1065700086D00420009038786A461071F88FD08059
:1065800068467EE77A78E1890020002A1ADD6823D0
:1065900043439B19DB8F8B4211D1682148438119FA
:1065A00068222048FDF7E2FD0120F871002222490F
:1065B000788981DF0400D7D0A96888471DE0401C96
:1065C0009042E4DB1D48E188018021894180618996
:1065D0008180A189C180E1890181218A41810022D4
:1065E0001146788981DF002801D0A96888470022F8
:1065F00011467889A9DF0400B6D02046A9681FE0BB
:10660000E4200020F4200020F0200020000024538B
:10661000DC28002094250020A42800206C280020DD
:10662000202500202C250020682500207C25002026
:106630006E2500206F2500203625002062250020D1
:10664000884703B0F0BDA2791007000F1209012896
:106650000FD00228F5D1002AF3D0B87901242043C5
:10666000B871586E1E46002807D0142806D903209A
:1066700009E0012AF1D803B0F0BD002182B2788987
:10668000A9DF002802D0A968884700E03C72696849
:106690000029F0D00220009030786A461071F08F07
:1066A000D0806846884703B0F0BDF0B5F74F83B09F
:1066B000387800287ED0F648F64C0068401C32D06E
:1066C0001420694608806A46F3497889AADF0028C1
:1066D00071D1EF4869460568C56409884166002D97
:1066E0006ADB7878854267DAF879002806D0682076
:1066F000684300194C22E649FDF738FD387A002836
:106700000FD06820E549454328190A4610326CCA63
:106710004C306CC04B6A0A6A5C38896A0366C26591
:106720004166FFF7A8FD00221146104601F004F86B
:10673000694608807878002500280CDD68206843C9
:106740000A4600194C2100F0F7FF69460880787866
:106750006D1C8542F2DB0888B989884216D0192160
:106760004901CF4800F0F4FE002845D138710546B4
:10677000787800280ADD682068430019FFF740FD9B
:10678000002839D178786D1C8542F4DB002211464F
:10679000104600F0D1FF694608807878002500286F
:1067A00011DD6820684300190A464C301C2100F0B6
:1067B000C3FF02E022E01FE023E06946088078780A
:1067C0006D1C8542EDDB0888F98988424ED0FF2197
:1067D0004131B44800F0BCFE00280DD17871054667
:1067E0007878002842DD28466821484306197879E0
:1067F0004C360A2808D3042003B0F0BD082003B0AB
:10680000F0BD032003B0F0BD002805D100221146E1
:10681000104600F091FFF8816A467979A14800F0AE
:10682000CBFD0028EED104231C223146684600F03F
:10683000EDFD0028E6D19C4A1C21304600F07CFF8B
:106840009A49F8814218787900238100984842508B
:1068500009180422684600F0D9FD0028D2D17879C1
:106860006D1C401C787178788542BCDB0020C043E9
:106870007881014686480160C16400214166F97152
:106880003972084603B0F0BDF8B5814C606E00283F
:1068900001D00820F8BD1420694608807B486A466C
:1068A0007D494089AADF0028F4D120686822794B0D
:1068B0004243D2186946E06409882C3B616617465A
:1068C000DE699D695C694C3771C7186A5B6A13663B
:1068D0005166D065774800F022FBF8BD6B4801781F
:1068E000002901D10820704710B5002141700171C5
:1068F0004171C170817019214901694800F028FE79
:10690000002804D1FF214131664800F021FE10BD6E
:1069100010B50B46411C14D05C494978884210DA06
:10692000002B0ED0682148435A4941184220405C50
:10693000022806D042310722184601F01FFA002033
:1069400010BD072010BDF1B55048C778002F41D0C9
:1069500000240721384601F0BDFA00235648574A63
:10696000002908DDE5002D18A6006D68641C5B1C7D
:1069700095518B42F6DBB9422CDAE3001B18A500D7
:106980005B685351641CE3001B18A5005B685351FE
:10699000641CE3001B18A5005B685351641CE300F2
:1069A0001B18A5005B685351641CE3001B18A5006D
:1069B0005B685351641CE3001B18A5005B685351CE
:1069C000641CE3001B18A5005B68641CC91D5351BF
:1069D000B942D2DB2D488578002D42D00024072112
:1069E000284601F077FA0020354A002909DD354BA9
:1069F000E600F318A6005B68641C401C93518842B3
:106A0000F5DBA9422DDA2F48E3001B18A6005B68CE
:106A10009351641CE3001B18A6005B689351641C2F
:106A2000E3001B18A6005B689351641CE3001B186D
:106A3000A6005B689351641CE3001B18A6005B680A
:106A40009351641CE3001B18A6005B689351641CFF
:106A5000E3001B18A6005B68641CC91D9351A94282
:106A6000D2DB0098002D057101D0154900E000210E
:106A70000098002F01600098077301D00F4900E0D3
:106A80000021009881600020F8BD0000E420002073
:106A90002C250020942500207C250020682500203E
:106AA000F4200020FC200020F220002000002453CD
:106AB000F828002078250020A428002004250020A4
:106AC000E82400206C280020100002D0FE498968CC
:106AD00008477047F0B50446806899B0002839D05F
:106AE0005021684681800A21C180F8480090F84909
:106AF000684600F0EFFB00282DD1202069468880F1
:106B0000F449684600F0E6FB002824D1F248A36867
:106B1000626821680364C26381636821EF4801F001
:106B2000D7F90020ED49C04308600146EC48002633
:106B300041814670067146718671E348E94F80785D
:106B4000002821D019214901E14800F001FD002869
:106B500003D007E0072019B0F0BDFF214131DD4827
:106B600000F0F6FC0028F6D1DD48002146703246E0
:106B7000C9433046682358433950C019761C4266D1
:106B8000C164072EF5DBCCE0D54C0B25207902AE95
:106B9000002805D100221146104600F0CDFDA0814D
:106BA00016AA2179CA4800F007FC002819D1002351
:106BB000042216A915A800F097FC002811D11598F9
:106BC000C949020C8A4209D187B204234C2216A972
:106BD000304600F089FC002803D10BE0401C2ED089
:106BE000284605282BD00028B5D16078029E864221
:106BF0000CDC0EE0BD4A4C21304600F09DFDA0812A
:106C0000B84203D12079401C2071EEE7284619B024
:106C1000F0BD682031464143B2484C22081807466F
:106C200002A9FDF7A3FA6078864205D100217966B2
:106C3000491E401CF9646070C0B20728A6D3607872
:106C40000026002854DD607902AF002805D100221B
:106C50001146104600F070FDE0810AAA61799D4856
:106C600000F0AAFB002819D1002304220AA909A8D0
:106C700000F03AFC002811D109989B49020C8A4285
:106C800009D185B204231C220AA9384600F02CFC45
:106C9000002803D10BE0401C2AD00B20052827D068
:106CA0000028B4D16078029981420CDC0EE0904A51
:106CB0001C21384600F040FDE081A84203D16079F4
:106CC000401C6071EEE70B2019B0F0BD6822514303
:106CD000844A761C891802AAACCA4C31ACC15C3912
:106CE000089D079B069A4D660B66CA658642AADB1D
:106CF00061780720431A002B11DD68204143794851
:106D0000002508180146024664314C306C1E1460A0
:106D10000D6004606832683168305B1EF7D1FFF7A0
:106D2000AAFA6F4801210170002019B0F0BD6C4A29
:106D30001378002B07D0002907D00B885278934294
:106D400005D20C207047082070470E2070470A803B
:106D50000028FBD030B40021002A09DD614C6823F3
:106D60004B431B194D00DB8F491C43539142F6DB0B
:106D700030BC00207047F0B5594B83B0197800291A
:106D80003CD05A780021002A3FD9564C68254D4303
:106D90002D19ED8F854234D148B2411C35D0C5B292
:106DA000521E954217DA68202F4647433E19311884
:106DB00030466822FDF7DAF9E059401EE051F06CE8
:106DC000411C01D0401EF06445486D1C4078EDB276
:106DD000401E8542E7DB424D682168784843001930
:106DE000683801F075F868781921401E687049010B
:106DF000374800F0ADFB00280AD00EE0082003B0B1
:106E0000F0BD491CC9B29142C0D3052003B0F0BD0A
:106E1000FF2141312F4800F09BFB0028F6D128715B
:106E200068710646687800280CD9304668214843C6
:106E30000019FFF7E5F90028E8D1761C6878F6B26A
:106E40008642F2D30026C0B200283CD968207043A5
:106E5000071968794C370A2802D3042003B0F0BD23
:106E6000002805D100221146104600F065FCE8819B
:106E70006A466979174800F09FFA0028EED104238A
:106E80001C223946684600F0C1FA0028E6D1184AAB
:106E90001C21384600F050FC1649E88142186879F8
:106EA000002381001448425009180422684600F06B
:106EB000ADFA0028D2D16879761C401C68716878D8
:106EC000F6B28642C2D319E020250020C96A01002B
:106ED000F4200020FC200020E82400202C250020A5
:106EE000E42000209425002024530000F0200020FE
:106EF000F220002000002453F8280020FFF7BBF9FF
:106F0000002003B0F0BD23490A78002A05D0897912
:106F1000C907C90F0170002070470820704730B5BD
:106F20001C4C0546607983B00A2802D3042003B0C4
:106F300030BD002805D100221146104600F0FCFBB0
:106F4000E0816A466179144800F036FA0028EED1F3
:106F500004231C222946684600F058FA0028E6D18E
:106F60000E4A1C21284600F0E7FB0D49E08142183B
:106F700060790C4980000A504118002304226846B9
:106F800000F044FA0028D2D16079401C60710020E2
:106F900003B030BDE4200020FC200020F2200020BF
:106FA00000002453F8280020FFB581B00F46FD4DA6
:106FB000049B03990646EA68194303208E46002A7B
:106FC00001D0E96803E0002911D00121E960039AAA
:106FD000012492002407009207297BD20B007B44F6
:106FE0001B79DB189F4476051F324F7886000221FB
:106FF000ECE7ED484169491C05D02169406989B237
:1070000000F068FF00E060692169401E89B24843D2
:10701000216909048A0C216989B2794351DF00286A
:1070200058D1022155E0384650DF002852D103994B
:10703000002901D003214CE00499002904D13178C2
:10704000042942D1072144E0042142E0D6484169A5
:10705000491C05D02169406989B200F03BFF00E07E
:1070600060692169401E89B241432069039A80B258
:10707000784351DF00282DD104990029E4D13178DB
:10708000042925D021E0C8484169491C05D021695F
:10709000406989B200F01EFF00E060692169401E6E
:1070A00089B248437188421800981018226992B238
:1070B0007A4352180099531801461846049A51DF32
:1070C000002807D13178042902D0052101E001E030
:1070D0000621E96005B0F0BD2069718880B278436F
:1070E00080188A08316951DF0028F3D171460029E0
:1070F000EED1A7E7AC484169491C05D02169406938
:1071000089B200F0E7FE00E060692169401E89B2A3
:107110004843216989B200F0DDFE50DF0028D9D153
:107120000721E96005B0F0BDA0498A78012A7DD128
:10713000F8B500249B4A8C70D368082B07D002282E
:1071400017D0032802D10D2000F0DEFAF8BD022886
:107150000AD0147048780028F8D000F03AFA0400F9
:10716000F4D0112C5ED101E0D460F3E700F0CCFA4A
:10717000F8BD8E4814250178694308188949001D17
:107180008A88521C95B28D800278022A05D14688E1
:10719000A902B14201D3012600E00026052A01D14F
:1071A000072B03D00021042A02D003E00121FAE7D3
:1071B000072B03D00027042A02D007E00127FAE7B3
:1071C0004088AA02824201D3002B30D000203943EC
:1071D000014331431CD0734D2046EC6000F094FA1B
:1071E000724814220178514309180C71CC800C614B
:1071F00002224C61CA600C81AC804178491E41700A
:107200000178491CC9B201701E2901D31E390170D1
:10721000664840780028ABD000F0DBF90400A7D026
:10722000112CA3D000F070FA20469FE701E0012066
:10723000CDE77047F8B500205A4C5C4DA080E06067
:1072400028706870A8700146022314224A4352191C
:107250001071D0801061D3605061491C10811E29CB
:10726000F3D30020504F60807869514E401C05D008
:10727000306981B2786900F02DFE00E070693169F3
:10728000C01E89B24843A06000204A49A08008601F
:1072900008818881488108610883888348830820A1
:1072A000E0607869401C05D0306981B2786900F0EF
:1072B00011FE00E070693169401E89B248433169AE
:1072C00089B200F007FE50DF002802D10121A97029
:1072D0002170F8BDF8B5044632480F460078002802
:1072E0001ED0002C1ED0002F1CD02068002819D0E2
:1072F00001252D07A688286980B2864222D8102E43
:1073000020D3E088009000281CD027484169491C00
:107310000AD02969406989B200F0DCFD014604E029
:107320000820F8BD0E20F8BD69692869491E80B2A1
:107330001C4A4143009B906873431B18994201D338
:10734000B10701D00720F8BD5188022919D0194B87
:107350000E013960F2187860506027689F51A38849
:107360001381E3885381A388E48800266343761C55
:107370002C69B6B2A4B29C4205D22C69A4B21B1BE4
:1073800002E00420F8BD00232C69A4B220182C6967
:10739000A4B29C42EBD9034B491C9860968159805A
:1073A0000020F8BD04210020001000101429002046
:1073B00000000010702B002070B4DC4B1B78002BF9
:1073C00019D000281AD0002A18D00368022B0FD237
:1073D000D74C1E01A559002D0AD0456830190489E3
:1073E000614369184589406865432818884208D870
:1073F00070BC0720704770BC0820704770BC0E201E
:1074000070471360516070BC00207047F8B5C74CDE
:107410002478002C1DD000291DD000281BD0046822
:10742000022C14D22501C24C6659002E0FD02D1902
:107430006E892C896D68664376194568AE4206D917
:10744000002A04D0944202D3D618A64205D90720B8
:10745000F8BD0820F8BD0E20F8BD0C461C43A4075B
:1074600001D1AC0701D01020F8BD009313460A46A5
:107470000146022000F021F9F8BDF8B5AB4C2478A4
:10748000002C1DD000291DD000281BD00468022C20
:1074900014D22501A64C6659002E0FD02D196E89E5
:1074A0002C896D68664376194568AE4206D9002A74
:1074B00004D0944202D3D618A64205D90720F8BDBD
:1074C0000820F8BD0E20F8BD0C461C43A40701D1CE
:1074D000AC0701D01020F8BD009313460A460146C0
:1074E000052000F0EAF8F8BD70B5904C2478002C27
:1074F0001DD000291DD000281BD00C68022C14D2EE
:107500008B4D24012E59002E0FD065196E892C89C0
:107510006D686643496875198D4206D9002A04D002
:10752000944202D3D518A54205D9072070BD082082
:1075300070BD0E2070BD04461C43A40701D18C070A
:1075400001D0102070BDC91800F018FC002070BDDB
:1075500038B5044675480D460078002816D0002C32
:1075600016D0206802281AD2714900010A58002A50
:1075700015D040184389018942684B4360689B18C5
:1075800083420CD9830705D0102038BD082038BDB0
:107590000E2038BD801A00F09DFC002901D0072084
:1075A00038BD0020024600902B462146042000F002
:1075B00084F838BD5D490978002906D0002806D036
:1075C0005C494978016000207047082070470E2010
:1075D0007047F8B5574914230A780F205A435418B6
:1075E000241D524922788F88E668022A24D001257A
:1075F0002D07042A33D0052A1DD1286981B23046CF
:1076000000F068FC0146A38828699A1980B24843B3
:10761000101A820860881818861928694B1C80B2D5
:107620005843801B83082046FFF7BEFC002802D188
:10763000404901228A70F8BDB80262882169121A95
:107640000918A3883018181801239B029A4202D205
:10765000920851DFEAE7FF22013251DFE6E7A36833
:10766000334819010818018942894068B04203D1A2
:1076700060885143814218D0032B16D0286981B20B
:10768000304600F027FC0146286980B24843301A92
:10769000820828694B1C80B2584363889B19C01A22
:1076A00083082046FFF780FCC0E7286981B2304696
:1076B00000F010FCC01950DFB8E7F8B51D4C069E6D
:1076C00065781E2D1ED027787D19EDB21E2D01D3B1
:1076D0001E3DEDB214277D432D1928716A6108689B
:1076E00049682961E860EB802E81A178002000299B
:1076F00004D1FFF76EFF112800D100206178491CEA
:107700006170F8BD0420F8BD38B50246094814235D
:107710000178074C59430818C36801791B01E458E4
:10772000C388009343690C30A04738BD0421002072
:10773000702B0020142900200346002A36D0108820
:10774000002932D05B1ECA070ED0020A0002024393
:107750005B1C187850400206120F42401003504044
:1077600082B21006C00C504049081ED0020A000226
:10777000024358789B1C50400206120F42401003EF
:10778000504080B20206D20C4240100A120210434E
:107790001A7842401006000F50400203424092B255
:1077A0001006C00C5040491EE0D170470048C7E7A2
:1077B000FFFF0000F8B5744C6946607800F068FA85
:1077C000002854D120780025002850D96F4F012679
:1077D0000C20616868434118087832463B68824053
:1077E00013421DD08B68002B1AD049780129E1681B
:1077F0008C4609D000293BD0014618460122634639
:107800009847002820D12DE0002933D001461846A2
:10781000002263469847002816D123E0984721E0CC
:107820007B6813421ED08B68002B1BD0497801293E
:10783000E1688C460DD000291CD001461846002274
:107840006346984700280DD051A22821FCF716FD69
:1078500008E000290CD001461846012263469847EB
:107860000028F1D16D1C2078EDB28542B0D3F8BD6F
:107870000121D3E70021D1E770B5434D04460E4600
:107880002869FEF751F9002808D140480660446095
:1078900034432246A9682869FEF7DCF870BD052A42
:1078A00001D207207047F8B50C46374948600C7084
:1078B000CB608A60621E0021D2B2002C13D0404DF2
:1078C00001240C2353431B181E785F68B600BF00C9
:1078D000761937601E782346B34019431346521E6B
:1078E000D2B2002BEDD1374B0A46374800F01FF9D2
:1078F000002804D1354A00213548FEF782F8F8BD4A
:1079000021484168002901D10820704710B540780E
:1079100000F048F910BD10B51B4C6068002808D075
:10792000607800F084F9002802D12069FEF7FCF8A5
:1079300010BD082010BDF8B505460C202A4642436C
:1079400011480C464168561800290CD06946407809
:1079500000F09EF9002807D172780121002A04D096
:10796000012A07D00DE00820F8BD009AEA40D207AE
:1079700006D103E0009AEA40D20701D0217000E06E
:1079800020700020F8BD00001421002028210020D4
:107990002E2E5C2E2E5C2E2E5C2E2E5C2E2E5C53FC
:1079A0006F757263655C6170705F636F6D6D6F6E34
:1079B0005C6170705F627574746F6E2E630000009E
:1079C000000700507978010015210020B5770100EB
:1079D00024210020F0B5B94883B001690091B84A6C
:1079E0000021D1630191B7494A78002A6FD90198E3
:1079F00014214843B349019C4A68896882180120D0
:107A00000346A3400B425AD0D1680327CB430099C9
:107A10004B4011680B4000219C463F0405468D40B9
:107A20001C462C420FD0D66834462C4251D03C46DE
:107A3000AE43D660A44D8E0075192E68BE432E60ED
:107A40002E6826432E60491C2029E7D39B490969EB
:107A5000009B594025D00B430093D168CC4311685B
:107A60005C400C40002103468B4025461D4212D04D
:107A7000D5682E461E4230D0032636049D43D5607D
:107A8000914B8D00ED182F6803231B049F432F603B
:107A90002B6833432B60491C2029E4D360462043E4
:107AA0008446009B60469168984301406446506854
:107AB0002340184003460B4301D0126990470198B8
:107AC0008049401CC0B20190497888428FD303B0EE
:107AD000F0BD012464042E43ABE7012676041D4368
:107AE000CDE7002901D08A0701D00720704710B5E3
:107AF000744A0B465160107000215170916014213E
:107B00004143184600F0E4F900207049C043886002
:107B10006F48402101606F484268FF231B049A436D
:107B20000B04D21842606C480160002010BDF0B414
:107B3000844664484568002D08D0002B09D044785D
:107B40000678B44208D3F0BC04207047F0BC08208B
:107B50007047F0BC072070470F4614261743664352
:107B6000AF5176193361B260716061460C70611C6F
:107B70004170142100204C430122534B03273F0442
:107B80002E59114681400E4206D08100C9180E6858
:107B9000BE430E600E680E60401C2028F0D3F0BC7F
:107BA00000207047F0B4474C6268002A05D0617825
:107BB000884205D3F0BC07207047F0BC082070470E
:107BC0003F490025CD633D4909698C46A1680029DC
:107BD00003D101233D4EDB077360012686400E432F
:107BE000142148438118A660CD60032500212D048F
:107BF0008618012413588C40234212D06346234236
:107C000001D02B4604E00123F7685B042743F760AB
:107C10002D4C8F003C192768AF43276027681F430E
:107C20002760491C2029E4D3F0BC00207047F0B441
:107C3000244A5568002D05D05178884205D3F0BC00
:107C400007207047F0BC08207047142200214243EF
:107C5000012403273F04AE5823468B401E4207D021
:107C6000194E8B009B191E68BE431E601E681E6065
:107C7000491C2029EFD3134984408868A0438860B9
:107C800003D101201149C0078860F0BC0020704773
:107C90000C4B5A68002A04D05B78984203D3072023
:107CA000704708207047142358438018034A12690C
:107CB0000068024000200A60704700000005005084
:107CC0004061004030210020000700500063004068
:107CD00080E200E000E400E000E100E0034610B5CF
:107CE0000B439B070FD1042A0DD308C810C9121FDC
:107CF000A342F8D018BA21BA884201D9012010BD98
:107D00000020C04310BD002A03D0D30703D0521C6B
:107D100007E0002010BD03780C78401C491C1B1B99
:107D200007D103780C78401C491C1B1B01D1921E03
:107D3000F1D1184610BD000030B5441C03E00178B5
:107D4000401C00290DD08107F9D10B4BDD0104C87F
:107D5000D11A91432940FAD0001B0A0603D0C01E55
:107D600030BD001B30BD0A0401D0801E30BD0902A9
:107D7000FCD0401E30BD000001010101F8B5042A0D
:107D80002CD3830712D00B78491C0370401C521E61
:107D900083070BD00B78491C0370401C521E8307CD
:107DA00004D00B78491C0370401C521E8B079B0F9C
:107DB00005D0C91ADF002023DE1B08C90AE0FCF742
:107DC000D5F9F8BD1D4608C9FD401C46B4402C43FA
:107DD00010C0121F042AF5D2F308C91A521EF0D49B
:107DE0000B78491C0370401C521EEAD40B78491CC6
:107DF0000370401C521EE4D409780170F8BD431A88
:107E000070B593421BD28918801804E0491E521E97
:107E10000B78401E03709307F8D106E010390B462B
:107E20001038103A78CB78C01038102AF6D203E018
:107E3000001F091F0B680360121FF9D570BDFCF706
:107E400095F970BDF8B5064614460843800707D07B
:107E5000751AA54219D20819102D13D2311907E04D
:107E60003046FFF7CCFFF8BD401E491E02780A706D
:107E7000641EF9D2F8BD471B2A463946FFF77EFF3C
:107E8000641B3846A542F6D3011B22463046FFF755
:107E900075FFF8BD01E004C0091F0429FBD28B0760
:107EA00001D50280801CC90700D0027070470029EC
:107EB0000BD0C30702D00270401C491E022904D314
:107EC000830702D50280801C891EE3E70022EEE7CB
:107ED0000022DFE7002203098B4273D3030A8B429F
:107EE00058D3030B8B423CD3030C8B4221D312E0BB
:107EF00003460B437FD4002243088B4274D303090B
:107F00008B425FD3030A8B4244D3030B8B4228D3AB
:107F1000030C8B420DD3FF22090212BA030C8B42D1
:107F200002D31212090265D0030B8B4219D300E071
:107F3000090AC30B8B4201D3CB03C01A5241830BF6
:107F40008B4201D38B03C01A5241430B8B4201D3A6
:107F50004B03C01A5241030B8B4201D30B03C01ACF
:107F60005241C30A8B4201D3CB02C01A5241830A49
:107F70008B4201D38B02C01A5241430A8B4201D378
:107F80004B02C01A5241030A8B4201D30B02C01AA2
:107F90005241CDD2C3098B4201D3CB01C01A524109
:107FA00083098B4201D38B01C01A524143098B4292
:107FB00001D34B01C01A524103098B4201D30B017B
:107FC000C01A5241C3088B4201D3CB00C01A5241A0
:107FD00083088B4201D38B00C01A524143088B4265
:107FE00001D34B00C01A5241411A00D201465241FE
:107FF000104670475DE0CA0F00D04942031000D31D
:108000004042534000229C4603098B422DD3030A71
:108010008B4212D3FC22890112BA030A8B420CD381
:10802000890192118B4208D3890192118B4204D3AA
:1080300089013AD0921100E08909C3098B4201D32A
:10804000CB01C01A524183098B4201D38B01C01A64
:10805000524143098B4201D34B01C01A52410309DB
:108060008B4201D30B01C01A5241C3088B4201D38A
:10807000CB00C01A524183088B4201D38B00C01A37
:108080005241D9D243088B4201D34B00C01A52410E
:10809000411A00D20146634652415B10104601D39B
:1080A0004042002B00D54942704763465B1000D325
:1080B000404201B50020C046C04602BD704770472F
:1080C0007047754600F022F8AE46050069465346F3
:1080D000C008C000854618B020B5FCF773F860BC36
:1080E00000274908B6460026C0C5C0C5C0C5C0C5E2
:1080F000C0C5C0C5C0C5C0C5403D49008D4670471C
:108100000446C046C0462046FCF719F800487047B0
:10811000902B002001491820ABBEFEE7260002008C
:10812000704770B58C180578401C6B075B0F01D148
:108130000378401C2A1106D10278401C03E006781F
:10814000401C0E70491C5B1EF9D12B0705D400237F
:10815000521E0DD40B70491CFAE70378401CCB1A51
:10816000921C03E01D785B1C0D70491C521EF9D552
:10817000A142D8D3002070BD0D1801000F180100D6
:108180000A180100A4810100002000203C01000029
:1081900022810100CC8101003C210020B41A0000A2
:1081A00004410100115324F40315FFFF40120102A2
:1081B000030405060708090A0B0C0D0E0F101232F6
:0C81C00010320314C742019A110C01F0A8
:04000005000140C1F5
:00000001FF
