:020000040001F9
:10400000C03B0020C1410100D3410100D541010066
:1040100000000000000000000000000000000000A0
:10402000000000000000000000000000D741010077
:104030000000000000000000D9410100DB41010048
:10404000DD410100DD410100DD410100DD410100F4
:10405000DD41010000000000E17B0100C9420100D8
:10406000DD410100DD410100DD410100DD410100D4
:10407000DD410100DD410100DD410100DD410100C4
:10408000DD410100A95A0100DD410100DD410100CF
:10409000355B0100DD410100C3630100DD4101002A
:1040A000DD410100DD4101000000000000000000D2
:1040B0000000000000000000000000000000000000
:1040C00000F002F800F040F80CA030C808382418BE
:1040D0002D18A246671EAB4654465D46AC4201D140
:1040E00000F032F87E460F3E0FCCB6460126334232
:1040F00000D0FB1AA246AB4633431847AC41000040
:10410000CC410000103A02D378C878C1FAD85207DF
:1041100001D330C830C101D504680C60704700007D
:104120000023002400250026103A01D378C1FBD8D3
:10413000520700D330C100D50B6070471FB5C04691
:10414000C0461FBD10B510BD04F076F81146FFF74C
:10415000F5FF00F0CAFB04F08EF803B4FFF7F2FF9E
:1041600003BC04F093F80000401E00BF00BF00BF76
:1041700000BF00BF00BF00BF00BF00BF00BF00BF47
:1041800000BFF1D17047000070B505460C461646D9
:1041900002E00FCC0FC5103E102EFAD2082E02D32B
:1041A00003CC03C5083E042E07D301CC01C5361F3E
:1041B00003E021782970641C6D1C761EF9D270BD55
:1041C0000A48026803210A430260094880470948F7
:1041D0000047FEE7FEE7FEE7FEE7FEE7FEE700003A
:1041E00005480649064A074B704700002405004071
:1041F00011420100C1400100C02B0020C03B002043
:10420000C0330020C03300201D491C48086070479F
:104210001C48018CC9B2012917D1828C120714D114
:10422000028D1206130F03D1838D1B061B0F1ED0A8
:10423000120F012A03D1838D1B061B0F17D0032AEF
:1042400003D1828D1206120F11D001290ED1818C5B
:1042500009070BD1018D0906090F042906D1808DAC
:104260000006000F02D10849012088607047084A03
:1042700006495160D113074A9161EBE70024F4002D
:1042800000200020C00F00F000060040DFFF07C044
:1042900000050040006C0040BFF34F8FFE49FD4811
:1042A000C860BFF34F8FFEE7BFF34F8FFA49F9485D
:1042B000C860BFF34F8FFEE7BFF34F8FF649F54855
:1042C000C860BFF34F8FFEE7F4480168002965D04E
:1042D00010B500210160F2488068F24A0121C0B2A5
:1042E00051604B2109014843FF2103F0AEFE41001C
:1042F0004018FF300F30EC4980B2884201D364216E
:1043000036E0EA4A904209D9081A3A214843642122
:1043100003F0A9FE6421081AC1B229E0E44B9842D7
:1043200009D9101A18214843A02103F09CFE2A2124
:10433000081AC1B21CE0DF4988420AD9181A0C21B8
:104340004843FF212D3103F08EFE1221081AC1B21D
:104350000EE0D94A90420AD9081A06214843FF21A3
:10436000553103F080FE0621081AC1B200E0002199
:10437000D24800F04DFF00280FD008280DD0D049BA
:1043800088420AD0CF49884207D0BFF34F8FC24935
:10439000C048C860BFF34F8FFEE710BD7047F0B54F
:1043A0008BB0002000900190029003906946049029
:1043B0000870C54C0872A0680327B64DB64E002899
:1043C00006D0012806D0022828D003283BD12FE0B0
:1043D0000120A06006A802F0BCFB002805D0BFF3B6
:1043E0004F8FF560BFF34F8FFEE76846007F0028D0
:1043F00003D108A80079002809D00227684607726F
:1044000006A80390042000F03DFCA76000E0A76030
:104410002820694608821E20488214E0052000F00A
:1044200031FC2821684601821E214182A7600AE0F2
:10443000052000F027FC1921C90168460182B4213A
:1044400041820420A060684673DF002805D0BFF3D6
:104450004F8FF560BFF34F8FFEE72079002813D10F
:1044600001202070994A8104916020702071964A41
:104470009749606901F000FC002805D0BFF34F8F19
:10448000F560BFF34F8FFEE70BB0F0BDF0B491497C
:1044900001204860824918224A60804F00263E6011
:1044A0000860072027DF7B4C7B4D002805D0BFF339
:1044B0004F8FEC60BFF34F8FFEE70321072028DF0B
:1044C000002805D0BFF34F8FEC60BFF34F8FFEE79E
:1044D000072023DF002805D0BFF34F8FEC60BFF328
:1044E0004F8FFEE73E606F4901200860F0BC7047C7
:1044F000754BD978002928D070B5664C664D0028D8
:104500000ED072494A68660472404A6002460078DA
:1045100000280BD000201070002809D06C4908E05A
:10452000BFF34F8FEC60BFF34F8FFEE70120F2E740
:104530006949186901F0A0FB002805D0BFF34F8F2F
:10454000EC60BFF34F8FFEE770BD70475E4B19798B
:10455000002928D070B54F4C4F4D00280ED05B4934
:104560004A68260472404A600246007800280BD050
:1045700000201070002809D0554908E0BFF34F8F84
:10458000EC60BFF34F8FFEE70120F2E75249586914
:1045900001F072FB002805D0BFF34F8FEC60BFF332
:1045A0004F8FFEE770BD704710B50868002802D134
:1045B000087900F098FB10BD10B50868002805D1F7
:1045C000414A01209070087900F08DFB10BD70B554
:1045D0003D4809682F4C304DC06800290BD0012997
:1045E00016D101F0B3FB002812D0BFF34F8FEC605F
:1045F000BFF34F8FFEE70F210022890401F03CFB3F
:10460000002805D0BFF34F8FEC60BFF34F8FFEE75C
:1046100070BD10B5086800280FD001280DD0022801
:104620000BD103F07EFA002807D0BFF34F8F1A4951
:104630001848C860BFF34F8FFEE710BDBFF34F8F20
:1046400015491448C860BFF34F8FFEE7F8B506461A
:1046500001F052FF304601F06FF931461F4800F07B
:10466000F7FB31461E4800F076FC3146134800F057
:10467000FFFC31461B4800F01BFE3188054C064DFF
:104680000027114819297CD03CDC102949D0112978
:104690007FD029E00400FA0500ED00E00071004041
:1046A0000075004000700040B80B0000540B000083
:1046B000B40A000088090000340800009824002093
:1046C00003300000013400000420002000050050E9
:1046D000CD0C0000007300403373000074240020F0
:1046E00084240020B0240020132976D1FB4A002125
:1046F000C0887FDF002870D0BFF34F8FEC60BFF31E
:104700004F8FFEE7392901D0552966D11321C08882
:1047100076DF002861D0BFF34F8FEC60BFF34F8F7F
:10472000FEE7EF48406901F011FB002805D0BFF318
:104730004F8FEC60BFF34F8FFEE7E94F00203871D9
:104740000120E8498004C860B878002810D0386992
:1047500001F0FCFA002805D0BFF34F8FEC60BFF3E7
:104760004F8FFEE70020F8700120DE49C004C860CA
:104770000020B860B088F88003F0C8F900282CD079
:1047800001E02BE005E0BFF34F8FEC60BFF34F8FEC
:10479000FEE70646807800280FD1306901F0D6FA8E
:1047A000002805D0BFF34F8FEC60BFF34F8FFEE7BB
:1047B0000120CC49F770C004C8600020C043F080DD
:1047C00002F07EF8002806D0BFF34F8FEC60BFF3F5
:1047D0004F8FFEE701E0FFF7E2FDF8BDB179002958
:1047E000FBD181680429F6D106468760406901F053
:1047F000ADFA002805D0BFF34F8FEC60BFF34F8FA9
:10480000FEE7002030710120B64F8004F860306967
:1048100001F09CFA002805D0BFF34F8FEC60BFF386
:104820004F8FFEE70020F0700120C004F860AF4910
:10483000AD480860091D086031DF0028CDD0BFF306
:104840004F8FEC60BFF34F8FFEE710B502F072FDA3
:1048500010BDBFF34F8FA749A548C860BFF34F8F66
:10486000FEE7012940D170B5A14DA24E9C4C102805
:1048700007D0112826D0BFF34F8FF560BFF34F8FBD
:10488000FEE76079002813D000219B4800F075FDF9
:10489000002812D09949884213D09949884210D0F3
:1048A00005280ED0BFF34F8FF560BFF34F8FFEE7A3
:1048B0000221914800F061FDEAE76079012148405A
:1048C000607170BD206901F041FA002805D0BFF386
:1048D0004F8FF560BFF34F8FFEE70020E07001209F
:1048E0008049C004C86070BD7047804888B0012707
:1048F0008760C7600026834B07220521304600965B
:1049000001F01CF97A4C7B4D002805D0BFF34F8F86
:10491000EC60BFF34F8FFEE77B4A01217B4801F03B
:1049200082F9002805D0BFF34F8FEC60BFF34F8FA3
:10493000FEE7774A0021774801F075F9002805D095
:10494000BFF34F8FEC60BFF34F8FFEE7724A002139
:10495000724801F068F9002805D0BFF34F8FEC6072
:10496000BFF34F8FFEE76E49012003F0C0F9002826
:1049700005D0BFF34F8FEC60BFF34F8FFEE70023EE
:10498000684A0221684803F090F8002805D0BFF378
:104990004F8FEC60BFF34F8FFEE700235022634937
:1049A000082001F0DDFC002805D0BFF34F8FEC603C
:1049B000BFF34F8FFEE75E4801F0F3FC002805D0FF
:1049C000BFF34F8FEC60BFF34F8FFEE7594801F004
:1049D000F0FC002805D0BFF34F8FEC60BFF34F8F82
:1049E000FEE702F02DFD002805D0BFF34F8FEC60ED
:1049F000BFF34F8FFEE76946112003F0A2F80028AD
:104A000005D0BFF34F8FEC60BFF34F8FFEE74A48EE
:104A10000390029668460178817101A802F062F95C
:104A2000002805D0BFF34F8FEC60BFF34F8FFEE738
:104A30001120694608730B2240A103A87CDF0028DF
:104A400005D0BFF34F8FEC60BFF34F8FFEE7092017
:104A5000800178DF002805D0BFF34F8FEC60BFF3F3
:104A60004F8FFEE7FF219131009668460196018045
:104A70004A0042808680C1807ADF002805D0BFF3DB
:104A80004F8FEC60BFF34F8FFEE70720C04377DF07
:104A9000002805D0BFF34F8FEC60BFF34F8FFEE7C8
:104AA000052000F0EFF80721C94368460096017021
:104AB00001200146203168464170002001466846C9
:104AC00081706946204800F077F900283ED0BFF396
:104AD0004F8FEC60BFF34F8FFEE700001C200020DB
:104AE00004200020000500500C0003004007005087
:104AF0000400FA0500ED00E0B024002003300000BF
:104B000001340000E42000208D440100102000202A
:104B1000F1440100142000204D4501001820002020
:104B200054240020660600002420002004240020D5
:104B30004D4601004B480100534801004E6F72641E
:104B400069635F50726F7800682400208748009086
:104B50006946874800F094F9002805D0BFF34F8FCD
:104B6000EC60BFF34F8FFEE78248009082480190CF
:104B7000029668460672012001462031684641725D
:104B80000120014620316846817269467B4800F069
:104B900018FA002805D0BFF34F8FEC60BFF34F8F9A
:104BA000FEE7774864218670764800900196029669
:104BB000039604966846077101730120014610317F
:104BC0006846417301200146103168468173002018
:104BD00001466846C17301200146103168460174E0
:104BE0006946694800F06FFA002805D0BFF34F8F7F
:104BF000EC60BFF34F8FFEE7614846716348009059
:104C00005D4801906946624800F03EFB002805D0EF
:104C1000BFF34F8FEC60BFF34F8FFEE70520C0035B
:104C2000009601900290039604960321059668462B
:104C30000173C681077457480690684600F049FE24
:104C4000002805D0BFF34F8FEC60BFF34F8FFEE716
:104C500051491E2008808878E122384310400C30EA
:104C6000DF22104088700720C87010200871FFF7FD
:104C700096FB3DDF0028FCD0BFF34F8FEC60BFF305
:104C80004F8FFEE701B594B00720C0436946434A01
:104C9000087051681068926811911090384912920A
:104CA000002088603C2101A803F0CDF9022001908A
:104CB000012069464872888114A804900591032058
:104CC000088410A80990002101A800F090FD002898
:104CD00007D0BFF34F8F33493148C860BFF34F8FC0
:104CE000FEE715B000BDF8B5254902002C4E2D4F4A
:104CF0002D4C2E4D08690DD0012A1DD0022A1AD143
:104D000001F024F800282AD0BFF34F8FFE60BFF3D4
:104D10004F8FFEE71A4900228A7001F017F8002829
:104D200005D0BFF34F8FFE60BFF34F8FFEE71449EE
:104D30000020C870EC60F8BDCA78002AFBD10122BF
:104D40004A70AC60CA701A4A1A4900F095FF0028F0
:104D5000F1D0BFF34F8FFE60BFF34F8FFEE70849DE
:104D60000020C870EC60AC60F8BD0000A9450100EF
:104D700074240020B9450100B942010084240020B8
:104D800004200020CF450100982400201346010094
:104D9000B02400203D4601001C2000209C82010020
:104DA0000400FA0500ED00E00000080000050050D6
:104DB00005200020CD0C0000F0B4054692B00E4650
:104DC000012768468771204981802A4601A9384613
:104DD000A0DF00282AD10390049005900690079048
:104DE00008906C460990217B022211432173A7721F
:104DF00016492181009071782170B1786170A17895
:104E0000F9221140891CE7221140B943A17002A97F
:104E10000C910E900D940F9027876087A7872B46E3
:104E200010961888AB1C0CAA03A9A2DF12B0F0BC24
:104E3000704703B482B001216A461180408803ABF9
:104E40000021A4DF04B0704704180000072A000006
:104E50000A88502A13D100B5891D0A88C38883B0F7
:104E60009A420AD10A8B012A07D100220092897E38
:104E70006A46117102686946904703B000BD7047E9
:104E800030B40446086892B0002845D0012520605F
:104E90006846857128498180221D01A92846A0DF26
:104EA000002836D1002104910591069107910891BF
:104EB000099168460A91027C042002436846027404
:104EC00085721E4A028100200246684600910270E7
:104ED000012002462032684642708078F922104054
:104EE000801CE722104042085200684682700E91F2
:104EF0000F91017302A80C9068460D9005874187B9
:104F0000858703A8234610909888A31D0CAA04A99E
:104F1000A2DF12B030BC704712B030BC072070471F
:104F200018B401226C4622800B46C0886A460021D4
:104F3000A5DF18BC7047000002180000062A000018
:104F400018B401226C4622800B4640896A46002133
:104F5000A5DF18BC704710B50B88002284B0102B59
:104F60000ED0112B12D0172B08D18979002905D129
:104F7000694602920A73026802A9904704B010BD04
:104F8000694602920A7302A9026817E0044688790A
:104F90000828F3D1029201206946888003AB60891A
:104FA00001AA0021A5DF002805D061680029E5D00D
:104FB000884704B010BD226802A92046904704B07B
:104FC00010BD70B40446086893B00D46002847D061
:104FD0002060686801266060684686712249818089
:104FE0002246083201A93046A0DF002835D1002131
:104FF00004910591069107910891099168460A91DB
:10500000027C0A200243684602748672174A0281B3
:1050100000916A7A0270AA7A42708078F922104070
:10502000801CE722104042085200684682700C91B2
:105030000D910E910F9110912A7A027302A80C9093
:1050400068460D9006874187868703A823461090FF
:1050500018890A330CAA04A9A2DF13B070BC7047E8
:1050600013B070BC0720704703180000062A000028
:1050700008B50A88102A1AD0112A1AD0502A1BD132
:10508000027D002A18D0891D0A8843899A4213D1CB
:105090000A8B022A10D10268002A0DD0CA7E8B7EAC
:1050A00011021943C907C90F07D0002106E08988FA
:1050B00001E00021C943418208BD0121009102683D
:1050C0006946904708BDF0B5054693B0086828606A
:1050D0000020C043688208792875FF2028740127C2
:1050E0000E4668468773644981812A1D03A93846A4
:1050F000A0DF00287ED1287D002400280DD00120CB
:1051000001461031684601940171717B41718179CA
:10511000F9200140891C6846817105940694079422
:10512000089409940A9469460B94087D0221084367
:10513000694608752A7DEF21002A02D0102210430B
:1051400000E008406A461075287D002800D001A8BC
:105150000A90012268468272484B03810094B37B17
:105160000370F37B43708078F9231840801CF72389
:1051700018400F4638404108490068468170317B2D
:10518000017402A80C9068460E940F940D9002874B
:105190004487828704A81090A888AB1D0CAA05A993
:1051A000A2DF002832D1B06800282DD00120694646
:1051B0008872334808810094307C08700020487061
:1051C0008878F9210840801CF721084038404008C1
:1051D00040006946887011A8B16800F03FFB02A941
:1051E0000C9169460E940F940D9108874C8788871F
:1051F00011A800E00AE010902A46E8880E320CA9B7
:10520000A3DF002802D100E0EC81204613B0F0BDFE
:1052100033B486B004466946227C097F00208A4266
:1052200022D00125684605822174E08807AB04AAD4
:105230000021A4DF002817D1608A1249884216D0C5
:10524000207D002813D00020009001900290694634
:1052500003900D82E2880A808D70888004A80290F5
:1052600007A80390608AA6DF08B030BC704708B07A
:1052700030BC0820704700000F180000192A0000F9
:1052800008290000FFFF00000A68002A0ED0026013
:10529000496841600021C94341810021018145489D
:1052A0000121817044490180002070470720704728
:1052B000F8B50446088810280AD011284ED03028A6
:1052C00012D0322820D1CA882046002A23D01CE0E0
:1052D0008888608101206946887038480880608924
:1052E0006A46012190DF09E0CA882046002A0CD1D5
:1052F0008A89002A09D01231608992DF002803D000
:105300006168002900D08847F8BD0121009102683A
:1053100069469047F8BD0C310D880022002DF4DD60
:10532000244B9C781E880A2353435B181F79BC4288
:1053300010D15F88BE420DD10A2462435118897989
:105340004907E2D559890181002100910268694627
:105350009047F8BD521C9542E5DCD6E70020C043DB
:10536000608120890028F4D00220009022686946DC
:105370002046904700202081F8BD13B4018985B0F4
:10538000002912D040890022009201926C460392BB
:10539000618002212170A2800121E18006AB694673
:1053A000029397DF07B010BC704707B010BC052010
:1053B000704700003C200020062A00000218000070
:1053C000FFB585B005460220864608980E9C0291DE
:1053D000009020780190002728883E4600283FDD75
:1053E0006868B1004018028869460A82408848828D
:1053F000002203A904A864DF00285CD16846017B71
:10540000714520D1002F01D0002200E00222207837
:10541000891841181F294DD8002F07D1401CC0B250
:10542000411C009B029A21701A5401272178009890
:105430000A1803A904A864DF00283CD16946207833
:10544000097B401820702888761CB042C8DC002FE9
:1054500006D021780198019A081A0099401E8854B4
:10546000079802901020864608980E9C009020789D
:105470000190002728883E46002842DD6868B10078
:105480004018028869460A8240884882002203A99F
:1054900004A864DF00280ED16846017B714523D142
:1054A000002F01D0002200E0022220788918411844
:1054B0001F2902D90C2009B0F0BD002F07D1401CD4
:1054C000C1B2481C009B029A20705A5401272178CF
:1054D00000980A1803A904A864DF0028EBD16946E4
:1054E0002078097B401820702888761CB042C5DCE3
:1054F000002F06D021780198019A081A0099401EC1
:105500008854002009B0F0BDF7B582B000260546EA
:10551000167000681446002823D02879039F801C49
:105520001F287DD81D2069460880B81C7DDF002813
:1055300077D12868022805D1684600881D2801D83F
:10554000092107E028790821002801D01D2801D968
:1055500068460088421C3A7079702178801C0818CF
:105560002070687900281CD02078039F001D1F2818
:1055700056D8684679DF002853D121780322481C89
:1055800020707A5421781922481C20707A54684679
:1055900001882078C0190170090A41702078801CA8
:1055A0002070298900291ED001208446EA680398CA
:1055B000002A7DD0227853189B1C1F2B30D813460D
:1055C000521C491C2270C15422786746511C21701C
:1055D000875423782A891818E96802F0D5FC2078C6
:1055E000297A401820702869002815D000214156DA
:1055F00022788C46D01C03991F2811D8501C0223F6
:1056000020708B5422780A23501C20708B542078F1
:105610006246431C23700A54A88A00280CD001E07B
:1056200075E075E028460094062202211430039BA1
:10563000FFF7C6FE06006BD1A88B002809D02846CC
:105640000094072203211C30039BFFF7B9FE0600DC
:105650005ED1A88C002809D0284600941522142178
:105660002430039BFFF7ACFE060051D1E86A002806
:1056700040D0217884468E46891D03981F2946D83C
:1056800061460B88062B13D31922D201724F934225
:1056900001D9BB420CD161464988062908D3914201
:1056A00001D9B94204D1BB4205D0B94203D000E0D0
:1056B00080E08B427ED87146491C052372462170DA
:1056C000835422781223511C21708354227861461E
:1056D000098812181170090A51702178891CCAB200
:1056E00022706146498810180170090A41702078BB
:1056F000801C2070286B002830D00090007923781F
:10570000801CC0B2811C5918039A1F2902D90C2091
:1057100005B0F0BD591C401C2170D0542178FF23E6
:10572000481C20705354009821780088891808700C
:10573000000A48702078801CC0B2207000998B88C5
:10574000002B0BD0896800294BD080181A4602F034
:105750001BFC00982178007908182070284620301A
:10576000017E00293AD000956A6B039E002A3BD047
:1057700000250190002930D90098416B0C20684326
:105780000F1838792178C01C705420781621401CDD
:10579000C0B2207031542078401CC1B221703888CA
:1057A00089190870000A48702078801CC0B22070E7
:1057B000BA8800E015E0002A09D0B968002913D0A2
:1057C000801902F0E1FB20783979401820700198A7
:1057D0006D1C007EEDB2A842CED80026304605B042
:1057E000F0BD072005B0F0BD072005B0F0BD70B5D5
:1057F0000D4692B000216A461170072411710028ED
:1058000012D00189002905D0C168002902D0097889
:10581000490702D4204612B070BD02A9FFF774FEFA
:105820000028F8D102AE00E00026002D0BD0288918
:105830000028EFD101AA0AA92846FFF765FE002833
:10584000E9D10AAA00E000226846037901783046CF
:1058500072DF12B070BD0000FFFF00000A78027016
:10586000497841700220704770B504460D460846DD
:1058700002F068FB2080656070BD000038B5834988
:10588000834A488890420FD04A78824C521CD2B248
:105890004A70237B934208D37F4975DF002803D0E9
:1058A000A169002900D0884738BD00254D70217CB2
:1058B000002907D03B2176DF002803D0A169002909
:1058C00000D0884761690029EED068460095884776
:1058D00038BD70B502463CCA6E490E463CC6846966
:1058E000436902698C614B61684C00250A6125702F
:1058F000006800280CD0018821814188618181885D
:10590000A181C188E18164487ADF00280DD103E0DC
:1059100061487BDF002808D10020C04360806570AB
:105920005E4A00215E4800F07EF970BD10B5574810
:10593000406800F00BFA10BDF8B5564C07880026F9
:10594000524A811CE389102F16D015466D68112F1D
:1059500022D0122F37D0502F1DD1801D018899429F
:1059600019D1018B022916D1C17E827E0802104313
:10597000C007C00F0DD11CE080885080888910823C
:10598000C8895082088A9082488AD0825670002B3B
:1059900001D100F04BF8F8BD0020C0435080567094
:1059A000284600F0D3F90028F5D0A169002908D1D4
:1059B000F8BD284600F0CAF90028F9D0A1690029ED
:1059C000F6D08847F8BD88881082C8885082088938
:1059D00090824889D08200F029F8F8BDF8B52B4DA7
:1059E00001882981418869818188A981C188E981EB
:1059F00029487ADF060010D12A4801244188083856
:105A0000028891420BD34088814208D821484169DD
:105A1000002902D06846009488473046F8BD2C70B3
:105A20001D49688875DF06466C70F6E7F8B51D48B5
:105A3000184D4288083803880026144C69699A4238
:105A40000AD34088824207D80120002902D0009062
:105A5000684688472670F8BD2078002805D00029C0
:105A6000F8D0684600968847F4E7607800280BD0A5
:105A7000A9680022606800F0FFF80028EAD0A96950
:105A80000029E7D08847E5E76968F2E74020002071
:105A9000FFFF0000BC240020482000207D580100AA
:105AA0004420002050200020F8B5FB490020086069
:105AB00048608860C860F94908604860F84EF4683A
:105AC000601C36D0F748002740683169401A05024B
:105AD0002D0A28204443706822189068A84215D8DF
:105AE00073692D1AC719546A002B0AD0116AD0693C
:105AF0009847002808D0FF21EBA25531FEF7CCFBD8
:105B000002E0D169106A8847601CE2D1B178F07870
:105B1000814206D1401CC0B2F070022801D10020A1
:105B2000F0700006EC49800D0F500120EB49000594
:105B30000860F8BD10B500F0F6F910BDFFB581B0F2
:105B40000A9F1C4615460E46980769D1002C67D05F
:105B50000120E34940040860E24940108860E249BE
:105B60008860E249012048602F20FEF7FDFACC480A
:105B700021464761067044600020002E13D00A467B
:105B8000283A1039F30703D0283228311060087002
:105B9000730808D090622827785450325031106032
:105BA00008705B1EF6D128214E433119BC4C0322EC
:105BB0006270A1600A460870183248708D704A60A1
:105BC00018232E465E430872B71848728D72CF6054
:105BD00008744874F2198D744A610021C943E16068
:105BE000A070E0700121C24809050160C148026847
:105BF000C023120A12021A430260BF480160A94979
:105C000001988860BD4A1068FF231B029843032354
:105C10009B031843106048682061002005B0F0BD68
:105C2000072005B0F0BD70B49D4D6C68002C12D0FB
:105C3000002A13D0002811D02D780023002D07DD75
:105C400028265E43A659002E0BD05B1CAB42F7DB27
:105C500070BC0420704770BC0820704770BC0720DF
:105C60007047282501265D4366512C19E261616069
:105C7000036070BC00207047F0B4894B5D68002D54
:105C80000CD01C78A04201D2052902D2F0BC07201A
:105C90007047282444432E59012E02D0F0BC08201E
:105CA000704764196468012C14D00026944D6C6808
:105CB000E405E40D1ED0103C0ED527073F0F083F2A
:105CC000BF08BF007D19ED69A407E40EE5402C066E
:105CD000A40F0BE00E46E9E7A5088A4FAD00ED19C9
:105CE0002D68A407E40EE5402C06A40F012C26D055
:105CF000032C26D002248C469B68E100CC186378E4
:105D0000A7781D465B1C9F4200D1002327789F4245
:105D100019D0182167684D43791914D001250D60F9
:105D200048606048406888600E6160464A61C860AB
:105D30006A49637028050860F0BC002070470024A1
:105D4000D9E70124D7E7F0BC04207047544A5168D2
:105D5000002909D01378984201D3072070472823DF
:105D60004343C958012901D008207047F0B4644B5F
:105D700059680424C905C90D00291CD010390CD557
:105D80000D072D0F083DAD08AD00EB18DB69890745
:105D9000C90ECB401906890F09E08B08594D9B00AD
:105DA0005B191B688907C90ECB401906890F0129A9
:105DB0001FD003291FD002219268C9008A18517888
:105DC00095780B46491C8D4200D10021167800259C
:105DD0008E4212D0182756687B43F3180DD0022448
:105DE0001C60586051703D49E00408602846F0BCD2
:105DF00070470021E0E70121DEE72046F0BC704754
:105E000070B4274A5068002815D03D4B5868C1052A
:105E1000C90D042000291FD010390FD50C07240FFD
:105E2000083CA408A400E318DB698907C90ECB402D
:105E30001906890F0CE0082070BC70478B08314CA4
:105E40009B001B191B688907C90ECB401906890FD7
:105E5000012959D0032959D002219268C9008A1812
:105E6000517894780B46491C8C4200D1002115785A
:105E700000248D42E0D0182655687343EB18DBD020
:105E800003201860001F586051700120134900055D
:105E90000860204670BC704740110140001101406D
:105EA00058200020001501402E2E5C2E2E5C2E2E38
:105EB0005C2E2E5C2E2E5C536F757263655C617078
:105EC000705F636F6D6D6F6E5C6170705F74696D34
:105ED00065722E63000000007020002000E200E0E8
:105EE00080E100E040130140001301400010014038
:105EF00080E200E014E400E000E100E010E400E0F3
:105F000000ED00E000E400E00021A6E70121A4E7A5
:105F1000E4494968016000207047401A0002000A05
:105F2000106000207047F0B5002095B0C043DE49F6
:105F300003900A690A92C86807908B78CC78A342CC
:105F400011D05B1CDBB28B70022B01D100238B7054
:105F50001B06D64C9B0DE35809939A181202120A9D
:105F60000A61012201E000220992CF4910920F90AC
:105F7000497804914A1E0692D2B20592CA4A002973
:105F800093680B9352680C9260D014460E93059957
:105F9000CA000E9955182B78697899424ED018216D
:105FA00059436A685B1C5118AA78DBB29A4200D147
:105FB00000230A68022A02D0032A3CD131E04E684D
:105FC0002821714309198C46097E002933D00246E5
:105FD0000146471C21D0B14207D00A46282151432F
:105FE0000919496A4F1CF6D117E0002F15D08A42D3
:105FF00003D1282670430019406A282671430919E5
:106000008F687243496A121951624A1C05D02822CE
:10601000514309198E68F2198A600021624611768F
:1060200009E0411C07D000212822504300190176C5
:10603000406A421CF8D169789942B0D105994A1E4C
:10604000D2B205920029A2D19749C86096480F990B
:10605000C068884201D0012100E000210F91109911
:10606000002926D000240A9E099B401C1FD08E4A7E
:106070002820D1680C9D4843401985689D4202D96B
:10608000E91A816013E05B1B2C19002585600576F9
:10609000456AD5604269002A07D037193F023F0A96
:1060A000C7600261039A426203916D1CDFD1012037
:1060B0000F90039810907C48069AC06804990A9043
:1060C000D2B20592002970D077490C9B09690891DA
:1060D0000B990E910E99D200551881E01099491C28
:1060E00006D0109A28215143C9184C6A10941EE01A
:1060F000297818224A436C68491CC9B2A41829702F
:10610000AA78914201D10021297062682821514367
:106110002668C918012E67D10E7E002E64D1A668AC
:10612000CE60E6680E6126694E6164690C62CE68D5
:10613000089C5F4F341B2402240ABC4203D20E6920
:10614000A4198C600AE0089CA41B24020E69240A8E
:10615000A64201D9341B00E000248C600024CC60EE
:106160000C6101240C76A41E4C6228215143C918ED
:106170008C46411C14D061468C6828214143C918C3
:1061800089688C420ED828214143C91889680C1BA4
:1061900028214143C9188C606146486210461FE0BF
:1061A00010461DE00146049003E02AE00491716A64
:1061B000E41B4E1C0BD028264E43F618B768A742A6
:1061C000F4D328274F43FF18BF683F1BB7606646CC
:1061D000B46064466162049928246143C9184A6224
:1061E0001099491C00D079E729786A789142FAD150
:1061F00005994A1ED2B20592002900D06AE72A49C1
:10620000C86029490A98CC68844202D10F980028B6
:1062100037D0079A2748284B651C34D028256C4373
:106220000C9D6419A6681F4C64680F69E11B0D0280
:106230002D0AED1C521C0DD15860204948600121E7
:106240001F4A400010601F4A10601F4801602F2045
:10625000FDF78AFFB54200D23546E81900021B4916
:10626000000A08600F494968001B091B0902090A56
:106270000002C91C000A814203D9012014494004CC
:10628000086015B0F0BD0121124A49041160986000
:106290000A4988600C49012048602F20FDF764FFFF
:1062A00015B0F0BD001501405820002070200020DE
:1062B000FFFF7F0000000100401301400013014078
:1062C00080E200E000E100E00010014040150140E4
:1062D00000E200E080E100E010B508461146FDF75D
:1062E000E3FF10BDF8B53F4C2078002837D0206977
:1062F000002807D00026E068002805D00025002EE1
:1063000004D013E00126F6E70125F8E768464EDFE2
:10631000052806D0002806D033A26921FDF7BCFF6E
:1063200004E0012602E0216900988847002D12D17F
:10633000608869460880A06860DF052806D00028CC
:1063400006D029A28021FDF7A7FF04E0012502E085
:10635000E168A0688847002ED8D0002DCFD0F8BDC6
:10636000002901D10720704730B48C0702D00720E4
:1063700030BC70471B4CA16062802949636010DF0C
:106380000028F5D101202070162023DF30BC704793
:1063900011DF002801D0012100E00021114A117015
:1063A0007047002803D00F49C860002070470E20B6
:1063B0007047002803D00B490861002070470E2069
:1063C000704710B507484068002808D0804700286B
:1063D00004D0FF2104A23331FDF75EFF10BDFFF7AB
:1063E00081FF10BD782000202E2E5C2E2E5C2E2EDC
:1063F0005C2E2E5C2E2E5C536F757263655C73642D
:106400005F636F6D6D6F6E5C736F667464657669E4
:1064100063655F68616E646C65722E6300000000E6
:10642000D962010030B5FF4C0546207983B00A28B7
:1064300002D3042003B030BD002805D1002211464C
:10644000104601F07FFAA0816A462179F64801F0F2
:10645000B9F80028EED104234C222946684601F001
:10646000DBF80028E6D1F14A4C21284601F06AFA0F
:10647000EF49A08142182079EE4980000A50411866
:1064800000230422684601F0C7F80028D2D1207901
:10649000401C2071002003B030BDE24A0020907003
:1064A000D07053780146002B25DDF0B46420E24C17
:1064B00048430019447A64070AD5D478DF4D077839
:1064C000E600AF5507461E377519641C6F60D4701F
:1064D0004224245C022C09D094780778D84DE60039
:1064E000AF5542307519641C68609470491C99421C
:1064F000DCDBF0BC70477047F0B5CA4F0446387813
:10650000D04D83B0002802D1A96808208847CE4B1F
:10651000218818465030C84E14297DD016DC102929
:106520002AD011297FD013290ED1217AC9070BD087
:10653000B97902221143B9711968491C04D00021AC
:1065400019660E2101F07FFD03B0F0BD172974D04C
:10655000182973D05229F7D11968491C04D0B97988
:10656000CA0701D0890761D5002211467889A9DFC1
:10657000002861D103B0F0BDAA48A1884181002064
:10658000B14FC04338600722A11DB04801F0FCFCA8
:1065900000203866607BC10713D04008072804D26A
:1065A000C100A6484056072803DBA9680320884796
:1065B0001EE06421484381196422A348FDF7E4FDED
:1065C00016E0984800248178002911DD9C4FA049ED
:1065D0000091E000C01940680622401C009901F0BB
:1065E00083FC00281CD08F48641C80788442F0DB38
:1065F000954801684A1CBDD08A4B0022DA711A7294
:106600006A68002AB6D0012300936B461971C08FC7
:10661000D8806846904701E0C4E004E003B0F0BDD4
:10662000E0003856C5E70020B871F4E71A6E002A7A
:1066300007D00E2A03D90320A5E00BE00EE10146A6
:1066400000E0002192B27889A9DF00284ED1012014
:106650003872E0E7A41D20780028DCD1B879C007A3
:10666000D9D01868401C2DD00120F8713222214663
:106670001F46181D01F088FCE088F88738686421FF
:106680004843801901F0DFFC642138680A4648431A
:1066900080196D49FDF778FD6B48FFF7C3FE0428AC
:1066A00074D0002801D0A968884769680029B2D051
:1066B0000320009038786A461071F88FD0806846C1
:1066C0008847A8E7574AE18857780020002F11DD56
:1066D000642242439219D28F8A4208D164214843EE
:1066E000811964225848FDF74FFD0F204BE0401CF4
:1066F000B842EDDB0094072F01D3042043E021468C
:1067000032221C46181D01F03FFC00984549C08804
:10671000E087002027602066642078437F1C4F704C
:10672000801964224849FDF72FFDFFF7B6FE0120CE
:106730003C490022C8713B4811464089A9DF002826
:1067400021D14148FFF76EFE042802D000281AD15B
:106750000BE06968002916D00420009020786A4672
:106760001071E08FD0806846884769680029A8D0FA
:106770000020009020786A461071E08FD080684633
:10678000884748E702E0A968884744E76968002924
:1067900089D00420009038786A461071F88FD08034
:1067A000684681E77A78E1890020002A1ADD6423AF
:1067B00043439B19DB8F8B4211D1642148438119DC
:1067C00064222148FDF7E0FC0120F87100222149F4
:1067D000788981DF0400D4D0A96888471DE0401C77
:1067E0009042E4DB1C48E188018021894180618975
:1067F0008180A189C180E1890181218A41810022B2
:106800001146788981DF002801D0A96888470022D5
:1068100011467889A9DF0400B3D0A96820468847CB
:10682000F9E600008C2000209C2000209820002009
:1068300000002453AC28002080250020742800206C
:106840003C280020102500201C2500205E2500206B
:106850005F2500202625002052250020A1790A0767
:10686000120F0909012A0FD0022A8AD1002988D0E3
:10687000B97901242143B9711A6E1E46002A08D045
:106880000E2A04D903200AE00129F1D8C3E6014603
:1068900000E0002192B27889A9DF002802D0A9681F
:1068A000884700E03C7269680029B9D00220009056
:1068B00030786A461071F08FD08068468847AAE623
:1068C000F0B5F84F83B0387800287DD0F648F74C03
:1068D0000068401C30D00E20694608806A46F449A2
:1068E0007889AADF002870D1EF4869460568C56439
:1068F00009880166002D69DB7878854266DAF879C7
:10690000002806D06420684300194C22E649FDF7B0
:106910003BFC387A00280DD06420E649454328190D
:106920000A4610326CCA4C306CC04A6A5C38096A3C
:106930000266C165FFF7B1FD00221146104601F065
:1069400001F8694608807878002500280CDD64206D
:1069500068430A4600194C2100F0F4FF694608809C
:1069600078786D1C8542F2DB0888B989884216D098
:1069700019214901D04800F0F1FE002844D13871B6
:106980000546787800280ADD642068430019FFF77F
:1069900049FD002838D178786D1C8542F4DB00224F
:1069A0001146104600F0CEFF694608807878002531
:1069B000002811DD6420684300190A464C30182174
:1069C00000F0C0FF694602E020E01DE021E0088001
:1069D00078786D1C8542EDDB0888F98988424DD0B6
:1069E000FF211931B54800F0B9FE00280CD17871AB
:1069F00005467878002841DD6420684306197879D7
:106A00004C360A2808D3042003B0F0BD082003B098
:106A1000F0BD032003B0F0BD002805D100221146CF
:106A2000104600F08FFFF8816A467979A34800F09C
:106A3000C9FD0028EED1042318223146684600F033
:106A4000EBFD0028E6D19E4A1821304600F07AFF7F
:106A50009C49F88142187879002381009A48425075
:106A600009180422684600F0D7FD0028D2D17879B1
:106A70006D1C401C787178788542BDDB0020C043D6
:106A80007881014688480160C16400210166F9717E
:106A90003972084603B0F0BDF8B5834C206E00286B
:106AA00001D00820F8BD0E20694608807D486A465E
:106AB0007F494089AADF0028F4D1206864227B4BFB
:106AC0004243D2186946E0640988283B216617468C
:106AD000DE699D695C694C3771C7186A1166D065BB
:106AE0007A4800F021FBF8BD6E480178002901D1F9
:106AF0000820704710B50021417001714171C170CB
:106B00008170192149016C4800F028FE002804D149
:106B1000FF211931694800F021FE10BD10B50B4668
:106B2000411C14D05F494978884210DA002B0ED0FE
:106B3000642148435D4941184220405C022806D048
:106B400042310722184601F01FFA002010BD07202D
:106B500010BDF1B55348C778002F41D0002407215C
:106B6000384601F072FA002359485A4A002908DDD4
:106B7000E5002D18A6006D68641C5B1C95518B42C6
:106B8000F6DBB9422CDAE3001B18A5005B68535111
:106B9000641CE3001B18A5005B685351641CE300F0
:106BA0001B18A5005B685351641CE3001B18A5006B
:106BB0005B685351641CE3001B18A5005B685351CC
:106BC000641CE3001B18A5005B685351641CE300C0
:106BD0001B18A5005B68641CC91D5351B942D2DB68
:106BE00030488578002D42D000240721284601F046
:106BF0002CFA0020384A002909DD384BE600F3184A
:106C0000A6005B68641C401C93518842F5DBA942D6
:106C10002DDA3248E3001B18A6005B689351641C10
:106C2000E3001B18A6005B689351641CE3001B186B
:106C3000A6005B689351641CE3001B18A6005B6808
:106C40009351641CE3001B18A6005B689351641CFD
:106C5000E3001B18A6005B689351641CE3001B183B
:106C6000A6005B68641CC91D9351A942D2DB009841
:106C7000002D057101D0184900E000210098002F77
:106C800001600098077301D0124900E000210098CC
:106C900081600020F8BD100002D0114989680847C2
:106CA000704700008C2000201C250020802500203B
:106CB0006C250020582500209C200020A4200020C6
:106CC0009A20002000002453C828002068250020B6
:106CD00074280020F4240020D82400203C28002020
:106CE00010250020F0B50446806899B0002839D0FE
:106CF0005021684681800A21C180F8480090F849F7
:106D0000684600F0EDFB00282DD11C2069468880E4
:106D1000F449684600F0E4FB002824D1F248A36857
:106D2000626821680364C26381636421EF4801F0F3
:106D30008AF90020ED49C04308600146EC4800266E
:106D400041814670067146718671EA48EA4F807843
:106D5000002821D019214901E14800F0FFFC00285A
:106D600003D007E0072019B0F0BDFF211931DD483D
:106D700000F0F4FC0028F6D1DD48002246703146D0
:106D8000D2433046642358433A50C019761CC2643B
:106D90000166072EF5DBCAE0D54C0B25207902AE43
:106DA000002805D100221146104600F0CBFDA0813D
:106DB00016AA2179CA4800F005FC002819D1002341
:106DC000042216A915A800F095FC002811D11598E9
:106DD000CA49020C8A4209D187B204234C2216A95F
:106DE000304600F087FC002803D10BE0401C2ED079
:106DF000284605282BD00028B5D16078029E86420F
:106E00000CDC0EE0BE4A4C21304600F09BFDA08118
:106E1000B84203D12079401C2071EEE7284619B012
:106E2000F0BD642031464143B3484C220818074660
:106E300002A9FDF7A9F96078864205D100213966DB
:106E4000491E401CF9646070C0B20728A6D3607860
:106E50000026002852DD607902AF002805D100220B
:106E60001146104600F06EFDE0810AAA61799D4846
:106E700000F0A8FB002819D1002304220AA908A8C1
:106E800000F038FC002811D108989C49020C8A4275
:106E900009D185B2042318220AA9384600F02AFC39
:106EA000002803D10BE0401C28D00B20052825D05A
:106EB0000028B4D16078029981420CDC0EE0914A3E
:106EC0001821384600F03EFDE081A84203D16079E8
:106ED000401C6071EEE70B2019B0F0BD64225143F5
:106EE000854A761C8D1802A98EC94C358EC55C3D2D
:106EF000079A06992A66E9658642ACDB6078072125
:106F00000B1A002B11DD642148437B4900254018F2
:106F10000146024660314C306C1E14600D60046006
:106F20006432643164305B1EF7D1FFF7B6FA704803
:106F300001210170002019B0F0BD6D4A1378002BBB
:106F400007D0002907D00B885278934205D20C2035
:106F50007047082070470E2070470A800028FBD039
:106F600030B40021002A09DD634C64234B431B1914
:106F70004D00DB8F491C43539142F6DB30BC0020AF
:106F80007047F0B55A4B83B0197800293CD05A7835
:106F90000021002A3FD9584C64254D432D19ED8F0F
:106FA000854234D148B2411C35D0C5B2521E9542FB
:106FB00017DA64202F4647433E19311830466422C1
:106FC000FDF7E2F8E059401EE051F06C411C01D0A1
:106FD000401EF06446486D1C4078EDB2401E85426C
:106FE000E7DB434D6421687848430019643801F0B9
:106FF0002AF868781921401E68704901384800F065
:10700000ADFB00280AD00EE0082003B0F0BD491CFB
:10701000C9B29142C0D3052003B0F0BDFF211931A0
:10702000304800F09BFB0028F6D1287168710646B5
:10703000687800280CD93046642148430019FFF7CE
:10704000F1F90028E8D1761C6878F6B28642F2D3CE
:107050000026C0B200283CD9642070430719687923
:107060004C370A2802D3042003B0F0BD002805D114
:1070700000221146104600F065FCE8816A466979F5
:10708000184800F09FFA0028EED104231822394650
:10709000684600F0C1FA0028E6D11A4A182138469D
:1070A00000F050FC1849E8814218687900238100FB
:1070B0001648425009180422684600F0ADFA00282C
:1070C000D2D16879761C401C68716878F6B2864225
:1070D000C2D3FFF7E2F9002003B0F0BD976C0100C6
:1070E0009C200020A4200020D82400201C25002063
:1070F0008C20002010250020802500202453000033
:10710000982000209A20002000002453C828002046
:1071100023490A78002A05D08979C907C90F017067
:10712000002070470820704730B51D4C0546607937
:1071300083B00A2802D3042003B030BD002805D153
:1071400000221146104600F0FDFBE0816A4661799D
:10715000144800F037FA0028EED1042318222946FB
:10716000684600F059FA0028E6D10F4A182128464F
:1071700000F0E8FB0D49E081421860790C4980007D
:107180000A50411800230422684600F045FA0028FE
:10719000D2D16079401C6071002003B030BD000086
:1071A0008C200020A42000209A20002000002453DE
:1071B000C8280020FFB581B00F46FD4D049B039900
:1071C0000646EA68194303208E46002A01D0E96882
:1071D00003E0002911D00121E960039A0124920003
:1071E0002407009207297BD20B007B441B79DB1814
:1071F0009F4476051F324F7886000221ECE7ED4868
:107200004169491C05D02169406989B200F01DFF20
:1072100000E060692169401E89B248432169090480
:107220008A0C216989B2794351DF002858D10221A3
:1072300055E0384650DF002852D10399002901D08B
:1072400003214CE00499002904D13178042942D16A
:10725000072144E0042142E0D6484169491C05D099
:107260002169406989B200F0F0FE00E0606921699F
:10727000401E89B241432069039A80B2784351DFAE
:1072800000282DD104990029E4D13178042925D092
:1072900021E0C8484169491C05D02169406989B28B
:1072A00000F0D3FE00E060692169401E89B24843C6
:1072B0007188421800981018226992B27A435218C5
:1072C0000099531801461846049A51DF002807D147
:1072D0003178042902D0052101E001E00621E960AE
:1072E00005B0F0BD2069718880B2784380188A08A3
:1072F000316951DF0028F3D171460029EED1A7E7AB
:10730000AC484169491C05D02169406989B200F047
:107310009CFE00E060692169401E89B248432169F2
:1073200089B200F092FE50DF0028D9D10721E96030
:1073300005B0F0BDA0498A78012A7DD1F8B50024B6
:107340009B4A8C70D368082B07D0022817D00328DB
:1073500002D10D2000F0DEFAF8BD02280AD0147028
:1073600048780028F8D000F03AFA0400F4D0112C44
:107370005ED101E0D460F3E700F0CCFAF8BD8E48AE
:1073800014250178694308188949001D8A88521C10
:1073900095B28D800278022A05D14688A902B142B1
:1073A00001D3012600E00026052A01D1072B03D0D6
:1073B0000021042A02D003E00121FAE7072B03D0C1
:1073C0000027042A02D007E00127FAE74088AA0232
:1073D000824201D3002B30D0002039430143314396
:1073E0001CD0734D2046EC6000F094FA72481422D1
:1073F0000178514309180C71CC800C6102224C6158
:10740000CA600C81AC804178491E41700178491CEA
:10741000C9B201701E2901D31E3901706648407837
:107420000028ABD000F0DBF90400A7D0112CA3D0CA
:1074300000F070FA20469FE701E00120CDE7704799
:10744000F8B500205A4C5C4DA080E0602870687050
:10745000A8700146022314224A4352191071D080A9
:107460001061D3605061491C10811E29F3D30020A4
:10747000504F60807869514E401C05D0306981B210
:10748000786900F0E2FD00E070693169C01E89B2E0
:107490004843A06000204A49A08008600881888194
:1074A000488108610883888348830820E060786900
:1074B000401C05D0306981B2786900F0C6FD00E05B
:1074C00070693169401E89B24843316989B200F060
:1074D000BCFD50DF002802D10121A9702170F8BD48
:1074E000F8B5044632480F46007800281ED0002C1C
:1074F0001ED0002F1CD02068002819D001252D0790
:10750000A688286980B2864222D8102E20D3E0882F
:10751000009000281CD027484169491C0AD02969DD
:10752000406989B200F091FD014604E00820F8BDF1
:107530000E20F8BD69692869491E80B21C4A414382
:10754000009B906873431B18994201D3B10701D087
:107550000720F8BD5188022919D0194B0E01396056
:10756000F2187860506027689F51A3881381E388E0
:107570005381A388E48800266343761C2C69B6B245
:10758000A4B29C4205D22C69A4B21B1B02E00420C9
:10759000F8BD00232C69A4B220182C69A4B29C4227
:1075A000EBD9034B491C9860968159800020F8BDA7
:1075B000AC20002000100010E42800200000001083
:1075C000402B002070B4DC4B1B78002B19D0002816
:1075D0001AD0002A18D00368022B0FD2D74C1E01F4
:1075E000A559002D0AD045683019048961436918EE
:1075F0004589406865432818884208D870BC072030
:10760000704770BC0820704770BC0E207047136034
:10761000516070BC00207047F8B5C74C2478002C2E
:107620001DD000291DD000281BD00468022C14D2C4
:107630002501C24C6659002E0FD02D196E892C8958
:107640006D68664376194568AE4206D9002A04D0B3
:10765000944202D3D618A64205D90720F8BD0820C7
:10766000F8BD0E20F8BD0C461C43A40701D1AC07A1
:1076700001D01020F8BD009313460A4601460220AF
:1076800000F021F9F8BDF8B5AB4C2478002C1DD0E2
:1076900000291DD000281BD00468022C14D225011B
:1076A000A64C6659002E0FD02D196E892C896D6855
:1076B000664376194568AE4206D9002A04D0944242
:1076C00002D3D618A64205D90720F8BD0820F8BD78
:1076D0000E20F8BD0C461C43A40701D1AC0701D015
:1076E0001020F8BD009313460A460146052000F01D
:1076F000EAF8F8BD70B5904C2478002C1DD0002914
:107700001DD000281BD00C68022C14D28B4D2401F4
:107710002E59002E0FD065196E892C896D6866432D
:10772000496875198D4206D9002A04D0944202D3C3
:10773000D518A54205D9072070BD082070BD0E20C0
:1077400070BD04461C43A40701D18C0701D0102052
:1077500070BDC91800F018FC002070BD38B5044693
:1077600075480D460078002816D0002C16D02068E9
:1077700002281AD2714900010A58002A15D040186F
:107780004389018942684B4360689B1883420CD946
:10779000830705D0102038BD082038BD0E2038BD25
:1077A000801A00F052FC002901D0072038BD0020CB
:1077B000024600902B462146042000F084F838BD94
:1077C0005D490978002906D0002806D05C4949782F
:1077D000016000207047082070470E207047F8B500
:1077E000574914230A780F205A435418241D52492C
:1077F00022788F88E668022A24D001252D07042AE2
:1078000033D0052A1DD1286981B2304600F01DFC15
:107810000146A38828699A1980B24843101A820841
:1078200060881818861928694B1C80B25843801B41
:1078300083082046FFF7BEFC002802D14049012200
:107840008A70F8BDB80262882169121A0918A388E3
:107850003018181801239B029A4202D2920851DF75
:10786000EAE7FF22013251DFE6E7A3683348190156
:107870000818018942894068B04203D160885143A9
:10788000814218D0032B16D0286981B2304600F00F
:10789000DCFB0146286980B24843301A8208286917
:1078A0004B1C80B2584363889B19C01A830820463A
:1078B000FFF780FCC0E7286981B2304600F0C5FBC5
:1078C000C01950DFB8E7F8B51D4C069E65781E2D2F
:1078D0001ED027787D19EDB21E2D01D31E3DEDB2CD
:1078E00014277D432D1928716A6108684968296148
:1078F000E860EB802E81A1780020002904D1FFF7F9
:107900006EFF112800D100206178491C6170F8BD1C
:107910000420F8BD38B50246094814230178074C05
:1079200059430818C36801791B01E458C3880093C0
:1079300043690C30A04738BDAC200020402B00200C
:10794000E42800200346002A36D01088002932D0CF
:107950005B1ECA070ED0020A000202435B1C1878A5
:1079600050400206120F42401003504082B21006EF
:10797000C00C504049081ED0020A00020243587849
:107980009B1C50400206120F42401003504080B230
:107990000206D20C4240100A120210431A784240EA
:1079A0001006000F50400203424092B21006C00C75
:1079B0005040491EE0D170470048C7E7FFFF000074
:1079C000F8B5744C6946607800F068FA002854D124
:1079D00020780025002850D96F4F01260C206168BF
:1079E00068434118087832463B68824013421DD0F4
:1079F0008B68002B1AD049780129E1688C4609D0A0
:107A000000293BD0014618460122634698470028CA
:107A100020D12DE0002933D00146184600226346CC
:107A20009847002816D123E0984721E07B6813424D
:107A30001ED08B68002B1BD049780129E1688C4649
:107A40000DD000291CD001461846002263469847F5
:107A500000280DD051A22821FCF71EFC08E00029C7
:107A60000CD0014618460122634698470028F1D100
:107A70006D1C2078EDB28542B0D3F8BD0121D3E76B
:107A80000021D1E770B5434D04460E462869FEF744
:107A90005DF9002808D1404806604460344322461E
:107AA000A9682869FEF7E8F870BD052A01D2072009
:107AB0007047F8B50C46374948600C70CB608A6057
:107AC000621E0021D2B2002C13D0404D01240C23A1
:107AD00053431B181E785F68B600BF0076193760E5
:107AE0001E782346B34019431346521ED2B2002BD0
:107AF000EDD1374B0A46374800F01FF9002804D172
:107B0000354A00213548FEF78EF8F8BD2148416816
:107B1000002901D10820704710B5407800F048F9DD
:107B200010BD10B51B4C6068002808D0607800F0CC
:107B300084F9002802D12069FEF708F910BD082059
:107B400010BDF8B505460C202A46424311480C46A4
:107B50004168561800290CD06946407800F09EF91B
:107B6000002807D172780121002A04D0012A07D009
:107B70000DE00820F8BD009AEA40D20706D103E0E4
:107B8000009AEA40D20701D0217000E02070002066
:107B9000F8BD0000BC200020D02000202E2E5C2E3E
:107BA0002E5C2E2E5C2E2E5C2E2E5C536F75726317
:107BB000655C6170705F636F6D6D6F6E5C6170703E
:107BC0005F627574746F6E2E6300000000070050D2
:107BD000857A0100BD200020C1790100CC20002061
:107BE000F0B5B94883B001690091B84A0021D1636A
:107BF0000191B7494A78002A6FD901981421484366
:107C0000B349019C4A688968821801200346A34051
:107C10000B425AD0D1680327CB4300994B401168DF
:107C20000B4000219C463F0405468D401C462C42DB
:107C30000FD0D66834462C4251D03C46AE43D66075
:107C4000A44D8E0075192E68BE432E602E68264303
:107C50002E60491C2029E7D39B490969009B5940A4
:107C600025D00B430093D168CC4311685C400C4095
:107C7000002103468B4025461D4212D0D5682E4672
:107C80001E4230D0032636049D43D560914B8D00B3
:107C9000ED182F6803231B049F432F602B68334389
:107CA0002B60491C2029E4D3604620438446009B76
:107CB00060469168984301406446506823401840EC
:107CC00003460B4301D01269904701988049401C3C
:107CD000C0B20190497888428FD303B0F0BD01242F
:107CE00064042E43ABE7012676041D43CDE700294B
:107CF00001D08A0701D00720704710B5744A0B469F
:107D00005160107000215170916014214143184658
:107D100000F099F900207049C04388606F48402105
:107D200001606F484268FF231B049A430B04D2187A
:107D300042606C480160002010BDF0B48446644885
:107D40004568002D08D0002B09D044780678B4424D
:107D500008D3F0BC04207047F0BC08207047F0BC8A
:107D6000072070470F46142617436643AF51761914
:107D70003361B260716061460C70611C4170142106
:107D800000204C430122534B03273F042E59114638
:107D900081400E4206D08100C9180E68BE430E60B5
:107DA0000E680E60401C2028F0D3F0BC0020704705
:107DB000F0B4474C6268002A05D06178884205D348
:107DC000F0BC07207047F0BC082070473F490025F1
:107DD000CD633D4909698C46A168002903D101237F
:107DE0003D4EDB077360012686400E431421484355
:107DF0008118A660CD60032500212D04861801247A
:107E000013588C40234212D06346234201D02B46A4
:107E100004E00123F7685B042743F7602D4C8F00D3
:107E20003C192768AF43276027681F432760491C18
:107E30002029E4D3F0BC00207047F0B4244A5568F0
:107E4000002D05D05178884205D3F0BC072070473B
:107E5000F0BC08207047142200214243012403276C
:107E60003F04AE5823468B401E4207D0194E8B006C
:107E70009B191E68BE431E601E681E60491C202997
:107E8000EFD3134984408868A043886003D1012060
:107E90001149C0078860F0BC002070470C4B5A683D
:107EA000002A04D05B78984203D30720704708204B
:107EB0007047142358438018034A1269006802402F
:107EC00000200A607047000000050050406100403B
:107ED000D8200020000700500063004080E200E04E
:107EE00000E400E000E100E0034610B50B439B070F
:107EF0000FD1042A0DD308C810C9121FA342F8D00D
:107F000018BA21BA884201D9012010BD0020C0430F
:107F100010BD002A03D0D30703D0521C07E0002075
:107F200010BD03780C78401C491C1B1B07D103783B
:107F30000C78401C491C1B1B01D1921EF1D1184624
:107F400010BD000030B5441C03E00178401C00293E
:107F50000DD08107F9D10B4BDD0104C8D11A914333
:107F60002940FAD0001B0A0603D0C01E30BD001BFA
:107F700030BD0A0401D0801E30BD0902FCD0401E75
:107F800030BD000001010101F8B5042A2CD383079C
:107F900012D00B78491C0370401C521E83070BD073
:107FA0000B78491C0370401C521E830704D00B78C9
:107FB000491C0370401C521E8B079B0F05D0C91A29
:107FC000DF002023DE1B08C90AE0FCF7DDF8F8BD5E
:107FD0001D4608C9FD401C46B4402C4310C0121F6A
:107FE000042AF5D2F308C91A521EF0D40B78491CA2
:107FF0000370401C521EEAD40B78491C0370401CCD
:10800000521EE4D409780170F8BD01E004C0091FD4
:108010000429FBD28B0701D50280801CC90700D040
:108020000270704700290BD0C30702D00270401CB9
:10803000491E022904D3830702D50280801C891EB1
:10804000E3E70022EEE70022DFE7002203098B428C
:1080500073D3030A8B4258D3030B8B423CD3030CDC
:108060008B4221D312E003460B437FD40022430806
:108070008B4274D303098B425FD3030A8B4244D3F0
:10808000030B8B4228D3030C8B420DD3FF22090232
:1080900012BA030C8B4202D31212090265D0030BF1
:1080A0008B4219D300E0090AC30B8B4201D3CB03E7
:1080B000C01A5241830B8B4201D38B03C01A524129
:1080C000430B8B4201D34B03C01A5241030B8B422B
:1080D00001D30B03C01A5241C30A8B4201D3CB0216
:1080E000C01A5241830A8B4201D38B02C01A5241FB
:1080F000430A8B4201D34B02C01A5241030A8B42FE
:1081000001D30B02C01A5241CDD2C3098B4201D315
:10811000CB01C01A524183098B4201D38B01C01A93
:10812000524143098B4201D34B01C01A524103090A
:108130008B4201D30B01C01A5241C3088B4201D3B9
:10814000CB00C01A524183088B4201D38B00C01A66
:10815000524143088B4201D34B00C01A5241411A8D
:1081600000D201465241104670475DE0CA0F00D070
:108170004942031000D34042534000229C46030969
:108180008B422DD3030A8B4212D3FC22890112BAEF
:10819000030A8B420CD3890192118B4208D38901C7
:1081A00092118B4204D389013AD0921100E08909DF
:1081B000C3098B4201D3CB01C01A524183098B42C0
:1081C00001D38B01C01A524143098B4201D34B01A9
:1081D000C01A524103098B4201D30B01C01A52410C
:1081E000C3088B4201D3CB00C01A524183088B4293
:1081F00001D38B00C01A5241D9D243088B4201D31C
:108200004B00C01A5241411A00D201466346524106
:108210005B10104601D34042002B00D54942704705
:1082200063465B1000D3404201B50020C046C04603
:1082300002BD704770477047754600F023F8AE46A0
:10824000050069465346C008C000854618B020B5F1
:10825000FBF7C6FF60BC00274908B6460026C0C52C
:10826000C0C5C0C5C0C5C0C5C0C5C0C5C0C5403DEE
:1082700049008D4670470446C046C0462046FBF77D
:108280006CFF000000487047602B00200149182057
:10829000ABBEFEE726000200704700000418010094
:1082A0000218010003180100C8820100002000200C
:1082B000E400000004410100AC830100E420002040
:1082C000DC1A0000204101000024F400000000003E
:1082D0000000FFFF000000000000000000000000A0
:1082E000000000000000000000000000100000007E
:1082F00003000000634801001100000003000000BB
:1083000063480100000000000000000000000000C1
:10831000000000000000000000000000000000005D
:10832000000000000000000000000000000000004D
:10833000000000000000000000000000000000003D
:10834000000000000000000000000000000000002D
:10835000000000000000000000000000000000001D
:10836000000000000000000000000000000000000D
:1083700000000000000000000000000000000000FD
:1083800000000000000000000000000000000000ED
:1083900000000000000000000000000000000000DD
:0C83A000000000000000000000000000D1
:04000005000140C1F5
:00000001FF
