:020000040001F9
:10B00000A84E0020D5B00100EFB00100F1B0010062
:10B010000000000000000000000000000000000030
:10B02000000000000000000000000000F3B001007C
:10B030000000000000000000F5B00100F7B00100C2
:10B0400075B70100F9B00100D9B80100FDB70100E2
:10B05000F9B0010000000000B9B50100F9B001002D
:10B06000F9B00100F9B00100F9B00100C9B7010061
:10B07000F9B00100F9B00100F9B00100F9B0010028
:10B08000F9B00100DDB70100F9B00100F9B001002D
:10B0900011B80100F9B0010019B80100F9B00100C0
:10B0A000F9B00100F9B0010000000000000000004C
:10B0B0000000000000000000000000000000000090
:10B0C0000348854600F03AFA0048004741F901007C
:10B0D000A84E00200321094802680A43026008487C
:10B0E00002680A4302600748804707480047FEE7B6
:10B0F000FEE7FEE7FEE7FEE7FEE70000240500406E
:10B100005405004039B80100C1B0010030B50B460C
:10B11000014600202022012409E00D46D5409D4231
:10B1200005D31D469540491B2546954040191546B7
:10B13000521E002DF1DC30BD004870477C420200F9
:10B1400010B5431A934209D28318881803E0401EB1
:10B1500001785B1E1970521EF9D210BD03460B43D5
:10B160009B0703D009E008C9121F08C0042AFAD2BD
:10B1700003E00B780370401C491C521EF9D210BD2D
:10B18000D2B201E00270401C491EFBD2704700227F
:10B19000F6E710B513460A4604461946FFF7F0FFD6
:10B1A000204610BD421C0178401C0029FBD1801AAA
:10B1B000704730B504460020034600E05B1C934214
:10B1C00003D2E05CCD5C401BF8D030BDF0B5074643
:10B1D0000846584087B0C00F049048000E465900FA
:10B1E00040084908BC1A884105D2384631461E46F7
:10B1F00017460B4602465800400810434CD0300D0D
:10B20000039040055900400D490D0590401A0290E9
:10B21000402872DA18030121000B09050843019048
:10B2200004980092002805D00199524200208841DC
:10B2300000920190029840210A1A0199009800F0AA
:10B24000E9F805460C466B4607CB00F004F9C01937
:10B250007141039A0E0D0023D71756401A467A40C3
:10B26000164344D0049A002A2DD0029A012A039A48
:10B2700015DC1205C01A914101263605001C7141EA
:10B28000D20F059ED2070093019202962A462346CA
:10B2900000F001F907B0F0BD38463146FAE716056F
:10B2A000224A0F46B218C01AB74101210905001CF5
:10B2B0004F4100187F41114618187941E20F1043A1
:10B2C0006D19644113E0E2076D0815436408C20775
:10B2D0001443039A01261205C01A91413605001C39
:10B2E0007141CE07400830434908C01851412A46F1
:10B2F000234600F0C3F8CDE7FFE7049801224000A1
:10B30000C117121A00238B4104983146C417381A0A
:10B31000A141EEE730B40124E407634030BC55E7B7
:10B3200030B40124E407614030BC4FE70000E0FF87
:10B3300070B54B005B0803430BD04B005C0D00263F
:10B3400033466542B341D417AD1AA34102DB002056
:10B35000014670BD12053018514170BD0EB505494A
:10B360000291002100910A460B46019100F093F8EA
:10B3700003B000BD330400004A0009030123090B98
:10B380001B051943094B10B5520D9A4201DA0020F2
:10B3900010BD064B34339A4203DC9A1A00F04AF887
:10B3A00010BD03495118884010BD0000FF03000084
:10B3B000CDFBFFFFF0B51FB40646002082B0054666
:10B3C0004024019100901BE0019922460F4630462F
:10B3D00000F030F8049A059B801A994110D310466A
:10B3E0001946224600F016F8361A8F410197224678
:10B3F00001200021009F00F00DF838184D41009009
:10B400002046641E0028DFDC019B00982946324656
:10B4100007B0F0BD10B5202A04DB0146203A914068
:10B42000002010BD914020239C1A0346E34019439D
:10B43000904010BD10B5202A04DB0846203AD040C9
:10B44000002110BD0B46D340D0402024A21A9140C9
:10B450000843194610BD10B5202A06DBCB17084655
:10B46000203A1041C1170B4306E00B461341D04070
:10B470002024A21A91400843194610BD10B5002B94
:10B4800008DA0024401C614192185B411A4301D143
:10B490004008400010BDF0B51FB482B005460C0056
:10B4A00003D0084600F03CFA02E000F039FA203000
:10B4B0000246009021462846FFF7ACFF049B059A00
:10B4C00004460F4618431143084314D0184610434E
:10B4D0001BD0009840210A1A18460599FFF7AAFFC9
:10B4E00005460E46009A05990498FFF793FF084316
:10B4F00005D0012004E02046394607B0F0BD002009
:10B50000C11705430E432C43374300990E9863053A
:10B51000401A7905E40A00220C43FD0A0A3002D5DC
:10B5200000200146E9E70105101969410C9C0D9DB9
:10B5300000196941FFF7A2FFDFE70000064C012573
:10B54000064E05E0E36807CC2B430C3C98471034CB
:10B55000B442F7D3FFF7B8FD1843020038430200A6
:10B5600070B58C180578401C6B075B0F01D1037810
:10B57000401C2A1106D10278401C03E006780E70A8
:10B58000401C491C5B1EF9D12B0705D40023521E19
:10B590000DD40B70491CFAE70378401CCB1A921C9F
:10B5A00003E01D780D70491C5B1C521EF9D5A142A9
:10B5B000D8D3002070BD0000F0B50024FF268BB06A
:10B5C0000136012527460694304605F025F8002867
:10B5D00007D054484068284203D0304605F014F89C
:10B5E0002C43361D6D007F1CB6B2042FECD3FF2513
:10B5F0007D35284605F010F8002809D0284605F0CA
:10B6000003F86807044306AA0121002004F0E8FFBC
:10B61000454D200714D00127002627420CD043486F
:10B62000B200111808690969C004C00E8903AA583C
:10B63000890F002A00D090477F00761C042EECD39F
:10B64000002C6DDA00200890401E63E0281940307D
:10B650000778B906890E009100214156491C49D04E
:10B6600009A9009804F0C4FB002843D0B809019050
:10B67000009802F029F980002F580198002F02D07D
:10B68000032802D00DE0032834D1009808ABC2088B
:10B6900041079446985C490F01228A401043624654
:10B6A00098540098052109078000401807210902D5
:10B6B0004018006806A98003800F0290009804F0EB
:10B6C00097FB0028029802D0022802D012E003283B
:10B6D00010D10198032808D1029802281ED0022117
:10B6E000009804F058FF761CF6B2002F02D00199A2
:10B6F0000098B847641C042CA8D3002E10D06A46CA
:10B700000121002004F06CFF06990098884207D0C0
:10B710000690089800263446099097E70321DFE752
:10B720000BB0F0BD006300405C3F002000650040AE
:10B730008307FF22DB0E9A408907090E99400028F3
:10B740000BDA0007000F0838830808489B00181818
:10B75000C36993430B43C3617047830804489B004C
:10B760001B181868904308431860704700ED00E00C
:10B7700000E400E0F8B5FF20013004F044FB0024B1
:10B7800001250E4E0E4F002807D00E480460012000
:10B79000B0607D70002002F025F9FF20053004F034
:10B7A00032FB002808D00748001D04600220B0606A
:10B7B000BD70012002F016F9F8BD00000003004042
:10B7C000483F00200001004010B50322002102483C
:10B7D00004F0A6FC10BD000000B0004010B5064902
:10B7E0000020086048608860C860034940390860EC
:10B7F000486007F0C7FE10BD4011014010B5024976
:10B80000024803F02BFD10BDC03F00200030004077
:10B8100010B507F029FE10BD10B506484068002895
:10B8200005D08047002801D000F0D4FC10BD03F003
:10B83000D5FC10BD7035002010B503F073FD002855
:10B8400005D01F491D484860C8131E4988611E481D
:10B85000018CC9B201290BD1828C120708D1028D4B
:10B860001206120F042A03D1828D1206120F0AD07B
:10B87000012921D1818C09071ED1018D0906090FEB
:10B880000A2904D007E0114A01219160F5E7828D71
:10B890001206120F05D00D290ED1808D0006000F63
:10B8A0000AD10B480168012904D00A4901600168E6
:10B8B0000129FCD1C021416110BD0000DFFF07C09C
:10B8C00000050040006C0040C00F00F00006004082
:10B8D00000EC06407593000010B50249024808F0DC
:10B8E000EBF810BDA43F0020002000400FB41CB5B1
:10B8F0000246002007AC00290BD0491E019100929E
:10B90000064B6A462146069800F04CF8009A002142
:10B9100011701CBC08BC04B01847000019BE01001F
:10B920002021020C01D010211046020A01D010463D
:10B930000839020901D01046091F820801D01046BB
:10B94000891E420801D0881E7047081A704730B41B
:10B950007446641E2578641CAB4200D21D46635DAC
:10B960005B00E31830BC184702E008C8121F08C18A
:10B97000002AFAD170477047002001E001C1121F70
:10B98000002AFBD170470000202804DA0121814001
:10B990000348014201D00120704700207047000099
:10B9A000FC06FFBCFFB591B00F460546002606E039
:10B9B00025280AD0149A139990476D1C761C287874
:10B9C0000028F5D1304615B0F0BD002400940121C7
:10B9D000F34A029400E004436D1C2B780846203B98
:10B9E00098401042F7D128782A280ED002212878D2
:10B9F0000246303A092A15D8009A0A235A43303AA7
:10BA000080180C436D1C0090F1E701CF00900028D6
:10BA100005DA0120400304430098404200900220D0
:10BA200004436D1C28782E2815D10420044368781F
:10BA30006D1C2A280AD101CF6D1C02900BE00299DF
:10BA40000A225143303940186D1C02902878014673
:10BA500030390929F3D928786C2810D006DC4C2815
:10BA60001AD068280ED06A2817D104E0742813D0A1
:10BA70007A2812D110E00120400504430CE0012196
:10BA8000090501E0032109050C436978814203D1CE
:10BA90000120000524186D1C6D1C287803906E2869
:10BAA0001ED00CDC632831D004DC00288AD0582852
:10BAB00011D1B2E064287BD069280CD178E07328DA
:10BAC0002DD004DC6F2870D0702804D1A7E0752831
:10BAD0006CD078286BD0149A13999047761C62E04A
:10BAE0006002400F022807D003280AD004283868D3
:10BAF0000AD006603F1D56E03868F11706604160C5
:10BB0000F8E738680680F5E70670F3E738786946A5
:10BB100008740020487404A80390012003E03868EA
:10BB200003900020C0433F1D61070FD5002101E0B5
:10BB30000199491C029A0191914213DA8142F7DB83
:10BB4000019A0399895C0029F2D10BE0002101E000
:10BB50000199491C01918142FADB019A0399895CA0
:10BB60000029F5D101990098139A401A00902146B6
:10BB7000149B00F03BF901998019461807E00398DF
:10BB800003990078491C0391149A139990470198DE
:10BB9000401E0190401CF2D12146149B139A00983C
:10BBA00000F014F986196D1C09E741E033E034E038
:10BBB0000A200021049005916002410F022905D05E
:10BBC00001CFC2179446032905D007E0FF1DFF08E7
:10BBD000FF0003CF06E000B2C2179446042902D149
:10BBE00040B2C1178C4600226146944506DA0A46E7
:10BBF0000021404291418C462D2102E0210504D5CF
:10BC00002B216A461176012103E0E10701D02021B2
:10BC1000F7E7019154E00A200BE0102009E0102022
:10BC2000049000210420044308200591029003E0C1
:10BC300008200021059104906002410F022905D0DF
:10BC400001CF00229446032906D006E0FF1DFF081D
:10BC5000FF0003CF8C4603E080B2042900D1C0B2BC
:10BC60000021019121072BD50399702906D0049A50
:10BC70001021059B4A401A4305D00EE040216A4638
:10BC80001176012108E06146014306D030216A4661
:10BC900011760399517602210191049A0821059B9E
:10BCA0004A401A430CD16146014301D1610707D5CF
:10BCB00030216A461176012101910299491E0291B3
:10BCC0000399582904D037A103910FA90F910DE0D2
:10BCD00039A1F9E76146059B049AFFF76BFB039BCB
:10BCE0008C469B5C0F9A521E0F9213706146014363
:10BCF000F0D10F9807A9081A20300390600704D5E7
:10BD0000012000048443029801E00120029003997D
:10BD1000884201DD401A00E000204118029001989D
:10BD200009180098401A0090E00306D42146149B9D
:10BD3000139A009800F05AF886190020049008E041
:10BD400006A9085C149A139990470498401C761C25
:10BD5000049001998842F3DBE0030CD52146149B43
:10BD6000139A009800F042F8861904E0149A3020E3
:10BD700013999047761C0299481E02900029F5DC21
:10BD800008E00F980F990078491C0F91149A1399A5
:10BD90009047761C0399481E03900029F1DCFBE6CE
:10BDA0000928010030313233343536373839616291
:10BDB0006364656600000000303132333435363755
:10BDC000383941424344454600000000F8B5044676
:10BDD00000251E461746880404D405E03946202075
:10BDE000B0476D1C641EF9D52846F8BDFFB5044662
:10BDF000002581B01E46C80301D5302700E020276A
:10BE0000880404D505E038460399B0476D1C641ECC
:10BE1000F9D5284605B0F0BD4A68002A06D00A6860
:10BE2000531C0B6010704868401E4860704710B586
:10BE300000280CD000290AD002780B789A4206D14B
:10BE40000622401C491CFFF7B4F9002801D000204D
:10BE500010BD012010BDF7B584B006460025178837
:10BE6000158020300290407B1446002806D03A46C8
:10BE70002146059800F0D8FF050009D1B0780028C8
:10BE800023D0059886462088001DB84202D90C2090
:10BE900007B0F0BD684679DF0028F9D1218803207A
:10BEA0007246505420881921401C80B220801154C1
:10BEB00020887146401C80B2208041186846008866
:10BEC00007F08EFE218840182080F078002817D0D7
:10BED000218803230A46F356C91C0598B942D6D8CF
:10BEE0000221815421880122491C89B221804254B7
:10BEF0002188491C89B2218043542088401C20801D
:10BF00007068002817D021880023C3560A46C91C30
:10BF10000598B942BBD80221815421880A22491CC4
:10BF200089B2218042542188491C89B2218043541E
:10BF30002088401C2080308900280AD00094304698
:10BF40000197062202210830059B07F0A3FE050099
:10BF50009ED1308A00280AD00094304601970722EB
:10BF600003211030059B07F095FE050090D1308B22
:10BF700000280AD000943046019715221421183069
:10BF8000059B07F087FE050082D1306A002806D0A5
:10BF90003B462246059901F08DFD0500D8D1706A17
:10BFA000002806D03B462246059903F055FE0500C1
:10BFB000CED10298007B002807D03B46224630466F
:10BFC000059906F009FE0500C2D13078002807D097
:10BFD0003B4622463046059903F072FE0500B7D174
:10BFE000284655E7174A0021535C002B01D0012257
:10BFF00003E0491C0629F7D300221349012806D083
:10C0000002280BD0032810D0042818D112E0487859
:10C01000002803D0002A01D001207047887800282A
:10C0200003D0002A01D002207047C878002801D030
:10C03000032070470879002801D0042070470020B1
:10C0400070470000253400200039002010B501227F
:10C050000221002001F06EFA002801D0072812D139
:10C0600007220221012001F065FA002801D00728EB
:10C0700009D100210A22084601F05CFA002801D00B
:10C08000072800D1002010BD10B5032000F04AFCA5
:10C09000002801D000F09EF810BDF0B50F468DB01D
:10C0A000002116466D460F24621A825C6A54491CB0
:10C0B0001029F9D328460D211030FFF768F8002029
:10C0C000221A395C5219401C11740328F8D36846AF
:10C0D0004DDF0020211A4919203109783154401CC4
:10C0E0000328F7D30DB0F0BD10B5022001F0D8F849
:10C0F00010BD000070B50024064D06E06968E00040
:10C10000085C012103F02CFF641C28788442F5D3DD
:10C11000002070BD04350020F8B515460C460646D3
:10C12000052A01D20720F8BD03F0F2FF002803D151
:10C1300003F0C0FF0028F6D1104900204E600C70BB
:10C14000C8608D6008610E4D0DE0E00069688019DF
:10C15000009181786A46517000780A4A694603F076
:10C160004BFF0028DFD12046641EE4B20028ECD14A
:10C17000054A0021024800F039F8F8BD04350020D6
:10C180009841020021EA010051DC010009A10120CF
:10C1900004F064FC04F0AAFB04F0AEFB0028FBD121
:10C1A000BFF34F8F0A490948C860BFF34F8F00BFE4
:10C1B000FDE700004150505F4552524F523A455200
:10C1C000524F523A466174616C0D0A000400FA0540
:10C1D00000ED00E00EB50021029000916A46019149
:10C1E0000148FFF7D3FF0EBD01400000094B5B681B
:10C1F000002B07D0002A07D0002805D00068037C58
:10C20000002B03D00820704707207047417442611B
:10C210000020704728350020FFB50746900700250D
:10C2200081B01E461446002825D1002C23D006F0EC
:10C23000BBF93046114EF060304610300570457045
:10C240000299817044607560357001240C487570E6
:10C250002405046003211420FFF76AFA09480460EA
:10C26000094CA76003211120FFF762FA6068B060F3
:10C27000002005B0F0BD0720FBE7000018350020C6
:10C2800080E200E000E100E000150140FEB51F4B38
:10C290005B68002B30D000282ED0052901D2072062
:10C2A000FEBD4369002B27D0437C012B26D00027FD
:10C2B000029104460025694616460D70684600F056
:10C2C0003DF801A807F0D0FC002819D00121017029
:10C2D0000F49446049688160029907614661C16005
:10C2E00068460A49007948706846007800F044F8CA
:10C2F00007F0FCF82846FEBD0820FEBD0F46D7E734
:10C3000068460425007800F037F8F3E72835002068
:10C310000015014010B50849496800290AD00028D5
:10C3200008D04169002905D000210174022107F0DD
:10C3300005F910BD082010BD2835002030B5EFF3F9
:10C34000108172B6094A54680123002C04D003708E
:10C35000002900D162B630BD5360054B1D68054C05
:10C36000254015601C6000220270F1E73C3500207A
:10C3700080E100E0FC06FFBC08494A68002A0CD0B6
:10C3800000280AD1EFF3108072B60A68044B1A60D5
:10C3900000224A60002800D162B670473C35002078
:10C3A00000E100E010B5144C0121002209042068CE
:10C3B000FFF76CFF002801D0FFF70CFF01210022DE
:10C3C000C9036068FFF762FF002801D0FFF702FF92
:10C3D00000220A49A068FFF759FF002801D0FFF7A3
:10C3E000F9FE05210022C903E068FFF74FFF00288E
:10C3F00001D0FFF7EFFE10BDAC4002006626000042
:10C40000F8B5074608680C460526411C012536028A
:10C41000002906D02946814019488160206804F02F
:10C420009FF86068411C02D0002104F090F8396840
:10C43000A06989194862607D217D3A680843911995
:10C44000C866386806CC80194261C160207B083C10
:10C45000012814D1A068411C02D0002104F077F813
:10C46000E068411C05D0854005488560E06804F01F
:10C4700077F83A68E1689219A06891601061F8BD98
:10C4800000050050F0B504468BB0008800F068FC51
:10C490000590208802F010FE0646A0680090657A9C
:10C4A000684605741E4F20880022397800F0A8FCE9
:10C4B0000598002831D06079400710D50721304613
:10C4C00004F05EFF002813D0082269460A7422880F
:10C4D0004A828E82069004A801F0AAFC08E0208817
:10C4E000B97800F07BFC002802D0304602F0CEFD87
:10C4F0000321684601712188C18060794007C10F1E
:10C5000068460172A0794007C10F68464172017800
:10C510008172C57201A801F08BFC0BB0F0BD000068
:10C5200098340020F0B50546007D002493B00E46F7
:10C5300000280DD001200146684610310394017394
:10C54000717B4173817BF92001406846891C8173AE
:10C550001C2104A8FEF71BFE6946087C0221084343
:10C56000694608742A7DEF21002A02D01022104368
:10C5700000E008406A461074059407940894287DEA
:10C58000002800D003A8099001270A94104697714B
:10C59000304A82800094B27B0270F27B42708078D5
:10C5A000F9221040F722801C1040EF21084041087A
:10C5B000490068468170317B017214210BA8FEF797
:10C5C000E6FD01A80B9068460C908786C486078715
:10C5D00002A80F90A888AB1D0BAA04A9A2DF00280F
:10C5E00035D1B068002830D0684687711A498180FB
:10C5F0000094317C017000200146684641708078CB
:10C60000F9210840F721801C0840EF21084041082B
:10C6100049006846817011A8B16800F0A9FD06467E
:10C6200014210BA8FEF7B3FD01A80B9068460C90EF
:10C630008686C486068711A80F902A46E8880E329F
:10C640000BA9A3DF002802D100E0EC81002013B089
:10C65000F0BD0000192A00000829000010B50B49A0
:10C660000B4806F0F3F9C1B20848783800F0DEF95B
:10C67000002809D0082807D00649884204D0064976
:10C68000884201D0FFF7A6FD10BD000058380020F9
:10C69000CC3300200430000001340000F0B50C461B
:10C6A00093B01F216A461180072600279180002839
:10C6B00009D0C17849070DD502A9FFF7CCFB0028A6
:10C6C00009D102AD01E000251780002C0ED0E078E2
:10C6D000002802D0304613B0F0BD01AA0AA92046B6
:10C6E000FFF7B9FB0028F6D10AAA02E0684600224B
:10C6F000878068468088C3B268460088C1B22846F1
:10C7000072DFE8E7FFB581B01E460A9F13460400BA
:10C7100047D0002B45D0504D012028700020E870F4
:10C72000202219464D48FEF70BFD00206F61C043E3
:10C730002E612881284607211830FEF728FD47483A
:10C740003C212030FEF723FD444821782030017041
:10C75000A1788170E178C170617841703F4A656964
:10C7600023695563114613632031E368A268CB60E7
:10C770008A603A49E369A269CB638A63616A0029E6
:10C780001AD001463C310246483241628A60636AEF
:10C790001B880B80616A436A898899800021436AFB
:10C7A00007E00E2005B0F0BD656AAD686D5C5554BC
:10C7B000491C9D888D42F7D8A16A00291CD0274AC0
:10C7C000943211460C398A608162A36A9B888B80FF
:10C7D000A16A836A098819800021836A04E0A56A36
:10C7E000AD686D5C5554491C9D888D42F7D82C214D
:10C7F0000A5D1A4940310A73216A002909D0164995
:10C800000A310162226A52884A80216A026A0988D2
:10C8100011806168002900D04160104A0E49002053
:10C82000B3322031C3001B1A85009B180C68401CD2
:10C8300063510828F6DB094A0020EB32030185002A
:10C840009B188C68401C63510828F7DB0348029949
:10C850002030FFF723FFA5E70C340020003900202B
:10C8600010B50188134C102915D0112919D01B2996
:10C8700010D1007A00280DD1E0780521401CFEF788
:10C8800045FC084600F04EF8002803D061690029F5
:10C8900000D0884710BD817D0129FBD1808820818F
:10C8A00010BD00216171808821898842F8D1012062
:10C8B000E8E700000C34002010B5022801D003285E
:10C8C0000ED1084C607800280AD000206070E07813
:10C8D00000F028F8002803D06169002900D08847BB
:10C8E00010BD00000C34002010B574DF0B4C01208B
:10C8F00060710B490620C87000210948FFF7CEFE81
:10C90000002809D1E07800F00DF8002803D0616913
:10C91000002900D08847002010BD00000C34002002
:10C9200020390020F1B53F4C88B0207800280AD08B
:10C930000898E07006A801F079FD06980125002806
:10C9400004D065706AE0082009B0F0BD35480027C2
:10C9500007211830FEF71BFC334E7078002802D0F8
:10C96000E078012807D0B07800280CD0E0780128C2
:10C9700001D0022807D12169002903D025710820A0
:10C98000884700E027710898FFF72CFBE0702169C9
:10C99000002909D0032801D0042805D130780028C7
:10C9A00002D06079002811D0A77118216846FEF7DF
:10C9B000EEFB684607700772E1781A480B001830E2
:10C9C000FEF7C5FF052E080F191D2000A5710720D1
:10C9D0008847EAE7A570019068460570478207829C
:10C9E00013E00221A170019068460570B18941826F
:10C9F0003189018209E0684606F0AEF902E0684636
:10CA000006F0D6F9E078002803D0684673DF0028E6
:10CA10009AD12169002901D0A0788847002093E7A6
:10CA2000A770F6E70C3400200039002073B586B0FB
:10CA300004002FD06A46217C127F0020914227D02B
:10CA400000250126684600950680458007A80190CC
:10CA5000E188608A6A46A4DF002819D16846007F11
:10CA60002074608A0D49884216D0207D002813D09A
:10CA70000295039504950595E188684601818672C3
:10CA800041888181049001980590608A02A9A6DFFF
:10CA900008B070BD0E20FBE70820F9E7FFFF00009B
:10CAA00038B50D4604001AD0002D18D02868206033
:10CAB0000020C043608228792075FF202074012166
:10CAC0006846817007490180221D69460120A0DF68
:10CAD000002803D129462046FFF724FD38BD0E204B
:10CAE00038BD00000F18000038B5002824D00029F8
:10CAF00022D00A88102A1AD0112A1AD0502A1BD103
:10CB00000446007D002817D0C8886289891D90429C
:10CB100012D1488902280FD1206800280CD008467D
:10CB20000C3000F01EFB002807D0002006E08988AA
:10CB300001E00021C943418238BD012069460870E7
:10CB400022682046904738BD70B5054601461C2234
:10CB50000E48FEF7F5FA0E4C0026267029680029CB
:10CB600006D00822201DFEF7EBFA201D7ADF02E036
:10CB70000748001D7BDF002807D1401E60806670DB
:10CB8000044A00210448FFF731FB70BDCC3A002075
:10CB90003C340020ED3B020004410200F8B5214C7A
:10CBA0000146028800261E48E589102A13D01E4F30
:10CBB000112A1FD0122A2BD0502A1AD1881DC988B9
:10CBC000A94216D14189022913D10C3000F0C9FACB
:10CBD00000280CD112E08A880446428010480822BE
:10CBE0000C301831FEF7ACFA6670002D01D100F060
:10CBF000A9FFF8BD0021C943418046703868FFF79E
:10CC000089FB0028F5D0A1690029F2D08847F8BD3A
:10CC1000034808220C300831FEF792FAE7E70000DB
:10CC20003C340020CC3A00200441020010B50349F6
:10CC30000A7D091D05F08DFD10BD0000E83A0020B9
:10CC4000034B10B50246D97D181D05F06FFD10BDD0
:10CC5000E83A0020034B10B50246197E181D05F076
:10CC600065FD10BDE83A0020F0B5044602883A4858
:10CC70008DB0014615310191102A09D0112A50D0EA
:10CC80001A2A4AD1217A090901294ED901234DE0F6
:10CC9000027D417D05468A43011D07A805F059FD27
:10CCA000142207A902A8FEF74BFA00262A483746A5
:10CCB000143008900AE0710002A8081883881D2229
:10CCC0000097281D089905F0F1FC761C0298B042E7
:10CCD000F1D8287DA688C043C0B205F00BFD1F49DE
:10CCE000884217D040004019868001233246281D13
:10CCF000019905F051FD01233246281D089905F0E0
:10CD00004BFDA07D02280AD000231349A2881631CA
:10CD1000281D1DE00420FFF75DFA0DB0F0BD0123D2
:10CD2000F3E70023A288001D12E000230A4905460C
:10CD3000A2881731001D05F02FFD207A0009022876
:10CD400001D9012300E000230349A2881831281DDE
:10CD500005F022FDE1E70000E83A0020FFFF0000B7
:10CD600070B50B4E05460024317D2A46301D05F076
:10CD7000DDFC002809D0B17D2A46301D05F0D6FC27
:10CD8000002801D0022400E00124204670BD0000EC
:10CD9000E83A002010B50024204606F059FF00288C
:10CDA00005D0641CE4B2182CF6D3182010BD04483A
:10CDB00001220168A24011430160204610BD00001D
:10CDC000E83A002010B5044606F042FF002802D0E1
:10CDD00001480019407E10BDE83A002070B50546B4
:10CDE0000C46084606F034FF002806D003482A46C1
:10CDF0000119497E001D05F099FC70BDE83A00203C
:10CE000070B5064615460C46084606F021FF002878
:10CE100007D004482B4601193246001D193105F090
:10CE2000BBFC70BDE83A00207CB5054608880C467E
:10CE30000930904201D90C207CBD684671DF002882
:10CE4000FAD121880820685420881B21401C80B218
:10CE500020802954208800A9401C80B220804019DD
:10CE600006220131FEF76CF920886946801D80B2E8
:10CE700020800978002900D0012129542088401CF5
:10CE8000208000207CBD00007FB50446012168465B
:10CE900081714A4981804A4A01A90120A0DF002806
:10CEA0007ED1228825463C35002A09D044482B46AD
:10CEB000801C00904348616800F00EFD00287BD183
:10CEC0002289002A0AD03E482B460A3000903D486D
:10CED000E168401F00F000FD00286DD1228A002A81
:10CEE0000AD037482B461230009036486169001F3F
:10CEF00000F0F2FC00285FD1228B002A0AD03048D3
:10CF00002B461A3000902F48E169801E00F0E4FCA7
:10CF1000002851D1228C002A0AD029482B462230E1
:10CF200000902848616AC01E00F0D6FC002843D15A
:10CF3000228D002A0AD022482B462A300090214810
:10CF4000E16A401E00F0C8FC002835D1216B0029A1
:10CF50000ED002A806F060FA19482B463230009035
:10CF60001848082202A9801F00F0B6FC002823D12F
:10CF7000606B00280BD012492B463A3100910279A0
:10CF800001681048401C00F0A7FC002814D1A16BD8
:10CF9000002910D002A805F0A5F80948423000E0A9
:10CFA0000AE0009007482B46072202A9273000F02C
:10CFB00093FC002800D1002004B070BD0A180000C6
:10CFC000B2340020292A000010B50446FFF74CFEB9
:10CFD000204604F0E3FE21460C4800F06DF80B48B3
:10CFE00021461838FFF780FD2046FFF7D7FD204681
:10CFF00000F0E2F9204603F011FE2046FFF730FC76
:10D0000002482146503002F0FDFE10BDF8370020E6
:10D0100010B50446008C0F4AACB0904217D005AA58
:10D02000204601F0ADFE6946088200200090019084
:10D030000290039022890A8001228A70888004A8C5
:10D04000029005A80390208CA6DF2CB010BD08200C
:10D05000FBE70000FFFF000038B5044608682060C9
:10D06000087960710020C0430D46208400212220F1
:10D070000155204640308181142181730121684689
:10D0800081700C490180A21D69460120A0DF0028A3
:10D090000FD12946204601F01BFE002809D1A868BF
:10D0A000002805D02946204600F0A0F8002800D12D
:10D0B000002038BD0D18000038B502460888102839
:10D0C00016D0112816D0502817D1881DC9889389E9
:10D0D000994212D14189144602290ED121680029B2
:10D0E0000BD00C3000F03DF8002807D0002006E0FF
:10D0F000888801E00020C043108438BD01206946C3
:10D10000087022682046904738BD028C0B889A42EE
:10D1100003D189784030C91E8173704770B50546C8
:10D1200004464035A8890E46142807D12622A118A6
:10D13000881EFEF705F8A889401EA88180B241002C
:10D140000919401CA8818E8470BD20308170704701
:10D1500070B504460D460846FEF724F82080656049
:10D1600070BD4178027808021043C007C00F7047B5
:10D170000A780270497841700220704700B517485C
:10D1800087B0006905900023D022154905A806F054
:10D19000FFF8002801D0FFF71DF86A4601210020A2
:10D1A00006F0DEF8002801D0FFF714F8684606F014
:10D1B00085F8002801D0FFF70DF80A4806F074F84A
:10D1C000002801D0FFF706F8074806F013F90028F9
:10D1D00001D0FEF7FFFF07B000BD0000AC40020029
:10D1E00010370020C9CF010009340200F0B58FB01C
:10D1F0000D4606461C216846FDF7C9FF68460178C2
:10D2000002200143684601700024019403940494B1
:10D210000594012708A8069487701549684601847B
:10D220000794E97B0177297C4177807FF9210840C9
:10D23000F721801C0840EF2108404108490068465A
:10D240008177142109A8FDF7A2FF08A8099007A873
:10D250000A9068468785C4850786A8680D9033467E
:10D26000F088103309AA6946A2DF0FB0F0BD0000B4
:10D27000382A00000149085C70470000D4400200D1
:10D280000549095C05480069C840C007C00F00D0C7
:10D290000120012148407047D440020000050050A1
:10D2A00005490B5C05494A680120984003469343B1
:10D2B0008B601040C8607047D040020000050050ED
:10D2C00010B50349085C012103F07EF910BD000090
:10D2D000D040020010B50349085C002103F074F946
:10D2E00010BD0000D04002000549095C05484068B7
:10D2F000C840C007C00F00D001200121484070473E
:10D30000D0400200000500507CB50024074E2546A1
:10D31000305D0122009500231146019503F0D2F8FB
:10D32000641C042CF4D300F003F87CBDD040020050
:10D3300010B500242046FFF7C3FF641C042CF9D36A
:10D3400010BD10B500242046FFF7C4FF641C042C58
:10D35000F9D310BD0246002010B5C043054B002193
:10D360005C5C944201D1084610BD491C0429F7D3E6
:10D3700010BD0000D440020070B50E4E00250C46D2
:10D38000306000290DD0012000F0AEF8002801D057
:10D39000022005E0002000F0A7F8002800D00B20B4
:10D3A00020707068002802D1FEF750FE054628461E
:10D3B00070BD00000434002010B51C4C018860686A
:10D3C00010290DD011290AD1401E606007D1FEF747
:10D3D0003DFE002803D02168002900D0884710BDF9
:10D3E00000281ED100210122084600F0A3F80028E1
:10D3F00001D0072811D107220221012000F09AF85C
:10D40000002801D0072808D104220221002000F0C2
:10D4100091F8002805D0072803D02168002900D002
:10D4200088476068401C606010BD00000434002024
:10D4300010B5002000F0BCF9002801D0062807D163
:10D44000012000F0B5F9002801D0062800D1002005
:10D4500010BD0000F3B581B00D460198FFF77AFFCB
:10D460000446042813D21D481D4F1E4E002D27D000
:10D47000012D0DD0022D0AD160002018C019457869
:10D48000002D04D0F168002901D028468847FEBD50
:10D49000610061187D5CCF19797800290BD0716823
:10D4A0000A2251430F4A8068921CFEF7EFFE0028C3
:10D4B00001D10198B0700B48B97810300155DFE701
:10D4C0008068FEF727FF0748610061181030C9190E
:10D4D000005D8D78A842D3D0FEBD0000D840020088
:10D4E000D4380020F033002010B5FFF7C9FE10BD7E
:10D4F000014610B50D480429808806D007290CD0B4
:10D500000A2901D105F07EFC10BD132176DF09E068
:10D510000028F9D0FEF75EFE10BD05498842FBD118
:10D52000FFF7E2F90828F3D110BD0000B033002066
:10D53000FFFF000070B50023042811D24400041935
:10D540000D4D012A02D101290DD00022460080197B
:10D55000094E801900290CD0012906D0022906D0D5
:10D560000723184670BD0E30C2B22A55F9E7427043
:10D57000F7E78270F5E70000D438002010B5054ABF
:10D580000146127A0020D20702D0084600F050F877
:10D5900010BD0000F0330020F8B506461F480024F7
:10D5A0008660C26041600F46B00720D50025012289
:10D5B00011462846FFF7BEFF6D1C0446042D02D21B
:10D5C000002CF4D013E0002C11D17A080421144867
:10D5D000FEF7A2FD04000AD1FEF78CFD040006D17F
:10D5E0000F48104A0021001FFEF700FE0446F00716
:10D5F00001D0FFF789FE002C0ED109480A4A00210C
:10D600000C38FEF7F3FD040006D10548074A012156
:10D610000838FEF7EBFD04462046F8BDF033002045
:10D62000E440020059D8010091F30100E9C0010073
:10D63000F8B55D4C054660780026002803D0002030
:10D640006070FFF775FE0120584F2B00FEF77FF941
:10D6500018970D0D2E3D4A5F64686F686FA9777744
:10D66000777777979A9DA0A9A9950020FFF73CFEB0
:10D6700000280AD00020FFF723FE022D02D1E1206E
:10D68000C0000BE07D20400108E00020FFF722FEF3
:10D69000022D01D1C82001E0FF20913025706421C6
:10D6A000FDF734FD6168414300222BE00020FFF7C5
:10D6B0001BFE002805D00020FFF702FE19204001C4
:10D6C000ECE70020FFF706FEE4E70020FFF70CFE82
:10D6D000002803D00020FFF7F3FDD3E70020FFF779
:10D6E000F9FDD9E70020FFF7FFFD002803D0002057
:10D6F000FFF7E6FD02E00020FFF7ECFD2570606813
:10D70000410000223868FEF7C1FD064635E00020E2
:10D71000FFF7C6FD257007E000203FE025702CE0F4
:10D7200060700120FFF7BCFD00226168EAE76070CD
:10D730000120FFF7B5FD606881004118E1E77868D6
:10D74000FEF7E8FD06461120401B01D0002E03D055
:10D750000220FFF7B5FD10E001280BD9C82148438E
:10D760006421FDF7D3FC6168002241437868FEF72D
:10D770008DFD06460220FFF7ADFD3046F8BDFFF7F0
:10D78000D7FDCBE7FFF7D4FDC6E7FFF7D1FD04E0F7
:10D79000FFF7CEFD0020FFF79DFD0120FFF79AFD6A
:10D7A000BCE7FFF7CEFDB9E7F0330020D840020018
:10D7B00010B5FFF75FFD032102F0DCFE002010BD75
:10D7C000002901DA00207047026851180160012029
:10D7D00070470000F8B50D46461C002069460870E9
:10D7E00001246846FEF7AAFD134A106828601168F4
:10D7F00050689368081A1D1A701C6D1CA84212D933
:10D80000002D0ED00D480E4C00882468800519406C
:10D81000800DA402890020438918C8601068401C4C
:10D820001060002401E08819106068460078FEF757
:10D83000A3FD2046F8BD00008C420020D441020028
:10D840006C350020034803C8814201D10120704794
:10D85000002070478C42002010B500780221FFF7AD
:10D86000F9FD10BD0022D243830004490428CA50A8
:10D8700002D3081820300277704700005C3F002078
:10D88000F0B50025ED43002A02D00023042601E074
:10D89000042308260B4C04E09F00E7597F1C04D0AA
:10D8A0005B1CB342F8D32846F0BD26185DB2203683
:10D8B00035709E00A151002AF5D1E118203108777A
:10D8C000F1E700005C3F00200249091820200856BB
:10D8D000704700005C3F0020FFB58FB01E46154624
:10D8E0000F0002D10020FEF775FC002D02D10020B0
:10D8F000FEF770FC1C216846FDF749FC684601787C
:10D9000002200143684601700024019403940494AA
:10D910000594012108A80694817068460F99018436
:10D9200007943178017771784177807FF921084039
:10D93000F721801C0840EF21084041084900684653
:10D940008177142109A8FDF722FC08A8099007A8EF
:10D950000A9068468585C485058604480D9709AAFE
:10D9600069460088189BA2DF13B0F0BDB2340020D6
:10D97000002807D00449814204D80449814201D9D2
:10D98000012070470020704788350020983500201E
:10D99000044A0168914201D0083101E00149383957
:10D9A00001607047E440002070B50D4D04460A4602
:10D9B0002846AC4208D1FF2401342146104604F029
:10D9C000ABF9A0420AD070BDFF2CFCD8214610460E
:10D9D00004F094F9002801D0204670BD284670BD9F
:10D9E000FFFF000070B5084C050009D01034216815
:10D9F000002907D008682060496828468847F6E76C
:10DA00000834F4E770BD0000483F0020F8B5234813
:10DA1000416800293ED00E6821494C6887688078AB
:10DA2000E11B0D022D0AED1C002814D101201D4A16
:10DA3000000450601B4A403A50601B494000086097
:10DA40001A4908601A49012008602F2002F0FCF9E9
:10DA5000124901208870B54200D23546E81900020B
:10DA60000F4B000A403318600D4A5168001B091B18
:10DA70000902090A0002000AC91C814209D950683A
:10DA800018602F2002F0E0F9012007494004803996
:10DA90000860F8BD04F088FDF8BD000018350020CE
:10DAA000001501404013014080E200E000E100E089
:10DAB00000100140F8B50646108814468446801DC3
:10DAC0000D46984201D90C20F8BD32880720062A5D
:10DAD000FAD31927FF01184BBA4201D99A42F3D160
:10DAE00071880629F0D3B94201D99942ECD19A4202
:10DAF00003D0994201D08A42E6D8052160462954D4
:10DB000020881221401C80B2208029542088401C8B
:10DB100080B220804119308806F062F821884018D0
:10DB200080B220804119708806F05AF82188401888
:10DB300020800020F8BD0000FFFF000010B5FEF7B8
:10DB400049FB10BDF8B5164801F0DEFB144D002668
:10DB50000C3D144C002807D0616900291CD001201D
:10DB60006A461070684616E02878002805D061697A
:10DB7000002911D0684606700DE0687800280DD0A5
:10DB8000A168094800220068FEF780FB002803D046
:10DB9000A169002900D088472E70F8BD6168F0E7C0
:10DBA00048340020CC3A002004410200F0B585B092
:10DBB0000C46002802D0012005B0F0BD20790027D6
:10DBC0000126002806D01F4D012820D002282CD085
:10DBD0000F20F1E702970397E0680190694601A8DA
:10DBE00004F0C6FB00280ED002988188E1800088EE
:10DBF0002081029804F036FC694609880A0112491E
:10DC000051188E7300E00A2002212171D4E70F4BD6
:10DC10006A460021A01D04F069FB002807D00B49CB
:10DC200008398F60CF600A28C6D12846C4E701981A
:10DC300004F018FC054989880A01034951188E73BC
:10DC4000F1E700001D1D0000F44000204C350020CD
:10DC5000F8B500260124154D23E06968F000471847
:10DC6000387821462A698140114218D08A432A61B6
:10DC700002F016FA3A782146EB68914019400346C3
:10DC8000934099420BD17978012901D0012100E01C
:10DC900000217B684140002B01D010469847761C3C
:10DCA000F6B228788642D8D3F8BD000004350020AB
:10DCB00010B50E4900230A784C78A24212D0521CAB
:10DCC000D2B20A70022A00D10B700A78074B920078
:10DCD00018339A580260886810180002000A886099
:10DCE000012010BD0360002010BD00001835002089
:10DCF0003EB5094D38CD0093029501946B4658808E
:10DD000099809A71054900220978FFF779F86846E9
:10DD100000F08EF83EBD00007841020098340020EB
:10DD200010B5047800222300FDF711FE0706050751
:10DD30000D1D262C06000A7010BD01220A700289F2
:10DD40008A81828814E002220A7002898A8182888C
:10DD5000CA81C2688A60007C062802D0002008744C
:10DD600010BD0120FBE703220A70C2888A81028964
:10DD7000CA81C068886010BD04230B70C088888188
:10DD8000CA8110BD0520087010BD000070B5064D99
:10DD900006460024A0002958002901D030468847B3
:10DDA000641C082CF6D370BD144000200EB5002969
:10DDB00010D011290ED00022009202926A465080A3
:10DDC00001910D2907D0862907D00920107010462F
:10DDD00000F03CF80EBD0B20F8E70A20F6E7000043
:10DDE00001490968084700005834002070B5054D06
:10DDF00006460024A000295830468847641C022C9F
:10DE0000F8D370BD20410200F8B507460024064E45
:10DE1000064D04E0A000315838468847641CE87875
:10DE20008442F7DBF8BD0000FC3E0020883400206F
:10DE300070B5054D06460024A00029583046884795
:10DE4000641C022CF8D370BD4041020001490968EE
:10DE50000847000084410200704700007FB5044677
:10DE6000406800280BD00020039020780026414D08
:10DE70000300FDF76CFD066D0606304E7B6D01203C
:10DE8000F2E7A08900F0DCF9002804D1E08904F071
:10DE900001FB00285CD0A08900F0CCF9014668465F
:10DEA0004180E08904F0F0FA01466846017120786B
:10DEB0000128606807D0002809D00420694608704E
:10DEC0006068039020E00028F8D00320F6E70120E6
:10DED000F4E708463AE0A08900F0B2F9002804D13E
:10DEE000E08904F0D7FA002832D0A08900F0A2F926
:10DEF00069464880E08904F0C7FA6946087160689D
:10DF0000002804D005200870A0680290E1E70220F4
:10DF1000F9E7A08900F094F9002819D0E0890028D9
:10DF200016D1A08900F086F969464880E08904F09E
:10DF3000ABFAFF2069460871606800280FD00720FF
:10DF400008706E70AE7003F0F5FB684603F0B0FA2F
:10DF50006878002802D06E7003F0ECFB7FBD0621CC
:10DF600068460170408803F073FCEAE708206946C0
:10DF70000870AEE77434002000B5104987B0097806
:10DF8000890702D4022007B000BD0D49884201D1A3
:10DF90000420F8E7052269460A7001220A71C88048
:10DFA00000221146684602F0E9FE002803D004F082
:10DFB00079F90020E7E70820E5E700004435002074
:10DFC000FFFF000000B50F4887B00078800702D43B
:10DFD000022007B000BD06206946087000221146E5
:10DFE000684602F0CBFE002809D0074801780029D6
:10DFF00001D00121017304F055F90020E9E7082060
:10E00000E7E70000443500201441002000B58DB042
:10E0100014216846FDF7BBF81E480078810703D538
:10E020006846FFF7B3FE32E0C00730D1012000F0B0
:10E030002DF900F0A5F902F033FF00280ED00628D4
:10E040000FD001216A4611750300FDF780FC0C1901
:10E050001119111918191819131613190B200DB0CD
:10E0600000BD022000F012F9012000F0F5F8D7E71A
:10E07000002000E00320107602E00220FBE711768A
:10E080000022114605A802F079FE04F00BF90020E9
:10E09000E5E700004435002038B5040014D0694697
:10E0A00004F066F9002813D0684600880101094889
:10E0B00009188889002809D0A27A002A06D0401EB3
:10E0C00088810020A07238BD052038BD062038BDEB
:10E0D0000A2038BDF44000201FB501A9684604F0AD
:10E0E00005F904B010BD07B513460A46694600207D
:10E0F00004F0FCF80EBD07B513460A460021684639
:10E1000004F0F4F80EBD002805D0002903D0006803
:10E1100008600020704705207047000038B50D46A4
:10E12000040017D0002D15D0694604F021F900280D
:10E1300012D0684600886168020108481218908968
:10E14000401C9081296060680C3068600120A072DA
:10E15000002038BD052038BD0A2038BDF44000201D
:10E1600010B5002804D00323002205F06DFE10BD79
:10E17000052010BD10B50223002205F065FE10BD7C
:10E1800010B5002A03D0022305F05EFE10BD052065
:10E1900010BD000010B5064A5178082906D08B0042
:10E1A000044C491CE0505170002010BD0C2010BDE3
:10E1B000443500201440002038B504460A480D4676
:10E1C0000078800701D4022038BD002C0AD06946AF
:10E1D000284605F045FF0028F6D1694609882180C8
:10E1E000658038BD052038BD4435002010B5044693
:10E1F0000E480078800701D4022010BD002C10D0FA
:10E20000218802290FD80A4A0801801842896088AB
:10E21000121A032A07D405F019FF0020208060801D
:10E2200010BD052010BD042010BD000044350020A5
:10E23000F440002003218903401A80B27047000097
:10E2400003218903401A0349884201D801207047FD
:10E2500000207047FE3F000002490A7882430A709E
:10E26000704700004435002010B504460078182897
:10E2700002D1FEF78FFD207010BD10B50446007866
:10E28000182802D1FEF786FD207010BD02490A78D9
:10E2900002430A70704700004435002070B50646FE
:10E2A00000200546862906D0112902D0002903D076
:10E2B00070BD012500E001200E4C002A02460FD05F
:10E2C00061793046FEF79CFD2A4621793046FEF7FB
:10E2D00097FD002261783046FEF792FD002204E0AF
:10E2E00061783046FEF78CFD2A4621783046FEF7ED
:10E2F00087FD70BD9C340020F8B506461C481F46BB
:10E30000007815460C46C0070AD03046FFF730FBB0
:10E31000002807D0002C07D0A00507D00620F8BDA4
:10E320000120F8BD0220F8BD0320F8BD3068A042EE
:10E3300004D8A80271680019884201D90520F8BDE7
:10E34000002D10D0684603F0FFFE00280DD0009885
:10E350000221C0C00170A101090C8180058103F078
:10E36000AFFF0020F8BD0420F8BD0720F8BD000075
:10E370005C35002010B5084603F002FF10BD000018
:10E38000F0B52648264C001B03092648194640696B
:10E39000421C03D10120000740698002224A127802
:10E3A0009646D2070CD00020F0BD1D4C15012C194B
:10E3B0002568002D03D06468002C00D0491E521C33
:10E3C0009A42F2D3002420E0E2B2002594462A4685
:10E3D0000FE0134E1701BE193768002F02D077687F
:10E3E000002F05D1767BAE4202D93546D6B2B4466F
:10E3F000521C9A42EDD362461501094AAA18506090
:10E40000157BAD02401B641C10608C42DCD30648B7
:10E410007146012211430170C5E7000098350020C4
:10E4200088350020001000105C350020002804D042
:10E430000349496E016000207047032070470000C7
:10E4400024410020F8B507461E481E4600781546B0
:10E450000C46C0070ED03846FFF78AFA00280BD0CA
:10E46000002D0BD0002C09D028462043800707D070
:10E470000620F8BD0120F8BD0220F8BD0320F8BD3C
:10E480003868A04204D8B10078680919884201D2DE
:10E490000520F8BD002E11D0684603F055FE002877
:10E4A0000ED0009806990760416001210172C56095
:10E4B0000461868203F004FF0020F8BD0420F8BD4B
:10E4C0000720F8BD5C35002070B5174B0446186E68
:10E4D000182148431549C0180A78950715D5022C0C
:10E4E00002D0032C1CD102E002F01EFC18E04A7896
:10E4F000521CD2B24A70032A12D900224A70082153
:10E5000004F01CFA03F00AFE0AE0500708D5FB20CD
:10E5100002400A70586E002802D0022002430A709E
:10E5200003F08AFE70BD0000244100205C3500200D
:10E530000EB51120694608720A2211A102A87CDFDB
:10E54000002801D0FDF746FE104878DF002801D0F2
:10E55000FDF740FE0020FF22009041326946019005
:10E560000A804122D2004A808880FF209130C880F2
:10E5700068467ADF002801D0FDF72CFE0EBD0000B2
:10E580004E6F726469635F48524D000041030000A2
:10E5900010B50248FEF7B9FD10BD0000F8370020A5
:10E5A00010B50449044801F02BFC002801D0FDF708
:10E5B00011FE10BD91E501004838002070B500281B
:10E5C00001D0012070BD164C0025207B002801D011
:10E5D000257301E000F09CF820780300FDF7B7F9FF
:10E5E000081E05080B0E1E111A1E00F01BF870BD48
:10E5F00000F07EF870BD00F061F870BD00F038F8F2
:10E6000070BD60880649000120394018406802F05A
:10E6100027FC70BD656002F031FC70BD0F2070BD3D
:10E620001441002070B5104900208A1C0D46034695
:10E63000203D0C18A67A002E08D0A372040164199C
:10E64000A689002E02D1A47B012C08D0401C80B2E8
:10E650000228EED30B704B8004484B6070BD1080D5
:10E6600000F046F870BD0000144100201D1D0000A0
:10E6700010B50F4C608801012046203808188189A8
:10E6800000290BD0052020700A48022181800168F2
:10E69000002301220848FFF72FFE10BD4168002328
:10E6A00001220548FFF728FE0421217010BD00005B
:10E6B00014410020543500208835002038B50A491F
:10E6C00008480B68898842688900591853880324D0
:10E6D00004700020DB1C00909BB20448FFF7B2FEE0
:10E6E00038BD00001441002054350020883500203A
:10E6F00010B506494888091D03F08AFE002802D09B
:10E70000FFF7DCFF10BDFFF7B3FF10BD1441002081
:10E71000F0B51D481D4907780246012502268C8860
:10E72000203A3B00FDF713F9080517171A212C2C86
:10E7300016170189491C01810021418001730B01D9
:10E74000D35C002B08D000234418491C89B2A37263
:10E750000229F4D30570F0BD0123F5E74268528821
:10E76000D21CA2188A800670F0BD45880B682D0166
:10E77000AA1855680D60536014818E80062100E050
:10E7800007210170F0BD0000144100205435002025
:10E79000F0B504460088384D8DB050281DD0522861
:10E7A00002D0542826D103E0A08801F037F821E0F8
:10E7B000062069460870A08800F07EFC6946488003
:10E7C000A2888A8000F054F9A0880022E978FEF738
:10E7D00017FB6846FFF704FB0CE0207B012809D1FA
:10E7E000A07A012806D120892449884202D1A08834
:10E7F00001F050F8A878FEF7E5FA002819D008A82B
:10E80000FEF714FA142208A903A8FCF799FC0024C7
:10E8100003AE0BE060008719B888A978FEF7DEFA2E
:10E82000002802D0B88800F0F9FF641C0398A042C9
:10E83000F0D86878FEF7C6FA002819D008A8FEF7C5
:10E84000F5F9142208A903A8FCF77AFC002403AE0A
:10E850000BE060008719B8886978FEF7BFFA0028D6
:10E8600002D0B88801F016F8641C0398A042F0D8D2
:10E8700004F018F90DB0F0BD50340020022900005A
:10E880003EB504464088694648802078002814D068
:10E8900001281DD002280FD1207900280CD06088D3
:10E8A00000F03EFB0E49884206D00E490122C9788D
:10E8B000FEF7A6FA04F0F6F83EBD00200870084600
:10E8C000FFF78EFA608800F02BFB00F0A7FF3EBD3B
:10E8D000012168460170A1888180FFF781FA3EBD61
:10E8E000FFFF00005034002010B5044600780128D6
:10E8F0000DD1608800F092FF608800F07DF900285B
:10E9000005D0034960880122C978FEF779FA10BD65
:10E910005034002010B5104C00202070FEF73AFA59
:10E920006070FEF737FAA070FEF734FAE070FEF779
:10E9300031FA2071617818290BD0A178182908D0F4
:10E94000E178182905D0182803D001202070002074
:10E9500010BD032010BD000050340020F0B585B07C
:10E9600000F09EF86846FEF761F900246D460C4FF2
:10E970000EE060004619B08800F09EFBB84205D159
:10E980000849B0880122C978FEF73AFA641CA4B29B
:10E990000098A042EDD804F085F805B0F0BD000065
:10E9A000FFFF00005034002010B50178072902D184
:10E9B000408800F06FFF10BD10B504460A4841784A
:10E9C0002046FEF70BFA00280CD0084800210C2244
:10E9D0004A4312185288A24201D1C8B210BD491C44
:10E9E0000829F4D3FF2010BD683400201C3B002010
:10E9F00070B5094D094E00240C2060434019408831
:10EA00007178FEF7EBF9002804D0641C082CF3D3CE
:10EA1000FF2070BDE0B270BD1C3B002068340020B8
:10EA2000F8B50746104E0125BD403068FDF772FC71
:10EA300000280DD10D4C2069284207D1384601F03D
:10EA40002FFB0028E06804D0284303E0A84320619E
:10EA5000F8BDA843E0602069002228432061A16836
:10EA60003068FDF713FCF8BD984102000435002022
:10EA70001CB5054A9168D26801920091002269464E
:10EA800002F0DEFB1CBD00000C4102000348002127
:10EA9000C943818001210170002070475C3400204F
:10EAA00010B5044802F000FB0349888004F026F802
:10EAB00010BD0000FFFF00005C340020F1B582B003
:10EAC000029800F0F9FA002416490325012726468A
:10EAD000884209D06A46082102F088FB002803D149
:10EAE000019886880568841D2B4632462146029887
:10EAF000A9DF042804D0082804D00B2807D002E09E
:10EB0000112000E00020002F00D10B20FEBD0027C7
:10EB1000A80701D50125E7E73443F6D000242646AF
:10EB20000325E1E7FFFF0000F1B582B0029800F095
:10EB3000C3FA07461B48874201D11B48FEBD012589
:10EB40002A466D1C0026ADB26B460821384602F0FD
:10EB50007DFB040002D0072C21D021E00199032382
:10EB60000B600A1D891D0298AADF040004D00C2C3A
:10EB700008D0052C08D008E00821384602F000FC37
:10EB800004460DE0012600E000240821384602F08A
:10EB9000E1FB002800D00324002ED1D100E00C249A
:10EBA0002046FEBDFFFF0000023000001FB50446F6
:10EBB0000078012813D12079012810D1608802AA99
:10EBC000012102F013FB002809D1022168460170DF
:10EBD000618841800121017105490968884704481D
:10EBE000044908388088884201D003F087FF1FBDA0
:10EBF00064340020FFFF00001CB500F05DFA6A4697
:10EC0000012102F0F3FA002801D000201CBD019878
:10EC100000781CBDF8B5074E074C084D0746324634
:10EC200061883846A7DFA84203D16088401C608015
:10EC3000F5E7F8BDFFFF00005C3400200330000062
:10EC40008188054A914204D00088002801D0012023
:10EC50007047002070470000FFFF000070B51748A4
:10EC60001749047843784A680120C0040546954353
:10EC70008D601040C86020021843124C410AA06801
:10EC8000401CA0600D489038FEF7C2F9002809D05A
:10EC9000082807D00C49884204D00C49884201D08A
:10ECA000FDF798FA0321A068FCF730FA002901D09B
:10ECB000012000E00020207070BD00008838002096
:10ECC00000050050B0330020043000000134000083
:10ECD000F0B5002406460D46601C0107B7B0090FC9
:10ECE00008A810310C940174297B4174817CF927A8
:10ECF0003940891C81741C2105A8FCF748FA684634
:10ED0000017D10200143684601750CA806940A9005
:10ED10000894099401220B9408A882761749684642
:10ED200001870D94697B08A80175A97B4175817DD8
:10ED3000F7203940891C0140EF200140114308A809
:10ED4000817514216846FCF722FA0EA800900DA8E0
:10ED500001900FAA0021304600F012F801466846E3
:10ED600001819B21448181810FA804903346F08862
:10ED700008336A4605A9A2DF37B0F0BD372A000084
:10ED8000F7B542790025002A00D004252222135C21
:10ED90000222002B00D01543CBB2FF2907D9012254
:10EDA0001543029A090A53709170032602E00299F2
:10EDB00002264B7004464034A189002901D010215D
:10EDC0000D43002717E0A27BB11C8A4209D2A1891A
:10EDD000C91B4A007900091824302431FCF7B0F926
:10EDE0000CE0029B7A0012189B19928C1A70120A7E
:10EDF0005A70CEB27F1CA189B942E4DCA089C01B45
:10EE0000A081029805703046FEBD3EB504460078EC
:10EE10000D46022815D10322611C6846FCF790F9C3
:10EE20000322211D02A8FCF78BF901AA02A928469A
:10EE3000FDF733F9032201A96846FCF7BAF9002867
:10EE400001D000203EBD01203EBD000010B50C46A3
:10EE5000FFF7B2FDFF280AD00C21484305490722DD
:10EE600041182046091DFCF76BF9002010BD052054
:10EE700010BD00001C3B002070B5018890B0102927
:10EE800049D1011D2C2202A8FCF75AF96846234EED
:10EE9000007B344602AD03282AD002F079FB684695
:10EEA000007B00280ED001280CD0022820D118E0C9
:10EEB0000E99281D1131FCF7BAFF002802D06846D0
:10EEC000048815E00DAA6946072002F037FB0028E8
:10EED000EED10DE00E99281D491CFFF796FF002882
:10EEE000EDD10DAA6946072002F028FB0028F1D1D8
:10EEF00068460089291D00F033FFB4420BD06846F4
:10EF00000089214600F086F8684601894180012188
:10EF10000170FEF76BFF10B070BD0000FFFF000036
:10EF2000084A00210C234B43D35A834204D10C20BE
:10EF30004143881840887047491C0829F2D3024889
:10EF4000704700001C3B0020FFFF000010B50E4C76
:10EF5000182060700D4A0E4900200C2343435B18B3
:10EF6000401C5A800828F8D3FDF714FF6070182859
:10EF700004D00548C01C71DF002801D0032010BD5B
:10EF800001202070002010BD68340020FFFF000029
:10EF90001C3B002070B504460D46401C00F0E6F90D
:10EFA000002810D01022691C601CFCF702F9002810
:10EFB0000AD000262946204611311130FCF737FFD0
:10EFC00001463046084370BD0126F3E70188002959
:10EFD00003D142189278002A01D001207047491CC1
:10EFE0000829F6D30020704710B50C460346FFF7FA
:10EFF000EDFF00280BD018882188884206D108220E
:10F00000A11C981CFCF7D5F8002801D0002010BDE9
:10F01000012010BD10B502F077FC10BD10B50446FC
:10F02000007888B0002826D12079072823D160886D
:10F0300001AA072102F0DAF800281CD102F0A8FA90
:10F040001BE0694660880988884216D004990298B6
:10F05000FFF7A0FF002810D06088FFF761FF01468E
:10F060006846C1820021017561880183018841835E
:10F0700005A8FEF7BBFE08B010BD03AA694607202D
:10F0800002F05CFA0028DCD1F5E7000070B5044618
:10F09000FFF746FF0546204602F0ADF80549044655
:10F0A0008D4204D0002C02D1284602F02DFC2046CF
:10F0B00070BD0000FFFF000010B5FFF77DFCFF28CA
:10F0C00004D00C2148430249085A10BD014810BD24
:10F0D0001C3B0020FFFF00003EB5044602F058FA3A
:10F0E00010E0019920464631FFF77EFF002806D147
:10F0F000019920462A31FFF777FF002802D06846A1
:10F1000000893EBD6A4602A9072002F017FA0028CE
:10F11000E7D101483EBD0000FFFF0000F8B50F46F3
:10F12000002804D00120FFF797F80120F8BD3979B5
:10F1300000290AD00026254D01290BD0244C022994
:10F1400020681FD003293BD125E001F097FE012163
:10F15000397133E000200101695C02290BD0401CA9
:10F1600080B20228F7D30220FFF790F80120FFF7C2
:10F1700073F81848F8BD04016019406801F070FE8A
:10F180002E551BE00146002301221348FFF7B4F877
:10F190000221A18011E001F063FE0C4923682031B7
:10F1A00049880A01094951184D6825604B60A388B8
:10F1B0000B810221A18005498E543E710028D9D0CF
:10F1C0000120FFF749F80E20F8BD0000F4400020B0
:10F1D000543500201D1D000088350020F8B51E4C58
:10F1E0002078002836D0E068002600280CD00025C2
:10F1F000607800282ED1684652DF052806D0002806
:10F2000006D0FCF7E7FF0BE00125F1E7012607E058
:10F21000009800F06FFE2169002901D0009888470E
:10F22000002D13D16078002814D1608869460880C9
:10F23000A06861DF052804D0002804D0FCF7CAFFCD
:10F2400004E0012502E0E168A0688847002ECFD0E5
:10F25000002DE5D0F8BD0000703500207FB50C46CC
:10F260000D4620350646697828780191009022469F
:10F270002632D11E3046E36904F0E1FA002819D1A4
:10F28000E87800281DD1207B022801D0032818D15E
:10F290002269E169914214D16269E261E37B2B70DA
:10F2A000217E8906C90F6970032804D031462046A3
:10F2B00004F05EFA7FBD00913146204604F044FB25
:10F2C0007FBD20460C3007C801AB07C3E87800219A
:10F2D00000280ED00920C0013218506C50648207FB
:10F2E00001D5012002E0400705D502206A461070D2
:10F2F00001E0684601702971207E4007E0D4226851
:10F300006846616890477FBD418805480288914200
:10F3100004D34088814201D8012070470020704703
:10F32000403400201048018CC9B2012917D1818CCA
:10F33000090714D1018D09060A0F03D1828D120627
:10F34000120F0ED0090F012903D1828D1206120F60
:10F3500007D0032903D1808D0006000F01D00020C3
:10F360007047012070470000C00F00F00021425C90
:10F37000002A01D001207047491C1029F7D3002032
:10F380007047800701D000207047012070470000BF
:10F3900010B50448017AC90702D00078FEF748F991
:10F3A00010BD0000F0330020FFB5244D81B0287A55
:10F3B0001F460E46084304D0039A002E04D00021B5
:10F3C00004E0052005B0F0BD1C491031019803F0A0
:10F3D0006DFE0446014600220198FEF75FFF002FF4
:10F3E00003D021460198FEF7E1FC112C0FD006DC7A
:10F3F000002C0AD0082C08D00D2C05D105E0862C55
:10F4000011D00F48C44200D003242046DAE7324628
:10F41000E9780198FDF7F4FCA978039A0198FDF7C3
:10F42000EFFC0024F1E73246E9780198FDF7E8FCAB
:10F43000A978039A0198FDF7E3FCE6E79C340020E5
:10F44000FECFFFFFFEB517460C00064604D020781D
:10F45000C00704D0012003E000217EDFFEBD0220B2
:10F46000694608713046FFF727FE1749054688426E
:10F4700008D001A800902B463A462146304600F0BD
:10F4800025F806E020782146C007304603D000F07A
:10F4900081F804460BE07EDF044600200090002C3B
:10F4A00008D0002201232946304603F013FA002C2D
:10F4B00002D006E00122F5E768460179304603F004
:10F4C0002FFA2046FEBD0000FFFF0000FFB585B00B
:10F4D00000252E4601AA07210E9F089801F086FEFE
:10F4E000040008D1029D4420405D1835C607F60F80
:10F4F00001D0029D34350798204312D1002D10D041
:10F50000002E05D128461230FFF760FD002808D0F4
:10F5100029462A461231059885DF044600203870B6
:10F5200023E0002C01D0052C1FD106980078C007DD
:10F530000DD003AB01220721089801F087FE0400DB
:10F540000AD10721089801F07FFF040004D1069931
:10F5500005987EDF040008D00721089801F0FAFE24
:10F56000002802D0052800D003240020009038781D
:10F57000002801D0012300E00023002C07D0002246
:10F580000899059803F0A6F9204609B0F0BD0122BC
:10F59000F6E70000FEB50F46064601F023FE0546DD
:10F5A0001848854220D001AB01220721284601F0EE
:10F5B0004DFE04000AD10721284601F045FF040052
:10F5C00004D1394630467EDF040008D007212846A2
:10F5D00001F0C0FE002802D0052800D0032401203D
:10F5E0000090002C0BD002E00324002000900022A9
:10F5F00001232946304603F06DF92046FEBD012265
:10F60000F6E70000FFFF0000F7B5114D0F46164664
:10F6100029780098FDF7E2FB002812D00098FFF748
:10F620004BFD04460B4884420BD069780098FDF7E7
:10F63000D5FB002806D033463A462146009801F013
:10F64000A7FCFEBD324639460098FEF751FBFEBDD1
:10F6500098340020FFFF0000F1B586B00698FDF752
:10F66000B1FB002821D06846FDF7E0FA00246E4681
:10F6700018E060008519A8880699FDF7AFFB0028FF
:10F680000FD00B4FA888B978FDF7A8FB0590A88884
:10F69000F978FDF7A3FB0146A8880123059AFFF737
:10F6A00083FE641C0098A042E3D807B0F0BD0000C0
:10F6B0009C340020F0B5284C2146103948688B68EE
:10F6C000227886469C46CF78667836E018235343E6
:10F6D0006168521CC918A378D2B2934200D10022AB
:10F6E0000B78022B02D0032B27D123E003464D6871
:10F6F000194603E0A94204D00B46C96900291CD071
:10F70000F8E7002919D08B4208D1C069002805D13B
:10F71000124F0125BD600025AC4601270D68C9695F
:10F72000D961002909D00B685B190B6005E00174F1
:10F73000C06900E000210028F9D19642C6D10649EF
:10F74000624610398A604860CF70704501D0012050
:10F75000F0BD0020F0BD0000283500200010014061
:10F76000F8B52C4E044670680025009041E0002C4E
:10F7700002D02046E46920E02648182310300178A2
:10F7800042684B43491CC9B2D21801708378994230
:10F7900000D105701178506801292CD1017C002915
:10F7A00029D191684160D16881601169C160516956
:10F7B0008161F178002900D045604368B268164F36
:10F7C000991A0902090AB94202D28268891806E028
:10F7D000D11A09028268090A8A4202D9511A0160C3
:10F7E00000E005604560012185600174C56103F09A
:10F7F00085FE002CBBD1074810300178407881424B
:10F80000BAD171680098814201D00120F8BD002072
:10F81000F8BD000018350020FFFF7F00FEB504464C
:10F820001948002684422DD02046FFF747F90500ED
:10F8300012D00B2D14D0112D10D01448C5421BD05E
:10F840000921684601702046FFF736FC01466846EC
:10F850004180848002950DE0022102E001260BE048
:10F860000321684601702046FFF726FC01466846E2
:10F8700041808480FEF7B4FA0548324681782046FC
:10F88000FDF7BEFAFEBD0000FFFF0000FECFFFFF48
:10F8900050340020FEB504460026FFF745F9054622
:10F8A000112818D004DC002D13D00C2D05D114E044
:10F8B000862D25D01348C5421BD00921684601700A
:10F8C0002046FFF7F9FB0146684641808480029597
:10F8D0000DE0012102E001260BE0072168460170DE
:10F8E00084802046FFF7E8FB014668464180FEF72A
:10F8F00077FA0548324641782046FDF781FAFEBD89
:10F900000821EBE7FECFFFFF50340020F8B5054695
:10F9100000780C46002620420FD10020694608706E
:10F920006846FCF70BFD2878204202D1204328705E
:10F93000012668460078FCF71FFD3046F8BD000040
:10F9400092A09EB00068189091A00068199091A0B4
:10F9500000681A90052118A8017316210174172157
:10F960000175002001F014F9002801D0FCF732FCE9
:10F9700003F048FE884A89490320FDF70DFE002860
:10F9800001D0FCF727FC01A90020FDF7F5FC0028B9
:10F9900001D0FCF71FFC6846007902287ED00021C8
:10F9A00068460170FDF7EAFB6846007801F0C0FF89
:10F9B00068460078002803D079A1032001F04EF8B2
:10F9C000FEF7B6FD3C2101A8FBF7E1FB02216846EA
:10F9D0000171012484710621C17103258582774854
:10F9E0000690202110A8FBF7D2FB10A8C470FF20BE
:10F9F0002D301490B42000241590714B10AA21468C
:10FA0000009401A8FCF77EFE002801D0FCF7E2FB81
:10FA1000FEF7C6FD03F028F902F0C2FF1C2168467C
:10FA2000FBF7B5FB0520C00301900F2000040290F6
:10FA3000009468460573634881896846C1810474EF
:10FA400061480590614806906846FDF77DF80028FA
:10FA500001D0FCF7BFFB5E4B0FCB03936B4607C394
:10FA6000564800231A466946283800F0B7FB00289C
:10FA700001D0FCF7AFFB5148283800F09FFB4F48FE
:10FA8000022318AA57212838009400F0FDFB4B48A8
:10FA90000223572119AA2838009400E073E000F0EF
:10FAA000F3FB464802231AAA57212838009400F095
:10FAB000EBFB48A1032000F0D1FFFCF773FCFCF73F
:10FAC000E3FA3E48002501231BAA57212838009558
:10FAD00000F0DAFB3B4A394804239032572128389A
:10FAE00000F0C0FB354801231CAA57212838009597
:10FAF00000F0CAFB334C314890340123221D5721BA
:10FB0000283800F0AFFB2D4801231DAA57212838C3
:10FB1000009500F0B9FB29480123621D57212838C0
:10FB200000F0A0FB208840BA470A608840BA400A2B
:10FB300000906079FBF712FC2A1FFBF7F9FB0546E2
:10FB40000E462079FBF70AFC33462A46FBF73EFBBC
:10FB5000FBF712FC84B23A4627A1032000F0A4FF71
:10FB60002DA10320009A00F09FFF224632A103201E
:10FB700000F09AFF39461348FDF74AFA00F0BCFE40
:10FB80000028FBD19DE701210AE70000060B0000D9
:10FB900007030000098F0000F1D40100CD0C000024
:10FBA0004150503A494E464F3A426F6E6473206559
:10FBB0007261736564210D0A00000000E4330020C7
:10FBC000D90B0200F8370020090D02003DDB0100CF
:10FBD000C04002004150503A494E464F3A48656194
:10FBE000727420526174652053656E736F72205376
:10FBF00074617274210D0A004150503A494E464FCB
:10FC00003A48454152545F52415445203A202564B8
:10FC10002E253032640900004150503A494E464F7B
:10FC20003A53504F325F52415445203A2025642EBA
:10FC300025303264090000004150503A494E464F89
:10FC40003A54454D505F52415445203A2025642E88
:10FC5000253032640A00000070B5144682880E46D2
:10FC600005462088111D4118921C994201D8FE2A90
:10FC700001D90C2070BD521C32542088FF21401C39
:10FC800080B2208031542088401C80B220808119AD
:10FC9000288803F0A5FF2188401880B22080AA8818
:10FCA000002A09D0A968002908D08019FBF748FA72
:10FCB0002088A98840182080002070BD072070BDD2
:10FCC000F8B50F46017814460546012902D1687837
:10FCD000002806D02088821C9A422DD8012902D003
:10FCE00006E00720F8BD69784118891C994223D89D
:10FCF000181A801E86B2684606802188B81C08182B
:10FD000069467DDF0028EDD12878022805D16946B3
:10FD10000988B14201D809210AE00821012805D14A
:10FD20006878B04202D86A46108001E068460680D2
:10FD300068460088FE2801D90C20F8BD2288401CA6
:10FD4000B8542088401C80B22080395420886946ED
:10FD5000401C20800988401820800020F8BD000049
:10FD6000F8B5FF240F46054600291FD0104EB542B6
:10FD70001CD01048012241782846FDF741F828465A
:10FD8000FEF71AFE0446FF2804D1FEF731FE0446B2
:10FD9000FF280BD00C2148430749024640184580F4
:10FDA0008E5207223946001DFBF7CAF92046F8BDDE
:10FDB000FFFF0000683400201C3B002070B50B4D95
:10FDC0000E46A84201D1002000E0401C84B209E0A8
:10FDD0002146304601F0BAFF002801D0204670BD10
:10FDE000641CA4B2FF2CF3D9284670BDFFFF0000AD
:10FDF000C20843075B0F0120895C984008407047A8
:10FE000000207047704701218907401800680028CA
:10FE100000D001207047000000280FD00849094A8F
:10FE2000096800BF00BF00BF00BF00BF00BF00BF28
:10FE300000BF914200D000BF401EF2D170470000C9
:10FE4000843500200024F40000280FD00849094A16
:10FE5000096800BF00BF00BF00BF00BF00BF00BFF8
:10FE600000BF914200D000BF401EF2D17047000099
:10FE7000843500200024F40070B50E4C0025207855
:10FE8000002801D0852513E00021A1606160216177
:10FE9000E160094800680126304002D1032100F0EA
:10FEA0002FF803F0A1FA002801D1044886612670DA
:10FEB000284670BD483F002000E100E000050040FA
:10FEC00038B50020694608706846FCF737FA084CD8
:10FED0002078002801D1FFF7CFFFE068401CE060E8
:10FEE0000120A07068460078FCF746FA38BD000093
:10FEF000483F002010B5002801D1FDF773FD10BD6B
:10FF00008207D30EFF229A408907090E10B5994047
:10FF100000280BDA03071B0F083B9C080C4BA400BE
:10FF2000E318DC6994430C43DC6107E08408094B67
:10FF3000A400E418236893430B432360C106C90E51
:10FF400001208840044908600449086010BD000091
:10FF500000ED00E000E400E080E200E000E100E00D
:10FF6000F3B581B0054601F027FD1F4F0028284654
:10FF700017D0FDF7A9FCC0192030007F80090328A5
:10FF800002D001280BD005E018480069E840C007FE
:10FF9000C00F04D00321284600F0FDFAFEBD022167
:10FFA000F9E701F015FD0028F8D02846FDF78CFC94
:10FFB00004468000C11D0E4AF9318018026989B2D9
:10FFC000012632430261084600F01EFB0298002819
:10FFD000E4D02846FDF778FC800038580028DDD0B2
:10FFE0000448A6404660FEBD5C3F0020000500506E
:10FFF0000065004000630040FEB5044625480E46FB
:020000040002F8
:100000000019202141560027C8171346401C01D073
:1000100008273CE0F27819462046FDF731FC0546FA
:10002000401C33D0B07800280BD005200007A10079
:100030000918072000020918086802229043086086
:1000400007E000217378204600910A46019100F0F4
:100050004DFAF078002810D00F48AA001018317817
:1000600002690E4B1A400261E206D20C8907890B25
:100070000A4301690A43026109E0064832784019DF
:100080002030017F92011143017700E004273846B8
:10009000FEBD00005C3F002000650040FFE0FCFF6B
:1000A00003490969C140C807C00F00D0012070474B
:1000B0000005005070B5144D2879002801D00820A3
:1000C00070BD114900204039421E0B182033401CDE
:1000D000C0B21A702028F8D300242046FDF7C2FBD6
:1000E000641CE4B2082CF8D303210620FFF708FFB4
:1000F000FF207D3000F088FA01200449C0074860E5
:1001000001202871002070BD9C3F0020006300404A
:1001100002480079002800D0012070479C3F002051
:10012000F7B5044682B0FF2041300090012503203E
:1001300089002D04002700022618019116E070683E
:1001400028420DD000982058002809D0B564B56029
:10015000009800212150184A0199F8B25158884757
:1001600000986D00001D80B27F1C009004988742AB
:10017000E5D3FF2071680130C907C90F09D02158A4
:10018000002906D0002121500B490198095804206C
:100190008847FF200530726802210A4209D02158A1
:1001A000002906D000212150034901980958052053
:1001B000884705B0F0BD00000035002001792822F5
:1001C0005143054A0068891805221302C0180260CD
:1001D0000220203188707047C03F0020F8B50746E4
:1001E0000C460079282148431B4945182E462036E5
:1001F000B078002801D00820F8BD0CC50020286088
:1002000070713071A07BF071607B083D002802D0D6
:10021000204603F051FA216810488A00104952180C
:1002200010606268920051180860052338681B024C
:1002300006CCC0188160C260216841622868083C11
:10024000002805D03868217B000B40B2FFF758FE2C
:100250000120B0700020F8BDC03F00200C06000057
:10026000000700503EB5074D2C68AD68009402951C
:100270006C466170A37001920022694600F016F886
:100280003EBD00008C4102003EB50025069C009555
:1002900002956D466970AB700192002C01D020224E
:1002A00000E00022294600F001F83EBD70B50D4681
:1002B000017928235943064BCC18910701D0062019
:1002C00070BD134601682A46204603F08BFB70BDC3
:1002D000C03F0020F8B506460F4600791C21484370
:1002E0001A4915464418E07E002801D00820F8BDC0
:1002F00039463046FCF784F8656038692060284646
:100300000025002813D0FF223068397F1D32855028
:10031000FF22306845328550032330681B020C4AA7
:10032000C01842603068000B40B2FFF7E9FD0522BB
:1003300030680421120280180160E5752576A575E4
:100340000121E1762846A576F8BD0000A43F0020F3
:100350008000020070B505460C4600791C21484318
:1003600008494318284600F055F8002801D011200C
:1003700070BD9A7500209C609882284600F004F8B1
:1003800070BD0000A43F0020F8B5044600791C2190
:1003900048431F4900264518FF2720681D37C651CE
:1003A0002068012181602946206803F061FB6968AB
:1003B000002913D027E0FF270137FF211D312068D6
:1003C00000F0FDFB002802D1A88AB842F5D1A88A26
:1003D000B84203D02946206803F04AFBA88AA97DC9
:1003E0008842E8D3A98AC81FF9380ED0FF271D37E5
:1003F0003946206800F0E3FB0028F9D0206801218D
:10040000C1600020A8753046F8BD0F26F9E700004E
:10041000A43F002000791C21484303494018807DF7
:10042000002800D001207047A43F0020F8B50179D2
:100430001C225143204A00238D1805220168120214
:1004400089180B60696800290CD003240168240214
:100450001A4B09198B600168C903CB0E0121994021
:10046000174B19600522016812028A18D368566971
:10047000976814690021C9435161D1600068052261
:100480001202801881600161581C02D0184600F0E9
:1004900055F8701C02D0304600F050F8601C02D0B5
:1004A000204600F04BF8781C02D0384600F046F8A1
:1004B0000020E8766860F8BDA43F002084020200B6
:1004C00080E100E070B552000A439900049D0A43A0
:1004D0002902059E0A43310405240A4324078000AB
:1004E0000721001909024018026070BD70B5520062
:1004F0000A439900049D0A432902059E0A433104D8
:1005000005240A4324078000072100190902401826
:10051000026070BD70B552000A439900049D0A4301
:100520002902059E0A43310405240A43240780005A
:100530000721001909024018026070BD1CB5002196
:1005400000910B4601220191FFF7E4FF1CBD1CB591
:1005500000220B46009211460192FFF7DBFF1CBD03
:100560001CB5002100910B46012201911146FFF7B5
:10057000D1FF1CBD0522120780008218072000024F
:100580001018026803231B049A43026002680904DE
:100590000A43026070470522120780008218072074
:1005A00000021018026803231B049A4302600268C9
:1005B00009040A43026070470121814001488160BB
:1005C00070470000000500500122824003480029C6
:1005D00001D082607047C260704700000005005083
:1005E00038B5084B05241B68009324026B4641185C
:1005F00005E085005D592D192D69401C20C28142FE
:10060000F7D838BD88410200024940180021016036
:10061000704700000060004003494018006801284E
:1006200000D0002070470000006000400048704784
:10063000AD06020030B5194C0546207889B0002877
:1006400005D06078854202D1002009B030BD20225B
:1006500013496846FAF774FD0020694608750920B9
:1006600000900B200190082003900A2002900D4872
:1006700006900A48001DFFF7D9FE002D01D0002288
:1006800000E0094A05486946001DFFF723FE0028DF
:10069000DBD1012020706570D6E7000060350020B6
:1006A000B441020000E0D701A93A0200F0B5C5B09C
:1006B0000C46002100914D984B991E46081817468C
:1006C0000390002C01D00A2000E00020019002F0ED
:1006D000CBF900287ED104AD002E17D100986A46D0
:1006E0002918204602F0CEFF002875D03846FAF7C8
:1006F00059FDC22800D9C220044600982246281875
:100700003946FAF71DFD00980019009000990198EC
:100710000A1804A8441831328518002003E020216B
:100720002170401C641C01998842F8D3002703986B
:10073000864207D3202020706070A0702870E41CCF
:100740006D1C2CE04B98864202D24A98805D02E0F4
:10075000311A4C98405C22468446012102908B005D
:100760006046D8400007000F092801D9373000E063
:10077000303001235B1AD054491EF0D220209070F3
:10078000D41CFAF7D9FC01680298085C8006C00EF8
:1007900001D0029800E02E2028706D1C761C7F1C72
:1007A000102FC4D30D2028700A20687020202070DC
:1007B000009901980918433104A8009102F05CF9EE
:1007C000002809D002F050F9002805D100900398C4
:1007D000864200E000E099D3304645B0F0BDFFB559
:1007E000C7B00025509F1C46059502F03DF9002832
:1007F00075D1059806AE311805AA489802F042FF57
:10080000002836D03846FF2701370300FBF79FF852
:100810000705131B333F4B5725004998FAF7C2FCD5
:10082000059905464018FF2817D870182A46499997
:10083000FAF786FC11E005982368391A3018499AAE
:10084000FBF754F808E06068009005982368391AAF
:100850003018499AFBF74AF80546294605A8FCF7DF
:10086000AFFF059900283AD0B94238D806A802F05F
:1008700003F94BB0F0BDA168606800900191059844
:100880002368391A3018499AFBF730F8E4E7201D3D
:1008900007C86B4607C305982368391A3018499A68
:1008A000FBF724F8D8E7201D0FC86D460FC5059843
:1008B0002368391A3018499AFBF718F8CCE7204614
:1008C00008300FC801AD0FC5606800900598236817
:1008D000391A3018499AFBF709F8BDE7FFE70020FD
:1008E000C7E7000000487047DF07020010B501208D
:1008F000FFF7A0FE10BD0000F0B595B0FCF7A2FF19
:10090000002802D0002015B0F0BD4B48446886682E
:1009100021463140890009180C94CD680BE0290468
:10092000A80D890D40180419204630408100424826
:100930000C940818C568641CA807F0D00020089023
:10094000A807800F3D4B022807D0AA0AA805000F70
:1009500084460EA99646002059E02046304081008A
:100960003548641C0818C068049486462804800D25
:1009700084463440301B8000AF0D001D874222D9D1
:100980002D490C31002807D02B4AA400A218144688
:100990000C34C2B2381A03E00C460021FAB2084601
:1009A000C0B20390019202910094A8065C69400FC6
:1009B000634672460899A047B84213D1FF1C0498B9
:1009C000B9080C1830E01C48A200101800210C30A7
:1009D0000090029101970391A8065C69400F63465D
:1009E0007246E8E7164980050D40000C05430C9857
:1009F0003040810010480818C56017E0274637408E
:100A0000BA000D4F401CD719FF68641C80C16746AF
:100A10006045F3D3A80600971D69400F0EAB7246E0
:100A20000899A847002801D003484460FCF70AFF52
:100A30000121484067E700008C4200208C460020DE
:100A40003F00FFFF00B5044AFF23936000231360BB
:100A5000536000F097F800BD8C420020F8B5104DAF
:100A60000E46074600206946AC68FCF7B3FE002836
:100A700015D00C483C21808888437907890E0843AB
:100A80000F21890188438105890DB0020143009837
:100A90000246224092005219401CD1600090F8BDDD
:100AA0008C420020D4410200F7B5154C82B00E46AE
:100AB000074601206946A568FCF78CFE00281CD07B
:100AC00010483C21008988437907890E08430F218B
