:020000040000FA
:10000000A00F0020D5000000EF000000F10000006C
:1000100000000000000000000000000000000000E0
:10002000000000000000000000000000F3000000DD
:100030000000000000000000F5000000F7000000D4
:1000400039070000F90000007D080000C10700002A
:10005000F9000000000000007D050000F90000002C
:10006000F9000000F9000000F90000008D07000011
:10007000F9000000F9000000F9000000F90000009C
:10008000F9000000A1070000F9000000F9000000DD
:10009000D5070000F9000000F9000000F900000099
:1000A000F9000000F900000000000000000000005E
:1000B0000000000000000000000000000000000040
:1000C0000348854600F026FA00480047FD1A000064
:1000D000A00F00200321094802680A430260084873
:1000E00002680A4302600748804707480047FEE766
:1000F000FEE7FEE7FEE7FEE7FEE70000240500401E
:1001000054050040DD070000C100000030B50B467B
:10011000014600202022012409E00D46D5409D42E1
:1001200005D31D469540491B254695404019154667
:10013000521E002DF1DC30BD00487047903A00009F
:1001400003460B439B0703D009E008C9121F08C0F0
:10015000042AFAD203E00B780370401C491C521E9B
:10016000F9D27047421C0178401C0029FBD1801A4B
:100170007047F8B502464A40D40F42004B0052087F
:100180005B089A4202D20246084611464A0023D032
:10019000C30D4A00DDB2120EAD1A202D35DA490228
:1001A0000126490AF6058A19002C00D05242202166
:1001B0004F1B1146B9402A411018C20D9A4221D056
:1001C000002C17D0012D08DCDA05801AD20F801917
:1001D000D207DBB200F005F9F8BDDA05801A012379
:1001E00040001B06C01880185A428018CA0F1043DE
:1001F000490007E04908C2071143DA05801A80194F
:100200004008801800F0E5F8F8BD61000122511A9D
:10021000001BF7E70122D2075140AAE70122D207CB
:100220005040A6E7024670B54A40D30FDB074000B6
:100230002DD04A002AD0010E140E00021202091914
:10024000400A520A8418E50104465443000A120A7F
:100250002E045043A4194219200CC543AA18120CAD
:100260000125AD03521C521912047F39240400D019
:10027000521C104301D44000491EC2B20C06C009F2
:100280002018401C4008802A02D003E0002070BDE6
:1002900040084000002900DA0020184370BD70B506
:1002A0004B005B0803430BD04B005C0D002633462C
:1002B0006542B341D417AD1AA34102DB00200146C9
:1002C00070BD12053018514170BDC217C10F5040AA
:1002D00010B54018CA079623002100F082F810BD1F
:1002E0000EB5C217C10F5040CA0740180021054B78
:1002F0000293019200910A460B4600F0B8F803B051
:1003000000BD000033040000C20F41004002012381
:10031000400ADB05D207090EC0187F2901DA002048
:100320007047962903DC9623591AC84001E0963994
:100330008840002AF4D040427047CB0FDB074900C9
:1003400010B5490802460A4307D00A0D07240903DD
:10035000E401090B121B002A01DC002010BDC900BA
:10036000440F0C43C100E018D205801800F031F8AA
:1003700010BDF0B51FB40646002082B005464024EB
:10038000019100901BE0019922460F46304600F093
:10039000E3F8049A059B801A994110D31046194638
:1003A000224600F0C9F8361A8F41019722460120F3
:1003B0000021009F00F0C0F838184D410090204601
:1003C000641E0028DFDC019B00982946324607B0F6
:1003D000F0BD002904DA401C490001D1400840006A
:1003E000704770B40024050C05D11024000402D11C
:1003F000002921D01124050E01D100020834050F77
:1004000001D10001241D850F01D18000A41C00280A
:1004100001DB4000641C002908D020252E1B0D465E
:10042000F540A14000D001212943084301061B1BD0
:10043000000ADB1D02D5002070BC7047DB051818D0
:1004400080180029F8DA401C4900F5D170BC40083A
:100450004000704710B5002B08DA0024401C6141B1
:1004600092185B411A4301D14008400010BDF0B51D
:100470001FB482B005460C0003D0084600F022FAF3
:1004800002E000F01FFA2030024600902146284684
:1004900000F052F8049B059A04460F461843114396
:1004A000084314D0184610431BD0009840210A1A64
:1004B0001846059900F050F805460E46009A059931
:1004C000049800F039F8084305D0012004E02046E4
:1004D000394607B0F0BD0020C11705430E432C4339
:1004E000374300990E986305401A7905E40A002203
:1004F0000C43FD0A0A3002D500200146E9E7010558
:10050000101969410C9C0D9D00196941FFF7A2FF6C
:10051000DFE70000064C0125064E05E0E36807CC46
:100520002B430C3C98471034B442F7D3FFF7CCFD73
:10053000A03A0000C03A000010B5202A04DB0146B2
:10054000203A9140002010BD914020239C1A034680
:10055000E3401943904010BD10B5202A04DB084643
:10056000203AD040002110BD0B46D340D04020247B
:10057000A21A91400843194610BD0000F0B50024AE
:10058000FF268BB00136012527460694304601F040
:1005900087FF002807D054484068284203D03046DF
:1005A00001F076FF2C43361D6D007F1CB6B2042F80
:1005B000ECD3FF257D35284601F072FF002809D0D5
:1005C000284601F065FF6807044306AA01210020C0
:1005D00001F04AFF454D200714D00127002627428D
:1005E0000CD04348B200111808690969C004C00E54
:1005F0008903AA58890F002A00D090477F00761CF3
:10060000042EECD3002C6DDA00200890401E63E02D
:10061000281940300778B906890E0091002141560B
:10062000491C49D009A9009801F0FCFA002843D0E0
:10063000B8090190009801F02FF880002F58019818
:10064000002F02D0032802D00DE0032834D10098F7
:1006500008ABC20841079446985C490F01228A40C2
:1006600010436246985400980521090780004018FD
:10067000072109024018006806A98003800F029034
:10068000009801F0CFFA0028029802D0022802D088
:1006900012E0032810D10198032808D102980228FB
:1006A0001ED00221009801F0B9FE761CF6B2002F90
:1006B00002D001990098B847641C042CA8D3002EDE
:1006C00010D06A460121002001F0CEFE0699009864
:1006D000884207D00690089800263446099097E78C
:1006E0000321DFE70BB0F0BD00630040D80100201C
:1006F000006500408307FF22DB0E9A408907090E40
:10070000994000280BDA0007000F083883080848D2
:100710009B001818C36993430B43C3617047830858
:1007200004489B001B1818689043084318607047E2
:1007300000ED00E000E400E0F8B5FF20013001F03A
:1007400079FA002401250E4E0E4F002807D00E48DE
:1007500004600120B0607D70002000F0A5FFFF2044
:10076000053001F067FA002808D00748001D046032
:100770000220B060BD70012000F096FFF8BD0000BF
:1007800000030040C40100200001004010B5032216
:100790000021024801F02AFC10BD000000B000401A
:1007A00010B506490020086048608860C8600349A9
:1007B00040390860486002F04FFD10BD4011014013
:1007C00010B50249024801F053F810BD2002002084
:1007D0000030004010B502F0B5FC10BD10B501F0BE
:1007E0009DF8002805D01F491D484860C8131E49C0
:1007F00088611E48018CC9B201290BD1828C120775
:1008000008D1028D1206120F042A03D1828D12061E
:10081000120F0AD0012921D1818C09071ED1018D27
:100820000906090F0A2904D007E0114A0121916045
:10083000F5E7828D1206120F05D00D290ED1808D9D
:100840000006000F0AD10B480168012904D00A49AB
:10085000016001680129FCD1C021416110BD000087
:10086000DFFF07C000050040006C0040C00F00F033
:100870000006004000EC06407593000010B50249E8
:10088000024802F061FF10BD480200200020004035
:100890000FB41CB50246002007AC00290BD0491E3E
:1008A00001910092064B6A462146069800F03EF8F8
:1008B000009A002111701CBC08BC04B0184700004D
:1008C000A10D00002021020C01D010211046020AC7
:1008D00001D010460839020901D01046091F8208CC
:1008E00001D01046891E420801D0881E7047081AA0
:1008F000704730B47446641E2578641CAB4200D245
:100900001D46635D5B00E31830BC184702E008C871
:10091000121F08C1002AFAD170477047002001E079
:1009200001C1121F002AFBD170470000FFB591B032
:100930000F460546002606E025280AD0149A13998A
:1009400090476D1C761C28780028F5D1304615B0EC
:10095000F0BD002400940121F34A029400E0044316
:100960006D1C2B780846203B98401042F7D1287820
:100970002A280ED0022128780246303A092A15D8B2
:10098000009A0A235A43303A80180C436D1C009099
:10099000F1E701CF0090002805DA0120400304436D
:1009A000009840420090022004436D1C28782E28B5
:1009B00015D10420044368786D1C2A280AD101CF80
:1009C0006D1C02900BE002990A2251433039401805
:1009D0006D1C02902878014630390929F3D928780E
:1009E0006C2810D006DC4C281AD068280ED06A2853
:1009F00017D104E0742813D07A2812D110E0012016
:100A0000400504430CE00121090501E0032109052B
:100A10000C436978814203D10120000524186D1C24
:100A20006D1C287803906E281ED00CDC632831D012
:100A300004DC00288AD0582811D1B2E064287BD089
:100A400069280CD178E073282DD004DC6F2870D091
:100A5000702804D1A7E075286CD078286BD0149A40
:100A600013999047761C62E06002400F022807D07D
:100A700003280AD0042838680AD006603F1D56E0D3
:100A80003868F11706604160F8E738680680F5E7D6
:100A90000670F3E73878694608740020487404A8A3
:100AA0000390012003E0386803900020C0433F1DFD
:100AB00061070FD5002101E00199491C029A0191BB
:100AC000914213DA8142F7DB019A0399895C00298C
:100AD000F2D10BE0002101E00199491C0191814212
:100AE000FADB019A0399895C0029F5D101990098F4
:100AF000139A401A00902146149B00F03BF901998B
:100B00008019461807E0039803990078491C03915F
:100B1000149A139990470198401E0190401CF2D1FD
:100B20002146149B139A009800F014F986196D1C45
:100B300009E741E033E034E00A2000210490059108
:100B40006002410F022905D001CFC2179446032944
:100B500005D007E0FF1DFF08FF0003CF06E000B24D
:100B6000C2179446042902D140B2C1178C46002214
:100B70006146944506DA0A460021404291418C467E
:100B80002D2102E0210504D52B216A461176012191
:100B900003E0E10701D02021F7E7019154E00A20AA
:100BA0000BE0102009E010200490002104200443F1
:100BB00008200591029003E008200021059104908F
:100BC0006002410F022905D001CF0022944603297B
:100BD00006D006E0FF1DFF08FF0003CF8C4603E0B0
:100BE00080B2042900D1C0B20021019121072BD588
:100BF0000399702906D0049A1021059B4A401A4394
:100C000005D00EE040216A461176012108E06146D8
:100C1000014306D030216A461176039951760221AC
:100C20000191049A0821059B4A401A430CD1614660
:100C3000014301D1610707D530216A4611760121B0
:100C400001910299491E02910399582904D037A1B4
:100C500003910FA90F910DE039A1F9E76146059BBA
:100C6000049AFFF786FB039B8C469B5C0F9A521EEF
:100C70000F92137061460143F0D10F9807A9081A2B
:100C800020300390600704D50120000484430298BB
:100C900001E0012002900399884201DD401A00E042
:100CA000002041180290019809180098401A0090FD
:100CB000E00306D42146149B139A009800F05AF8DA
:100CC00086190020049008E006A9085C149A13997C
:100CD00090470498401C761C049001998842F3DBED
:100CE000E0030CD52146149B139A009800F042F8BB
:100CF000861904E0149A302013999047761C0299C3
:100D0000481E02900029F5DC08E00F980F99007842
:100D1000491C0F91149A13999047761C0399481E09
:100D200003900029F1DCFBE6092801003031323361
:100D30003435363738396162636465660000000017
:100D40003031323334353637383941424344454601
:100D500000000000F8B5044600251E46174688042A
:100D600004D405E039462020B0476D1C641EF9D537
:100D70002846F8BDFFB50446002581B01E46C803CD
:100D800001D5302700E02027880404D505E0384647
:100D90000399B0476D1C641EF9D5284605B0F0BD17
:100DA0004A68002A06D00A68531C0B601070486815
:100DB000401E4860704710B5022000F0F1F910BDE8
:100DC00070B50024064D06E06968E000085C01216A
:100DD00000F0EAFF641C28788442F5D3002070BD3F
:100DE00040000020F8B515460C460646052A01D2FB
:100DF0000720F8BD01F0B0F8002803D101F07EF81B
:100E00000028F6D1104900204E600C70C8608D603B
:100E100008610E4D0DE0E00069688019009181784D
:100E20006A46517000780A4A694601F009F80028BC
:100E3000DFD12046641EE4B20028ECD1054A00212F
:100E4000024800F039F8F8BD40000020B039000039
:100E5000191800007917000009A1012001F08CFD8C
:100E600001F088FC01F08CFC0028FBD1BFF34F8F10
:100E70000A490948C860BFF34F8F00BFFDE7000073
:100E80004150505F4552524F523A4552524F523A9A
:100E9000466174616C0D0A000400FA0500ED00E083
:100EA0000EB50021029000916A4601910148FFF7BA
:100EB000D3FF0EBD01400000094B5B68002B07D03B
:100EC000002A07D0002805D00068037C002B03D03F
:100ED0000820704707207047417442610020704726
:100EE00064000020FFB507469007002581B01E462C
:100EF0001446002825D1002C23D002F021F83046DA
:100F0000114EF060304610300570457002998170C6
:100F100044607560357001240C48757024050460C8
:100F200003211420FFF7E6FB09480460094CA76081
:100F300003211120FFF7DEFB6068B060002005B0E0
:100F4000F0BD0720FBE700005400002080E200E035
:100F500000E100E000150140FEB51D4B5B68002B71
:100F60002DD000282BD0052901D20720FEBD4369D2
:100F7000002B24D0437C012B23D0002704460025DE
:100F800016462846019100F0AFF8684602F070FC62
:100F9000002818D0012101700E4944604968816021
:100FA000019907614661C160684609490078487047
:100FB000002000F09DF802F007F92846FEBD082049
:100FC000FEBD0F46DAE70425002000F091F8F4E7B3
:100FD000640000200015014010B508494968002947
:100FE0000AD0002808D04169002905D000210174E9
:100FF000022102F011F910BD082010BD640000208C
:10100000F8B51D460446034616461030084A074602
:1010100001F05CF8002809D1384601F047F8256056
:10102000267100206071A0716072E060F8BD000060
:10103000A5330000F0B5044685B01D4616460F46A0
:10104000002000F051F8607A002805D0002000F060
:101050004FF8112005B0F0BD01206072002000F0B3
:1010600047F80B486A460168C068039092C2684618
:1010700006736946204600F00DF80028EAD102E028
:10108000002D00D0A847607A0028F9D1A07AE1E7C6
:10109000B839000070B5044600260D46304600F011
:1010A00023F8A0792179814202D16179002903D006
:1010B0006179491E814204D11126002000F018F800
:1010C00010E0216882008D50401C2179C0B281421D
:1010D00000D20020A071002000F00AF80021204674
:1010E00001F0ACFF304670BD00B500F005F800BD62
:1010F00000B500F009F800BD72B602480168491C4D
:10110000016070477400002003490868401E0860B1
:1011100000D162B67047000074000020F8B50746A1
:1011200008680C460526411C01253602002906D018
:101130002946814019488160206801F065F960689E
:10114000411C02D0002101F056F93968A0698919C3
:101150004862607D217D3A6808439119C866386805
:1011600006CC80194261C160207B083C012814D163
:10117000A068411C02D0002101F03DF9E068411C4B
:1011800005D0854005488560E06801F03DF93A6882
:10119000E1689219A06891601061F8BD00050050E7
:1011A00005490B5C05494A68012098400346934372
:1011B0008B601040C860704778390000000500500F
:1011C00010B50349085C012101F042F910BD00008F
:1011D0007839000010B50349085C002101F038F9A6
:1011E00010BD0000783900000549095C05484068D9
:1011F000C840C007C00F00D00120012148407047FF
:1012000078390000000500507CB50024074E2546C3
:10121000305D0122009500231146019501F0A6F8EA
:10122000641C042CF4D300F003F87CBD7839000072
:1012300010B500242046FFF7C3FF641C042CF9D32B
:1012400010BD10B500242046FFF7C4FF641C042C19
:10125000F9D310BD0246002010B5C043054B002154
:101260005C5C944201D1084610BD491C0429F7D3A7
:1012700010BD00007C390000F3B581B00D46019827
:10128000FFF7E8FF0446042813D21D481D4F1E4EE9
:10129000002D27D0012D0DD0022D0AD1600020187D
:1012A000C0194578002D04D0F168002901D02846E6
:1012B0008847FEBD610061187D5CCF1979780029EF
:1012C0000BD071680A2251430F4A8068921CFFF7C5
:1012D00043FE002801D10198B0700B48B978103056
:1012E0000155DFE78068FFF777FE07486100611866
:1012F0001030C919005D8D78A842D3D0FEBD000022
:1013000080390000980100202400002010B50E282C
:101310000AD0112807D106490648FFF7BBFE00286E
:1013200001D0FFF7BDFD10BD01491039F4E7000001
:10133000DC3800000C00002070B50023042811D216
:10134000440004190D4D012A02D101290DD00022BB
:1013500046008019094E801900290CD0012906D0B9
:10136000022906D00723184670BD0E30C2B22A5596
:10137000F9E74270F7E78270F5E700009801002076
:10138000F8B506461F4800248660C26041600F46DB
:10139000B00720D50025012211462846FFF7CCFFD3
:1013A0006D1C0446042D02D2002CF4D013E0002C56
:1013B00011D17A0804211448FFF714FD04000AD162
:1013C000FFF7FEFC040006D10F48104A0021001F61
:1013D000FFF772FD0446F00701D0FFF715FF002C60
:1013E0000ED109480A4A00210C38FFF765FD0400B8
:1013F00006D10548074A01210838FFF75DFD04467C
:101400002046F8BD240000208C3900002916000079
:101410007D190000B70D0000F8B55D4C05466078F9
:101420000026002803D000206070FFF701FF012094
:10143000584F2B00FFF75DFA18970D0D2E3D4A5FB0
:1014400064686F686FA97777777777979A9DA0A977
:10145000A9950020FFF7C8FE00280AD00020FFF75A
:10146000AFFE022D02D1E120C0000BE07D20400143
:1014700008E00020FFF7AEFE022D01D1C82001E0F8
:10148000FF20913025706421FEF740FE61684143E2
:1014900000222BE00020FFF7A7FE002805D0002047
:1014A000FFF78EFE19204001ECE70020FFF792FEC7
:1014B000E4E70020FFF798FE002803D00020FFF7A4
:1014C0007FFED3E70020FFF785FED9E70020FFF776
:1014D0008BFE002803D00020FFF772FE02E0002000
:1014E000FFF778FE25706068410000223868FFF73A
:1014F00033FD064635E00020FFF752FE257007E079
:1015000000203FE025702CE060700120FFF748FECE
:1015100000226168EAE760700120FFF741FE606821
:1015200081004118E1E77868FFF756FD0646112073
:10153000401B01D0002E03D00220FFF741FE10E037
:1015400001280BD9C82148436421FEF7DFFD6168FB
:10155000002241437868FFF7FFFC06460220FFF7B0
:1015600039FE3046F8BDFFF763FECBE7FFF760FEBC
:10157000C6E7FFF75DFE04E0FFF75AFE0020FFF725
:1015800029FE0120FFF726FEBCE7FFF75AFEB9E768
:101590002400002080390000002901DA0020704773
:1015A00002685118016001207047000070B5461CA8
:1015B0000D4601240020FFF797FD134A10682860AC
:1015C000116850689368081A1D1A701C6D1CA84297
:1015D00012D9002D0ED00D480D4C008824688005CE
:1015E0001940800DA402890020438918C860106842
:1015F000401C1060002401E0881910600020FFF7F3
:1016000077FD204670BD000084030020E83900000B
:1016100084000020034803C8814201D101207047A3
:10162000002070478403002010B500780221FFF7E6
:1016300023FE10BD0022D243830004490428CA506F
:1016400002D308182030027770470000D80100202C
:10165000F0B50025ED43002A02D00023042601E066
:10166000042308260B4C04E09F00E7597F1C04D09C
:101670005B1CB342F8D32846F0BD26185DB2203675
:1016800035709E00A151002AF5D1E118203108776C
:10169000F1E70000D801002002490918202008566F
:1016A00070470000D801002070B5084C050009D033
:1016B00010342168002907D008682060496828464E
:1016C0008847F6E70834F4E770BD0000C401002045
:1016D000F8B52348416800293ED00E6821494C687E
:1016E00087688078E11B0D022D0AED1C002814D1BB
:1016F00001201D4A000450601B4A403A50601B49BB
:10170000400008601A4908601A49012008602F202B
:1017100000F0B0FA124901208870B54200D2354677
:10172000E81900020F4B000A403318600D4A516857
:10173000001B091B0902090A0002000AC91C814298
:1017400009D9506818602F2000F094FA0120074949
:10175000400480390860F8BD01F0F2FBF8BD0000DC
:1017600054000020001501404013014080E200E0D9
:1017700000E100E000100140F8B500260124154DFD
:1017800023E06968F0004718387821462A698140CB
:10179000114218D08A432A6100F0A6FB3A7821460C
:1017A000EB68914019400346934099420BD17978F8
:1017B000012901D0012100E000217B684140002B7C
:1017C00001D010469847761CF6B228788642D8D3C6
:1017D000F8BD00004000002010B50E4900230A7833
:1017E0004C78A24212D0521CD2B20A70022A00D106
:1017F0000B700A78074B920018339A580260886879
:1018000010180002000A8860012010BD036000204B
:1018100010BD000054000020F8B50746104E012509
:10182000BD403068FFF7D8FB00280DD10D4C206972
:10183000284207D1384600F057FB0028E06804D062
:10184000284303E0A8432061F8BDA843E060206975
:10185000002228432061A1683068FFF77DFBF8BDB6
:10186000B0390000400000208872002048727047A4
:101870007FB50C460D4620350646697828780191DB
:10188000009022462632D11E3046E36901F01FFE49
:10189000002819D1E87800281DD1207B022801D02A
:1018A000032818D12269E169914214D16269E26189
:1018B000E37B2B70217E8906C90F6970032804D051
:1018C0003146204601F09CFD7FBD00913146204607
:1018D00001F082FE7FBD20460C3007C801AB07C374
:1018E000E878002100280ED00920C0013218506C81
:1018F0005064820701D5012002E0400705D502208F
:101900006A46107001E0684601702971207E400728
:10191000E0D422686846616890477FBD1048018C1A
:10192000C9B2012917D1818C090714D1018D09068B
:101930000A0F03D1828D1206120F0ED0090F012952
:1019400003D1828D1206120F07D0032903D1808D97
:101950000006000F01D000207047012070470000F2
:10196000C00F00F00268134602E08A4204D01268F9
:10197000002AFAD10B6001607047000010B50448DE
:10198000017AC90702D00078FFF746FD10BD0000BC
:1019900024000020F0B5284C2146103948688B6897
:1019A000227886469C46CF78667836E018235343E3
:1019B0006168521CC918A378D2B2934200D10022A8
:1019C0000B78022B02D0032B27D123E003464D686E
:1019D000194603E0A94204D00B46C96900291CD06E
:1019E000F8E7002919D08B4208D1C069002805D139
:1019F000124F0125BD600025AC4601270D68C9695D
:101A0000D961002909D00B685B190B6005E00174EE
:101A1000C06900E000210028F9D19642C6D10649EC
:101A2000624610398A604860CF70704501D001204D
:101A3000F0BD0020F0BD0000640000200010014057
:101A4000F8B52C4E044670680025009041E0002C4B
:101A500002D02046E46920E026481823103001789F
:101A600042684B43491CC9B2D2180170837899422D
:101A700000D105701178506801292CD1017C002912
:101A800029D191684160D16881601169C160516953
:101A90008161F178002900D045604368B268164F33
:101AA000991A0902090AB94202D28268891806E025
:101AB000D11A09028268090A8A4202D9511A0160C0
:101AC00000E005604560012185600174C56101F099
:101AD00083FB002CBBD1074810300178407881424D
:101AE000BAD171680098814201D00120F8BD002070
:101AF000F8BD000054000020FFFF7F001FB5FFF776
:101B000083FB00F0CFF8002801D0FFF7C9F90020CF
:101B100000F0E8F80023324A03211846FFF7E2F903
:101B2000002801D0FFF7BCF92E4A2F490220FFF709
:101B300027FC002801D0FFF7B3F9002001F002F8DC
:101B4000002801D0FFF7ACF928A1032000F014FF12
:101B500000F016FE0028FBD12C4C204640300FC868
:101B600003936B4607C31E4B05224833694628483A
:101B7000FFF746FA002801D0FFF792F9002301226F
:101B800024492348FFF756FA002801D0FFF788F9C7
:101B90000023012220491E48FFF74CFA002801D0FB
:101BA000FFF77EF903CC019100901C48694608803C
:101BB00016481B4A083000F0E3F9002801D0FFF76F
:101BC0006FF912480121083000F05EFA0F48083022
:101BD00000F0CAF930BF00F0D3FD0028FBD1F9E7CF
:101BE000EC0000200D130000CD0C00004150503AD5
:101BF000494E464F3A545749206D617374657220BF
:101C00006578616D706C650D0A000000AC380000ED
:101C10000C000020A438000070390000FF03000011
:101C2000852F0000C20843075B0F0120895C9840A4
:101C3000084070470121890740180068002800D03B
:101C40000120704700280FD00849094A096800BFE1
:101C500000BF00BF00BF00BF00BF00BF00BF914278
:101C600000D000BF401EF2D1704700008800002065
:101C70000024F40000280FD00849094A096800BF71
:101C800000BF00BF00BF00BF00BF00BF00BF914248
:101C900000D000BF401EF2D1704700008800002035
:101CA0000024F40070B50C4C00252078002801D0E9
:101CB00085250FE00021A16061602161E160074896
:101CC00000680126304002D1032100F03DF80448AD
:101CD00086612670284670BDC401002000E100E046
:101CE0000005004070B5154C0546A078002808D0C6
:101CF000002D02D06968012088470020FFF7F4F921
:101D000015E00020FFF7F0F9002D04D00B4829461C
:101D10001030FFF727FEE068002808D10849086066
:101D200008490220486006490120FC390860E06843
:101D3000401CE0600020FFF7DBF970BDC40100200B
:101D400004010040000300408207D30EFF229A40A6
:101D50008907090E10B5994000280BDA03071B0FFD
:101D6000083B9C080C4BA400E318DC6994430C432B
:101D7000DC6107E08408094BA400E418236893435E
:101D80000B432360C106C90E012088400449086046
:101D90000449086010BD000000ED00E000E400E030
:101DA00080E200E000E100E0F3B581B0054600F01C
:101DB000EDFE1F4F0028284617D0FFF76DFCC01915
:101DC0002030007F8009032802D001280BD005E0D5
:101DD00018480069E840C007C00F04D00321284616
:101DE00000F01CFBFEBD0221F9E700F0DBFE00283D
:101DF000F8D02846FFF750FC04468000C11D0E4A6B
:101E0000F9318018026989B201263243026108461D
:101E100000F03EFB02980028E4D02846FFF73CFC87
:101E2000800038580028DDD00448A6404660FEBD3A
:101E3000D80100200005005000650040006300400C
:101E4000FEB5044625480E460019202141560027BC
:101E5000C8171346401C01D008273CE0F278194609
:101E60002046FFF7F5FB0546401C33D0B07800282C
:101E70000BD005200007A10009180720000209184F
:101E8000086802229043086007E00021737820462A
:101E900000910A46019100F07DFAF078002810D0F8
:101EA0000F48AA001018317802690E4B1A400261DF
:101EB000E206D20C8907890B0A4301690A430261D1
:101EC00009E00648327840192030017F9201114321
:101ED000017700E004273846FEBD0000D80100204D
:101EE00000650040FFE0FCFF03490969C140C807E5
:101EF000C00F00D0012070470005005070B5144D90
:101F00002879002801D0082070BD114900204039EF
:101F1000421E0B182033401CC0B21A702028F8D380
:101F200000242046FFF786FB641CE4B2082CF8D39B
:101F300003210620FFF708FFFF207D3000F0A8FAFC
:101F400001200449C007486001202871002070BDAD
:101F5000180200200063004002480079002800D0E9
:101F60000120704718020020016801220A604079B0
:101F7000022142008018014A1154704738000020A5
:101F800070B50D460446002A0DD0607916498000D0
:101F90000A506079144E41004018361F305C00280A
:101FA00003D0082070BD072070BD0420A9782056FA
:101FB000FFF7CAFE05222168120228888918886066
:101FC000617928794A008918891948706179E87817
:101FD0004A00891889198870617901204A00891896
:101FE0007054002070BD00003C000020F7B504468E
:101FF00082B0FF20413000900125032089002D048C
:10200000002700022618019116E0706828420DD0C2
:1020100000982058002809D0B564B56000980021C8
:102020002150184A0199F8B25158884700986D001C
:10203000001D80B27F1C009004988742E5D3FF20EA
:1020400071680130C907C90F09D02158002906D08D
:10205000002121500B490198095804208847FF208E
:102060000530726802210A4209D02158002906D0A1
:10207000002121500349019809580520884705B0DF
:10208000F0BD00003C00002030B5FF2401340122E7
:10209000036800251D51032304681B02E4186264D1
:1020A000002902D00068C018426030BD01792822A2
:1020B0005143054A0068891805221302C0180260BE
:1020C000022020318870704720020020F8B50746B2
:1020D0000C460079282148431B4945182E462036D6
:1020E000B078002801D00820F8BD0CC50020286079
:1020F00070713071A07BF071607B083D002802D0C8
:10210000204601F003F9216810488A00104952184E
:1021100010606268920051180860052338681B023D
:1021200006CCC0188160C260216841622868083C02
:10213000002805D03868217B000B40B2FFF704FE71
:102140000120B0700020F8BD200200200C06000025
:102150000007005070B50D46017928235943064BFE
:10216000CC18910701D0062070BD134601682A469D
:10217000204601F07FFA70BD20020020F8B5064627
:102180000F4600791C2148431A4915464418E07E41
:10219000002801D00820F8BD39463046FEF7BEFFC2
:1021A00065603869206028460025002813D0FF228A
:1021B0003068397F1D328550FF22306845328550A6
:1021C000032330681B020C4AC01842603068000BC1
:1021D00040B2FFF7B9FD05223068042112028018D1
:1021E0000160E5752576A5750121E1762846A5767D
:1021F000F8BD0000480200208000020070B50546CE
:102200000C4600791C21484308494318284600F031
:1022100055F8002801D0112070BD9A7500209C60EF
:102220009882284600F004F870BD000048020020A3
:10223000F8B5044600791C2148431F49002645187B
:10224000FF2720681D37C65120680121816029467B
:10225000206801F055FA6968002913D027E0FF27AC
:102260000137FF211D31206800F083FC002802D1D6
:10227000A88AB842F5D1A88AB84203D02946206876
:1022800001F03EFAA88AA97D8842E8D3A98AC81F2E
:10229000F9380ED0FF271D373946206800F069FC59
:1022A0000028F9D020680121C1600020A8753046BF
:1022B000F8BD0F26F9E700004802002000791C2134
:1022C000484303494018807D002800D00120704712
:1022D00048020020F8B501791C225143204A00230E
:1022E0008D1805220168120289180B60696800299F
:1022F0000CD00324016824021A4B09198B60016871
:10230000C903CB0E01219940174B196005220168C2
:1023100012028A18D3685669976814690021C94364
:102320005161D1600068052212028018816001614C
:10233000581C02D0184600F055F8701C02D03046E8
:1023400000F050F8601C02D0204600F04BF8781CDA
:1023500002D0384600F046F80020E8766860F8BD04
:10236000480200208402020080E100E070B55200C3
:102370000A439900049D0A432902059E0A43310439
:1023800005240A4324078000072100190902401888
:10239000026070BD70B552000A439900049D0A4363
:1023A0002902059E0A43310405240A4324078000BC
:1023B0000721001909024018026070BD70B5520073
:1023C0000A439900049D0A432902059E0A433104E9
:1023D00005240A4324078000072100190902401838
:1023E000026070BD1CB5002100910B4601220191D5
:1023F000FFF7E4FF1CBD1CB500220B4600921146FE
:102400000192FFF7DBFF1CBD1CB5002100910B46BC
:10241000012201911146FFF7D1FF1CBD05221207D1
:1024200080008218072000021018026803231B0492
:102430009A430260026809040A4302607047000080
:102440000121814001488160704700000005005073
:10245000012282400348002901D082607047C26097
:10246000704700000005005038B5084B05241B6874
:10247000009324026B46411805E085005D592D1933
:102480002D69401C20C28142F7D838BDAC3900000C
:1024900002494018002101607047000000600040C0
:1024A000034940180068012800D000207047000050
:1024B00000600040004870473525000030B5194CD9
:1024C0000546207889B0002805D06078854202D181
:1024D000002009B030BD202213496846FDF730FEC8
:1024E000002069460875092000900B200190082003
:1024F00003900A2002900D4806900A48001DFFF73D
:10250000E9FE002D01D0002200E0094A0548694695
:10251000001DFFF733FE0028DBD10120207065701D
:10252000D6E7000078000020C839000000E0D7019D
:1025300039370000F0B5C5B00C46002100914D9828
:102540004B991E46081817460390002C01D00A200C
:1025500000E00020019000F047FD00287ED104AD8E
:10256000002E17D100986A462918204600F0B4FEC4
:10257000002875D03846FDF7F5FDC22800D9C220E5
:1025800004460098224628183946FDF7D9FD0098E0
:1025900000190090009901980A1804A844183132D3
:1025A0008518002003E020212170401C641C019943
:1025B0008842F8D300270398864207D32020207052
:1025C0006070A0702870E41C6D1C2CE04B98864253
:1025D00002D24A98805D02E0311A4C98405C224653
:1025E0008446012102908B006046D8400007000F0E
:1025F000092801D9373000E0303001235B1AD0546C
:10260000491EF0D220209070D41CFDF795FD016882
:102610000298085C8006C00E01D0029800E02E20CF
:1026200028706D1C761C7F1C102FC4D30D202870C1
:102630000A20687020202070009901980918433101
:1026400004A8009100F0D8FC002809D000F0CCFCD0
:10265000002805D100900398864200E000E099D35D
:10266000304645B0F0BDFFB5C7B00025509F1C46B1
:10267000059500F0B9FC002875D1059806AE311813
:1026800005AA489800F028FE002836D03846FF27D3
:1026900001370300FEF72DF90705131B333F4B5796
:1026A00025004998FDF75EFD059905464018FF286D
:1026B00017D870182A464999FDF742FD11E0059890
:1026C0002368391A3018499AFEF7E2F808E0606882
:1026D000009005982368391A3018499AFEF7D8F8FF
:1026E0000546294605A8FEF757FF059900283AD068
:1026F000B94238D806A800F07FFC4BB0F0BDA16805
:1027000060680090019105982368391A3018499A39
:10271000FEF7BEF8E4E7201D07C86B4607C305981F
:102720002368391A3018499AFEF7B2F8D8E7201D05
:102730000FC86D460FC505982368391A3018499A95
:10274000FEF7A6F8CCE7204608300FC801AD0FC54C
:102750006068009005982368391A3018499AFEF786
:1027600097F8BDE7FFE70020C7E700000048704783
:102770006726000010B50120FFF7A0FE10BD000085
:10278000F0B595B0FEF746FF002802D0002015B046
:10279000F0BD4B48446886682146314089000918DD
:1027A0000C94CD680BE02904A80D890D401804197C
:1027B00020463040810042480C940818C568641CCB
:1027C000A807F0D000200890A807800F3D4B0228F2
:1027D00007D0AA0AA805000F84460EA99646002035
:1027E00059E02046304081003548641C0818C06814
:1027F000049486462804800D84463440301B8000B3
:10280000AF0D001D874222D92D490C31002807D079
:102810002B4AA400A21814460C34C2B2381A03E0A2
:102820000C460021FAB20846C0B203900192029110
:102830000094A8065C69400F634672460899A04759
:10284000B84213D1FF1C0498B9080C1830E01C489A
:10285000A200101800210C30009002910197039102
:10286000A8065C69400F63467246E8E71649800592
:102870000D40000C05430C983040810010480818AA
:10288000C56017E027463740BA000D4F401CD719E6
:10289000FF68641C80C167466045F3D3A8060097B3
:1028A0001D69400F0EAB72460899A847002801D059
:1028B00003484460FEF7AEFE0121484067E7000090
:1028C00084030020840700203F00FFFFFFB5224C57
:1028D000D81C81B080081D4617466946401CA66872
:1028E000FEF764FE002834D01C483C21006A88436F
:1028F00001994907890E08438102890AA805014305
:1029000000980246324092001219D160401C0246E3
:102910003240920012190299401CD1600090A168C7
:102920003040091A8E00361DB54204D880000019C7
:102930002A4639460AE080000019324639460C30F2
:10294000FDF7FEFBA81B82B20348B9190C30FDF756
:10295000F7FB05B0F0BD000084030020E83900005B
:1029600000B5044AFF23936000231360536000F016
:10297000E3F800BD84030020F8B5104D0E4607466D
:1029800000206946AC68FEF711FE002815D00C48FF
:102990003C21808888437907890E08430F218901EB
:1029A00088438105890DB002014300980246224008
:1029B00092005219401CD1600090F8BD84030020A1
:1029C000E8390000F7B5154C82B00E4607460120E5
:1029D0006946A568FEF7EAFD00281CD010483C2196
:1029E000008988437907890E08430F2189018843AC
:1029F000402108438105890DB00201430098024639
:102A00002A4092001219D160401C0090284080009A
:102A100000190499C16005B0F0BD000084030020D6
:102A2000E8390000FFB51C4C81B00F461646032064
:102A30006946A568FEF7BAFD00282AD017483C2150
:102A4000008A884301994907890E08430F218901AB
:102A50008843C02108438105890DB80201430098CD
:102A600002462A4092001219401CD1600146401CC7
:102A700029400246890009192A40CE6092001219A5
:102A80000499401CD16000902840800000190A99E8
:102A9000C16005B0F0BD000084030020E8390000EB
:102AA000FFB5234C81B01E46174605206946A56830
:102AB000FEF77CFD002839D01E483C21008B88435E
:102AC00001994907890E08430F2189018843FF2195
:102AD0004131084381050298890D80020143009825
:102AE00002462A4092001219401CD160014629403A
:102AF00089000919401CCF600146401C294002464C
:102B0000890009192A40CE60920012190A99D160F1
:102B1000401C02462A40920012190B99D160401CB9
:102B200000902840800000190C99C16005B0F0BDEC
:102B300084030020E8390000014A516110617047A8
:102B40008407002070B506460020FFF7B7FC04009C
:102B500008D1FFF7AFFC0546FFF708FE32462946CD
:102B6000FFF7FEFE204670BD4058002800D001202F
:102B700070474058002800D00120704703221202FD
:102B800080184068084000D00120704704490818A8
:102B900020214156042901DB0120704700207047A5
:102BA000D80100200449081820214156042901D2E7
:102BB0000120704700207047D8010020F0B585B093
:102BC000002806D0024677A10320FFF7FBFE05B0E0
:102BD000F0BD7D4C062120787C4D844648437B49DE
:102BE00041180B88A01C02885B055B15D21A12B233
:102BF00002808B78964642889B069B16D21A12B2A8
:102C000042800292CB7882889B069B16D21A12B21F
:102C1000828001920B79C2889B069B16D21A12B24F
:102C2000C280C03500922F786E783F02AB78EA7888
:102C3000287937436D797E090E805E0606D49B00A5
:102C40005BB2DE17B60FF3189B108B70530606D4D9
:102C5000920052B2D3179B0F9A189210CA70420674
:102C600006D4800040B2C217920F1018801008716D
:102C7000680600D565780B88534A5B0570465B157E
:102C8000C018921C00B210808E78029BB606B61651
:102C90009B191BB253800293CE78019BB606B616E1
:102CA0009B191BB2938001930979009B89068916B1
:102CB000591809B2D18000916146491CC9B22170EE
:102CC000102902D30021217007E0002905D0617886
:102CD000002900D17BE7A942FCD01C21294004290E
:102CE0001ED008291ED014291ED018291ED038A69F
:102CF000FDF7F6FA0222D243FDF7D1FA0322D243BE
:102D0000FDF7CDFAFDF719FB0121C90507468842F9
:102D10000EDBFDF7F9FAFDF7D8FA014638460CE06C
:102D20002CA6E5E72DA6E3E72EA6E1E72FA6DFE731
:102D3000FDF7EAFAFDF7C9FA3946FDF76BFA2C49B7
:102D4000FDF770FAFDF7E0FA03903846FDF7DCFA7C
:102D500069460EC9CF173F0F7918D7173F0FBA181A
:102D6000DF173F0F1211FB1809111B11019200937D
:102D7000029102461FA10320039BFFF791FE280644
:102D800001D529A000E014A00090A80601D528A331
:102D900000E011A3324628A11320FFF743FE65701F
:102DA00015E700004150503A494E464F3A7265616E
:102DB000645F616C6C5F6362202D206572726F725C
:102DC0003A2025640D0A0000000000208C0000203D
:102DD0003F0000004C45465400000000524947485F
:102DE00054000000444F574E0000000055500000B2
:102DF0000000C8424150503A494E464F3A54656D22
:102E0000703A2025642E25303264207C20583A20E8
:102E10002533642C20593A202533642C205A3A203B
:102E20002533642000000000205348414B4500003A
:102E300020544150000000007C2025732573257329
:102E40000D0A000010B5002805D0024607A1032096
:102E5000FFF7B8FD10BD11A10320FFF78DFD07237B
:102E6000134A14A10320FFF731FD10BD4150503A21
:102E7000494E464F3A726561645F6C6D3735625FEB
:102E80007265676973746572735F6362202D206574
:102E900072726F723A2025640D0A00004150503A58
:102EA000494E464F3A4C4D3735423A0D0A00000024
:102EB0004C0100204150503A494E464F3A0D0A000D
:102EC00010B5002805D0024607A10320FFF77AFDC0
:102ED00010BD12A10320FFF74FFD0B23144A15A1CB
:102EE0000320FFF7F3FC10BD4150503A494E464FC6
:102EF0003A726561645F6D6D61373636305F726559
:102F0000676973746572735F6362202D20657272E6
:102F10006F723A2025640D0A000000004150503ABB
:102F2000494E464F3A4D4D41373636303A0D0A003C
:102F30004C0100204150503A494E464F3A0D0A008C
:102F400070B501240B49600408600B49401088608B
:102F5000094940398860094D6C602F20FEF78AFED0
:102F6000AC60074D00242F20AC60FEF783FEAC70F0
:102F700070BD000080E100E04013014000100140FE
:102F80005400002010B504280AD10320FEF708F9E8
:102F900004490548FEF77EF8002801D0FDF780FFC0
:102FA00010BD0000BC3800000C00002030B5FF222E
:102FB0000523CD7D002409321B02C318002D845047
:102FC000986905D04B7ECA68D054487E401C48762C
:102FD00030BD1FB501246B461C701972019206C8E2
:102FE000684690471FBD000010B50248FFF766F91C
:102FF00010BD00007C00002070B50D460A46014659
:1030000001240648FDF79CF8EAB204490448FFF79A
:10301000F5F8002800D00024204670BD840200206E
:103020007C0000200B46C1680968002905D0C168F2
:10303000C0684968026818461047704770B5044672
:103040000E460020FEF750F80025002E02D1E06861
:10305000002823D16079A179814201D1294609E074
:10306000216882008958401C2279C0B2824200D275
:1030700000206071E160E06800280FD00020FEF7BA
:1030800037F82572204600F00DF8010009D02046DF
:10309000FFF7C8FF0020FEF727F8DBE70020FEF768
:1030A00027F870BD3EB5037AC168DA0089686D46BD
:1030B00089184C7964086C700C6801940C79AC70B8
:1030C0008C79E4072AD04C79E50727D1C5685B1CC9
:1030D0002D7B9D4222D9C36864089D6813460D3339
:1030E000EB5C5B08A34219D1C168083289686B4662
:1030F00089180A6802920A79DA704A79D20701D0EF
:10310000022200E003221A708979C90701D0202227
:1031100000E00022017A491C01720DE04A796B46F9
:10312000D207D20F1A7000220292DA708979C90789
:1031300001D0202200E0002219461030FFF70AF8E3
:103140003EBD0000FEB51F4C0025A76860680290D8
:103150006846FEF741FB0190FEF71CFC064601980D
:10316000002822D000230098616817E00E680A4604
:10317000864202D9301A086012E0801BF31800263C
:103180001660D668D169B446002E07D0FE18360204
:10319000360A566066469660D56115460029E5D127
:1031A00028466160FEF74CFC06E02846FEF748FC26
:1031B000002801D1002E02D00298FEF789FA0020E3
:1031C000E070FEBD540000200120024900050860A7
:1031D0007047000000E200E010B50E4B596800296E
:1031E00006D002680C68A24204D8A21A0A60C16123
:1031F000586010BD0B4604E00B46C969121B00293C
:1032000004D00C689442F7D3A41A0C600260C16128
:10321000D86110BD54000020F8B5064600240D46C4
:103220002046FDF761FF684600F022FB00280CD025
:103230000570466068460749007848700020FDF731
:1032400057FFFFF7C1FF2046F8BD04240020FDF71B
:103250004FFFF8E764000020F8B51D4D6C68002CA6
:1032600034D01C4800274068A968401A0602360A74
:103270002068B04218D8361AC7192246107CE46973
:1032800000280FD000201074EB68002B07D0916944
:1032900050699847002805D0FDF702FE02E0516909
:1032A00090698847002CE3D129786878814206D15B
:1032B000401CC0B26870022801D100206870044927
:1032C0000006800D18310F50FFF77EFFF8BD00009B
:1032D000540000200015014010B51446024601209C
:1032E000002A0BD008461368FF2106A20131FDF722
:1032F000CFFA01462046FEF74FF910BD00212160AC
:1033000010BD00005B253038645D0000F8B5044650
:103310002168224D890020484919086061688900A8
:10332000491908602068FFF78BF86068FFF788F894
:1033300019482168401C89004919086061688900A2
:10334000491908600420FEF77DFC0026144F012572
:1033500021793869C840C007C00F02D0002E19D0AB
:103360000FE0217828468840F8600420FEF76AFCC8
:103370002068FFF765F80420FEF764FC761C092E30
:10338000E6DB20798540FD600420FEF75BFC606889
:10339000FFF756F8F8BD00000C06000000070050CB
:1033A0000005005010B500780C46002808D0032115
:1033B0002046FFF737FE01212046FFF73FFE10BDF4
:1033C000207A0021401CE268C0B2127B8242EFD911
:1033D00020722046FFF766FE0100E9D110BD000013
:1033E00001460320CA0701D0412040028A0700D5C8
:1033F0000248490701D50148401C7047018200007E
:10340000FFB50C4685B000210491FF21053100264F
:103410001F466650FF2125316650FF211D31665041
:10342000FF210931665005462035E11DFF31AE719F
:10343000FA31EE70012F0FD001220A6001212162C2
:1034400021600168002909D0144981608068032146
:103450000902611848601DE00222EEE701462631AC
:10346000233003910290009701962046079B039A10
:10347000029900F02CF80028F5D1E878002809D04E
:103480000920C0012118486C4864002802D0FFF7C9
:10349000A7FF0490049809B0F0BD00008602000068
:1034A00030B51C78039D944208D205221202095DB2
:1034B0008018C1611878401C187006E00121002DA9
:1034C00002D0C161002030BD4161012030BDFFB597
:1034D0000F46097883B00446002904D10598027884
:1034E0000C98824201D1012000E000200190FF20D1
:1034F00025300025002907D02550FF201D302550FC
:10350000FF200930255055E0FF2125312046FFF7E7
:103510002BFB012600282CD1FF211D312046FFF76F
:1035200023FB002814D0FF201D302550FF2125311A
:103530002046FFF719FB00281BD10D98009020466C
:10354000059B0C9A0699FFF7ABFF00283FD031E0AE
:10355000FF2109312046FFF707FB00282AD0FF2072
:1035600009302550FF2125312046FFF7FDFA0028BC
:1035700005D0FF202530255066613E701AE0059980
:103580000C980F78069ABC46874213D205231B027B
:10359000E3189B696746D3550A78521CD2B20A7069
:1035A000411E8A4203D102200102085101E08242F9
:1035B00000D02662019800280BD0FF260536314640
:1035C0002046FFF7D1FA002803D0A551002007B00C
:1035D000F0BD0120FBE70000FFB5054687B00C46B3
:1035E0000020FF21109F053105906050FF212531FB
:1035F0006050FF211D316050FF21093160500121D1
:1036000049022E4608512036B071F0700120206228
:10361000A060B31D0097029320460A9A0999FFF70C
:103620003FFF2868002807D01148A860A868032138
:1036300009026118486018E023350A980090019744
:1036400029462046099B029AFFF741FF0028F4D142
:10365000F078002809D00920C0012118486C48647E
:10366000002802D0FFF7BCFE059005980BB0F0BD16
:1036700086020000F8B5044600250320ED43000251
:1036800008188560254620352E79002E03D0A168C4
:1036900041601120F8BD5807C017401C2871180759
:1036A00001D50620F8BDA361C1CA0C34C1C40C3ACF
:1036B0009078287050680B266060F60150788E195B
:1036C000B06010780026183C01280ED0002801D1E7
:1036D000980601D5012000E00020687000909378E2
:1036E00052682046FFF778FF05E06E7093785268C5
:1036F0002046FFF785FE21680029D3D12E71F8BD41
:10370000FF221D32002383508B8A8A68D25C8B8A09
:103710005B1C8B82052109024018C26170471FB5EE
:1037200000226B461A70197281680191827506C871
:10373000684690471FBD00000078012801D101496B
:103740008870704778000020F0B50C46012185B0E4
:1037500005464902FFF712FA032109026F180026F5
:10376000002826D0FF2125312846FFF702FA00283D
:103770001FD0FF2025302E5081208000B860A07E11
:10378000002801D1012068600221684601700920EB
:10379000C0012918086808600390E17D684601723D
:1037A000E0680190E675267606CC6846083C9047AE
:1037B0002DE004212846FFF7E1F9002827D0FF215A
:1037C00009312846FFF7D5F9002820D021462846A0
:1037D000FFF7ECFBE07D617E884218D1207E002857
:1037E00007D0617EE268E0752069E0602676667643
:1037F0000AE0A07E002801D10120686081208000BD
:10380000B860E675617EE2682046FFF7E2FBFF27BD
:103810001D3739462846FFF7ACF900280FD0A08A9B
:10382000A17D884204D221462846FFF769FF06E0C1
:10383000EE51A17D002902D02046FFF770FFFF273F
:10384000453739462846FFF794F900280ED0EE5147
:10385000A07E002801D001202860E07D002805D04E
:10386000E675617EE2682046FFF7B3FB05B0F0BD68
:1038700010B509494B788C785A1CD2B2944200D1C9
:1038800000220C78944201D1002010BD02704868DB
:1038900018214B43C01810BD640000200100030232
:1038A00001000000A0380000029000000000034169
:1038B0000000000000B000400B000300BD2B000022
:1038C00000000000FC38000004000000452E00004D
:1038D000000000001C39000008000000C12E00009C
:1038E000000000005C39000002000000070000003A
:1038F0001E00000000009801030000009D38000039
:10390000019001004C010020029100006C39000080
:10391000019801004E010020049900009C3800002D
:10392000019001004C010020019100009D38000031
:10393000019001004D010020029100009E3800001E
:10394000019001004F010020029100009F3800000B
:103950000190010051010020029100006C3900002B
:10396000019801004C0100200B99000000070100A4
:103970006D3900000298000015161213111213146D
:103980005801002078010020A4010020110003004C
:1039900079120000120003007912000013000300E6
:1039A000791200001400030079120000000000509A
:1039B00064020020030000006918000000000000FD
:1039C0000000000000000000FFFFFFFFFFFFFFFFFF
:1039D000FFFFFFFFFFFFFFFF0000000000000000EF
:1039E00000E0D701030000002900000001000000F2
:1039F00001000000010000000100000001000000C3
:103A000001000000010000000200000000404040F2
:103A100040404040404041414141414040404040A1
:103A2000404040404040404040404040400502024D
:103A3000020202020202020202020202022020200C
:103A40002020202020202002020202020202909068
:103A50009090909010101010101010101010101066
:103A600010101010101010100202020202028888BA
:103A700088888888080808080808080808080808C6
:103A800008080808080808080202020240000000AE
:103A90000D3A00004F766572666C6F770D0A000074
:103AA000C03A0000000000208C0000000C0900005B
:103AB0004C3B00008C000020140F00001C0900008B
:103AC00000000000000000000000000000000000F6
:103AD0000000000000000000000000000030004076
:103AE00000000000000000000000000000000000D6
:103AF00000000000000000000000000000000000C6
:103B000000000000000000000000000000000000B5
:103B100000000000000000000000000000000000A5
:103B20000000000000000000000000000000000095
:103B30000000000000000000000000000020004025
:0C3B400000000000943A00000024F40093
:04000005000000C136
:00000001FF
