:020000040001F9
:1040000010390020C1410100D3410100D541010018
:1040100000000000000000000000000000000000A0
:10402000000000000000000000000000D741010077
:104030000000000000000000D9410100DB41010048
:10404000DD410100DD410100DD410100DD410100F4
:10405000DD41010000000000F17401008D48010005
:10406000DD410100DD410100DD410100DD410100D4
:10407000DD410100DD410100DD410100DD410100C4
:10408000DD41010011590100DD410100DD41010068
:10409000A3590100A9740100A9610100DD410100DB
:1040A000DD410100DD4101000000000000000000D2
:1040B0000000000000000000000000000000000000
:1040C00000F002F800F040F80CA030C808382418BE
:1040D0002D18A246671EAB4654465D46AC4201D140
:1040E00000F032F87E460F3E0FCCB6460126334232
:1040F00000D0FB1AA246AB4633431847E43A00000F
:10410000043B0000103A02D378C878C1FAD85207AD
:1041100001D330C830C101D504680C60704700007D
:104120000023002400250026103A01D378C1FBD8D3
:10413000520700D330C100D50B6070471FB5C04691
:10414000C0461FBD10B510BD03F013FD1146FFF7AB
:10415000F5FF00F077F903F02BFD03B4FFF7F2FF52
:1041600003BC03F02FFD0000401E00BF00BF00BFD6
:1041700000BF00BF00BF00BF00BF00BF00BF00BF47
:1041800000BFF1D17047000070B505460C461646D9
:1041900002E00FCC0FC5103E102EFAD2082E02D32B
:1041A00003CC03C5083E042E07D301CC01C5361F3E
:1041B00003E021782970641C6D1C761EF9D270BD55
:1041C0000A4802680F210A430260094880470948EB
:1041D0000047FEE7FEE7FEE7FEE7FEE7FEE700003A
:1041E00005480649064A074B704700002405004071
:1041F00009420100C14001001029002010390020AF
:1042000010310020103100201E48C06980B21D38D6
:10421000172816D203007B441B79DB189F440B0B35
:1042200011111111110B110B0B1111111111111190
:104230000B110B110B00154913484860C8131449A2
:1042400088611048C06980B21D3815280FD203005C
:104250007B441B79DB189F440A0A0A0A0A0A0A0AE5
:104260000A0A0A0A0A0A0A0A0A0A100A100009496E
:104270000120C8630849C007C8607047084907485B
:104280000860704740000010DFFF07C000050040D5
:10429000006C004040070050000500500024F4006E
:1042A00000200020BFF34F8FFE49FD48C860BFF3D8
:1042B0004F8FFEE7BFF34F8FFA49F948C860BFF34D
:1042C0004F8FFEE7BFF34F8FF649F548C860BFF345
:1042D0004F8FFEE7BFF34F8FF249F148C860BFF33D
:1042E0004F8FFEE710B500F038FB10BD10B5EE485B
:1042F0004188EE4800F0E4FE00280FD008280DD0D9
:10430000EB4988420AD0EB49884207D0BFF34F8F70
:10431000E449E348C860BFF34F8FFEE710BDFF22BA
:104320002D32E149102809D0112810D0BFF34F8F4A
:10433000DC49DB48C860BFF34F8FFEE74888801C2C
:1043400048804888904201D93C204880704748887E
:10435000801E488048883C28F8D24A807047F8B5CB
:10436000074602F082F83946D04800F0E1FD3946B0
:10437000D14800F0D1FC384600F0AEFF3888C84D77
:10438000C84EC94C102818D011283BD013284CD047
:10439000192856D1B879002853D100F05AFB0321CF
:1043A000C64809040160416031DF002849D0BFF3ED
:1043B0004F8FF560BFF34F8FFEE700F04AFBB888E0
:1043C0002080B4206080012100220904606801F08F
:1043D0008AFB002805D0BFF34F8FF560BFF34F8FE6
:1043E000FEE701210022C903A06801F07CFB002840
:1043F00005D0BFF34F8FF560BFF34F8FFEE702F09C
:10440000F5FF16E002F098FA002805D0BFF34F8FB1
:10441000F560BFF34F8FFEE731DF002811D0BFF307
:104420004F8FF560BFF34F8FFEE7A54A002120882C
:104430006FDF002805D0BFF34F8FF560BFF34F8FBC
:10444000FEE7F8BD9CB000209E4B062204210090A0
:1044500001F0ABFA924C934D002805D0BFF34F8F7B
:10446000EC60BFF34F8FFEE7974A0121974801F0B8
:1044700011FB002805D0BFF34F8FEC60BFF34F8FC7
:10448000FEE7934A0121934801F004FB002805D080
:10449000BFF34F8FEC60BFF34F8FFEE78E490120D3
:1044A00003F077F8002805D0BFF34F8FEC60BFF31F
:1044B0004F8FFEE70023894A0221894802F053FF0B
:1044C000002805D0BFF34F8FEC60BFF34F8FFEE79E
:1044D0006946102002F0A5FF002805D0BFF34F8FDA
:1044E000EC60BFF34F8FFEE701A9112002F099FFA6
:1044F000002805D0BFF34F8FEC60BFF34F8FFEE76E
:1045000069460878097901270843784006D00321D5
:104510006A480904016041607248076069461120D9
:1045200002F07FFF002805D0BFF34F8FEC60BFF390
:104530004F8FFEE76C4840696C4E401C06D03069D6
:1045400081B26948406903F01DFA00E0706969466C
:10455000401E087164484169491C05D031694069B1
:1045600089B203F00FFA00E070696946C01E487115
:1045700000265F48029603900878887101A802F02F
:10458000B8FB002805D0BFF34F8FEC60BFF34F8F0F
:10459000FEE7584B502258490D20009601F0DAFDF5
:1045A000002805D0BFF34F8FEC60BFF34F8FFEE7BD
:1045B000524A0521012002F081FF002805D0BFF3F7
:1045C0004F8FEC60BFF34F8FFEE7112069460872F2
:1045D0000A224BA102A86CDF002805D0BFF34F8F41
:1045E000EC60BFF34F8FFEE7484868DF002805D036
:1045F000BFF34F8FEC60BFF34F8FFEE7FF21913188
:1046000000966846019601804A0042808680C180FB
:104610006ADF002805D0BFF34F8FEC60BFF34F8FE8
:10462000FEE7062168463A4A0170516810689268B0
:104630001191109012923C2101A803F0A1F90220DF
:10464000019068464772878103210490018410A875
:104650000990002101A801F014F9002805D0BFF34A
:104660004F8FEC60BFF34F8FFEE71B482821466158
:104670008661C6610662466226480670067201823D
:10468000B4214182032118A8017210961196139645
:1046900010A8149606711AA81290012001463BE05A
:1046A0000400FA0500ED00E0042000205024002062
:1046B000033000000134000038240020400700507F
:1046C0001020002010210020E542010008200020D9
:1046D000ED4201000C20002010240020660600009E
:1046E00018200020000500400010001000000010FD
:1046F000D54201005F430100C0230020BF720100CA
:104700004E6F726469635F48524D000041030000C0
:10471000D47B010024240020103110A80173002054
:10472000014610A841730020014610A881730120A2
:104730000146103110A8C1730020014610A8017471
:104740000146484800F01CFC002805D0BFF34F8FFD
:10475000EC60BFF34F8FFEE70120014615961696D9
:1047600017961896103118A8199641700120014625
:10477000103118A881700020014618A8C1700120CE
:104780000146103118A8017110A80776642118A8F5
:10479000017015A9344800F0EAFA002805D0BFF3EB
:1047A0004F8FEC60BFF34F8FFEE74021684603F068
:1047B000E7F82EA1684601F0A1F80120014610316A
:1047C00008A801770020014608A84177684600F054
:1047D000AEF9002805D0BFF34F8FEC60BFF34F8FC9
:1047E000FEE70520C0030096019002900396049610
:1047F00003210596684601731A4881896846C1817C
:1048000007741F480690684600F033FD002805D065
:10481000BFF34F8FEC60BFF34F8FFEE719491E20A7
:1048200008808878E122384310400C30DF221040A5
:1048300088700720C87010200871134863DF0028B3
:1048400005D0BFF34F8FEC60BFF34F8FFEE700F052
:10485000CDF83DDF0028FCD0BFF34F8FEC60BFF3F5
:104860004F8FFEE750240020382400204E6F7264E2
:10487000696353656D69636F6E647563746F72000D
:10488000C542010010200020242400204748016870
:10489000002961D010B50021016045488068454A73
:1048A0000121C0B251604B2109014843FF2103F0AF
:1048B00069F841004018FF300F303F4980B288420C
:1048C00001D3642136E03D4A904209D9081A3A21C1
:1048D0004843642103F064F86421081AC1B229E056
:1048E0003749884209D9101A18214843A02103F0FA
:1048F00057F82A21081AC1B21CE0324A90420AD95C
:10490000081A0C214843FF212D3103F049F81221E8
:10491000081AC1B20EE02C4988420AD9101A0621A1
:104920004843FF21553103F03BF80621081AC1B274
:1049300000E00021254800F0BFFA00280BD008282D
:1049400009D02349884206D02249884203D022A2B6
:104950005321FFF7A7FC10BD704770B52248012412
:104960004460134818214160104E002535600460F2
:10497000072027DF002803D017A26921FFF792FC48
:104980000321072028DF002803D013A26C21FFF7A2
:1049900089FC072023DF002803D00FA26F21FFF737
:1049A00081FC35600348046070BD00000071004068
:1049B0000075004000700040B80B0000540B000070
:1049C000B40A0000880900003408000038240020E0
:1049D00003300000013400002E2E5C6261747465A7
:1049E00072792E63000000000073004010B51E4C69
:1049F0001E492246002044DF002803D01CA2532178
:104A0000FFF750FC012042DF002803D018A25821F4
:104A1000FFF748FC194800214160816009210161CC
:104A200017490120C860184B164A1A60174A1060CF
:104A3000174B8204DA60184A164B136100BF00BF9F
:104A400000BF2060154B136100BF00BF00BF0860AE
:104A500010BD1149002008610949012048600C4936
:104A60008004C86070470000006000404091004032
:104A70002E2E5C6C65642E630000000000950040E3
:104A800000900040841E00004095004000920040CD
:104A900000050050031F02000065004003120300E0
:104AA000F0B58FB01D4614460E00074604D179A21A
:104AB00068210020FFF7F6FB002C04D175A26921C4
:104AC0000020FFF7EFFB0020009001900290039080
:104AD00004900590694606900A7802210A436946C7
:104AE0000A70012208A98A7069460F8407902A7803
:104AF0000A776A784A77897FF9221140891CE72270
:104B000011404A08520069468A7708A9099107A905
:104B10000A910B900C9069468C85C8850C866A4872
:104B20000D9609AA0088149BA2DF0FB0F0BD30B526
:104B300085B0044601206946887164488880624ACD
:104B400001A90120A0DF00287ED1228825463C351E
:104B5000002A08D05E4800902B465E486168FFF747
:104B60009FFF002870D12289002A08D05A4800905F
:104B70002B465A48E168FFF793FF002864D1228A48
:104B8000002A08D0564800902B4656486169FFF726
:104B900087FF00287CD1228B002A08D05248009041
:104BA0002B465248E169FFF77BFF002870D1228C29
:104BB000002A08D04E4800902B464E48616AFFF705
:104BC0006FFF002864D1228D002A08D04A48009047
:104BD0002B464A48E16AFFF763FF002858D1206B53
:104BE000002829D0027869460A720188FF22120241
:104BF00011400A0A69464A72FF22016812041140F4
:104C00000A0C69468A7201682B460A0E6946CA7206
:104C100002790A73027A4A7301890A0A69468A7319
:104C200080680822000CC8733548009002A93548F6
:104C3000FFF736FF00282BD1606B00280BD03249DC
:104C4000009102792B4600E022E001682F48FFF72F
:104C500027FF00281CD1A06B002818D002786946D5
:104C60000A7242884A72120A8A728288CA72120AC8
:104C70000A73C0884873000A8873254800902B4641
:104C8000072202A92348FFF70BFF002800D10020CC
:104C900005B030BD2E2E5C2E2E5C2E2E5C2E2E5C92
:104CA0002E2E5C536F757263655C626C655C626C22
:104CB000655F73657276696365735C626C655F647A
:104CC00069732E6300000000302000200A180000E5
:104CD00032200020292A00003A200020242A000047
:104CE00042200020252A00004A200020272A000018
:104CF00052200020262A00005A200020282A0000E6
:104D000062200020232A00006A2000202A2A0000B6
:104D100072200020502A000008B50A88102A1AD0F4
:104D2000112A1AD0502A1BD1027D002A18D0891DC1
:104D30000A8843899A4213D10A8B022A10D1026849
:104D4000002A0DD0CA7E8B7E11021943C907C90FF4
:104D500007D0002106E0898801E00021C943418293
:104D600008BD0121009102686946904708BDF0B571
:104D7000054693B0086828600020C043688208791F
:104D80002875FF20287401270E46684687736449FA
:104D900081812A1D03A93846A0DF00287ED1287D05
:104DA000002400280DD001200146103168460194EE
:104DB0000171717B41718179F9200140891C68463C
:104DC0008171059406940794089409940A9469469D
:104DD0000B94087D02210843694608752A7DEF215E
:104DE000002A02D01022104300E008406A461075E5
:104DF000287D002800D001A80A900122684682720E
:104E0000484B03810094B37B0370F37B437080783D
:104E1000F9231840801CF72318400F4638404108FA
:104E2000490068468170317B017402A80C90684685
:104E30000E940F940D9002874487828704A81090E7
:104E4000A888AB1D0CAA05A9A2DF002832D1B06842
:104E500000282DD0012069468872334808810094CB
:104E6000307C0870002048708878F9210840801C48
:104E7000F72108403840400840006946887011A872
:104E8000B16800F035FD02A90C9169460E940F94AB
:104E90000D9108874C87888711A800E00AE01090E0
:104EA0002A46E8880E320CA9A3DF002802D100E0D0
:104EB000EC81204613B0F0BD33B486B00446694699
:104EC000227C097F00208A4222D001256846058283
:104ED0002174E08807AB04AA0021A4DF002817D1C1
:104EE000608A1249884216D0207D002813D0002005
:104EF000009001900290694603900D82E2880A803A
:104F00008D70888004A8029007A80390608AA6DFAD
:104F100008B030BC704708B030BC082070470000B3
:104F20000F180000192A000008290000FFFF0000E8
:104F300008B50A88102A17D0112A17D0502A18D17C
:104F4000891D0A8883899A4213D10A8B022A10D1BB
:104F50000268002A0DD0CA7E8B7E11021943C90750
:104F6000C90F07D0002106E0898801E00021C9436C
:104F7000018408BD0121009102686946904708BD7F
:104F8000F0B5044697B00868206008796071002089
:104F9000C04320840025222005554C2005530127BD
:104FA00008A80E468772994968460185A21D0AA97C
:104FB0003846A0DF00287DD1012001461031684627
:104FC00007950177317B4177817FF9221140891C58
:104FD00081770195009502950395049506950178D2
:104FE000102001436846017007A8059008A8877142
:104FF0008749684681840895717B08A80170B17B58
:1050000041708178E7201140891C0140394308A88C
:10501000817009A80B9008A80C900D950E950F951E
:1050200012AA0021204600F0ABF8014668468186AE
:105030001421C586018712A80F902346E088083303
:105040000BAA6946A2DF002838D1B068002834D006
:105050000395049505950695079508956846099565
:10506000017B022001436846017387716949818091
:105070000095F17B0170317C41708078F921084006
:10508000801CE7210840410849006846817001A85A
:105090000C9068460E950F9510950D9007874587E3
:1050A0008787B06823461090D88810330CAA03A9CC
:1050B000A2DF00E002E0002800D1002017B0F0BD20
:1050C00030B50546028C54488BB082421FD006AAE8
:1050D000284600F055F869460446088000200290F2
:1050E0000390049005902A890A8101228A7288819E
:1050F00006A804910590288C02A9A6DF002804D1F7
:1051000069460988A14200D00C200BB030BD0820B0
:105110000BB030BD70B5054604464035A8890E4633
:10512000142807D12622A118881E02F0E3FBA889C3
:10513000401EA88180B241000919401CA8818E84BC
:1051400070BD40308089142801D0002070470120B4
:105150007047028C304B9A4202D141710020704757
:105160000820704720308170704703B482B001215D
:105170006A461180008A03AB0021A4DF04B07047A7
:10518000F7B542790026002A00D004262222135CBB
:105190000222002B00D01643CBB2FF2907D90122EF
:1051A0001643029A090A53709170032502E002998E
:1051B00002254B7004464034A189002901D01022F9
:1051C00016430027002919DDAA1C142A09D989B21F
:1051D000C91B4A00790009182431243002F08AFBE7
:1051E0000CE07900029B0918898C5B191970090A77
:1051F0005970A1897F1CD5B2B942E5DCA089C01BDA
:10520000A08102980670284603B0F0BD0D1800007A
:10521000372A0000382A0000FFFF000038B5834914
:10522000834A488890420FD04A78824C521CD2B2AE
:105230004A70237B934208D37F4965DF002803D05F
:10524000A169002900D0884738BD00254D70217C18
:10525000002907D03B2166DF002803D0A16900297F
:1052600000D0884761690029EED0684600958847DC
:1052700038BD70B502463CCA6E490E463CC68469CC
:10528000436902698C614B61684C00250A61257095
:10529000006800280CD001882181418861818188C3
:1052A000A181C188E18164486ADF00280DD103E053
:1052B00061486BDF002808D10020C0436080657022
:1052C0005E4A00215E4800F0E5FB70BD10B557480E
:1052D000406800F072FC10BDF8B5564C07880026F7
:1052E000524A811CE389102F16D015466D68112F84
:1052F00022D0122F37D0502F1DD1801D0188994206
:1053000019D1018B022916D1C17E827E0802104379
:10531000C007C00F0DD11CE08088508088891082A2
:10532000C8895082088A9082488AD0825670002BA1
:1053300001D100F04BF8F8BD0020C04350805670FA
:10534000284600F03AFC0028F5D0A169002908D1D0
:10535000F8BD284600F031FC0028F9D0A1690029E9
:10536000F6D08847F8BD88881082C888508208899E
:1053700090824889D08200F029F8F8BDF8B52B4D0D
:1053800001882981418869818188A981C188E98151
:1053900029486ADF060010D12A48012441880838CC
:1053A000028891420BD34088814208D82148416944
:1053B000002902D06846009488473046F8BD2C701A
:1053C0001D49688865DF06466C70F6E7F8B51D482C
:1053D000184D4288083803880026144C69699A429F
:1053E0000AD34088824207D80120002902D00090C9
:1053F000684688472670F8BD2078002805D0002927
:10540000F8D0684600968847F4E7607800280BD00B
:10541000A9680022606800F066FB0028EAD0A9694C
:105420000029E7D08847E5E76968F2E77C2000209B
:10543000FFFF0000A0240020842000201D52010056
:10544000802000208C200020FFB585B0054602207A
:10545000864608980E9C02910090207801900027C3
:1054600028883E4600283FDD6868B1004018028861
:1054700069460A8240884882002203A904A854DFB2
:1054800000285CD16846017B714520D1002F01D0F6
:10549000002200E002222078891841181F294DD8E7
:1054A000002F07D1401CC0B2411C009B029A217002
:1054B0001A540127217800980A1803A904A854DF78
:1054C00000283CD169462078097B40182070288844
:1054D000761CB042C8DC002F06D021780198019AD2
:1054E000081A0099401E885407980290102086469A
:1054F00008980E9C009020780190002728883E464E
:10550000002842DD6868B1004018028869460A82B6
:1055100040884882002203A904A854DF00280ED145
:105520006846017B714523D1002F01D0002200E0A5
:1055300002222078891841181F2902D90C2009B0AD
:10554000F0BD002F07D1401CC1B2481C009B029A3D
:1055500020705A540127217800980A1803A904A83A
:1055600054DF0028EBD169462078097B4018207071
:105570002888761CB042C5DC002F06D0217801981F
:10558000019A081A0099401E8854002009B0F0BD05
:10559000F7B582B00026054616700068144600284C
:1055A00028D01D206946039F08802178B81C081860
:1055B00069466DDF00287DD12879002807D069462B
:1055C0000988884203D269460880082000E0092043
:1055D0008446684602882178521C481C20707A5400
:1055E00020786146421C2270395468462178008830
:1055F00008182070687900281CD02078039F001DAF
:105600001F287DD8684669DF002853D121780322FE
:10561000481C20707A5421781922481C20707A5432
:10562000217868460088C9190870000A48702078F7
:10563000801C2070298900291ED001208446EA6838
:105640000398002A7ED0227853189B1C1F2B57D812
:105650001346521C491C2270C15422786746511CC3
:105660002170875423782A891818E96802F0DEF837
:105670002078297A401820702869002815D0002148
:10568000415622788C46D01C03991F2838D8501CCC
:10569000022320708B5422780A23501C20708B54D4
:1056A00023786246581C2070CA54A88A00280BD060
:1056B000009400E076E02846062202211430039B85
:1056C000FFF7C2FE06006DD1A88B002809D028463E
:1056D0000094072203211C30039BFFF7B5FE060050
:1056E00060D1A88C002809D02846009415221421E6
:1056F0002430039BFFF7A8FE060053D1E86A00E0C0
:105700004FE0002840D0217884468E46891D0398BA
:105710001F2946D861460B88062B13D31922D201C4
:10572000724F934201D9BB420CD161464988062988
:1057300008D3914201D9B94204D1BB4205D0B94244
:1057400003D000E080E08B427ED87146491C0523DF
:1057500072462170835422781223511C2170835485
:1057600022786146098812181170090A517021784F
:10577000891CCAB222706146498810180170090A52
:1057800041702078801C2070286B002830D0009059
:1057900000792378801CC0B2811C5918039A1F29F4
:1057A00002D90C2005B0F0BD591C401C2170D0540A
:1057B0002178FF23481C20705354009821780088DA
:1057C00089180870000A48702078801CC0B22070C8
:1057D00000998B88002B0BD0896800294BD080184A
:1057E0001A4602F023F800982178007908182070F2
:1057F00028462030017E00293AD000956A6B039E2E
:10580000002A3BD000270190002930D90098416B35
:105810000C2078430D1828792178C01C705420780A
:105820001621401CC0B2207031542078401CC1B2F7
:105830002170288889190870000A48702078801C17
:10584000C0B22070AA8800E015E0002A09D0A9683B
:10585000002913D0801901F0E9FF20782979401838
:10586000207001987F1C007EFFB2B842CED800267F
:10587000304605B0F0BD072005B0F0BD072005B0EB
:10588000F0BD70B50D4692B000216A461170072434
:105890001171002812D00189002905D0C1680029A2
:1058A00002D00978490702D4204612B070BD02A97F
:1058B000FFF76EFE0028F8D102AE00E00026002DB2
:1058C0000BD028890028EFD101AA0AA92846FFF7A2
:1058D0005FFE0028E9D10AAA00E0002268460379A9
:1058E0000178304662DF12B070BD0000FFFF00009B
:1058F0000A780270497841700220704770B50446FA
:105900000D46084601F070FF2080656070BD000004
:10591000F8B5FD490020086048608860C860FB4910
:1059200008604860FA48C468611C39D0C178002713
:10593000491CCDB2022D00D10025F5488078854262
:1059400024D0F4484068F2490A69801A0602360AEF
:1059500028204443EE48416862189168B14215D846
:105960004369761ACF19546A002B0AD0116AD0699C
:105970009847002808D0FF21E7A25331FEF792FC98
:1059800002E0D169106A8847601CE1D1E048EE4A24
:10599000C17889005750C5700120EC4900050860A6
:1059A000F8BD10B500F0F7F910BDFFB581B00A9F42
:1059B0001C4615460E46980769D1002C67D0012079
:1059C000E34940040860E34940108860E249886088
:1059D000E249012048602F20FEF7C6FBCC48214653
:1059E0004761067044600020002E13D00A46283A12
:1059F0001039F30703D0283228311060087073087B
:105A000008D09062282778545032503110600870C6
:105A10005B1EF6D128214E433119BD4C0322627022
:105A2000A1600A460870183248708D704A601823C9
:105A30002E465E430872B71848728D72CF600874A4
:105A40004874F2198D744A610021C943E160A07065
:105A5000E0700121C24809050160C2480268C02304
:105A6000120A12021A430260BF480160A949019854
:105A70008860BE4A1068FF231B02984303239B03E0
:105A80001843106048682061002005B0F0BD072071
:105A900005B0F0BD70B49E4D6C68002C12D0002A89
:105AA00013D0002811D02D780023002D07DD2826E3
:105AB0005E43A659002E0BD05B1CAB42F7DB70BCDB
:105AC0000420704770BC0820704770BC07207047E6
:105AD000282501265D4366512C19E261616003604F
:105AE00070BC00207047F0B4894B5D68002D0CD06D
:105AF0001C78A04201D2052902D2F0BC07207047D1
:105B0000282444432E59012E02D0F0BC08207047AF
:105B100064196468012C14D00026954D6C68E40566
:105B2000E40D1ED0103C0ED527073F0F083FBF08DD
:105B3000BF007D19ED69A407E40EE5402C06A40F13
:105B40000BE00E46E9E7A5088A4FAD00ED192D6878
:105B5000A407E40EE5402C06A40F012C26D0032C4C
:105B600026D0022494469B68E200D5186B78AA7868
:105B70001C465B1C9A4200D100232A789A4219D015
:105B800018226F6854433A196B7013D001231360C5
:105B90005060604840681661D16090606046506116
:105BA0006A4918050860F0BC002070470024D9E756
:105BB0000124D7E7F0BC04207047554A51680029FA
:105BC00009D01378984201D3072070472823434314
:105BD000C958012901D008207047F0B4644B5968B6
:105BE0000424C905C90D00291CD010390CD50D0796
:105BF0002D0F083DAD08AD00EB18DB698907C90E14
:105C0000CB401906890F09E08B085A4D9B005B19A0
:105C10001B688907C90ECB401906890F01291FD0BF
:105C200003291FD002219268C9008A1851789578FB
:105C30000B46491C8D4200D10021167800258E426A
:105C400012D0182756687B43F31851700CD00221EC
:105C500019605860C8043D4908602846F0BC704788
:105C60000021E0E70121DEE72046F0BC704770B478
:105C7000274A5068002815D03D4B5868C105C90D0A
:105C8000042000291FD010390FD50C07240F083C21
:105C9000A408A400E318DB698907C90ECB401906E4
:105CA000890F0CE0082070BC70478B08314C9B00BA
:105CB0001B191B688907C90ECB401906890F0129DA
:105CC0005AD003295AD002219268C9008B185978FA
:105CD0009C780A46491C8C4200D100211D78002482
:105CE0008D42E0D018265D687243AA185970DAD048
:105CF00003201060001F5060012014490005086057
:105D0000204670BC70470000401101400011014066
:105D100094200020001501402E2E5C2E2E5C2E2E8D
:105D20005C2E2E5C2E2E5C536F757263655C617009
:105D3000705F636F6D6D6F6E5C6170705F74696DC5
:105D400065722E6300000000AC20002000E200E03D
:105D500080E100E0401301400013014000100140C9
:105D600080E200E014E400E000E100E010E400E084
:105D700000ED00E000E400E00021A5E70121A3E739
:105D8000E4494968016000207047401A0002000A97
:105D9000106000207047F0B5002095B0C043DE4988
:105DA00005900B690993C8680B908A78CC78A24259
:105DB00010D09400D94D521C2C59D2B204948A7040
:105DC000022A01D100228A70E2181202120A0A6124
:105DD000012201E000220492CF4910920F904978ED
:105DE00006914A1E0892D2B20792CB4A00299368C4
:105DF0000A9352680C9260D014460E930799CA0019
:105E00000E9955182B78697899424ED0182159432C
:105E10006A685B1C5118AA78DBB29A4200D1002351
:105E20000A68022A02D0032A3CD131E04E682821B8
:105E3000714309198C46097E002933D00246014678
:105E4000471C21D0B14207D00A46282151430919E5
:105E5000496A4F1CF6D117E0002F15D08A4203D1B2
:105E6000282670430019406A2826714309198F6853
:105E70007243496A121951624A1C05D028225143C3
:105E800009198E68F2198A6000216246117609E0CC
:105E9000411C07D000212822504300190176406A96
:105EA000421CF8D169789942B0D1079A511EC9B203
:105EB0000791002AA2D19849C86097480F99C068F5
:105EC000884201D0012100E000210F9110990029A2
:105ED00027D00023099D0499401C20D08E4A2820F9
:105EE000D468264646430C98301886688E4202D9FC
:105EF000711A816013E0891BF3180026866006760C
:105F0000466AD6604269002A07D0EF183F023F0A6E
:105F1000C7600261059A42620594761CDED10120B9
:105F20000F90059810907C48089AC0680699D2B2E4
:105F30000590069200296ED077490C9B096907915C
:105F40000A990E910699CA000E99551881E0109988
:105F5000491C06D0109A28215143C9184C6A109444
:105F60001EE0297818224A436C68491CC9B2A4185B
:105F70002970AA78914201D10021297062682821F4
:105F800051432668C918012E67D10E7E002E64D1B8
:105F9000A668CE60E6680E6126694E6164690C628F
:105FA000CE68079C5E4F341B2402240ABC4203D2F5
:105FB0000E69A4198C600AE0079CA41B24020E69D8
:105FC000240AA64201D9341B00E000248C6000247E
:105FD000CC600C6101240C76A41E4C622821514334
:105FE000C9188C46411C14D061468C682821414355
:105FF000C91889688C420FD828214143C91889687B
:106000000C1B28214143C9188C6061464862104628
:106010001FE010461DE02DE001460A9002E00A91C3
:10602000716AE41B4E1C0BD028264E43F618B76845
:10603000A742F4D328274F43FF18BF683F1BB76020
:106040006646B460644661620A9928246143C918AF
:106050004A621099491C00D079E729786A78914200
:10606000FAD1069A511EC9B20691002A00D069E7FA
:106070002949C86028490598CC68844202D10F9804
:10608000002836D00B9A2748274B651C33D028258B
:106090006C430C9D6419A6681E4C64680F69E11B73
:1060A0000D022D0AED1C521C0DD158601F4948608D
:1060B00001211F4A400010601E4A10601E48016006
:1060C0002F20FEF751F8B54200D23546E8190002FC
:1060D0001A49000A08600F494968001B091B090298
:1060E0000002090A000A814203D901201449400430
:1060F000086015B0F0BD0121124A49041160986092
:106100000A4988600C49012048602F20FEF72CF8CE
:1061100015B0F0BD0015014094200020AC200020F7
:10612000FFFF7F0000000100401301400013014009
:1061300080E200E000E100E0001001404015014075
:1061400000E200E080E100E010B508461146FEF7ED
:10615000B1F810BD30B4029D8C070ED100290CD0CF
:10616000204CE1602280A5601F49636010DF002899
:1061700001D1162023DF30BC704730BC07207047A8
:1061800038B5184C694620880880E06850DF05283B
:1061900009D0002803D015A25F21FEF783F86168BB
:1061A000E0688847EEE738BD38B50E4CA068002897
:1061B00007D08047002803D00CA27121FEF772F8A7
:1061C00038BD208869460880E06850DF0528F7D090
:1061D000002803D005A25F21FEF764F86168E0683B
:1061E0008847EEE7B4200020496101002E2E5C2E86
:1061F0002E5C2E2E5C2E2E5C2E2E5C536F757263E1
:10620000655C626C655C626C655F737461636B5F37
:1062100068616E646C65722E6300000070B505469F
:10622000012000070069502180B201F0ABFBFE4C59
:1062300001462079814201D8042070BD00280CD18C
:1062400000221146104600F0EBFE6081F748F84945
:10625000007801F02CF80028EFD12069132229469C
:10626000001D00F04EFF0028E7D1F24A4C212846DD
:1062700000F0D6FEF04960814118206900F023FF4C
:106280000028DAD12069503020612079401C20712B
:10629000002070BDF0B4E44800218170C1704778DF
:1062A0000A46002F29DDE54C682113464B43E4499B
:1062B00059184B7A5B0714D542235B5C002B10D036
:1062C000012B0ED0032B0CD0C3780E789C46DD003A
:1062D000DC4B1E315E55EB18596063465B1CC37086
:1062E00008E083780E78DD00665542312D195B1C7D
:1062F00069608370521CBA42D6DBF0BC7047F8B5B7
:10630000C94B1978002975D05A780021002A77D90D
:10631000CB4C68254D432D19ED8F85426CD148B289
:10632000411C6DD0C5B2521E954217DA68202F4627
:1063300047433E19311830466822FDF725FFE059E2
:10634000401EE051F06C411C01D0401EF064B64884
:106350006D1C4078EDB2401E8542E7DBB24D6821EE
:10636000687848430019683801F00AFB6878AF4E36
:10637000401E68703078AE4900F099FF002835D192
:106380007078B14900F093FF00282FD1307800F0E9
:10639000E1FE00282AD1707800F0DCFE002825D12B
:1063A000287168710646687800280BD96820704308
:1063B0000019FFF733FF002818D1761C6878F6B271
:1063C0008642F3D30026C0B200284AD96820704321
:1063D00007194C37012000070069502180B201F0F5
:1063E000D1FA0146687981420CD80420F8BD01E059
:1063F00006E001E00820F8BD491CC9B2914288D3EB
:106400000520F8BD00280CD100221146104600F0EE
:1064100007FEA88185488C49407800F048FF002895
:10642000EFD1686907223946001D00F06AFE002896
:10643000E7D1864A1C21384600F0F2FD7E49A8814A
:106440004118686900F03FFE0028DAD16869761CBF
:10645000203068616879F6B2401C687168788642BD
:10646000B4D3FFF717FF0020F8BDF0B56E4D04461A
:1064700028786E4E83B0002802D1B1680820884782
:1064800022886F4F7248172A7ED02FDC102A3FD007
:10649000112A7AD0142A79D16E4AE1881180218993
:1064A000518063899380A189D180E1891181238AF8
:1064B00053810022D24302606A780020002A66DD00
:1064C00068234343DB19DB8F8B4273D16821484338
:1064D000C11968225E48FDF757FE00225E492889EF
:1064E00071DF040064D0B1688847F2E15B49182A83
:1064F00075D0522A5CD10268521C63D0AA79002A56
:1065000060D0406E002862D0142861D90320FEE0DC
:106510004549A2880A8100214D4DC94329600722BF
:10652000A11D4F4801F082F900206866607BC10719
:1065300013D04008072804D2C1004248405607281B
:1065400003DBB1680320884723E068214843C11971
:1065500068223F48FDF718FE1BE03348002481788D
:10656000002916DD354D3F490091E0004019406893
:106570000622401C009901F009F900281BD02A4886
:10658000641C8078844203E02AE017E010E092E186
:10659000EBDB2F4801684A1C0AD07268002A07D03A
:1065A000012300936B461971C08FD88068469047CD
:1065B00003B0F0BD7BE1E0002856C6E70020A871DB
:1065C00003B0F0BD002211462889A9DF03E00021B5
:1065D00082B22889A9DF002854D103B0F0BD7DE143
:1065E000A41D21780029F8D10168491C04D01E4D52
:1065F000287800287DD02FE16A78E1880020002AE1
:1066000037DD68234343DB19DB8F8B422ED16821B2
:106610004843C11968220E48FDF7B6FD0C480088B2
:1066200080B2FFF76CFE24E0C4200020F424002098
:10663000D4200020CE2000200000DE45402800208D
:106640006825002078280020D8200020D0200020B5
:1066500000250020362500200A2500205025002096
:10666000422500204325002004250020401C9042A4
:10667000C7DBA8790128B0D1FB4800944578072DE5
:1066800001D3042043E02146F84C3222201D01F0C2
:10669000CDF80098F449C088E08700202560606646
:1066A000682068436D1C4D70C01968222146FDF7B3
:1066B0006BFDFFF7EFFDEC48002211460089A9DFD2
:1066C000002824D12046FFF7A9FD042802D0002885
:1066D0001DD10BE07168002919D0042000902078AA
:1066E0006A461071E08FD08068468847716800293B
:1066F00000E010E000D170E70020009020786A46AA
:106700001071E08FD0806846884703B0F0BDB16853
:10671000884703B0F0BD6978607881427ED1A9785E
:10672000A078CA07C307D20FDB0F9A4276D18A0737
:106730008307D20FDB0F9A4270D149074007C90F78
:10674000C00F81426AD1E978E078CA07C307D20F47
:10675000DB0F9A4262D18A078307D20FDB0F9A427E
:106760007AD149074007C90FC00F814274D12979F6
:106770002079CA07C307D20FDB0F9A426CD18A0770
:106780008307D20FDB0F9A4266D14A074307D20F25
:10679000DB0F9A4260D10A070307D20FDB0F9A4240
:1067A0005AD1C906C006C90FC00F814254D16979B8
:1067B0006079CA07C307D20FDB0F9A424CD18A0710
:1067C0008307D20FDB0F9A4246D14A074307D20F05
:1067D000DB0F9A4240D10A070307D20FDB0F9A4220
:1067E0003AD1C906C006C90FC00F814234D1EA8828
:1067F000E388A81DA11D9A422ED1827C8B7C9446F1
:10680000D207DF07D20FFF0FBA4225D162465208E6
:106810005B089A4220D1891C801C00E01CE000F03B
:10682000B5FF002818D1284621461A301A31102207
:1068300000F0ACFF00280FD1284621462A302A312B
:1068400002780B789A4207D10622491C401C00F0BE
:106850009DFF002800D15CE7844D32222146281D8F
:1068600000F0E4FFE088E8872846FFF7D7FC04281B
:1068700011D0002801D0B168884771680029EAD09A
:106880000320009028786A461071E88FD08068460F
:10689000884703B0F0BD71680029ECD00420009057
:1068A00028786A461071E88FD0806846E4E7401C7B
:1068B000904200DA04E600221146288971DF0028A0
:1068C00001D0B1688847002211462889A9DF040059
:1068D000DFD0B1682046884703B0F0BDA3791A071E
:1068E000120F1B09012A0DD0022AF5D1002BF3D07B
:1068F0000122AA710446406E002807D0142806D948
:10690000032009E0012BF3D803B0F0BD002182B2CF
:106910002889A9DF002801D0B1688847716800295B
:10692000F2D00220009020786A461071E08FD0806B
:106930006846884703B0F0BDF8B54B4C2078002876
:106940007ED04A484A4D0068401C1CD0142069463D
:1069500008806A4647492089AADF002871D1434947
:106960006A460868C86412884A6600286ADB61784B
:10697000884267DA682148430A464019691AFDF7D8
:1069800003FCFFF787FC00221146104600F048FB8D
:10699000694608806078002600280DDD31466820B1
:1069A000414348196A464C2100F03AFB6946088089
:1069B0006078761C8642F1DB088861892E4F884218
:1069C00014D0387800F0C6FB00284BD12071064661
:1069D000607800280ADD682070434019FFF71EFC2C
:1069E00000283FD16078761C8642F4DB00221146F5
:1069F000104600F015FB69460880607800260028E4
:106A00000EDD31466820414348194C306A461C214E
:106A100000F006FB694608806078761C8642F0DB51
:106A20000888A18988425BD0787800F093FB002821
:106A300018D1607106466078002851DD682002E0B8
:106A40001CE00FE01CE0704347194C3701200007A1
:106A50000069502180B200F095FF014660798142C3
:106A600010D80420F8BD0000C4200020002500201C
:106A70006825002050250020F42400200820F1E79C
:106A80000320EFE700280CD100221146104600F049
:106A9000C7FAA081FE48FF49407800F008FC0028B2
:106AA000E0D1606907223946001D00F02AFB00286A
:106AB000D8D1F94A1C21384600F0B2FAF749A08132
:106AC0004118606900F0FFFA0028CBD16069761C9C
:106AD000203060616079401C607160788642ADDB77
:106AE0000020C04320810146ED480160C1640021BF
:106AF00041660846B6E7F8B5E94C606E002801D05B
:106B00000820F8BD142069460880E7486A46E54930
:106B10000089AADF0028F4D120686822E34B4243B1
:106B2000D2186946E0640988E14B61661746DE6960
:106B30009D695C694C3771C7186A5B6A1366516658
:106B4000D065DC4800F024FAF8BDD7480178002968
:106B500001D10820704770B5002444700471CC4DF9
:106B60004471287800F0F6FA002805D1687800F022
:106B7000F1FA002800D1204670BD10B50B46411C2B
:106B80000CD0C9494978884208DA002B06D0682120
:106B90004843C6494118487A400701D5072010BD2F
:106BA00042310722184600F041FE002010BDF1B529
:106BB000BD48C778002F41D000240721384600F097
:106BC000E1FE0023BC48BD4A002908DDE5002D1880
:106BD000A6006D68641C5B1C95518B42F6DBB942C4
:106BE0002CDAE3001B18A5005B685351641CE3001A
:106BF0001B18A5005B685351641CE3001B18A5001B
:106C00005B685351641CE3001B18A5005B6853517B
:106C1000641CE3001B18A5005B685351641CE3006F
:106C20001B18A5005B685351641CE3001B18A500EA
:106C30005B68641CC91D5351B942D2DB9A48857800
:106C4000002D42D000240721284600F09BFE0020A2
:106C50009B4A002909DD9B4BE600F318A6005B6800
:106C6000641C401C93518842F5DBA9422DDA9548FB
:106C7000E3001B18A6005B689351641CE3001B181B
:106C8000A6005B689351641CE3001B18A6005B68B8
:106C90009351641CE3001B18A6005B689351641CAD
:106CA000E3001B18A6005B689351641CE3001B18EB
:106CB000A6005B689351641CE3001B18A6005B6888
:106CC000641CC91D9351A942D2DB0098002D0571A7
:106CD00001D07B4900E000210098002F016000985E
:106CE000077301D0754900E0002100988160002001
:106CF000F8BD8168002909D00122120712692323F7
:106D000092B21B019A4203D20C20704707207047B1
:106D1000F0B56B4A436897B00068D3631164906321
:106D200068215F4800F02CFE00265D48F6435E4C6B
:106D3000066026810025657025716571544FA57127
:106D4000B878002809D0387800F004FA00283DD13E
:106D5000787800F0FFF9002838D15B4F6570207912
:106D600002AE00280CD100221146104600F058F95E
:106D7000608147485549007800F099FA00281CD1F5
:106D800021690868020CBA4214D185B24C22091D4F
:106D90003046FDF7F9F94E4A4C21304600F040F9F3
:106DA0006081A84211D12079401C207120695030A7
:106DB000206106E0401C21D00B2005281ED00028B1
:106DC00004D16078029D854202DD0B2017B0F0BD32
:106DD00028466821484335494C224018064602A9F6
:106DE000FDF7D2F96078854205D100217166491E10
:106DF000401CF1646070C0B20728B0D3002000903E
:106E00006078002875DD607902AE00280CD1002280
:106E10001146104600F004F9A0811D481D49407834
:106E200000F045FA002824D16069274A01680B0C5C
:106E300093421BD18DB2011D8EC905970493039215
:106E4000029182694169C069079206910890124ACD
:106E50001C21304600F0E4F8A081A842B5D1607949
:106E6000401C607160692030606106E0491C40D0C0
:106E70000B2005283DD00028A8D1607802998142D6
:106E8000A3DC68225143094A891802AA6CCA22E08D
:106E9000F4240020D8200020D02000200000DE456F
:106EA0000025002050250020C42000206825002057
:106EB0003C2500204C25002078280020D8240020E4
:106EC000BC24002040280020DE450000D420002003
:106ED000CE2000200DE00F464C376CC7089D079B65
:106EE000069A4D660B66CA650099491C009181425D
:106EF00089DB607807210B1A002B11DD68214843DC
:106F00004149002642181146104664314C30751E26
:106F100015600E6005606832683168305B1EF7D11D
:106F2000FFF7B8F901202070002017B0F0BD374AF4
:106F30001378002B07D0002907D00B885278934292
:106F400005D20C207047082070470E2070470A8039
:106F50000028FBD030B40021002A09DD2A4C682328
:106F60004B431B194D00DB8F491C43539142F6DB09
:106F700030BC0020704725490A78002A06D089795C
:106F8000002900D0012101700020704708207047BF
:106F900070B50546012000070069502180B200F05D
:106FA000F1FC1A4C01466079814201D8042070BD81
:106FB00000280CD100221146104600F031F8A081C3
:106FC00013481449407800F072F90028EFD1606945
:106FD00007222946001D00F094F80028E7D10E4A48
:106FE0001C21284600F01CF80C49A081411860695A
:106FF00000F069F80028DAD16069203060616079BA
:10700000401C6071002070BD68250020C420002055
:10701000F4240020D8200020D02000200000DE45ED
:10702000F0B40546002A4CD010884A1E002A36DDEE
:1070300001266B1ECC07F607A4190ED0040A000225
:1070400004435B1C187860400406240F444020036E
:10705000604084B22006C00C60405E7852101ED0A2
:10706000070A0002074377403806000F78400603FE
:107070004640B0B20606F70C47409B1C380A1C7805
:107080003F02384360400406240F44402003604020
:1070900084B22006C00C5E786040521EE0D1491ECA
:1070A0000DD4020A00020243685C50400106090F39
:1070B00041400803484081B20806C00C4840F0BC7B
:1070C00070478048B1E7F0B47F4C064620780D4603
:1070D000002803D03DDF20780028FBD17B49012028
:1070E00048607B4A10680028FCD035601068002892
:1070F000FCD00020486010680028FCD0F0BC0020C4
:107100007047F7B5002496460646002A1FD96E4DF3
:107110000198A10047582878002803D03DDF28783F
:107120000028FBD169490120486069480268002AAB
:10713000FCD037600268002AFCD000224A60016857
:107140000029FCD0641C361DA4B27445E0D3002095
:1071500003B0F0BD0121090709695C4B8AB24243C3
:10716000022058605A4801680029FCD09A600168E2
:107170000029FCD00021596001680029FCD00020C2
:107180007047F8B58C4601210907096917468EB288
:1071900046439100002260460096FFF741FF864675
:1071A000308881B2714559D0484D022100986960FC
:1071B000474C21680029FCD0A86020680028FCD03A
:1071C0000020686020680028FCD008360022002FCC
:1071D00014DD012190006346185869602368002B74
:1071E000FCD0306020680028FCD000206860206857
:1071F0000028FCD0361D521CBA42EBDB324E3078F0
:10720000002803D03DDF30780028FBD101206860E2
:1072100020680028FCD00098476020680028FCD037
:107220000020686020680028FCD02A497046471872
:107230003078002803D03DDF30780028FBD10120D2
:10724000686020680028FCD000980760206800284B
:10725000FCD00020686020680028FCD00020F8BD29
:10726000F8B50F46012109070969144689B241435F
:107270000D68184E280C0004B04203D00020107096
:107280000520F8BD091D087820708200091D3846C8
:10729000FCF77AFF2078002281003846FFF7C0FE15
:1072A0008019A84201D00520F8BD0020F8BD0122B8
:1072B0001207126992B2424300200A6070470249E5
:1072C00008707047FFFF0000DC20002000E501404F
:1072D00000E401400000DE45F8B5614E0446694611
:1072E000707800F02DFA00282CD10099F0680A4639
:1072F0000140B06890430843044023D03078002513
:1073000000281FD901270C207168684342181078A3
:1073100039468140214210D09268002A0DD073690D
:10732000002B09D0014610469847002805D04DA2F1
:107330002921FCF7B7FF00E090476D1C3078EDB2D3
:107340008542E0D3F8BD70B5454D04460E46A869A8
:10735000FEF733FC002805D1344322462969A86989
:10736000FEF7C1FB70BD052A01D207207047F8B5B2
:107370003B4C60602170636122610022E2604B1E21
:10738000A260DCB2002920D0424F13460C21614399
:107390000E18317875688900AD00C9190D607578CF
:1073A000002D01D0012100E000213678B1400B43CF
:1073B000002D19D00021B1400A432146641EE4B2D9
:1073C0000029E3D12648C36082602548324B826899
:1073D000C168324800F003F9002804D1304A002186
:1073E0003048FEF757FBF8BD0121E4E71C4841682F
:1073F000002901D10820704710B5407800F02AF923
:1074000010BD10B5164C6068002808D0607800F0F8
:1074100066F9002802D1A069FEF7CFFB10BD082055
:1074200010BDF8B50E4C064660680D4600280ED01B
:107430006946607800F084F9002809D1012200989B
:10744000B240024205D0E068104005D105E00820B6
:10745000F8BDA068104000D0012028700020F8BDC1
:10746000E02000202E2E5C2E2E5C2E2E5C2E2E5C1C
:107470002E2E5C536F757263655C6170705F636F15
:107480006D6D6F6E5C6170705F627574746F6E2E7F
:10749000630000000007005047730100E120002056
:1074A000D9720100F82000201049012208785040CC
:1074B00008704968002900D00847704730B4054675
:1074C0000A480C464260152027DF00280BD12946C8
:1074D000152028DF002806D1152023DF002802D13F
:1074E0002146032049DF30BC70470000FC2000200B
:1074F000F8B59E48006900909D490020C863044685
:107500009C48417800293FD903273F041420214695
:1075100041439848426880688A180121A14001428D
:107520002CD0D068C343009843401068034000202B
:1075300001258540194629420FD0D6683146294297
:1075400023D03946AE43D6608B4D860075192E6820
:10755000BE432E602E680E432E60401C2028E7D3C9
:10756000009891681D4685432940009D50681D4044
:10757000284003460B4301D0126990477D48641CA4
:107580004078E4B28442C1D3F8BD012149042E43BE
:10759000D9E7002901D08A0701D00720704710B52C
:1075A000744A0B4651601070002151709160142193
:1075B0004143184600F0E4F900207049C043886058
:1075C0006F48402101606F484268FF231B049A43C3
:1075D0000B04D21842606C480160002010BDF0B46A
:1075E000844664484568002D08D0002B09D04478B3
:1075F0000678B44208D3F0BC04207047F0BC0820E1
:107600007047F0BC072070470F46142617436643A7
:10761000AF5176193361B260716061460C70611CC4
:107620004170142100204C430122534B03273F0497
:107630002E59114681400E4206D08100C9180E68AD
:10764000BE430E600E680E60401C2028F0D3F0BCD4
:1076500000207047F0B4474C6268002A05D061787A
:10766000884205D3F0BC07207047F0BC0820704763
:107670003F490025CD633D4909698C46A168002931
:1076800003D101233D4EDB077360012686400E4384
:10769000142148438118A660CD60032500212D04E4
:1076A0008618012413588C40234212D0634623428B
:1076B00001D02B4604E00123F7685B042743F76001
:1076C0002D4C8F003C192768AF43276027681F4364
:1076D0002760491C2029E4D3F0BC00207047F0B497
:1076E000244A5568002D05D05178884205D3F0BC56
:1076F00007207047F0BC0820704714220021424345
:10770000012403273F04AE5823468B401E4207D076
:10771000194E8B009B191E68BE431E601E681E60BA
:10772000491C2029EFD3134984408868A04388600E
:1077300003D101201149C0078860F0BC00207047C8
:107740000C4B5A68002A04D05B78984203D3072078
:10775000704708207047142358438018034A126961
:107760000068024000200A607047000000050050D9
:1077700040610040042100200007005000630040E9
:1077800080E200E000E400E000E100E0034610B524
:107790000B439B070FD1042A0DD308C810C9121F31
:1077A000A342F8D018BA21BA884201D9012010BDED
:1077B0000020C04310BD002A03D0D30703D0521CC1
:1077C00007E0002010BD03780C78401C491C1B1BEF
:1077D00007D103780C78401C491C1B1B01D1921E59
:1077E000F1D1184610BD000030B5441C03E001780B
:1077F000401C00290DD08107F9D10B4BDD0104C8D5
:10780000D11A91432940FAD0001B0A0603D0C01EAA
:1078100030BD001B30BD0A0401D0801E30BD0902FE
:10782000FCD0401E30BD000001010101F8B5042A62
:107830002CD3830712D00B78491C0370401C521EB6
:1078400083070BD00B78491C0370401C521E830722
:1078500004D00B78491C0370401C521E8B079B0FF1
:1078600005D0C91ADF002023DE1B08C90AE0FCF797
:107870008BFCF8BD1D4608C9FD401C46B4402C4396
:1078800010C0121F042AF5D2F308C91A521EF0D4F0
:107890000B78491C0370401C521EEAD40B78491C1B
:1078A0000370401C521EE4D409780170F8BD431ADD
:1078B00070B593421BD28918801804E0491E521EED
:1078C0000B78401E03709307F8D106E010390B4681
:1078D0001038103A78CB78C01038102AF6D203E06E
:1078E000001F091F0B680360121FF9D570BDFCF75C
:1078F0004BFC70BDF8B5064614460843800707D018
:10790000751AA54219D20819102D13D2311907E0A2
:107910003046FFF7CCFFF8BD401E491E02780A70C2
:10792000641EF9D2F8BD471B2A463946FFF77EFF91
:10793000641B3846A542F6D3011B22463046FFF7AA
:1079400075FFF8BD01E004C0091F0429FBD28B07B5
:1079500001D50280801CC90700D002707047002941
:107960000BD0C30702D00270401C491E022904D369
:10797000830702D50280801C891EE3E70022EEE720
:107980000022DFE7002203098B4273D3030A8B42F4
:1079900058D3030B8B423CD3030C8B4221D312E010
:1079A00003460B437FD4002243088B4274D3030960
:1079B0008B425FD3030A8B4244D3030B8B4228D301
:1079C000030C8B420DD3FF22090212BA030C8B4227
:1079D00002D31212090265D0030B8B4219D300E0C7
:1079E000090AC30B8B4201D3CB03C01A5241830B4C
:1079F0008B4201D38B03C01A5241430B8B4201D3FC
:107A00004B03C01A5241030B8B4201D30B03C01A24
:107A10005241C30A8B4201D3CB02C01A5241830A9E
:107A20008B4201D38B02C01A5241430A8B4201D3CD
:107A30004B02C01A5241030A8B4201D30B02C01AF7
:107A40005241CDD2C3098B4201D3CB01C01A52415E
:107A500083098B4201D38B01C01A524143098B42E7
:107A600001D34B01C01A524103098B4201D30B01D0
:107A7000C01A5241C3088B4201D3CB00C01A5241F5
:107A800083088B4201D38B00C01A524143088B42BA
:107A900001D34B00C01A5241411A00D20146524153
:107AA000104670475DE0CA0F00D04942031000D372
:107AB0004042534000229C4603098B422DD3030AC7
:107AC0008B4212D3FC22890112BA030A8B420CD3D7
:107AD000890192118B4208D3890192118B4204D300
:107AE00089013AD0921100E08909C3098B4201D380
:107AF000CB01C01A524183098B4201D38B01C01ABA
:107B0000524143098B4201D34B01C01A5241030930
:107B10008B4201D30B01C01A5241C3088B4201D3DF
:107B2000CB00C01A524183088B4201D38B00C01A8C
:107B30005241D9D243088B4201D34B00C01A524163
:107B4000411A00D20146634652415B10104601D3F0
:107B50004042002B00D54942704763465B1000D37A
:107B6000404201B50020C046C04602BD7047704784
:107B70007047754600F022F8AE4605006946534648
:107B8000C008C000854618B020B5FCF729FB60BCD2
:107B900000274908B6460026C0C5C0C5C0C5C0C537
:107BA000C0C5C0C5C0C5C0C5403D49008D46704771
:107BB0000446C046C0462046FCF7CFFA004870474E
:107BC000B028002001491820ABBEFEE726000200C5
:107BD000704700000D1801000F1801000A1801007D
:107BE000007C010000200020100100000441010081
:107BF000107D01001021002000180000204101002C
:107C00000024F400FFFF000000000000000000005E
:107C10000000000000000000100000000300000051
:107C20001F43010011000000030000001F4301007A
:107C30000000000000000000000000000000000044
:107C40000000000000000000000000000000000034
:107C50000000000000000000000000000000000024
:107C60000000000000000000000000000000000014
:107C70000000000000000000000000000000000004
:107C800000000000000000000000000000000000F4
:107C900000000000000000000000000000000000E4
:107CA00000000000000000000000000000000000D4
:107CB00000000000000000000000000000000000C4
:107CC00000000000000000000000000000000000B4
:107CD00000000000000000000000000000000000A4
:107CE0000000000000000000000000000000000094
:107CF0000000000000000000000000000000000084
:107D00000000000000000000000000000000000073
:04000005000140C1F5
:00000001FF
